{
  "_format": "hh-sol-artifact-1",
  "contractName": "IPPYNFT",
  "sourceName": "contracts/IPPYNFT.sol",
  "abi": [
    {
      "inputs": [],
      "stateMutability": "nonpayable",
      "type": "constructor"
    },
    {
      "inputs": [],
      "name": "ERC721EnumerableForbiddenBatchMint",
      "type": "error"
    },
    {
      "inputs": [
        {
          "internalType": "address",
          "name": "sender",
          "type": "address"
        },
        {
          "internalType": "uint256",
          "name": "tokenId",
          "type": "uint256"
        },
        {
          "internalType": "address",
          "name": "owner",
          "type": "address"
        }
      ],
      "name": "ERC721IncorrectOwner",
      "type": "error"
    },
    {
      "inputs": [
        {
          "internalType": "address",
          "name": "operator",
          "type": "address"
        },
        {
          "internalType": "uint256",
          "name": "tokenId",
          "type": "uint256"
        }
      ],
      "name": "ERC721InsufficientApproval",
      "type": "error"
    },
    {
      "inputs": [
        {
          "internalType": "address",
          "name": "approver",
          "type": "address"
        }
      ],
      "name": "ERC721InvalidApprover",
      "type": "error"
    },
    {
      "inputs": [
        {
          "internalType": "address",
          "name": "operator",
          "type": "address"
        }
      ],
      "name": "ERC721InvalidOperator",
      "type": "error"
    },
    {
      "inputs": [
        {
          "internalType": "address",
          "name": "owner",
          "type": "address"
        }
      ],
      "name": "ERC721InvalidOwner",
      "type": "error"
    },
    {
      "inputs": [
        {
          "internalType": "address",
          "name": "receiver",
          "type": "address"
        }
      ],
      "name": "ERC721InvalidReceiver",
      "type": "error"
    },
    {
      "inputs": [
        {
          "internalType": "address",
          "name": "sender",
          "type": "address"
        }
      ],
      "name": "ERC721InvalidSender",
      "type": "error"
    },
    {
      "inputs": [
        {
          "internalType": "uint256",
          "name": "tokenId",
          "type": "uint256"
        }
      ],
      "name": "ERC721NonexistentToken",
      "type": "error"
    },
    {
      "inputs": [
        {
          "internalType": "address",
          "name": "owner",
          "type": "address"
        },
        {
          "internalType": "uint256",
          "name": "index",
          "type": "uint256"
        }
      ],
      "name": "ERC721OutOfBoundsIndex",
      "type": "error"
    },
    {
      "inputs": [
        {
          "internalType": "address",
          "name": "owner",
          "type": "address"
        }
      ],
      "name": "OwnableInvalidOwner",
      "type": "error"
    },
    {
      "inputs": [
        {
          "internalType": "address",
          "name": "account",
          "type": "address"
        }
      ],
      "name": "OwnableUnauthorizedAccount",
      "type": "error"
    },
    {
      "anonymous": false,
      "inputs": [
        {
          "indexed": true,
          "internalType": "address",
          "name": "owner",
          "type": "address"
        },
        {
          "indexed": true,
          "internalType": "address",
          "name": "approved",
          "type": "address"
        },
        {
          "indexed": true,
          "internalType": "uint256",
          "name": "tokenId",
          "type": "uint256"
        }
      ],
      "name": "Approval",
      "type": "event"
    },
    {
      "anonymous": false,
      "inputs": [
        {
          "indexed": true,
          "internalType": "address",
          "name": "owner",
          "type": "address"
        },
        {
          "indexed": true,
          "internalType": "address",
          "name": "operator",
          "type": "address"
        },
        {
          "indexed": false,
          "internalType": "bool",
          "name": "approved",
          "type": "bool"
        }
      ],
      "name": "ApprovalForAll",
      "type": "event"
    },
    {
      "anonymous": false,
      "inputs": [
        {
          "indexed": true,
          "internalType": "address",
          "name": "to",
          "type": "address"
        },
        {
          "indexed": true,
          "internalType": "uint256",
          "name": "tokenId",
          "type": "uint256"
        },
        {
          "indexed": true,
          "internalType": "uint256",
          "name": "nftType",
          "type": "uint256"
        },
        {
          "indexed": false,
          "internalType": "bool",
          "name": "isHidden",
          "type": "bool"
        }
      ],
      "name": "NFTMinted",
      "type": "event"
    },
    {
      "anonymous": false,
      "inputs": [
        {
          "indexed": true,
          "internalType": "address",
          "name": "previousOwner",
          "type": "address"
        },
        {
          "indexed": true,
          "internalType": "address",
          "name": "newOwner",
          "type": "address"
        }
      ],
      "name": "OwnershipTransferred",
      "type": "event"
    },
    {
      "anonymous": false,
      "inputs": [
        {
          "indexed": true,
          "internalType": "address",
          "name": "from",
          "type": "address"
        },
        {
          "indexed": true,
          "internalType": "address",
          "name": "to",
          "type": "address"
        },
        {
          "indexed": true,
          "internalType": "uint256",
          "name": "tokenId",
          "type": "uint256"
        }
      ],
      "name": "Transfer",
      "type": "event"
    },
    {
      "inputs": [],
      "name": "HIDDEN_NFT_ID",
      "outputs": [
        {
          "internalType": "uint256",
          "name": "",
          "type": "uint256"
        }
      ],
      "stateMutability": "view",
      "type": "function"
    },
    {
      "inputs": [],
      "name": "STANDARD_NFT_1",
      "outputs": [
        {
          "internalType": "uint256",
          "name": "",
          "type": "uint256"
        }
      ],
      "stateMutability": "view",
      "type": "function"
    },
    {
      "inputs": [],
      "name": "STANDARD_NFT_2",
      "outputs": [
        {
          "internalType": "uint256",
          "name": "",
          "type": "uint256"
        }
      ],
      "stateMutability": "view",
      "type": "function"
    },
    {
      "inputs": [],
      "name": "STANDARD_NFT_3",
      "outputs": [
        {
          "internalType": "uint256",
          "name": "",
          "type": "uint256"
        }
      ],
      "stateMutability": "view",
      "type": "function"
    },
    {
      "inputs": [],
      "name": "STANDARD_NFT_4",
      "outputs": [
        {
          "internalType": "uint256",
          "name": "",
          "type": "uint256"
        }
      ],
      "stateMutability": "view",
      "type": "function"
    },
    {
      "inputs": [],
      "name": "STANDARD_NFT_5",
      "outputs": [
        {
          "internalType": "uint256",
          "name": "",
          "type": "uint256"
        }
      ],
      "stateMutability": "view",
      "type": "function"
    },
    {
      "inputs": [],
      "name": "STANDARD_NFT_6",
      "outputs": [
        {
          "internalType": "uint256",
          "name": "",
          "type": "uint256"
        }
      ],
      "stateMutability": "view",
      "type": "function"
    },
    {
      "inputs": [
        {
          "internalType": "address",
          "name": "to",
          "type": "address"
        },
        {
          "internalType": "uint256",
          "name": "tokenId",
          "type": "uint256"
        }
      ],
      "name": "approve",
      "outputs": [],
      "stateMutability": "nonpayable",
      "type": "function"
    },
    {
      "inputs": [
        {
          "internalType": "address",
          "name": "owner",
          "type": "address"
        }
      ],
      "name": "balanceOf",
      "outputs": [
        {
          "internalType": "uint256",
          "name": "",
          "type": "uint256"
        }
      ],
      "stateMutability": "view",
      "type": "function"
    },
    {
      "inputs": [],
      "name": "blindBoxContract",
      "outputs": [
        {
          "internalType": "address",
          "name": "",
          "type": "address"
        }
      ],
      "stateMutability": "view",
      "type": "function"
    },
    {
      "inputs": [
        {
          "internalType": "uint256",
          "name": "tokenId",
          "type": "uint256"
        }
      ],
      "name": "getApproved",
      "outputs": [
        {
          "internalType": "address",
          "name": "",
          "type": "address"
        }
      ],
      "stateMutability": "view",
      "type": "function"
    },
    {
      "inputs": [],
      "name": "getGlobalNFTStats",
      "outputs": [
        {
          "internalType": "uint256[]",
          "name": "types",
          "type": "uint256[]"
        },
        {
          "internalType": "uint256[]",
          "name": "counts",
          "type": "uint256[]"
        },
        {
          "internalType": "string[]",
          "name": "typeNames",
          "type": "string[]"
        },
        {
          "internalType": "uint256",
          "name": "totalMinted",
          "type": "uint256"
        }
      ],
      "stateMutability": "view",
      "type": "function"
    },
    {
      "inputs": [
        {
          "internalType": "uint256",
          "name": "tokenId",
          "type": "uint256"
        }
      ],
      "name": "getNFTType",
      "outputs": [
        {
          "internalType": "uint256",
          "name": "",
          "type": "uint256"
        }
      ],
      "stateMutability": "view",
      "type": "function"
    },
    {
      "inputs": [
        {
          "internalType": "uint256",
          "name": "nftType",
          "type": "uint256"
        }
      ],
      "name": "getNFTTypeName",
      "outputs": [
        {
          "internalType": "string",
          "name": "",
          "type": "string"
        }
      ],
      "stateMutability": "pure",
      "type": "function"
    },
    {
      "inputs": [
        {
          "internalType": "address",
          "name": "user",
          "type": "address"
        }
      ],
      "name": "getUserNFTTypeCounts",
      "outputs": [
        {
          "internalType": "uint256[]",
          "name": "types",
          "type": "uint256[]"
        },
        {
          "internalType": "uint256[]",
          "name": "counts",
          "type": "uint256[]"
        },
        {
          "internalType": "string[]",
          "name": "typeNames",
          "type": "string[]"
        }
      ],
      "stateMutability": "view",
      "type": "function"
    },
    {
      "inputs": [
        {
          "internalType": "address",
          "name": "user",
          "type": "address"
        }
      ],
      "name": "getUserNFTs",
      "outputs": [
        {
          "internalType": "uint256[]",
          "name": "tokenIds",
          "type": "uint256[]"
        },
        {
          "internalType": "uint256[]",
          "name": "nftTypes",
          "type": "uint256[]"
        },
        {
          "internalType": "string[]",
          "name": "tokenURIs",
          "type": "string[]"
        },
        {
          "internalType": "string[]",
          "name": "typeNames",
          "type": "string[]"
        }
      ],
      "stateMutability": "view",
      "type": "function"
    },
    {
      "inputs": [
        {
          "internalType": "address",
          "name": "user",
          "type": "address"
        },
        {
          "internalType": "uint256",
          "name": "nftType",
          "type": "uint256"
        }
      ],
      "name": "getUserNFTsByType",
      "outputs": [
        {
          "internalType": "uint256[]",
          "name": "tokenIds",
          "type": "uint256[]"
        }
      ],
      "stateMutability": "view",
      "type": "function"
    },
    {
      "inputs": [
        {
          "internalType": "address",
          "name": "owner",
          "type": "address"
        },
        {
          "internalType": "address",
          "name": "operator",
          "type": "address"
        }
      ],
      "name": "isApprovedForAll",
      "outputs": [
        {
          "internalType": "bool",
          "name": "",
          "type": "bool"
        }
      ],
      "stateMutability": "view",
      "type": "function"
    },
    {
      "inputs": [
        {
          "internalType": "address",
          "name": "to",
          "type": "address"
        },
        {
          "internalType": "uint256",
          "name": "randomIndex",
          "type": "uint256"
        }
      ],
      "name": "mint",
      "outputs": [
        {
          "internalType": "uint256",
          "name": "",
          "type": "uint256"
        }
      ],
      "stateMutability": "nonpayable",
      "type": "function"
    },
    {
      "inputs": [],
      "name": "name",
      "outputs": [
        {
          "internalType": "string",
          "name": "",
          "type": "string"
        }
      ],
      "stateMutability": "view",
      "type": "function"
    },
    {
      "inputs": [
        {
          "internalType": "uint256",
          "name": "",
          "type": "uint256"
        }
      ],
      "name": "nftTypeCounts",
      "outputs": [
        {
          "internalType": "uint256",
          "name": "",
          "type": "uint256"
        }
      ],
      "stateMutability": "view",
      "type": "function"
    },
    {
      "inputs": [],
      "name": "owner",
      "outputs": [
        {
          "internalType": "address",
          "name": "",
          "type": "address"
        }
      ],
      "stateMutability": "view",
      "type": "function"
    },
    {
      "inputs": [
        {
          "internalType": "uint256",
          "name": "tokenId",
          "type": "uint256"
        }
      ],
      "name": "ownerOf",
      "outputs": [
        {
          "internalType": "address",
          "name": "",
          "type": "address"
        }
      ],
      "stateMutability": "view",
      "type": "function"
    },
    {
      "inputs": [],
      "name": "renounceOwnership",
      "outputs": [],
      "stateMutability": "nonpayable",
      "type": "function"
    },
    {
      "inputs": [
        {
          "internalType": "address",
          "name": "from",
          "type": "address"
        },
        {
          "internalType": "address",
          "name": "to",
          "type": "address"
        },
        {
          "internalType": "uint256",
          "name": "tokenId",
          "type": "uint256"
        }
      ],
      "name": "safeTransferFrom",
      "outputs": [],
      "stateMutability": "nonpayable",
      "type": "function"
    },
    {
      "inputs": [
        {
          "internalType": "address",
          "name": "from",
          "type": "address"
        },
        {
          "internalType": "address",
          "name": "to",
          "type": "address"
        },
        {
          "internalType": "uint256",
          "name": "tokenId",
          "type": "uint256"
        },
        {
          "internalType": "bytes",
          "name": "data",
          "type": "bytes"
        }
      ],
      "name": "safeTransferFrom",
      "outputs": [],
      "stateMutability": "nonpayable",
      "type": "function"
    },
    {
      "inputs": [
        {
          "internalType": "address",
          "name": "operator",
          "type": "address"
        },
        {
          "internalType": "bool",
          "name": "approved",
          "type": "bool"
        }
      ],
      "name": "setApprovalForAll",
      "outputs": [],
      "stateMutability": "nonpayable",
      "type": "function"
    },
    {
      "inputs": [
        {
          "internalType": "address",
          "name": "_blindBoxContract",
          "type": "address"
        }
      ],
      "name": "setBlindBoxContract",
      "outputs": [],
      "stateMutability": "nonpayable",
      "type": "function"
    },
    {
      "inputs": [
        {
          "internalType": "bytes4",
          "name": "interfaceId",
          "type": "bytes4"
        }
      ],
      "name": "supportsInterface",
      "outputs": [
        {
          "internalType": "bool",
          "name": "",
          "type": "bool"
        }
      ],
      "stateMutability": "view",
      "type": "function"
    },
    {
      "inputs": [],
      "name": "symbol",
      "outputs": [
        {
          "internalType": "string",
          "name": "",
          "type": "string"
        }
      ],
      "stateMutability": "view",
      "type": "function"
    },
    {
      "inputs": [
        {
          "internalType": "uint256",
          "name": "index",
          "type": "uint256"
        }
      ],
      "name": "tokenByIndex",
      "outputs": [
        {
          "internalType": "uint256",
          "name": "",
          "type": "uint256"
        }
      ],
      "stateMutability": "view",
      "type": "function"
    },
    {
      "inputs": [
        {
          "internalType": "uint256",
          "name": "",
          "type": "uint256"
        }
      ],
      "name": "tokenIdToNFTType",
      "outputs": [
        {
          "internalType": "uint256",
          "name": "",
          "type": "uint256"
        }
      ],
      "stateMutability": "view",
      "type": "function"
    },
    {
      "inputs": [
        {
          "internalType": "address",
          "name": "owner",
          "type": "address"
        },
        {
          "internalType": "uint256",
          "name": "index",
          "type": "uint256"
        }
      ],
      "name": "tokenOfOwnerByIndex",
      "outputs": [
        {
          "internalType": "uint256",
          "name": "",
          "type": "uint256"
        }
      ],
      "stateMutability": "view",
      "type": "function"
    },
    {
      "inputs": [
        {
          "internalType": "uint256",
          "name": "tokenId",
          "type": "uint256"
        }
      ],
      "name": "tokenURI",
      "outputs": [
        {
          "internalType": "string",
          "name": "",
          "type": "string"
        }
      ],
      "stateMutability": "view",
      "type": "function"
    },
    {
      "inputs": [],
      "name": "totalSupply",
      "outputs": [
        {
          "internalType": "uint256",
          "name": "",
          "type": "uint256"
        }
      ],
      "stateMutability": "view",
      "type": "function"
    },
    {
      "inputs": [
        {
          "internalType": "address",
          "name": "from",
          "type": "address"
        },
        {
          "internalType": "address",
          "name": "to",
          "type": "address"
        },
        {
          "internalType": "uint256",
          "name": "tokenId",
          "type": "uint256"
        }
      ],
      "name": "transferFrom",
      "outputs": [],
      "stateMutability": "nonpayable",
      "type": "function"
    },
    {
      "inputs": [
        {
          "internalType": "address",
          "name": "newOwner",
          "type": "address"
        }
      ],
      "name": "transferOwnership",
      "outputs": [],
      "stateMutability": "nonpayable",
      "type": "function"
    },
    {
      "inputs": [
        {
          "internalType": "address",
          "name": "",
          "type": "address"
        },
        {
          "internalType": "uint256",
          "name": "",
          "type": "uint256"
        }
      ],
      "name": "userNFTTypeCounts",
      "outputs": [
        {
          "internalType": "uint256",
          "name": "",
          "type": "uint256"
        }
      ],
      "stateMutability": "view",
      "type": "function"
    },
    {
      "inputs": [
        {
          "internalType": "address",
          "name": "user",
          "type": "address"
        }
      ],
      "name": "userOwnsHiddenNFT",
      "outputs": [
        {
          "internalType": "bool",
          "name": "",
          "type": "bool"
        }
      ],
      "stateMutability": "view",
      "type": "function"
    }
  ],
  "bytecode": "0x608060405234801561001057600080fd5b50336040518060400160405280600781526020017f495050594e4654000000000000000000000000000000000000000000000000008152506040518060400160405280600481526020017f4950505900000000000000000000000000000000000000000000000000000000815250816000908161008d919061043d565b50806001908161009d919061043d565b505050600073ffffffffffffffffffffffffffffffffffffffff168173ffffffffffffffffffffffffffffffffffffffff16036101125760006040517f1e4fbdf70000000000000000000000000000000000000000000000000000000081526004016101099190610550565b60405180910390fd5b6101218161012760201b60201c565b5061056b565b6000600a60009054906101000a900473ffffffffffffffffffffffffffffffffffffffff16905081600a60006101000a81548173ffffffffffffffffffffffffffffffffffffffff021916908373ffffffffffffffffffffffffffffffffffffffff1602179055508173ffffffffffffffffffffffffffffffffffffffff168173ffffffffffffffffffffffffffffffffffffffff167f8be0079c531659141344cd1fd0a4f28419497f9722a3daafe3b4186f6b6457e060405160405180910390a35050565b600081519050919050565b7f4e487b7100000000000000000000000000000000000000000000000000000000600052604160045260246000fd5b7f4e487b7100000000000000000000000000000000000000000000000000000000600052602260045260246000fd5b6000600282049050600182168061026e57607f821691505b60208210810361028157610280610227565b5b50919050565b60008190508160005260206000209050919050565b60006020601f8301049050919050565b600082821b905092915050565b6000600883026102e97fffffffffffffffffffffffffffffffffffffffffffffffffffffffffffffffff826102ac565b6102f386836102ac565b95508019841693508086168417925050509392505050565b6000819050919050565b6000819050919050565b600061033a6103356103308461030b565b610315565b61030b565b9050919050565b6000819050919050565b6103548361031f565b61036861036082610341565b8484546102b9565b825550505050565b600090565b61037d610370565b61038881848461034b565b505050565b5b818110156103ac576103a1600082610375565b60018101905061038e565b5050565b601f8211156103f1576103c281610287565b6103cb8461029c565b810160208510156103da578190505b6103ee6103e68561029c565b83018261038d565b50505b505050565b600082821c905092915050565b6000610414600019846008026103f6565b1980831691505092915050565b600061042d8383610403565b9150826002028217905092915050565b610446826101ed565b67ffffffffffffffff81111561045f5761045e6101f8565b5b6104698254610256565b6104748282856103b0565b600060209050601f8311600181146104a75760008415610495578287015190505b61049f8582610421565b865550610507565b601f1984166104b586610287565b60005b828110156104dd578489015182556001820191506020850194506020810190506104b8565b868310156104fa57848901516104f6601f891682610403565b8355505b6001600288020188555050505b505050505050565b600073ffffffffffffffffffffffffffffffffffffffff82169050919050565b600061053a8261050f565b9050919050565b61054a8161052f565b82525050565b60006020820190506105656000830184610541565b92915050565b614d198061057a6000396000f3fe608060405234801561001057600080fd5b506004361061023d5760003560e01c80636e02cfc31161013b578063c8559d82116100b8578063f1526a451161007c578063f1526a4514610758578063f2fde38b14610776578063fab46cd614610792578063fbc44549146107b0578063fe90a5e3146107ce5761023d565b8063c8559d8214610678578063c87b56dd146106a8578063e62b7146146106d8578063e985e9c51461070a578063eeb87d161461073a5761023d565b80638da5cb5b116100ff5780638da5cb5b146105e6578063911045e61461060457806395d89b4114610622578063a22cb46514610640578063b88d4fde1461065c5761023d565b80636e02cfc3146105425780636e3381a01461055e57806370a082311461058e578063715018a6146105be578063752ead1f146105c85761023d565b806332963a41116101c95780634f6ccce71161018d5780634f6ccce71461046157806352de4ee5146104915780635cb960e3146104c45780635d9008bf146104f45780636352211e146105125761023d565b806332963a41146103a65780633cdbd25f146103c457806340c10f19146103f457806342842e0e14610424578063454b51b0146104405761023d565b8063095ea7b311610210578063095ea7b3146102f057806318160ddd1461030c5780631dbe40e71461032a57806323b872dd1461035a5780632f745c59146103765761023d565b80630126a9f11461024257806301ffc9a71461027257806306fdde03146102a2578063081812fc146102c0575b600080fd5b61025c60048036038101906102579190613889565b6107fe565b60405161026991906138d1565b60405180910390f35b61028c60048036038101906102879190613944565b61085a565b60405161029991906138d1565b60405180910390f35b6102aa61086c565b6040516102b79190613a01565b60405180910390f35b6102da60048036038101906102d59190613a59565b6108fe565b6040516102e79190613a95565b60405180910390f35b61030a60048036038101906103059190613ab0565b61091a565b005b610314610930565b6040516103219190613aff565b60405180910390f35b610344600480360381019061033f9190613ab0565b61093d565b6040516103519190613bd8565b60405180910390f35b610374600480360381019061036f9190613bfa565b610aac565b005b610390600480360381019061038b9190613ab0565b610bae565b60405161039d9190613aff565b60405180910390f35b6103ae610c57565b6040516103bb9190613aff565b60405180910390f35b6103de60048036038101906103d99190613a59565b610c5c565b6040516103eb9190613aff565b60405180910390f35b61040e60048036038101906104099190613ab0565b610c74565b60405161041b9190613aff565b60405180910390f35b61043e60048036038101906104399190613bfa565b610e6b565b005b610448610e8b565b6040516104589493929190613d59565b60405180910390f35b61047b60048036038101906104769190613a59565b611026565b6040516104889190613aff565b60405180910390f35b6104ab60048036038101906104a69190613889565b61109c565b6040516104bb9493929190613db3565b60405180910390f35b6104de60048036038101906104d99190613a59565b6112ba565b6040516104eb9190613aff565b60405180910390f35b6104fc6112e1565b6040516105099190613aff565b60405180910390f35b61052c60048036038101906105279190613a59565b6112e6565b6040516105399190613a95565b60405180910390f35b61055c60048036038101906105579190613889565b6112f8565b005b61057860048036038101906105739190613a59565b6113b3565b6040516105859190613aff565b60405180910390f35b6105a860048036038101906105a39190613889565b6113cb565b6040516105b59190613aff565b60405180910390f35b6105c6611485565b005b6105d0611499565b6040516105dd9190613aff565b60405180910390f35b6105ee61149e565b6040516105fb9190613a95565b60405180910390f35b61060c6114c8565b6040516106199190613aff565b60405180910390f35b61062a6114cd565b6040516106379190613a01565b60405180910390f35b61065a60048036038101906106559190613e40565b61155f565b005b61067660048036038101906106719190613fb5565b611575565b005b610692600480360381019061068d9190613ab0565b61159a565b60405161069f9190613aff565b60405180910390f35b6106c260048036038101906106bd9190613a59565b6115bf565b6040516106cf9190613a01565b60405180910390f35b6106f260048036038101906106ed9190613889565b6115f5565b60405161070193929190614038565b60405180910390f35b610724600480360381019061071f9190614084565b6117b9565b60405161073191906138d1565b60405180910390f35b61074261184d565b60405161074f9190613aff565b60405180910390f35b610760611852565b60405161076d9190613aff565b60405180910390f35b610790600480360381019061078b9190613889565b611857565b005b61079a6118dd565b6040516107a79190613a95565b60405180910390f35b6107b8611903565b6040516107c59190613aff565b60405180910390f35b6107e860048036038101906107e39190613a59565b611908565b6040516107f59190613a01565b60405180910390f35b600080600e60008473ffffffffffffffffffffffffffffffffffffffff1673ffffffffffffffffffffffffffffffffffffffff168152602001908152602001600020600080815260200190815260200160002054119050919050565b60006108658261191a565b9050919050565b60606000805461087b906140f3565b80601f01602080910402602001604051908101604052809291908181526020018280546108a7906140f3565b80156108f45780601f106108c9576101008083540402835291602001916108f4565b820191906000526020600020905b8154815290600101906020018083116108d757829003601f168201915b5050505050905090565b600061090982611994565b5061091382611a1c565b9050919050565b61092c8282610927611a59565b611a61565b5050565b6000600880549050905090565b6060600061094a846113cb565b905060008167ffffffffffffffff81111561096857610967613e8a565b5b6040519080825280602002602001820160405280156109965781602001602082028036833780820191505090505b5090506000805b83811015610a065760006109b18883610bae565b905086600c600083815260200190815260200160002054036109fa57808484815181106109e1576109e0614124565b5b602002602001018181525050826109f790614182565b92505b5080600101905061099d565b508067ffffffffffffffff811115610a2157610a20613e8a565b5b604051908082528060200260200182016040528015610a4f5781602001602082028036833780820191505090505b50935060005b81811015610aa257828181518110610a7057610a6f614124565b5b6020026020010151858281518110610a8b57610a8a614124565b5b602002602001018181525050806001019050610a55565b5050505092915050565b600073ffffffffffffffffffffffffffffffffffffffff168273ffffffffffffffffffffffffffffffffffffffff1603610b1e5760006040517f64a0ae92000000000000000000000000000000000000000000000000000000008152600401610b159190613a95565b60405180910390fd5b6000610b328383610b2d611a59565b611a73565b90508373ffffffffffffffffffffffffffffffffffffffff168173ffffffffffffffffffffffffffffffffffffffff1614610ba8578382826040517f64283d7b000000000000000000000000000000000000000000000000000000008152600401610b9f939291906141ca565b60405180910390fd5b50505050565b6000610bb9836113cb565b8210610bfe5782826040517fa57d13dc000000000000000000000000000000000000000000000000000000008152600401610bf5929190614201565b60405180910390fd5b600660008473ffffffffffffffffffffffffffffffffffffffff1673ffffffffffffffffffffffffffffffffffffffff168152602001908152602001600020600083815260200190815260200160002054905092915050565b600581565b600c6020528060005260406000206000915090505481565b6000600b60009054906101000a900473ffffffffffffffffffffffffffffffffffffffff1673ffffffffffffffffffffffffffffffffffffffff163373ffffffffffffffffffffffffffffffffffffffff1614610d06576040517f08c379a0000000000000000000000000000000000000000000000000000000008152600401610cfd90614276565b60405180910390fd5b600080600090506201b207841015610d25576000915060019050610d58565b60006201b2078503905060006201b20782610d4091906142c5565b905060068110610d4f57600590505b80600101935050505b6000610d62610930565b9050610d6e8682611a89565b82600c600083815260200190815260200160002081905550600d600084815260200190815260200160002060008154809291906001019190505550600e60008773ffffffffffffffffffffffffffffffffffffffff1673ffffffffffffffffffffffffffffffffffffffff16815260200190815260200160002060008481526020019081526020016000206000815480929190600101919050555060008314915082818773ffffffffffffffffffffffffffffffffffffffff167f103f869407cb53c19de05a74c24b2c889dfd7c74a24befc8ee64dd2dbcc3611c85604051610e5791906138d1565b60405180910390a482935050505092915050565b610e8683838360405180602001604052806000815250611575565b505050565b60608060606000600767ffffffffffffffff811115610ead57610eac613e8a565b5b604051908082528060200260200182016040528015610edb5781602001602082028036833780820191505090505b509350600767ffffffffffffffff811115610ef957610ef8613e8a565b5b604051908082528060200260200182016040528015610f275781602001602082028036833780820191505090505b509250600767ffffffffffffffff811115610f4557610f44613e8a565b5b604051908082528060200260200182016040528015610f7857816020015b6060815260200190600190039081610f635790505b50915060005b600781101561100c5780858281518110610f9b57610f9a614124565b5b602002602001018181525050600d600082815260200190815260200160002054848281518110610fce57610fcd614124565b5b602002602001018181525050610fe381611b82565b838281518110610ff657610ff5614124565b5b6020026020010181905250806001019050610f7e565b50838383611018610930565b935093509350935090919293565b6000611030610930565b8210611076576000826040517fa57d13dc00000000000000000000000000000000000000000000000000000000815260040161106d929190614201565b60405180910390fd5b6008828154811061108a57611089614124565b5b90600052602060002001549050919050565b60608060608060006110ad866113cb565b90508067ffffffffffffffff8111156110c9576110c8613e8a565b5b6040519080825280602002602001820160405280156110f75781602001602082028036833780820191505090505b5094508067ffffffffffffffff81111561111457611113613e8a565b5b6040519080825280602002602001820160405280156111425781602001602082028036833780820191505090505b5093508067ffffffffffffffff81111561115f5761115e613e8a565b5b60405190808252806020026020018201604052801561119257816020015b606081526020019060019003908161117d5790505b5092508067ffffffffffffffff8111156111af576111ae613e8a565b5b6040519080825280602002602001820160405280156111e257816020015b60608152602001906001900390816111cd5790505b50915060005b818110156112b15760006111fc8883610bae565b90506000600c60008381526020019081526020016000205490508188848151811061122a57611229614124565b5b6020026020010181815250508087848151811061124a57611249614124565b5b60200260200101818152505061125f826115bf565b86848151811061127257611271614124565b5b602002602001018190525061128681611b82565b85848151811061129957611298614124565b5b602002602001018190525050508060010190506111e8565b50509193509193565b60006112c582611994565b50600c6000838152602001908152602001600020549050919050565b600281565b60006112f182611994565b9050919050565b611300611b98565b600073ffffffffffffffffffffffffffffffffffffffff168173ffffffffffffffffffffffffffffffffffffffff160361136f576040517f08c379a000000000000000000000000000000000000000000000000000000000815260040161136690614368565b60405180910390fd5b80600b60006101000a81548173ffffffffffffffffffffffffffffffffffffffff021916908373ffffffffffffffffffffffffffffffffffffffff16021790555050565b600d6020528060005260406000206000915090505481565b60008073ffffffffffffffffffffffffffffffffffffffff168273ffffffffffffffffffffffffffffffffffffffff160361143e5760006040517f89c62b640000000000000000000000000000000000000000000000000000000081526004016114359190613a95565b60405180910390fd5b600360008373ffffffffffffffffffffffffffffffffffffffff1673ffffffffffffffffffffffffffffffffffffffff168152602001908152602001600020549050919050565b61148d611b98565b6114976000611c1f565b565b600681565b6000600a60009054906101000a900473ffffffffffffffffffffffffffffffffffffffff16905090565b600381565b6060600180546114dc906140f3565b80601f0160208091040260200160405190810160405280929190818152602001828054611508906140f3565b80156115555780601f1061152a57610100808354040283529160200191611555565b820191906000526020600020905b81548152906001019060200180831161153857829003601f168201915b5050505050905090565b61157161156a611a59565b8383611ce5565b5050565b611580848484610aac565b61159461158b611a59565b85858585611e54565b50505050565b600e602052816000526040600020602052806000526040600020600091509150505481565b60606115ca82611994565b506000600c60008481526020019081526020016000205490506115ed8184612005565b915050919050565b6060806060600767ffffffffffffffff81111561161557611614613e8a565b5b6040519080825280602002602001820160405280156116435781602001602082028036833780820191505090505b509250600767ffffffffffffffff81111561166157611660613e8a565b5b60405190808252806020026020018201604052801561168f5781602001602082028036833780820191505090505b509150600767ffffffffffffffff8111156116ad576116ac613e8a565b5b6040519080825280602002602001820160405280156116e057816020015b60608152602001906001900390816116cb5790505b50905060005b60078110156117b1578084828151811061170357611702614124565b5b602002602001018181525050600e60008673ffffffffffffffffffffffffffffffffffffffff1673ffffffffffffffffffffffffffffffffffffffff16815260200190815260200160002060008281526020019081526020016000205483828151811061177357611772614124565b5b60200260200101818152505061178881611b82565b82828151811061179b5761179a614124565b5b60200260200101819052508060010190506116e6565b509193909250565b6000600560008473ffffffffffffffffffffffffffffffffffffffff1673ffffffffffffffffffffffffffffffffffffffff16815260200190815260200160002060008373ffffffffffffffffffffffffffffffffffffffff1673ffffffffffffffffffffffffffffffffffffffff16815260200190815260200160002060009054906101000a900460ff16905092915050565b600181565b600481565b61185f611b98565b600073ffffffffffffffffffffffffffffffffffffffff168173ffffffffffffffffffffffffffffffffffffffff16036118d15760006040517f1e4fbdf70000000000000000000000000000000000000000000000000000000081526004016118c89190613a95565b60405180910390fd5b6118da81611c1f565b50565b600b60009054906101000a900473ffffffffffffffffffffffffffffffffffffffff1681565b600081565b606061191382611b82565b9050919050565b60007f780e9d63000000000000000000000000000000000000000000000000000000007bffffffffffffffffffffffffffffffffffffffffffffffffffffffff1916827bffffffffffffffffffffffffffffffffffffffffffffffffffffffff1916148061198d575061198c82612094565b5b9050919050565b6000806119a083612176565b9050600073ffffffffffffffffffffffffffffffffffffffff168173ffffffffffffffffffffffffffffffffffffffff1603611a1357826040517f7e273289000000000000000000000000000000000000000000000000000000008152600401611a0a9190613aff565b60405180910390fd5b80915050919050565b60006004600083815260200190815260200160002060009054906101000a900473ffffffffffffffffffffffffffffffffffffffff169050919050565b600033905090565b611a6e83838360016121b3565b505050565b6000611a80848484612378565b90509392505050565b600073ffffffffffffffffffffffffffffffffffffffff168273ffffffffffffffffffffffffffffffffffffffff1603611afb5760006040517f64a0ae92000000000000000000000000000000000000000000000000000000008152600401611af29190613a95565b60405180910390fd5b6000611b0983836000611a73565b9050600073ffffffffffffffffffffffffffffffffffffffff168173ffffffffffffffffffffffffffffffffffffffff1614611b7d5760006040517f73c6ac6e000000000000000000000000000000000000000000000000000000008152600401611b749190613a95565b60405180910390fd5b505050565b6060611b8d82612495565b600001519050919050565b611ba0611a59565b73ffffffffffffffffffffffffffffffffffffffff16611bbe61149e565b73ffffffffffffffffffffffffffffffffffffffff1614611c1d57611be1611a59565b6040517f118cdaa7000000000000000000000000000000000000000000000000000000008152600401611c149190613a95565b60405180910390fd5b565b6000600a60009054906101000a900473ffffffffffffffffffffffffffffffffffffffff16905081600a60006101000a81548173ffffffffffffffffffffffffffffffffffffffff021916908373ffffffffffffffffffffffffffffffffffffffff1602179055508173ffffffffffffffffffffffffffffffffffffffff168173ffffffffffffffffffffffffffffffffffffffff167f8be0079c531659141344cd1fd0a4f28419497f9722a3daafe3b4186f6b6457e060405160405180910390a35050565b600073ffffffffffffffffffffffffffffffffffffffff168273ffffffffffffffffffffffffffffffffffffffff1603611d5657816040517f5b08ba18000000000000000000000000000000000000000000000000000000008152600401611d4d9190613a95565b60405180910390fd5b80600560008573ffffffffffffffffffffffffffffffffffffffff1673ffffffffffffffffffffffffffffffffffffffff16815260200190815260200160002060008473ffffffffffffffffffffffffffffffffffffffff1673ffffffffffffffffffffffffffffffffffffffff16815260200190815260200160002060006101000a81548160ff0219169083151502179055508173ffffffffffffffffffffffffffffffffffffffff168373ffffffffffffffffffffffffffffffffffffffff167f17307eab39ab6107e8899845ad3d59bd9653f200f220920489ca2b5937696c3183604051611e4791906138d1565b60405180910390a3505050565b60008373ffffffffffffffffffffffffffffffffffffffff163b1115611ffe578273ffffffffffffffffffffffffffffffffffffffff1663150b7a02868685856040518563ffffffff1660e01b8152600401611eb394939291906143dd565b6020604051808303816000875af1925050508015611eef57506040513d601f19601f82011682018060405250810190611eec919061443e565b60015b611f73573d8060008114611f1f576040519150601f19603f3d011682016040523d82523d6000602084013e611f24565b606091505b506000815103611f6b57836040517f64a0ae92000000000000000000000000000000000000000000000000000000008152600401611f629190613a95565b60405180910390fd5b805181602001fd5b63150b7a0260e01b7bffffffffffffffffffffffffffffffffffffffffffffffffffffffff1916817bffffffffffffffffffffffffffffffffffffffffffffffffffffffff191614611ffc57836040517f64a0ae92000000000000000000000000000000000000000000000000000000008152600401611ff39190613a95565b60405180910390fd5b505b5050505050565b6060600061201284612495565b9050600061201f85612cfc565b90506000826000015161203186612d6d565b846020015185604001518560405160200161205095949392919061458b565b604051602081830303815290604052905061206a81612e3b565b60405160200161207a9190614656565b604051602081830303815290604052935050505092915050565b60007f80ac58cd000000000000000000000000000000000000000000000000000000007bffffffffffffffffffffffffffffffffffffffffffffffffffffffff1916827bffffffffffffffffffffffffffffffffffffffffffffffffffffffff1916148061215f57507f5b5e139f000000000000000000000000000000000000000000000000000000007bffffffffffffffffffffffffffffffffffffffffffffffffffffffff1916827bffffffffffffffffffffffffffffffffffffffffffffffffffffffff1916145b8061216f575061216e82612e68565b5b9050919050565b60006002600083815260200190815260200160002060009054906101000a900473ffffffffffffffffffffffffffffffffffffffff169050919050565b80806121ec5750600073ffffffffffffffffffffffffffffffffffffffff168273ffffffffffffffffffffffffffffffffffffffff1614155b156123205760006121fc84611994565b9050600073ffffffffffffffffffffffffffffffffffffffff168373ffffffffffffffffffffffffffffffffffffffff161415801561226757508273ffffffffffffffffffffffffffffffffffffffff168173ffffffffffffffffffffffffffffffffffffffff1614155b801561227a575061227881846117b9565b155b156122bc57826040517fa9fbf51f0000000000000000000000000000000000000000000000000000000081526004016122b39190613a95565b60405180910390fd5b811561231e57838573ffffffffffffffffffffffffffffffffffffffff168273ffffffffffffffffffffffffffffffffffffffff167f8c5be1e5ebec7d5bd14f71427d1e84f3dd0314c0f7b2291e5b200ac8c7c3b92560405160405180910390a45b505b836004600085815260200190815260200160002060006101000a81548173ffffffffffffffffffffffffffffffffffffffff021916908373ffffffffffffffffffffffffffffffffffffffff16021790555050505050565b600080612386858585612ed2565b9050600073ffffffffffffffffffffffffffffffffffffffff168173ffffffffffffffffffffffffffffffffffffffff16036123ca576123c5846130ec565b612409565b8473ffffffffffffffffffffffffffffffffffffffff168173ffffffffffffffffffffffffffffffffffffffff1614612408576124078185613135565b5b5b600073ffffffffffffffffffffffffffffffffffffffff168573ffffffffffffffffffffffffffffffffffffffff160361244b5761244684613220565b61248a565b8473ffffffffffffffffffffffffffffffffffffffff168173ffffffffffffffffffffffffffffffffffffffff16146124895761248885856132f1565b5b5b809150509392505050565b61249d6137e8565b600060ff168260ff16036125a8576040518060a001604052806040518060400160405280600681526020017f424c49505059000000000000000000000000000000000000000000000000000081525081526020016040518060600160405280603781526020016149116037913981526020016040518060800160405280604281526020016149486042913981526020016040518060400160405280600c81526020017f4d7974686963204275727374000000000000000000000000000000000000000081525081526020016040518060400160405280600781526020017f4d797374657279000000000000000000000000000000000000000000000000008152508152509050612cf7565b600160ff168260ff16036126b3576040518060a001604052806040518060400160405280600481526020017f495050590000000000000000000000000000000000000000000000000000000081525081526020016040518060600160405280603b8152602001614ac4603b913981526020016040518060800160405280604281526020016148cf6042913981526020016040518060400160405280600c81526020017f56657264616e742041757261000000000000000000000000000000000000000081525081526020016040518060400160405280600681526020017f4e617475726500000000000000000000000000000000000000000000000000008152508152509050612cf7565b600260ff168260ff16036127be576040518060a001604052806040518060400160405280600581526020017f42495050590000000000000000000000000000000000000000000000000000008152508152602001604051806060016040528060358152602001614bf7603591398152602001604051806080016040528060428152602001614c606042913981526020016040518060400160405280600d81526020017f5175616e74756d2050756c73650000000000000000000000000000000000000081525081526020016040518060400160405280600481526020017f54656368000000000000000000000000000000000000000000000000000000008152508152509050612cf7565b600360ff168260ff16036128c9576040518060a001604052806040518060400160405280600681526020017f544849505059000000000000000000000000000000000000000000000000000081525081526020016040518060600160405280603b8152602001614b7a603b913981526020016040518060800160405280604281526020016149cc6042913981526020016040518060400160405280600e81526020017f4368726f6d61746963205761766500000000000000000000000000000000000081525081526020016040518060400160405280600381526020017f41727400000000000000000000000000000000000000000000000000000000008152508152509050612cf7565b600460ff168260ff16036129d4576040518060a001604052806040518060400160405280600681526020017f53544950505900000000000000000000000000000000000000000000000000008152508152602001604051806060016040528060348152602001614c2c603491398152602001604051806080016040528060428152602001614ca26042913981526020016040518060400160405280600d81526020017f5265736f6e616e74204563686f0000000000000000000000000000000000000081525081526020016040518060400160405280600581526020017f4d757369630000000000000000000000000000000000000000000000000000008152508152509050612cf7565b600560ff168260ff1603612adf576040518060a001604052806040518060400160405280600681526020017f524149505059000000000000000000000000000000000000000000000000000081525081526020016040518060600160405280603b8152602001614b3f603b91398152602001604051806080016040528060428152602001614bb56042913981526020016040518060400160405280601081526020017f4368616d70696f6e27732044726976650000000000000000000000000000000081525081526020016040518060400160405280600681526020017f53706f72747300000000000000000000000000000000000000000000000000008152508152509050612cf7565b600660ff168260ff1603612bea576040518060a001604052806040518060400160405280600581526020017f4d495050590000000000000000000000000000000000000000000000000000008152508152602001604051806060016040528060398152602001614a0e60399139815260200160405180608001604052806042815260200161498a6042913981526020016040518060400160405280600c81526020017f417263616465205375726765000000000000000000000000000000000000000081525081526020016040518060400160405280600681526020017f47616d696e6700000000000000000000000000000000000000000000000000008152508152509050612cf7565b6040518060a001604052806040518060400160405280600781526020017f556e6b6e6f776e0000000000000000000000000000000000000000000000000081525081526020016040518060400160405280601481526020017f556e6b6e6f776e204950505920656e746974792e00000000000000000000000081525081526020016040518060200160405280600081525081526020016040518060400160405280600981526020017f556e646566696e6564000000000000000000000000000000000000000000000081525081526020016040518060400160405280600781526020017f4d7973746572790000000000000000000000000000000000000000000000000081525081525090505b919050565b60606000612d0983612495565b9050600060ff168360ff1603612d3a576040518060a00160405280607d8152602001614a47607d9139915050612d68565b80608001518160600151604051602001612d559291906147ac565b6040516020818303038152906040529150505b919050565b606060006001612d7c8461337c565b01905060008167ffffffffffffffff811115612d9b57612d9a613e8a565b5b6040519080825280601f01601f191660200182016040528015612dcd5781602001600182028036833780820191505090505b509050600082602001820190505b600115612e30578080600190039150507f3031323334353637383961626364656600000000000000000000000000000000600a86061a8153600a8581612e2457612e23614296565b5b04945060008503612ddb575b819350505050919050565b6060612e6182604051806060016040528060408152602001614aff6040913960016134cf565b9050919050565b60007f01ffc9a7000000000000000000000000000000000000000000000000000000007bffffffffffffffffffffffffffffffffffffffffffffffffffffffff1916827bffffffffffffffffffffffffffffffffffffffffffffffffffffffff1916149050919050565b600080612ede84612176565b9050600073ffffffffffffffffffffffffffffffffffffffff168373ffffffffffffffffffffffffffffffffffffffff1614612f2057612f1f818486613663565b5b600073ffffffffffffffffffffffffffffffffffffffff168173ffffffffffffffffffffffffffffffffffffffff1614612fb157612f626000856000806121b3565b6001600360008373ffffffffffffffffffffffffffffffffffffffff1673ffffffffffffffffffffffffffffffffffffffff168152602001908152602001600020600082825403925050819055505b600073ffffffffffffffffffffffffffffffffffffffff168573ffffffffffffffffffffffffffffffffffffffff1614613034576001600360008773ffffffffffffffffffffffffffffffffffffffff1673ffffffffffffffffffffffffffffffffffffffff168152602001908152602001600020600082825401925050819055505b846002600086815260200190815260200160002060006101000a81548173ffffffffffffffffffffffffffffffffffffffff021916908373ffffffffffffffffffffffffffffffffffffffff160217905550838573ffffffffffffffffffffffffffffffffffffffff168273ffffffffffffffffffffffffffffffffffffffff167fddf252ad1be2c89b69c2b068fc378daa952ba7f163c4a11628f55a4df523b3ef60405160405180910390a4809150509392505050565b6008805490506009600083815260200190815260200160002081905550600881908060018154018082558091505060019003906000526020600020016000909190919091505550565b6000613140836113cb565b90506000600760008481526020019081526020016000205490506000600660008673ffffffffffffffffffffffffffffffffffffffff1673ffffffffffffffffffffffffffffffffffffffff16815260200190815260200160002090508282146131ec5760008160008581526020019081526020016000205490508082600085815260200190815260200160002081905550826007600083815260200190815260200160002081905550505b6007600085815260200190815260200160002060009055806000848152602001908152602001600020600090555050505050565b6000600160088054905061323491906147f5565b905060006009600084815260200190815260200160002054905060006008838154811061326457613263614124565b5b90600052602060002001549050806008838154811061328657613285614124565b5b9060005260206000200181905550816009600083815260200190815260200160002081905550600960008581526020019081526020016000206000905560088054806132d5576132d4614829565b5b6001900381819060005260206000200160009055905550505050565b600060016132fe846113cb565b61330891906147f5565b905081600660008573ffffffffffffffffffffffffffffffffffffffff1673ffffffffffffffffffffffffffffffffffffffff168152602001908152602001600020600083815260200190815260200160002081905550806007600084815260200190815260200160002081905550505050565b600080600090507a184f03e93ff9f4daa797ed6e38ed64bf6a1f01000000000000000083106133da577a184f03e93ff9f4daa797ed6e38ed64bf6a1f01000000000000000083816133d0576133cf614296565b5b0492506040810190505b6d04ee2d6d415b85acef81000000008310613417576d04ee2d6d415b85acef8100000000838161340d5761340c614296565b5b0492506020810190505b662386f26fc10000831061344657662386f26fc10000838161343c5761343b614296565b5b0492506010810190505b6305f5e100831061346f576305f5e100838161346557613464614296565b5b0492506008810190505b612710831061349457612710838161348a57613489614296565b5b0492506004810190505b606483106134b757606483816134ad576134ac614296565b5b0492506002810190505b600a83106134c6576001810190505b80915050919050565b606060008451036134f15760405180602001604052806000815250905061365c565b60008261352357600360028651600461350a9190614858565b613514919061489a565b61351e91906142c5565b61354a565b600360028651613533919061489a565b61353d91906142c5565b60046135499190614858565b5b905060008167ffffffffffffffff81111561356857613567613e8a565b5b6040519080825280601f01601f19166020018201604052801561359a5781602001600182028036833780820191505090505b50905060018501602082018788518901602081018051600082525b82841015613610576003840193508351603f8160121c168701518653600186019550603f81600c1c168701518653600186019550603f8160061c168701518653600186019550603f81168701518653600186019550506135b5565b80825289156136505760038c51066001811461363357600281146136465761364e565b603d6001870353603d600287035361364e565b603d60018703535b505b50505050505080925050505b9392505050565b61366e838383613727565b61372257600073ffffffffffffffffffffffffffffffffffffffff168373ffffffffffffffffffffffffffffffffffffffff16036136e357806040517f7e2732890000000000000000000000000000000000000000000000000000000081526004016136da9190613aff565b60405180910390fd5b81816040517f177e802f000000000000000000000000000000000000000000000000000000008152600401613719929190614201565b60405180910390fd5b505050565b60008073ffffffffffffffffffffffffffffffffffffffff168373ffffffffffffffffffffffffffffffffffffffff16141580156137df57508273ffffffffffffffffffffffffffffffffffffffff168473ffffffffffffffffffffffffffffffffffffffff1614806137a0575061379f84846117b9565b5b806137de57508273ffffffffffffffffffffffffffffffffffffffff166137c683611a1c565b73ffffffffffffffffffffffffffffffffffffffff16145b5b90509392505050565b6040518060a0016040528060608152602001606081526020016060815260200160608152602001606081525090565b6000604051905090565b600080fd5b600080fd5b600073ffffffffffffffffffffffffffffffffffffffff82169050919050565b60006138568261382b565b9050919050565b6138668161384b565b811461387157600080fd5b50565b6000813590506138838161385d565b92915050565b60006020828403121561389f5761389e613821565b5b60006138ad84828501613874565b91505092915050565b60008115159050919050565b6138cb816138b6565b82525050565b60006020820190506138e660008301846138c2565b92915050565b60007fffffffff0000000000000000000000000000000000000000000000000000000082169050919050565b613921816138ec565b811461392c57600080fd5b50565b60008135905061393e81613918565b92915050565b60006020828403121561395a57613959613821565b5b60006139688482850161392f565b91505092915050565b600081519050919050565b600082825260208201905092915050565b60005b838110156139ab578082015181840152602081019050613990565b60008484015250505050565b6000601f19601f8301169050919050565b60006139d382613971565b6139dd818561397c565b93506139ed81856020860161398d565b6139f6816139b7565b840191505092915050565b60006020820190508181036000830152613a1b81846139c8565b905092915050565b6000819050919050565b613a3681613a23565b8114613a4157600080fd5b50565b600081359050613a5381613a2d565b92915050565b600060208284031215613a6f57613a6e613821565b5b6000613a7d84828501613a44565b91505092915050565b613a8f8161384b565b82525050565b6000602082019050613aaa6000830184613a86565b92915050565b60008060408385031215613ac757613ac6613821565b5b6000613ad585828601613874565b9250506020613ae685828601613a44565b9150509250929050565b613af981613a23565b82525050565b6000602082019050613b146000830184613af0565b92915050565b600081519050919050565b600082825260208201905092915050565b6000819050602082019050919050565b613b4f81613a23565b82525050565b6000613b618383613b46565b60208301905092915050565b6000602082019050919050565b6000613b8582613b1a565b613b8f8185613b25565b9350613b9a83613b36565b8060005b83811015613bcb578151613bb28882613b55565b9750613bbd83613b6d565b925050600181019050613b9e565b5085935050505092915050565b60006020820190508181036000830152613bf28184613b7a565b905092915050565b600080600060608486031215613c1357613c12613821565b5b6000613c2186828701613874565b9350506020613c3286828701613874565b9250506040613c4386828701613a44565b9150509250925092565b600081519050919050565b600082825260208201905092915050565b6000819050602082019050919050565b600082825260208201905092915050565b6000613c9582613971565b613c9f8185613c79565b9350613caf81856020860161398d565b613cb8816139b7565b840191505092915050565b6000613ccf8383613c8a565b905092915050565b6000602082019050919050565b6000613cef82613c4d565b613cf98185613c58565b935083602082028501613d0b85613c69565b8060005b85811015613d475784840389528151613d288582613cc3565b9450613d3383613cd7565b925060208a01995050600181019050613d0f565b50829750879550505050505092915050565b60006080820190508181036000830152613d738187613b7a565b90508181036020830152613d878186613b7a565b90508181036040830152613d9b8185613ce4565b9050613daa6060830184613af0565b95945050505050565b60006080820190508181036000830152613dcd8187613b7a565b90508181036020830152613de18186613b7a565b90508181036040830152613df58185613ce4565b90508181036060830152613e098184613ce4565b905095945050505050565b613e1d816138b6565b8114613e2857600080fd5b50565b600081359050613e3a81613e14565b92915050565b60008060408385031215613e5757613e56613821565b5b6000613e6585828601613874565b9250506020613e7685828601613e2b565b9150509250929050565b600080fd5b600080fd5b7f4e487b7100000000000000000000000000000000000000000000000000000000600052604160045260246000fd5b613ec2826139b7565b810181811067ffffffffffffffff82111715613ee157613ee0613e8a565b5b80604052505050565b6000613ef4613817565b9050613f008282613eb9565b919050565b600067ffffffffffffffff821115613f2057613f1f613e8a565b5b613f29826139b7565b9050602081019050919050565b82818337600083830152505050565b6000613f58613f5384613f05565b613eea565b905082815260208101848484011115613f7457613f73613e85565b5b613f7f848285613f36565b509392505050565b600082601f830112613f9c57613f9b613e80565b5b8135613fac848260208601613f45565b91505092915050565b60008060008060808587031215613fcf57613fce613821565b5b6000613fdd87828801613874565b9450506020613fee87828801613874565b9350506040613fff87828801613a44565b925050606085013567ffffffffffffffff8111156140205761401f613826565b5b61402c87828801613f87565b91505092959194509250565b600060608201905081810360008301526140528186613b7a565b905081810360208301526140668185613b7a565b9050818103604083015261407a8184613ce4565b9050949350505050565b6000806040838503121561409b5761409a613821565b5b60006140a985828601613874565b92505060206140ba85828601613874565b9150509250929050565b7f4e487b7100000000000000000000000000000000000000000000000000000000600052602260045260246000fd5b6000600282049050600182168061410b57607f821691505b60208210810361411e5761411d6140c4565b5b50919050565b7f4e487b7100000000000000000000000000000000000000000000000000000000600052603260045260246000fd5b7f4e487b7100000000000000000000000000000000000000000000000000000000600052601160045260246000fd5b600061418d82613a23565b91507fffffffffffffffffffffffffffffffffffffffffffffffffffffffffffffffff82036141bf576141be614153565b5b600182019050919050565b60006060820190506141df6000830186613a86565b6141ec6020830185613af0565b6141f96040830184613a86565b949350505050565b60006040820190506142166000830185613a86565b6142236020830184613af0565b9392505050565b7f4f6e6c7920426c696e64426f782063616e206d696e7400000000000000000000600082015250565b600061426060168361397c565b915061426b8261422a565b602082019050919050565b6000602082019050818103600083015261428f81614253565b9050919050565b7f4e487b7100000000000000000000000000000000000000000000000000000000600052601260045260246000fd5b60006142d082613a23565b91506142db83613a23565b9250826142eb576142ea614296565b5b828204905092915050565b7f426c696e64426f7820636f6e74726163742063616e6e6f74206265207a65726f60008201527f2061646472657373000000000000000000000000000000000000000000000000602082015250565b600061435260288361397c565b915061435d826142f6565b604082019050919050565b6000602082019050818103600083015261438181614345565b9050919050565b600081519050919050565b600082825260208201905092915050565b60006143af82614388565b6143b98185614393565b93506143c981856020860161398d565b6143d2816139b7565b840191505092915050565b60006080820190506143f26000830187613a86565b6143ff6020830186613a86565b61440c6040830185613af0565b818103606083015261441e81846143a4565b905095945050505050565b60008151905061443881613918565b92915050565b60006020828403121561445457614453613821565b5b600061446284828501614429565b91505092915050565b7f7b226e616d65223a220000000000000000000000000000000000000000000000815250565b600081905092915050565b60006144a782613971565b6144b18185614491565b93506144c181856020860161398d565b80840191505092915050565b7f2023000000000000000000000000000000000000000000000000000000000000815250565b7f222c226465736372697074696f6e223a22000000000000000000000000000000815250565b7f222c22696d616765223a22000000000000000000000000000000000000000000815250565b7f222c2261747472696275746573223a5b00000000000000000000000000000000815250565b7f5d7d000000000000000000000000000000000000000000000000000000000000815250565b60006145968261446b565b6009820191506145a6828861449c565b91506145b1826144cd565b6002820191506145c1828761449c565b91506145cc826144f3565b6011820191506145dc828661449c565b91506145e782614519565b600b820191506145f7828561449c565b91506146028261453f565b601082019150614612828461449c565b915061461d82614565565b6002820191508190509695505050505050565b7f646174613a6170706c69636174696f6e2f6a736f6e3b6261736536342c000000815250565b600061466182614630565b601d82019150614671828461449c565b915081905092915050565b7f7b2274726169745f74797065223a2254696572222c2276616c7565223a22537460008201527f616e64617264227d2c7b2274726169745f74797065223a22416666696e69747960208201527f222c2276616c7565223a22000000000000000000000000000000000000000000604082015250565b60006146fe604b83614491565b91506147098261467c565b604b82019050919050565b7f227d2c7b2274726169745f74797065223a22506f776572222c2276616c75652260008201527f3a22000000000000000000000000000000000000000000000000000000000000602082015250565b6000614770602283614491565b915061477b82614714565b602282019050919050565b7f227d000000000000000000000000000000000000000000000000000000000000815250565b60006147b7826146f1565b91506147c3828561449c565b91506147ce82614763565b91506147da828461449c565b91506147e582614786565b6002820191508190509392505050565b600061480082613a23565b915061480b83613a23565b925082820390508181111561482357614822614153565b5b92915050565b7f4e487b7100000000000000000000000000000000000000000000000000000000600052603160045260246000fd5b600061486382613a23565b915061486e83613a23565b925082820261487c81613a23565b9150828204841483151761489357614892614153565b5b5092915050565b60006148a582613a23565b91506148b083613a23565b92508282019050808211156148c8576148c7614153565b5b9291505056fe697066733a2f2f626166796265696164356e707476776d6863676977356a3366626f6c656e6a7132726b75346e6770666a6d7271663471626b79326b656666696d6154686520656c757369766520426c697070792c2072756d6f72656420746f2062656e642070726f626162696c69747920697473656c662e697066733a2f2f626166796265696768686561616970767a6935697873377263377765336e7a66666b7871636d6b673264776c6b7937366d657435757773787a6f65697066733a2f2f62616679626569686936346c7a616d796b7668677365786e6875683574766c69727676696c67616b3776336d6832377637356b766b756c78716961697066733a2f2f6261667962656967637173356d7468737a746a776e69373272326462367a3468347762627a737235737362357070726b73323666326f76656a6b694d49505059206c6576656c7320757020666173746572207468616e20616e79206368616c6c656e67657220696e20746865206172636164652e7b2274726169745f74797065223a2254696572222c2276616c7565223a2248696464656e227d2c7b2274726169745f74797065223a22416666696e697479222c2276616c7565223a224d797374657279227d2c7b2274726169745f74797065223a22506f776572222c2276616c7565223a224c6567656e64617279227d49505059207468726976657320696e206c75736820666f72657374732c206272696e67696e672063616c6d20746f2065766572792067726f76652e4142434445464748494a4b4c4d4e4f505152535455565758595a6162636465666768696a6b6c6d6e6f707172737475767778797a303132333435363738392b2f52414950505920737072696e7473207061737420726976616c732c2063686173696e6720746865206e657874206172656e6120766963746f72792e544849505059207061696e7473207265616c697479207769746820626f6c64207374726f6b657320616e6420656e646c65737320766973696f6e2e697066733a2f2f6261666b72656968676b3478353467353472666376696b336a646532776f366c6366696d7276617a616f77616b35356b616e36697069376f64356142495050592070756c7365732077697468206e656f6e20656e657267792066726f6d2066757475726520636974797363617065732e535449505059206861726d6f6e697a657320736f756e64776176657320696e746f206c756d696e6f7573206d656c6f646965732e697066733a2f2f62616679626569686933363469357265373537646f3768336e7563746d673736376b7862713662663575776173717a327a34776f676a7578727a34697066733a2f2f626166796265696172657777776572696c36677333726571326e676f6670627871726263356c6b327a7a793366733261357a7032737a7566787569a2646970667358221220c22e99001d7e0fc2a0252b64107a8646574762feb5dfde2cca9f28ce077f28aa64736f6c634300081c0033",
  "linkReferences": {},
  "deployedLinkReferences": {}
}