{
  "_format": "hh-sol-artifact-1",
  "contractName": "IPPYNFT",
  "sourceName": "contracts/IPPYNFT.sol",
  "abi": [
    {
      "inputs": [],
      "stateMutability": "nonpayable",
      "type": "constructor"
    },
    {
      "inputs": [],
      "name": "ERC721EnumerableForbiddenBatchMint",
      "type": "error"
    },
    {
      "inputs": [
        {
          "internalType": "address",
          "name": "sender",
          "type": "address"
        },
        {
          "internalType": "uint256",
          "name": "tokenId",
          "type": "uint256"
        },
        {
          "internalType": "address",
          "name": "owner",
          "type": "address"
        }
      ],
      "name": "ERC721IncorrectOwner",
      "type": "error"
    },
    {
      "inputs": [
        {
          "internalType": "address",
          "name": "operator",
          "type": "address"
        },
        {
          "internalType": "uint256",
          "name": "tokenId",
          "type": "uint256"
        }
      ],
      "name": "ERC721InsufficientApproval",
      "type": "error"
    },
    {
      "inputs": [
        {
          "internalType": "address",
          "name": "approver",
          "type": "address"
        }
      ],
      "name": "ERC721InvalidApprover",
      "type": "error"
    },
    {
      "inputs": [
        {
          "internalType": "address",
          "name": "operator",
          "type": "address"
        }
      ],
      "name": "ERC721InvalidOperator",
      "type": "error"
    },
    {
      "inputs": [
        {
          "internalType": "address",
          "name": "owner",
          "type": "address"
        }
      ],
      "name": "ERC721InvalidOwner",
      "type": "error"
    },
    {
      "inputs": [
        {
          "internalType": "address",
          "name": "receiver",
          "type": "address"
        }
      ],
      "name": "ERC721InvalidReceiver",
      "type": "error"
    },
    {
      "inputs": [
        {
          "internalType": "address",
          "name": "sender",
          "type": "address"
        }
      ],
      "name": "ERC721InvalidSender",
      "type": "error"
    },
    {
      "inputs": [
        {
          "internalType": "uint256",
          "name": "tokenId",
          "type": "uint256"
        }
      ],
      "name": "ERC721NonexistentToken",
      "type": "error"
    },
    {
      "inputs": [
        {
          "internalType": "address",
          "name": "owner",
          "type": "address"
        },
        {
          "internalType": "uint256",
          "name": "index",
          "type": "uint256"
        }
      ],
      "name": "ERC721OutOfBoundsIndex",
      "type": "error"
    },
    {
      "inputs": [
        {
          "internalType": "address",
          "name": "owner",
          "type": "address"
        }
      ],
      "name": "OwnableInvalidOwner",
      "type": "error"
    },
    {
      "inputs": [
        {
          "internalType": "address",
          "name": "account",
          "type": "address"
        }
      ],
      "name": "OwnableUnauthorizedAccount",
      "type": "error"
    },
    {
      "anonymous": false,
      "inputs": [
        {
          "indexed": true,
          "internalType": "address",
          "name": "owner",
          "type": "address"
        },
        {
          "indexed": true,
          "internalType": "address",
          "name": "approved",
          "type": "address"
        },
        {
          "indexed": true,
          "internalType": "uint256",
          "name": "tokenId",
          "type": "uint256"
        }
      ],
      "name": "Approval",
      "type": "event"
    },
    {
      "anonymous": false,
      "inputs": [
        {
          "indexed": true,
          "internalType": "address",
          "name": "owner",
          "type": "address"
        },
        {
          "indexed": true,
          "internalType": "address",
          "name": "operator",
          "type": "address"
        },
        {
          "indexed": false,
          "internalType": "bool",
          "name": "approved",
          "type": "bool"
        }
      ],
      "name": "ApprovalForAll",
      "type": "event"
    },
    {
      "anonymous": false,
      "inputs": [
        {
          "indexed": false,
          "internalType": "uint256",
          "name": "_fromTokenId",
          "type": "uint256"
        },
        {
          "indexed": false,
          "internalType": "uint256",
          "name": "_toTokenId",
          "type": "uint256"
        }
      ],
      "name": "BatchMetadataUpdate",
      "type": "event"
    },
    {
      "anonymous": false,
      "inputs": [
        {
          "indexed": false,
          "internalType": "uint256",
          "name": "_tokenId",
          "type": "uint256"
        }
      ],
      "name": "MetadataUpdate",
      "type": "event"
    },
    {
      "anonymous": false,
      "inputs": [
        {
          "indexed": true,
          "internalType": "address",
          "name": "to",
          "type": "address"
        },
        {
          "indexed": true,
          "internalType": "uint256",
          "name": "tokenId",
          "type": "uint256"
        },
        {
          "indexed": true,
          "internalType": "uint256",
          "name": "nftType",
          "type": "uint256"
        },
        {
          "indexed": false,
          "internalType": "bool",
          "name": "isHidden",
          "type": "bool"
        }
      ],
      "name": "NFTMinted",
      "type": "event"
    },
    {
      "anonymous": false,
      "inputs": [
        {
          "indexed": true,
          "internalType": "address",
          "name": "previousOwner",
          "type": "address"
        },
        {
          "indexed": true,
          "internalType": "address",
          "name": "newOwner",
          "type": "address"
        }
      ],
      "name": "OwnershipTransferred",
      "type": "event"
    },
    {
      "anonymous": false,
      "inputs": [
        {
          "indexed": true,
          "internalType": "address",
          "name": "from",
          "type": "address"
        },
        {
          "indexed": true,
          "internalType": "address",
          "name": "to",
          "type": "address"
        },
        {
          "indexed": true,
          "internalType": "uint256",
          "name": "tokenId",
          "type": "uint256"
        }
      ],
      "name": "Transfer",
      "type": "event"
    },
    {
      "inputs": [],
      "name": "HIDDEN_NFT_ID",
      "outputs": [
        {
          "internalType": "uint256",
          "name": "",
          "type": "uint256"
        }
      ],
      "stateMutability": "view",
      "type": "function"
    },
    {
      "inputs": [],
      "name": "STANDARD_NFT_1",
      "outputs": [
        {
          "internalType": "uint256",
          "name": "",
          "type": "uint256"
        }
      ],
      "stateMutability": "view",
      "type": "function"
    },
    {
      "inputs": [],
      "name": "STANDARD_NFT_2",
      "outputs": [
        {
          "internalType": "uint256",
          "name": "",
          "type": "uint256"
        }
      ],
      "stateMutability": "view",
      "type": "function"
    },
    {
      "inputs": [],
      "name": "STANDARD_NFT_3",
      "outputs": [
        {
          "internalType": "uint256",
          "name": "",
          "type": "uint256"
        }
      ],
      "stateMutability": "view",
      "type": "function"
    },
    {
      "inputs": [],
      "name": "STANDARD_NFT_4",
      "outputs": [
        {
          "internalType": "uint256",
          "name": "",
          "type": "uint256"
        }
      ],
      "stateMutability": "view",
      "type": "function"
    },
    {
      "inputs": [],
      "name": "STANDARD_NFT_5",
      "outputs": [
        {
          "internalType": "uint256",
          "name": "",
          "type": "uint256"
        }
      ],
      "stateMutability": "view",
      "type": "function"
    },
    {
      "inputs": [],
      "name": "STANDARD_NFT_6",
      "outputs": [
        {
          "internalType": "uint256",
          "name": "",
          "type": "uint256"
        }
      ],
      "stateMutability": "view",
      "type": "function"
    },
    {
      "inputs": [
        {
          "internalType": "address",
          "name": "to",
          "type": "address"
        },
        {
          "internalType": "uint256",
          "name": "tokenId",
          "type": "uint256"
        }
      ],
      "name": "approve",
      "outputs": [],
      "stateMutability": "nonpayable",
      "type": "function"
    },
    {
      "inputs": [
        {
          "internalType": "address",
          "name": "owner",
          "type": "address"
        }
      ],
      "name": "balanceOf",
      "outputs": [
        {
          "internalType": "uint256",
          "name": "",
          "type": "uint256"
        }
      ],
      "stateMutability": "view",
      "type": "function"
    },
    {
      "inputs": [],
      "name": "blindBoxContract",
      "outputs": [
        {
          "internalType": "address",
          "name": "",
          "type": "address"
        }
      ],
      "stateMutability": "view",
      "type": "function"
    },
    {
      "inputs": [
        {
          "internalType": "uint256",
          "name": "tokenId",
          "type": "uint256"
        }
      ],
      "name": "getApproved",
      "outputs": [
        {
          "internalType": "address",
          "name": "",
          "type": "address"
        }
      ],
      "stateMutability": "view",
      "type": "function"
    },
    {
      "inputs": [],
      "name": "getGlobalNFTStats",
      "outputs": [
        {
          "internalType": "uint256[]",
          "name": "types",
          "type": "uint256[]"
        },
        {
          "internalType": "uint256[]",
          "name": "counts",
          "type": "uint256[]"
        },
        {
          "internalType": "string[]",
          "name": "typeNames",
          "type": "string[]"
        },
        {
          "internalType": "uint256",
          "name": "totalMinted",
          "type": "uint256"
        }
      ],
      "stateMutability": "view",
      "type": "function"
    },
    {
      "inputs": [
        {
          "internalType": "uint256",
          "name": "tokenId",
          "type": "uint256"
        }
      ],
      "name": "getNFTType",
      "outputs": [
        {
          "internalType": "uint256",
          "name": "",
          "type": "uint256"
        }
      ],
      "stateMutability": "view",
      "type": "function"
    },
    {
      "inputs": [
        {
          "internalType": "uint256",
          "name": "nftType",
          "type": "uint256"
        }
      ],
      "name": "getNFTTypeName",
      "outputs": [
        {
          "internalType": "string",
          "name": "",
          "type": "string"
        }
      ],
      "stateMutability": "pure",
      "type": "function"
    },
    {
      "inputs": [
        {
          "internalType": "address",
          "name": "user",
          "type": "address"
        }
      ],
      "name": "getUserNFTTypeCounts",
      "outputs": [
        {
          "internalType": "uint256[]",
          "name": "types",
          "type": "uint256[]"
        },
        {
          "internalType": "uint256[]",
          "name": "counts",
          "type": "uint256[]"
        },
        {
          "internalType": "string[]",
          "name": "typeNames",
          "type": "string[]"
        }
      ],
      "stateMutability": "view",
      "type": "function"
    },
    {
      "inputs": [
        {
          "internalType": "address",
          "name": "user",
          "type": "address"
        }
      ],
      "name": "getUserNFTs",
      "outputs": [
        {
          "internalType": "uint256[]",
          "name": "tokenIds",
          "type": "uint256[]"
        },
        {
          "internalType": "uint256[]",
          "name": "nftTypes",
          "type": "uint256[]"
        },
        {
          "internalType": "string[]",
          "name": "tokenURIs",
          "type": "string[]"
        },
        {
          "internalType": "string[]",
          "name": "typeNames",
          "type": "string[]"
        }
      ],
      "stateMutability": "view",
      "type": "function"
    },
    {
      "inputs": [
        {
          "internalType": "address",
          "name": "user",
          "type": "address"
        },
        {
          "internalType": "uint256",
          "name": "nftType",
          "type": "uint256"
        }
      ],
      "name": "getUserNFTsByType",
      "outputs": [
        {
          "internalType": "uint256[]",
          "name": "tokenIds",
          "type": "uint256[]"
        }
      ],
      "stateMutability": "view",
      "type": "function"
    },
    {
      "inputs": [
        {
          "internalType": "address",
          "name": "owner",
          "type": "address"
        },
        {
          "internalType": "address",
          "name": "operator",
          "type": "address"
        }
      ],
      "name": "isApprovedForAll",
      "outputs": [
        {
          "internalType": "bool",
          "name": "",
          "type": "bool"
        }
      ],
      "stateMutability": "view",
      "type": "function"
    },
    {
      "inputs": [
        {
          "internalType": "uint256",
          "name": "",
          "type": "uint256"
        }
      ],
      "name": "isRedeemed",
      "outputs": [
        {
          "internalType": "bool",
          "name": "",
          "type": "bool"
        }
      ],
      "stateMutability": "view",
      "type": "function"
    },
    {
      "inputs": [
        {
          "internalType": "address",
          "name": "to",
          "type": "address"
        },
        {
          "internalType": "uint256",
          "name": "randomIndex",
          "type": "uint256"
        }
      ],
      "name": "mint",
      "outputs": [
        {
          "internalType": "uint256",
          "name": "",
          "type": "uint256"
        }
      ],
      "stateMutability": "nonpayable",
      "type": "function"
    },
    {
      "inputs": [],
      "name": "name",
      "outputs": [
        {
          "internalType": "string",
          "name": "",
          "type": "string"
        }
      ],
      "stateMutability": "view",
      "type": "function"
    },
    {
      "inputs": [
        {
          "internalType": "uint256",
          "name": "",
          "type": "uint256"
        }
      ],
      "name": "nftTypeCounts",
      "outputs": [
        {
          "internalType": "uint256",
          "name": "",
          "type": "uint256"
        }
      ],
      "stateMutability": "view",
      "type": "function"
    },
    {
      "inputs": [],
      "name": "owner",
      "outputs": [
        {
          "internalType": "address",
          "name": "",
          "type": "address"
        }
      ],
      "stateMutability": "view",
      "type": "function"
    },
    {
      "inputs": [
        {
          "internalType": "uint256",
          "name": "tokenId",
          "type": "uint256"
        }
      ],
      "name": "ownerOf",
      "outputs": [
        {
          "internalType": "address",
          "name": "",
          "type": "address"
        }
      ],
      "stateMutability": "view",
      "type": "function"
    },
    {
      "inputs": [
        {
          "internalType": "uint256",
          "name": "tokenId",
          "type": "uint256"
        }
      ],
      "name": "redeem",
      "outputs": [],
      "stateMutability": "nonpayable",
      "type": "function"
    },
    {
      "inputs": [],
      "name": "renounceOwnership",
      "outputs": [],
      "stateMutability": "nonpayable",
      "type": "function"
    },
    {
      "inputs": [
        {
          "internalType": "address",
          "name": "from",
          "type": "address"
        },
        {
          "internalType": "address",
          "name": "to",
          "type": "address"
        },
        {
          "internalType": "uint256",
          "name": "tokenId",
          "type": "uint256"
        }
      ],
      "name": "safeTransferFrom",
      "outputs": [],
      "stateMutability": "nonpayable",
      "type": "function"
    },
    {
      "inputs": [
        {
          "internalType": "address",
          "name": "from",
          "type": "address"
        },
        {
          "internalType": "address",
          "name": "to",
          "type": "address"
        },
        {
          "internalType": "uint256",
          "name": "tokenId",
          "type": "uint256"
        },
        {
          "internalType": "bytes",
          "name": "data",
          "type": "bytes"
        }
      ],
      "name": "safeTransferFrom",
      "outputs": [],
      "stateMutability": "nonpayable",
      "type": "function"
    },
    {
      "inputs": [
        {
          "internalType": "address",
          "name": "operator",
          "type": "address"
        },
        {
          "internalType": "bool",
          "name": "approved",
          "type": "bool"
        }
      ],
      "name": "setApprovalForAll",
      "outputs": [],
      "stateMutability": "nonpayable",
      "type": "function"
    },
    {
      "inputs": [
        {
          "internalType": "address",
          "name": "_blindBoxContract",
          "type": "address"
        }
      ],
      "name": "setBlindBoxContract",
      "outputs": [],
      "stateMutability": "nonpayable",
      "type": "function"
    },
    {
      "inputs": [
        {
          "internalType": "bytes4",
          "name": "interfaceId",
          "type": "bytes4"
        }
      ],
      "name": "supportsInterface",
      "outputs": [
        {
          "internalType": "bool",
          "name": "",
          "type": "bool"
        }
      ],
      "stateMutability": "view",
      "type": "function"
    },
    {
      "inputs": [],
      "name": "symbol",
      "outputs": [
        {
          "internalType": "string",
          "name": "",
          "type": "string"
        }
      ],
      "stateMutability": "view",
      "type": "function"
    },
    {
      "inputs": [
        {
          "internalType": "uint256",
          "name": "index",
          "type": "uint256"
        }
      ],
      "name": "tokenByIndex",
      "outputs": [
        {
          "internalType": "uint256",
          "name": "",
          "type": "uint256"
        }
      ],
      "stateMutability": "view",
      "type": "function"
    },
    {
      "inputs": [
        {
          "internalType": "uint256",
          "name": "",
          "type": "uint256"
        }
      ],
      "name": "tokenIdToNFTType",
      "outputs": [
        {
          "internalType": "uint256",
          "name": "",
          "type": "uint256"
        }
      ],
      "stateMutability": "view",
      "type": "function"
    },
    {
      "inputs": [
        {
          "internalType": "address",
          "name": "owner",
          "type": "address"
        },
        {
          "internalType": "uint256",
          "name": "index",
          "type": "uint256"
        }
      ],
      "name": "tokenOfOwnerByIndex",
      "outputs": [
        {
          "internalType": "uint256",
          "name": "",
          "type": "uint256"
        }
      ],
      "stateMutability": "view",
      "type": "function"
    },
    {
      "inputs": [
        {
          "internalType": "uint256",
          "name": "tokenId",
          "type": "uint256"
        }
      ],
      "name": "tokenURI",
      "outputs": [
        {
          "internalType": "string",
          "name": "",
          "type": "string"
        }
      ],
      "stateMutability": "view",
      "type": "function"
    },
    {
      "inputs": [],
      "name": "totalSupply",
      "outputs": [
        {
          "internalType": "uint256",
          "name": "",
          "type": "uint256"
        }
      ],
      "stateMutability": "view",
      "type": "function"
    },
    {
      "inputs": [
        {
          "internalType": "address",
          "name": "from",
          "type": "address"
        },
        {
          "internalType": "address",
          "name": "to",
          "type": "address"
        },
        {
          "internalType": "uint256",
          "name": "tokenId",
          "type": "uint256"
        }
      ],
      "name": "transferFrom",
      "outputs": [],
      "stateMutability": "nonpayable",
      "type": "function"
    },
    {
      "inputs": [
        {
          "internalType": "address",
          "name": "newOwner",
          "type": "address"
        }
      ],
      "name": "transferOwnership",
      "outputs": [],
      "stateMutability": "nonpayable",
      "type": "function"
    },
    {
      "inputs": [
        {
          "internalType": "address",
          "name": "",
          "type": "address"
        },
        {
          "internalType": "uint256",
          "name": "",
          "type": "uint256"
        }
      ],
      "name": "userNFTTypeCounts",
      "outputs": [
        {
          "internalType": "uint256",
          "name": "",
          "type": "uint256"
        }
      ],
      "stateMutability": "view",
      "type": "function"
    },
    {
      "inputs": [
        {
          "internalType": "address",
          "name": "user",
          "type": "address"
        }
      ],
      "name": "userOwnsHiddenNFT",
      "outputs": [
        {
          "internalType": "bool",
          "name": "",
          "type": "bool"
        }
      ],
      "stateMutability": "view",
      "type": "function"
    }
  ],
  "bytecode": "0x608060405234801561001057600080fd5b50336040518060400160405280600781526020017f495050594e4654000000000000000000000000000000000000000000000000008152506040518060400160405280600481526020017f4950505900000000000000000000000000000000000000000000000000000000815250816000908161008d919061043d565b50806001908161009d919061043d565b505050600073ffffffffffffffffffffffffffffffffffffffff168173ffffffffffffffffffffffffffffffffffffffff16036101125760006040517f1e4fbdf70000000000000000000000000000000000000000000000000000000081526004016101099190610550565b60405180910390fd5b6101218161012760201b60201c565b5061056b565b6000600a60009054906101000a900473ffffffffffffffffffffffffffffffffffffffff16905081600a60006101000a81548173ffffffffffffffffffffffffffffffffffffffff021916908373ffffffffffffffffffffffffffffffffffffffff1602179055508173ffffffffffffffffffffffffffffffffffffffff168173ffffffffffffffffffffffffffffffffffffffff167f8be0079c531659141344cd1fd0a4f28419497f9722a3daafe3b4186f6b6457e060405160405180910390a35050565b600081519050919050565b7f4e487b7100000000000000000000000000000000000000000000000000000000600052604160045260246000fd5b7f4e487b7100000000000000000000000000000000000000000000000000000000600052602260045260246000fd5b6000600282049050600182168061026e57607f821691505b60208210810361028157610280610227565b5b50919050565b60008190508160005260206000209050919050565b60006020601f8301049050919050565b600082821b905092915050565b6000600883026102e97fffffffffffffffffffffffffffffffffffffffffffffffffffffffffffffffff826102ac565b6102f386836102ac565b95508019841693508086168417925050509392505050565b6000819050919050565b6000819050919050565b600061033a6103356103308461030b565b610315565b61030b565b9050919050565b6000819050919050565b6103548361031f565b61036861036082610341565b8484546102b9565b825550505050565b600090565b61037d610370565b61038881848461034b565b505050565b5b818110156103ac576103a1600082610375565b60018101905061038e565b5050565b601f8211156103f1576103c281610287565b6103cb8461029c565b810160208510156103da578190505b6103ee6103e68561029c565b83018261038d565b50505b505050565b600082821c905092915050565b6000610414600019846008026103f6565b1980831691505092915050565b600061042d8383610403565b9150826002028217905092915050565b610446826101ed565b67ffffffffffffffff81111561045f5761045e6101f8565b5b6104698254610256565b6104748282856103b0565b600060209050601f8311600181146104a75760008415610495578287015190505b61049f8582610421565b865550610507565b601f1984166104b586610287565b60005b828110156104dd578489015182556001820191506020850194506020810190506104b8565b868310156104fa57848901516104f6601f891682610403565b8355505b6001600288020188555050505b505050505050565b600073ffffffffffffffffffffffffffffffffffffffff82169050919050565b600061053a8261050f565b9050919050565b61054a8161052f565b82525050565b60006020820190506105656000830184610541565b92915050565b6150988061057a6000396000f3fe608060405234801561001057600080fd5b50600436106102535760003560e01c80636e02cfc311610146578063c8559d82116100c3578063eeb87d1611610087578063eeb87d161461079c578063f1526a45146107ba578063f2fde38b146107d8578063fab46cd6146107f4578063fbc4454914610812578063fe90a5e31461083057610253565b8063c8559d82146106be578063c87b56dd146106ee578063db006a751461071e578063e62b71461461073a578063e985e9c51461076c57610253565b80638da5cb5b1161010a5780638da5cb5b1461062c578063911045e61461064a57806395d89b4114610668578063a22cb46514610686578063b88d4fde146106a257610253565b80636e02cfc3146105885780636e3381a0146105a457806370a08231146105d4578063715018a614610604578063752ead1f1461060e57610253565b806332d33cd0116101d45780634f6ccce7116101985780634f6ccce7146104a757806352de4ee5146104d75780635cb960e31461050a5780635d9008bf1461053a5780636352211e1461055857610253565b806332d33cd0146103da5780633cdbd25f1461040a57806340c10f191461043a57806342842e0e1461046a578063454b51b01461048657610253565b806318160ddd1161021b57806318160ddd146103225780631dbe40e71461034057806323b872dd146103705780632f745c591461038c57806332963a41146103bc57610253565b80630126a9f11461025857806301ffc9a71461028857806306fdde03146102b8578063081812fc146102d6578063095ea7b314610306575b600080fd5b610272600480360381019061026d9190613aee565b610860565b60405161027f9190613b36565b60405180910390f35b6102a2600480360381019061029d9190613ba9565b6108bc565b6040516102af9190613b36565b60405180910390f35b6102c06108ce565b6040516102cd9190613c66565b60405180910390f35b6102f060048036038101906102eb9190613cbe565b610960565b6040516102fd9190613cfa565b60405180910390f35b610320600480360381019061031b9190613d15565b61097c565b005b61032a610992565b6040516103379190613d64565b60405180910390f35b61035a60048036038101906103559190613d15565b61099f565b6040516103679190613e3d565b60405180910390f35b61038a60048036038101906103859190613e5f565b610b0e565b005b6103a660048036038101906103a19190613d15565b610c10565b6040516103b39190613d64565b60405180910390f35b6103c4610cb9565b6040516103d19190613d64565b60405180910390f35b6103f460048036038101906103ef9190613cbe565b610cbe565b6040516104019190613b36565b60405180910390f35b610424600480360381019061041f9190613cbe565b610cde565b6040516104319190613d64565b60405180910390f35b610454600480360381019061044f9190613d15565b610cf6565b6040516104619190613d64565b60405180910390f35b610484600480360381019061047f9190613e5f565b610eeb565b005b61048e610f0b565b60405161049e9493929190613fbe565b60405180910390f35b6104c160048036038101906104bc9190613cbe565b6110a6565b6040516104ce9190613d64565b60405180910390f35b6104f160048036038101906104ec9190613aee565b61111c565b6040516105019493929190614018565b60405180910390f35b610524600480360381019061051f9190613cbe565b61133a565b6040516105319190613d64565b60405180910390f35b610542611361565b60405161054f9190613d64565b60405180910390f35b610572600480360381019061056d9190613cbe565b611366565b60405161057f9190613cfa565b60405180910390f35b6105a2600480360381019061059d9190613aee565b611378565b005b6105be60048036038101906105b99190613cbe565b611433565b6040516105cb9190613d64565b60405180910390f35b6105ee60048036038101906105e99190613aee565b61144b565b6040516105fb9190613d64565b60405180910390f35b61060c611505565b005b610616611519565b6040516106239190613d64565b60405180910390f35b61063461151e565b6040516106419190613cfa565b60405180910390f35b610652611548565b60405161065f9190613d64565b60405180910390f35b61067061154d565b60405161067d9190613c66565b60405180910390f35b6106a0600480360381019061069b91906140a5565b6115df565b005b6106bc60048036038101906106b7919061421a565b6115f5565b005b6106d860048036038101906106d39190613d15565b61161a565b6040516106e59190613d64565b60405180910390f35b61070860048036038101906107039190613cbe565b61163f565b6040516107159190613c66565b60405180910390f35b61073860048036038101906107339190613cbe565b61169c565b005b610754600480360381019061074f9190613aee565b6117e1565b6040516107639392919061429d565b60405180910390f35b610786600480360381019061078191906142e9565b6119a5565b6040516107939190613b36565b60405180910390f35b6107a4611a39565b6040516107b19190613d64565b60405180910390f35b6107c2611a3e565b6040516107cf9190613d64565b60405180910390f35b6107f260048036038101906107ed9190613aee565b611a43565b005b6107fc611ac9565b6040516108099190613cfa565b60405180910390f35b61081a611aef565b6040516108279190613d64565b60405180910390f35b61084a60048036038101906108459190613cbe565b611af4565b6040516108579190613c66565b60405180910390f35b600080600f60008473ffffffffffffffffffffffffffffffffffffffff1673ffffffffffffffffffffffffffffffffffffffff168152602001908152602001600020600080815260200190815260200160002054119050919050565b60006108c782611b06565b9050919050565b6060600080546108dd90614358565b80601f016020809104026020016040519081016040528092919081815260200182805461090990614358565b80156109565780601f1061092b57610100808354040283529160200191610956565b820191906000526020600020905b81548152906001019060200180831161093957829003601f168201915b5050505050905090565b600061096b82611b80565b5061097582611c08565b9050919050565b61098e8282610989611c45565b611c4d565b5050565b6000600880549050905090565b606060006109ac8461144b565b905060008167ffffffffffffffff8111156109ca576109c96140ef565b5b6040519080825280602002602001820160405280156109f85781602001602082028036833780820191505090505b5090506000805b83811015610a68576000610a138883610c10565b905086600c60008381526020019081526020016000205403610a5c5780848481518110610a4357610a42614389565b5b60200260200101818152505082610a59906143e7565b92505b508060010190506109ff565b508067ffffffffffffffff811115610a8357610a826140ef565b5b604051908082528060200260200182016040528015610ab15781602001602082028036833780820191505090505b50935060005b81811015610b0457828181518110610ad257610ad1614389565b5b6020026020010151858281518110610aed57610aec614389565b5b602002602001018181525050806001019050610ab7565b5050505092915050565b600073ffffffffffffffffffffffffffffffffffffffff168273ffffffffffffffffffffffffffffffffffffffff1603610b805760006040517f64a0ae92000000000000000000000000000000000000000000000000000000008152600401610b779190613cfa565b60405180910390fd5b6000610b948383610b8f611c45565b611c5f565b90508373ffffffffffffffffffffffffffffffffffffffff168173ffffffffffffffffffffffffffffffffffffffff1614610c0a578382826040517f64283d7b000000000000000000000000000000000000000000000000000000008152600401610c019392919061442f565b60405180910390fd5b50505050565b6000610c1b8361144b565b8210610c605782826040517fa57d13dc000000000000000000000000000000000000000000000000000000008152600401610c57929190614466565b60405180910390fd5b600660008473ffffffffffffffffffffffffffffffffffffffff1673ffffffffffffffffffffffffffffffffffffffff168152602001908152602001600020600083815260200190815260200160002054905092915050565b600581565b600d6020528060005260406000206000915054906101000a900460ff1681565b600c6020528060005260406000206000915090505481565b6000600b60009054906101000a900473ffffffffffffffffffffffffffffffffffffffff1673ffffffffffffffffffffffffffffffffffffffff163373ffffffffffffffffffffffffffffffffffffffff1614610d88576040517f08c379a0000000000000000000000000000000000000000000000000000000008152600401610d7f906144db565b60405180910390fd5b60008060009050611a0a841015610da6576000915060019050610dd8565b6000611a0a8503905060006201adb082610dc0919061452a565b905060068110610dcf57600590505b80600101935050505b6000610de2610992565b9050610dee8682611c75565b82600c600083815260200190815260200160002081905550600e600084815260200190815260200160002060008154809291906001019190505550600f60008773ffffffffffffffffffffffffffffffffffffffff1673ffffffffffffffffffffffffffffffffffffffff16815260200190815260200160002060008481526020019081526020016000206000815480929190600101919050555060008314915082818773ffffffffffffffffffffffffffffffffffffffff167f103f869407cb53c19de05a74c24b2c889dfd7c74a24befc8ee64dd2dbcc3611c85604051610ed79190613b36565b60405180910390a482935050505092915050565b610f06838383604051806020016040528060008152506115f5565b505050565b60608060606000600767ffffffffffffffff811115610f2d57610f2c6140ef565b5b604051908082528060200260200182016040528015610f5b5781602001602082028036833780820191505090505b509350600767ffffffffffffffff811115610f7957610f786140ef565b5b604051908082528060200260200182016040528015610fa75781602001602082028036833780820191505090505b509250600767ffffffffffffffff811115610fc557610fc46140ef565b5b604051908082528060200260200182016040528015610ff857816020015b6060815260200190600190039081610fe35790505b50915060005b600781101561108c578085828151811061101b5761101a614389565b5b602002602001018181525050600e60008281526020019081526020016000205484828151811061104e5761104d614389565b5b60200260200101818152505061106381611d6e565b83828151811061107657611075614389565b5b6020026020010181905250806001019050610ffe565b50838383611098610992565b935093509350935090919293565b60006110b0610992565b82106110f6576000826040517fa57d13dc0000000000000000000000000000000000000000000000000000000081526004016110ed929190614466565b60405180910390fd5b6008828154811061110a57611109614389565b5b90600052602060002001549050919050565b606080606080600061112d8661144b565b90508067ffffffffffffffff811115611149576111486140ef565b5b6040519080825280602002602001820160405280156111775781602001602082028036833780820191505090505b5094508067ffffffffffffffff811115611194576111936140ef565b5b6040519080825280602002602001820160405280156111c25781602001602082028036833780820191505090505b5093508067ffffffffffffffff8111156111df576111de6140ef565b5b60405190808252806020026020018201604052801561121257816020015b60608152602001906001900390816111fd5790505b5092508067ffffffffffffffff81111561122f5761122e6140ef565b5b60405190808252806020026020018201604052801561126257816020015b606081526020019060019003908161124d5790505b50915060005b8181101561133157600061127c8883610c10565b90506000600c6000838152602001908152602001600020549050818884815181106112aa576112a9614389565b5b602002602001018181525050808784815181106112ca576112c9614389565b5b6020026020010181815250506112df8261163f565b8684815181106112f2576112f1614389565b5b602002602001018190525061130681611d6e565b85848151811061131957611318614389565b5b60200260200101819052505050806001019050611268565b50509193509193565b600061134582611b80565b50600c6000838152602001908152602001600020549050919050565b600281565b600061137182611b80565b9050919050565b611380611d84565b600073ffffffffffffffffffffffffffffffffffffffff168173ffffffffffffffffffffffffffffffffffffffff16036113ef576040517f08c379a00000000000000000000000000000000000000000000000000000000081526004016113e6906145cd565b60405180910390fd5b80600b60006101000a81548173ffffffffffffffffffffffffffffffffffffffff021916908373ffffffffffffffffffffffffffffffffffffffff16021790555050565b600e6020528060005260406000206000915090505481565b60008073ffffffffffffffffffffffffffffffffffffffff168273ffffffffffffffffffffffffffffffffffffffff16036114be5760006040517f89c62b640000000000000000000000000000000000000000000000000000000081526004016114b59190613cfa565b60405180910390fd5b600360008373ffffffffffffffffffffffffffffffffffffffff1673ffffffffffffffffffffffffffffffffffffffff168152602001908152602001600020549050919050565b61150d611d84565b6115176000611e0b565b565b600681565b6000600a60009054906101000a900473ffffffffffffffffffffffffffffffffffffffff16905090565b600381565b60606001805461155c90614358565b80601f016020809104026020016040519081016040528092919081815260200182805461158890614358565b80156115d55780601f106115aa576101008083540402835291602001916115d5565b820191906000526020600020905b8154815290600101906020018083116115b857829003601f168201915b5050505050905090565b6115f16115ea611c45565b8383611ed1565b5050565b611600848484610b0e565b61161461160b611c45565b85858585612040565b50505050565b600f602052816000526040600020602052806000526040600020600091509150505481565b606061164a82611b80565b506000600d600084815260200190815260200160002060009054906101000a900460ff1690506000600c60008581526020019081526020016000205490506116938185846121f1565b92505050919050565b6116a4611d84565b3373ffffffffffffffffffffffffffffffffffffffff166116c482611366565b73ffffffffffffffffffffffffffffffffffffffff161461171a576040517f08c379a000000000000000000000000000000000000000000000000000000000815260040161171190614639565b60405180910390fd5b600d600082815260200190815260200160002060009054906101000a900460ff161561177b576040517f08c379a0000000000000000000000000000000000000000000000000000000008152600401611772906146a5565b60405180910390fd5b6001600d600083815260200190815260200160002060006101000a81548160ff0219169083151502179055507ff8e1a15aba9398e019f0b49df1a4fde98ee17ae345cb5f6b5e2c27f5033e8ce7816040516117d69190613d64565b60405180910390a150565b6060806060600767ffffffffffffffff811115611801576118006140ef565b5b60405190808252806020026020018201604052801561182f5781602001602082028036833780820191505090505b509250600767ffffffffffffffff81111561184d5761184c6140ef565b5b60405190808252806020026020018201604052801561187b5781602001602082028036833780820191505090505b509150600767ffffffffffffffff811115611899576118986140ef565b5b6040519080825280602002602001820160405280156118cc57816020015b60608152602001906001900390816118b75790505b50905060005b600781101561199d57808482815181106118ef576118ee614389565b5b602002602001018181525050600f60008673ffffffffffffffffffffffffffffffffffffffff1673ffffffffffffffffffffffffffffffffffffffff16815260200190815260200160002060008281526020019081526020016000205483828151811061195f5761195e614389565b5b60200260200101818152505061197481611d6e565b82828151811061198757611986614389565b5b60200260200101819052508060010190506118d2565b509193909250565b6000600560008473ffffffffffffffffffffffffffffffffffffffff1673ffffffffffffffffffffffffffffffffffffffff16815260200190815260200160002060008373ffffffffffffffffffffffffffffffffffffffff1673ffffffffffffffffffffffffffffffffffffffff16815260200190815260200160002060009054906101000a900460ff16905092915050565b600181565b600481565b611a4b611d84565b600073ffffffffffffffffffffffffffffffffffffffff168173ffffffffffffffffffffffffffffffffffffffff1603611abd5760006040517f1e4fbdf7000000000000000000000000000000000000000000000000000000008152600401611ab49190613cfa565b60405180910390fd5b611ac681611e0b565b50565b600b60009054906101000a900473ffffffffffffffffffffffffffffffffffffffff1681565b600081565b6060611aff82611d6e565b9050919050565b60007f780e9d63000000000000000000000000000000000000000000000000000000007bffffffffffffffffffffffffffffffffffffffffffffffffffffffff1916827bffffffffffffffffffffffffffffffffffffffffffffffffffffffff19161480611b795750611b78826122f9565b5b9050919050565b600080611b8c836123db565b9050600073ffffffffffffffffffffffffffffffffffffffff168173ffffffffffffffffffffffffffffffffffffffff1603611bff57826040517f7e273289000000000000000000000000000000000000000000000000000000008152600401611bf69190613d64565b60405180910390fd5b80915050919050565b60006004600083815260200190815260200160002060009054906101000a900473ffffffffffffffffffffffffffffffffffffffff169050919050565b600033905090565b611c5a8383836001612418565b505050565b6000611c6c8484846125dd565b90509392505050565b600073ffffffffffffffffffffffffffffffffffffffff168273ffffffffffffffffffffffffffffffffffffffff1603611ce75760006040517f64a0ae92000000000000000000000000000000000000000000000000000000008152600401611cde9190613cfa565b60405180910390fd5b6000611cf583836000611c5f565b9050600073ffffffffffffffffffffffffffffffffffffffff168173ffffffffffffffffffffffffffffffffffffffff1614611d695760006040517f73c6ac6e000000000000000000000000000000000000000000000000000000008152600401611d609190613cfa565b60405180910390fd5b505050565b6060611d79826126fa565b600001519050919050565b611d8c611c45565b73ffffffffffffffffffffffffffffffffffffffff16611daa61151e565b73ffffffffffffffffffffffffffffffffffffffff1614611e0957611dcd611c45565b6040517f118cdaa7000000000000000000000000000000000000000000000000000000008152600401611e009190613cfa565b60405180910390fd5b565b6000600a60009054906101000a900473ffffffffffffffffffffffffffffffffffffffff16905081600a60006101000a81548173ffffffffffffffffffffffffffffffffffffffff021916908373ffffffffffffffffffffffffffffffffffffffff1602179055508173ffffffffffffffffffffffffffffffffffffffff168173ffffffffffffffffffffffffffffffffffffffff167f8be0079c531659141344cd1fd0a4f28419497f9722a3daafe3b4186f6b6457e060405160405180910390a35050565b600073ffffffffffffffffffffffffffffffffffffffff168273ffffffffffffffffffffffffffffffffffffffff1603611f4257816040517f5b08ba18000000000000000000000000000000000000000000000000000000008152600401611f399190613cfa565b60405180910390fd5b80600560008573ffffffffffffffffffffffffffffffffffffffff1673ffffffffffffffffffffffffffffffffffffffff16815260200190815260200160002060008473ffffffffffffffffffffffffffffffffffffffff1673ffffffffffffffffffffffffffffffffffffffff16815260200190815260200160002060006101000a81548160ff0219169083151502179055508173ffffffffffffffffffffffffffffffffffffffff168373ffffffffffffffffffffffffffffffffffffffff167f17307eab39ab6107e8899845ad3d59bd9653f200f220920489ca2b5937696c31836040516120339190613b36565b60405180910390a3505050565b60008373ffffffffffffffffffffffffffffffffffffffff163b11156121ea578273ffffffffffffffffffffffffffffffffffffffff1663150b7a02868685856040518563ffffffff1660e01b815260040161209f949392919061471a565b6020604051808303816000875af19250505080156120db57506040513d601f19601f820116820180604052508101906120d8919061477b565b60015b61215f573d806000811461210b576040519150601f19603f3d011682016040523d82523d6000602084013e612110565b606091505b50600081510361215757836040517f64a0ae9200000000000000000000000000000000000000000000000000000000815260040161214e9190613cfa565b60405180910390fd5b805160208201fd5b63150b7a0260e01b7bffffffffffffffffffffffffffffffffffffffffffffffffffffffff1916817bffffffffffffffffffffffffffffffffffffffffffffffffffffffff1916146121e857836040517f64a0ae920000000000000000000000000000000000000000000000000000000081526004016121df9190613cfa565b60405180910390fd5b505b5050505050565b606060006121fe856126fa565b9050600061220b86612f61565b90506000826000015161221d87612fd2565b8460200151856040015188612267576040518060400160405280600a81526020017f556e72656465656d65640000000000000000000000000000000000000000000081525061229e565b6040518060400160405280600881526020017f52656465656d65640000000000000000000000000000000000000000000000008152505b866040516020016122b4969594939291906148ee565b60405160208183030381529060405290506122ce816130a0565b6040516020016122de91906149d5565b60405160208183030381529060405293505050509392505050565b60007f80ac58cd000000000000000000000000000000000000000000000000000000007bffffffffffffffffffffffffffffffffffffffffffffffffffffffff1916827bffffffffffffffffffffffffffffffffffffffffffffffffffffffff191614806123c457507f5b5e139f000000000000000000000000000000000000000000000000000000007bffffffffffffffffffffffffffffffffffffffffffffffffffffffff1916827bffffffffffffffffffffffffffffffffffffffffffffffffffffffff1916145b806123d457506123d3826130cd565b5b9050919050565b60006002600083815260200190815260200160002060009054906101000a900473ffffffffffffffffffffffffffffffffffffffff169050919050565b80806124515750600073ffffffffffffffffffffffffffffffffffffffff168273ffffffffffffffffffffffffffffffffffffffff1614155b1561258557600061246184611b80565b9050600073ffffffffffffffffffffffffffffffffffffffff168373ffffffffffffffffffffffffffffffffffffffff16141580156124cc57508273ffffffffffffffffffffffffffffffffffffffff168173ffffffffffffffffffffffffffffffffffffffff1614155b80156124df57506124dd81846119a5565b155b1561252157826040517fa9fbf51f0000000000000000000000000000000000000000000000000000000081526004016125189190613cfa565b60405180910390fd5b811561258357838573ffffffffffffffffffffffffffffffffffffffff168273ffffffffffffffffffffffffffffffffffffffff167f8c5be1e5ebec7d5bd14f71427d1e84f3dd0314c0f7b2291e5b200ac8c7c3b92560405160405180910390a45b505b836004600085815260200190815260200160002060006101000a81548173ffffffffffffffffffffffffffffffffffffffff021916908373ffffffffffffffffffffffffffffffffffffffff16021790555050505050565b6000806125eb858585613137565b9050600073ffffffffffffffffffffffffffffffffffffffff168173ffffffffffffffffffffffffffffffffffffffff160361262f5761262a84613351565b61266e565b8473ffffffffffffffffffffffffffffffffffffffff168173ffffffffffffffffffffffffffffffffffffffff161461266d5761266c818561339a565b5b5b600073ffffffffffffffffffffffffffffffffffffffff168573ffffffffffffffffffffffffffffffffffffffff16036126b0576126ab84613485565b6126ef565b8473ffffffffffffffffffffffffffffffffffffffff168173ffffffffffffffffffffffffffffffffffffffff16146126ee576126ed8585613556565b5b5b809150509392505050565b612702613a4d565b600060ff168260ff160361280d576040518060a001604052806040518060400160405280600681526020017f424c4950505900000000000000000000000000000000000000000000000000008152508152602001604051806060016040528060378152602001614c90603791398152602001604051806080016040528060428152602001614cc76042913981526020016040518060400160405280600c81526020017f4d7974686963204275727374000000000000000000000000000000000000000081525081526020016040518060400160405280600781526020017f4d797374657279000000000000000000000000000000000000000000000000008152508152509050612f5c565b600160ff168260ff1603612918576040518060a001604052806040518060400160405280600481526020017f495050590000000000000000000000000000000000000000000000000000000081525081526020016040518060600160405280603b8152602001614e43603b91398152602001604051806080016040528060428152602001614c4e6042913981526020016040518060400160405280600c81526020017f56657264616e742041757261000000000000000000000000000000000000000081525081526020016040518060400160405280600681526020017f4e617475726500000000000000000000000000000000000000000000000000008152508152509050612f5c565b600260ff168260ff1603612a23576040518060a001604052806040518060400160405280600581526020017f42495050590000000000000000000000000000000000000000000000000000008152508152602001604051806060016040528060358152602001614f76603591398152602001604051806080016040528060428152602001614fdf6042913981526020016040518060400160405280600d81526020017f5175616e74756d2050756c73650000000000000000000000000000000000000081525081526020016040518060400160405280600481526020017f54656368000000000000000000000000000000000000000000000000000000008152508152509050612f5c565b600360ff168260ff1603612b2e576040518060a001604052806040518060400160405280600681526020017f544849505059000000000000000000000000000000000000000000000000000081525081526020016040518060600160405280603b8152602001614ef9603b91398152602001604051806080016040528060428152602001614d4b6042913981526020016040518060400160405280600e81526020017f4368726f6d61746963205761766500000000000000000000000000000000000081525081526020016040518060400160405280600381526020017f41727400000000000000000000000000000000000000000000000000000000008152508152509050612f5c565b600460ff168260ff1603612c39576040518060a001604052806040518060400160405280600681526020017f53544950505900000000000000000000000000000000000000000000000000008152508152602001604051806060016040528060348152602001614fab6034913981526020016040518060800160405280604281526020016150216042913981526020016040518060400160405280600d81526020017f5265736f6e616e74204563686f0000000000000000000000000000000000000081525081526020016040518060400160405280600581526020017f4d757369630000000000000000000000000000000000000000000000000000008152508152509050612f5c565b600560ff168260ff1603612d44576040518060a001604052806040518060400160405280600681526020017f524149505059000000000000000000000000000000000000000000000000000081525081526020016040518060600160405280603b8152602001614ebe603b91398152602001604051806080016040528060428152602001614f346042913981526020016040518060400160405280601081526020017f4368616d70696f6e27732044726976650000000000000000000000000000000081525081526020016040518060400160405280600681526020017f53706f72747300000000000000000000000000000000000000000000000000008152508152509050612f5c565b600660ff168260ff1603612e4f576040518060a001604052806040518060400160405280600581526020017f4d495050590000000000000000000000000000000000000000000000000000008152508152602001604051806060016040528060398152602001614d8d603991398152602001604051806080016040528060428152602001614d096042913981526020016040518060400160405280600c81526020017f417263616465205375726765000000000000000000000000000000000000000081525081526020016040518060400160405280600681526020017f47616d696e6700000000000000000000000000000000000000000000000000008152508152509050612f5c565b6040518060a001604052806040518060400160405280600781526020017f556e6b6e6f776e0000000000000000000000000000000000000000000000000081525081526020016040518060400160405280601481526020017f556e6b6e6f776e204950505920656e746974792e00000000000000000000000081525081526020016040518060200160405280600081525081526020016040518060400160405280600981526020017f556e646566696e6564000000000000000000000000000000000000000000000081525081526020016040518060400160405280600781526020017f4d7973746572790000000000000000000000000000000000000000000000000081525081525090505b919050565b60606000612f6e836126fa565b9050600060ff168360ff1603612f9f576040518060a00160405280607d8152602001614dc6607d9139915050612fcd565b80608001518160600151604051602001612fba929190614b2b565b6040516020818303038152906040529150505b919050565b606060006001612fe1846135e1565b01905060008167ffffffffffffffff81111561300057612fff6140ef565b5b6040519080825280601f01601f1916602001820160405280156130325781602001600182028036833780820191505090505b509050600082602083010190505b600115613095578080600190039150507f3031323334353637383961626364656600000000000000000000000000000000600a86061a8153600a8581613089576130886144fb565b5b04945060008503613040575b819350505050919050565b60606130c682604051806060016040528060408152602001614e7e604091396001613734565b9050919050565b60007f01ffc9a7000000000000000000000000000000000000000000000000000000007bffffffffffffffffffffffffffffffffffffffffffffffffffffffff1916827bffffffffffffffffffffffffffffffffffffffffffffffffffffffff1916149050919050565b600080613143846123db565b9050600073ffffffffffffffffffffffffffffffffffffffff168373ffffffffffffffffffffffffffffffffffffffff1614613185576131848184866138c8565b5b600073ffffffffffffffffffffffffffffffffffffffff168173ffffffffffffffffffffffffffffffffffffffff1614613216576131c7600085600080612418565b6001600360008373ffffffffffffffffffffffffffffffffffffffff1673ffffffffffffffffffffffffffffffffffffffff168152602001908152602001600020600082825403925050819055505b600073ffffffffffffffffffffffffffffffffffffffff168573ffffffffffffffffffffffffffffffffffffffff1614613299576001600360008773ffffffffffffffffffffffffffffffffffffffff1673ffffffffffffffffffffffffffffffffffffffff168152602001908152602001600020600082825401925050819055505b846002600086815260200190815260200160002060006101000a81548173ffffffffffffffffffffffffffffffffffffffff021916908373ffffffffffffffffffffffffffffffffffffffff160217905550838573ffffffffffffffffffffffffffffffffffffffff168273ffffffffffffffffffffffffffffffffffffffff167fddf252ad1be2c89b69c2b068fc378daa952ba7f163c4a11628f55a4df523b3ef60405160405180910390a4809150509392505050565b6008805490506009600083815260200190815260200160002081905550600881908060018154018082558091505060019003906000526020600020016000909190919091505550565b60006133a58361144b565b90506000600760008481526020019081526020016000205490506000600660008673ffffffffffffffffffffffffffffffffffffffff1673ffffffffffffffffffffffffffffffffffffffff16815260200190815260200160002090508282146134515760008160008581526020019081526020016000205490508082600085815260200190815260200160002081905550826007600083815260200190815260200160002081905550505b6007600085815260200190815260200160002060009055806000848152602001908152602001600020600090555050505050565b600060016008805490506134999190614b74565b90506000600960008481526020019081526020016000205490506000600883815481106134c9576134c8614389565b5b9060005260206000200154905080600883815481106134eb576134ea614389565b5b90600052602060002001819055508160096000838152602001908152602001600020819055506009600085815260200190815260200160002060009055600880548061353a57613539614ba8565b5b6001900381819060005260206000200160009055905550505050565b600060016135638461144b565b61356d9190614b74565b905081600660008573ffffffffffffffffffffffffffffffffffffffff1673ffffffffffffffffffffffffffffffffffffffff168152602001908152602001600020600083815260200190815260200160002081905550806007600084815260200190815260200160002081905550505050565b600080600090507a184f03e93ff9f4daa797ed6e38ed64bf6a1f010000000000000000831061363f577a184f03e93ff9f4daa797ed6e38ed64bf6a1f0100000000000000008381613635576136346144fb565b5b0492506040810190505b6d04ee2d6d415b85acef8100000000831061367c576d04ee2d6d415b85acef81000000008381613672576136716144fb565b5b0492506020810190505b662386f26fc1000083106136ab57662386f26fc1000083816136a1576136a06144fb565b5b0492506010810190505b6305f5e10083106136d4576305f5e10083816136ca576136c96144fb565b5b0492506008810190505b61271083106136f95761271083816136ef576136ee6144fb565b5b0492506004810190505b6064831061371c5760648381613712576137116144fb565b5b0492506002810190505b600a831061372b576001810190505b80915050919050565b60606000845103613756576040518060200160405280600081525090506138c1565b60008261378857600360028651600461376f9190614bd7565b6137799190614c19565b613783919061452a565b6137af565b6003600286516137989190614c19565b6137a2919061452a565b60046137ae9190614bd7565b5b905060008167ffffffffffffffff8111156137cd576137cc6140ef565b5b6040519080825280601f01601f1916602001820160405280156137ff5781602001600182028036833780820191505090505b50905060018501602082018788518901602081018051600082525b82841015613875576003840193508351603f8160121c168701518653600186019550603f81600c1c168701518653600186019550603f8160061c168701518653600186019550603f811687015186536001860195505061381a565b80825289156138b55760038c51066001811461389857600281146138ab576138b3565b603d6001870353603d60028703536138b3565b603d60018703535b505b50505050505080925050505b9392505050565b6138d383838361398c565b61398757600073ffffffffffffffffffffffffffffffffffffffff168373ffffffffffffffffffffffffffffffffffffffff160361394857806040517f7e27328900000000000000000000000000000000000000000000000000000000815260040161393f9190613d64565b60405180910390fd5b81816040517f177e802f00000000000000000000000000000000000000000000000000000000815260040161397e929190614466565b60405180910390fd5b505050565b60008073ffffffffffffffffffffffffffffffffffffffff168373ffffffffffffffffffffffffffffffffffffffff1614158015613a4457508273ffffffffffffffffffffffffffffffffffffffff168473ffffffffffffffffffffffffffffffffffffffff161480613a055750613a0484846119a5565b5b80613a4357508273ffffffffffffffffffffffffffffffffffffffff16613a2b83611c08565b73ffffffffffffffffffffffffffffffffffffffff16145b5b90509392505050565b6040518060a0016040528060608152602001606081526020016060815260200160608152602001606081525090565b6000604051905090565b600080fd5b600080fd5b600073ffffffffffffffffffffffffffffffffffffffff82169050919050565b6000613abb82613a90565b9050919050565b613acb81613ab0565b8114613ad657600080fd5b50565b600081359050613ae881613ac2565b92915050565b600060208284031215613b0457613b03613a86565b5b6000613b1284828501613ad9565b91505092915050565b60008115159050919050565b613b3081613b1b565b82525050565b6000602082019050613b4b6000830184613b27565b92915050565b60007fffffffff0000000000000000000000000000000000000000000000000000000082169050919050565b613b8681613b51565b8114613b9157600080fd5b50565b600081359050613ba381613b7d565b92915050565b600060208284031215613bbf57613bbe613a86565b5b6000613bcd84828501613b94565b91505092915050565b600081519050919050565b600082825260208201905092915050565b60005b83811015613c10578082015181840152602081019050613bf5565b60008484015250505050565b6000601f19601f8301169050919050565b6000613c3882613bd6565b613c428185613be1565b9350613c52818560208601613bf2565b613c5b81613c1c565b840191505092915050565b60006020820190508181036000830152613c808184613c2d565b905092915050565b6000819050919050565b613c9b81613c88565b8114613ca657600080fd5b50565b600081359050613cb881613c92565b92915050565b600060208284031215613cd457613cd3613a86565b5b6000613ce284828501613ca9565b91505092915050565b613cf481613ab0565b82525050565b6000602082019050613d0f6000830184613ceb565b92915050565b60008060408385031215613d2c57613d2b613a86565b5b6000613d3a85828601613ad9565b9250506020613d4b85828601613ca9565b9150509250929050565b613d5e81613c88565b82525050565b6000602082019050613d796000830184613d55565b92915050565b600081519050919050565b600082825260208201905092915050565b6000819050602082019050919050565b613db481613c88565b82525050565b6000613dc68383613dab565b60208301905092915050565b6000602082019050919050565b6000613dea82613d7f565b613df48185613d8a565b9350613dff83613d9b565b8060005b83811015613e30578151613e178882613dba565b9750613e2283613dd2565b925050600181019050613e03565b5085935050505092915050565b60006020820190508181036000830152613e578184613ddf565b905092915050565b600080600060608486031215613e7857613e77613a86565b5b6000613e8686828701613ad9565b9350506020613e9786828701613ad9565b9250506040613ea886828701613ca9565b9150509250925092565b600081519050919050565b600082825260208201905092915050565b6000819050602082019050919050565b600082825260208201905092915050565b6000613efa82613bd6565b613f048185613ede565b9350613f14818560208601613bf2565b613f1d81613c1c565b840191505092915050565b6000613f348383613eef565b905092915050565b6000602082019050919050565b6000613f5482613eb2565b613f5e8185613ebd565b935083602082028501613f7085613ece565b8060005b85811015613fac5784840389528151613f8d8582613f28565b9450613f9883613f3c565b925060208a01995050600181019050613f74565b50829750879550505050505092915050565b60006080820190508181036000830152613fd88187613ddf565b90508181036020830152613fec8186613ddf565b905081810360408301526140008185613f49565b905061400f6060830184613d55565b95945050505050565b600060808201905081810360008301526140328187613ddf565b905081810360208301526140468186613ddf565b9050818103604083015261405a8185613f49565b9050818103606083015261406e8184613f49565b905095945050505050565b61408281613b1b565b811461408d57600080fd5b50565b60008135905061409f81614079565b92915050565b600080604083850312156140bc576140bb613a86565b5b60006140ca85828601613ad9565b92505060206140db85828601614090565b9150509250929050565b600080fd5b600080fd5b7f4e487b7100000000000000000000000000000000000000000000000000000000600052604160045260246000fd5b61412782613c1c565b810181811067ffffffffffffffff82111715614146576141456140ef565b5b80604052505050565b6000614159613a7c565b9050614165828261411e565b919050565b600067ffffffffffffffff821115614185576141846140ef565b5b61418e82613c1c565b9050602081019050919050565b82818337600083830152505050565b60006141bd6141b88461416a565b61414f565b9050828152602081018484840111156141d9576141d86140ea565b5b6141e484828561419b565b509392505050565b600082601f830112614201576142006140e5565b5b81356142118482602086016141aa565b91505092915050565b6000806000806080858703121561423457614233613a86565b5b600061424287828801613ad9565b945050602061425387828801613ad9565b935050604061426487828801613ca9565b925050606085013567ffffffffffffffff81111561428557614284613a8b565b5b614291878288016141ec565b91505092959194509250565b600060608201905081810360008301526142b78186613ddf565b905081810360208301526142cb8185613ddf565b905081810360408301526142df8184613f49565b9050949350505050565b60008060408385031215614300576142ff613a86565b5b600061430e85828601613ad9565b925050602061431f85828601613ad9565b9150509250929050565b7f4e487b7100000000000000000000000000000000000000000000000000000000600052602260045260246000fd5b6000600282049050600182168061437057607f821691505b60208210810361438357614382614329565b5b50919050565b7f4e487b7100000000000000000000000000000000000000000000000000000000600052603260045260246000fd5b7f4e487b7100000000000000000000000000000000000000000000000000000000600052601160045260246000fd5b60006143f282613c88565b91507fffffffffffffffffffffffffffffffffffffffffffffffffffffffffffffffff8203614424576144236143b8565b5b600182019050919050565b60006060820190506144446000830186613ceb565b6144516020830185613d55565b61445e6040830184613ceb565b949350505050565b600060408201905061447b6000830185613ceb565b6144886020830184613d55565b9392505050565b7f4f6e6c7920426c696e64426f782063616e206d696e7400000000000000000000600082015250565b60006144c5601683613be1565b91506144d08261448f565b602082019050919050565b600060208201905081810360008301526144f4816144b8565b9050919050565b7f4e487b7100000000000000000000000000000000000000000000000000000000600052601260045260246000fd5b600061453582613c88565b915061454083613c88565b9250826145505761454f6144fb565b5b828204905092915050565b7f426c696e64426f7820636f6e74726163742063616e6e6f74206265207a65726f60008201527f2061646472657373000000000000000000000000000000000000000000000000602082015250565b60006145b7602883613be1565b91506145c28261455b565b604082019050919050565b600060208201905081810360008301526145e6816145aa565b9050919050565b7f4e6f7420746f6b656e206f776e65720000000000000000000000000000000000600082015250565b6000614623600f83613be1565b915061462e826145ed565b602082019050919050565b6000602082019050818103600083015261465281614616565b9050919050565b7f416c72656164792072656465656d656400000000000000000000000000000000600082015250565b600061468f601083613be1565b915061469a82614659565b602082019050919050565b600060208201905081810360008301526146be81614682565b9050919050565b600081519050919050565b600082825260208201905092915050565b60006146ec826146c5565b6146f681856146d0565b9350614706818560208601613bf2565b61470f81613c1c565b840191505092915050565b600060808201905061472f6000830187613ceb565b61473c6020830186613ceb565b6147496040830185613d55565b818103606083015261475b81846146e1565b905095945050505050565b60008151905061477581613b7d565b92915050565b60006020828403121561479157614790613a86565b5b600061479f84828501614766565b91505092915050565b7f7b226e616d65223a220000000000000000000000000000000000000000000000815250565b600081905092915050565b60006147e482613bd6565b6147ee81856147ce565b93506147fe818560208601613bf2565b80840191505092915050565b7f2023000000000000000000000000000000000000000000000000000000000000815250565b7f222c226465736372697074696f6e223a22000000000000000000000000000000815250565b7f222c22696d616765223a22000000000000000000000000000000000000000000815250565b7f222c22737461747573223a220000000000000000000000000000000000000000815250565b7f222c2261747472696275746573223a5b00000000000000000000000000000000815250565b7f5d7d000000000000000000000000000000000000000000000000000000000000815250565b60006148f9826147a8565b60098201915061490982896147d9565b91506149148261480a565b60028201915061492482886147d9565b915061492f82614830565b60118201915061493f82876147d9565b915061494a82614856565b600b8201915061495a82866147d9565b91506149658261487c565b600c8201915061497582856147d9565b9150614980826148a2565b60108201915061499082846147d9565b915061499b826148c8565b600282019150819050979650505050505050565b7f646174613a6170706c69636174696f6e2f6a736f6e3b6261736536342c000000815250565b60006149e0826149af565b601d820191506149f082846147d9565b915081905092915050565b7f7b2274726169745f74797065223a2254696572222c2276616c7565223a22537460008201527f616e64617264227d2c7b2274726169745f74797065223a22416666696e69747960208201527f222c2276616c7565223a22000000000000000000000000000000000000000000604082015250565b6000614a7d604b836147ce565b9150614a88826149fb565b604b82019050919050565b7f227d2c7b2274726169745f74797065223a22506f776572222c2276616c75652260008201527f3a22000000000000000000000000000000000000000000000000000000000000602082015250565b6000614aef6022836147ce565b9150614afa82614a93565b602282019050919050565b7f7d00000000000000000000000000000000000000000000000000000000000000815250565b6000614b3682614a70565b9150614b4282856147d9565b9150614b4d82614ae2565b9150614b5982846147d9565b9150614b6482614b05565b6001820191508190509392505050565b6000614b7f82613c88565b9150614b8a83613c88565b9250828203905081811115614ba257614ba16143b8565b5b92915050565b7f4e487b7100000000000000000000000000000000000000000000000000000000600052603160045260246000fd5b6000614be282613c88565b9150614bed83613c88565b9250828202614bfb81613c88565b91508282048414831517614c1257614c116143b8565b5b5092915050565b6000614c2482613c88565b9150614c2f83613c88565b9250828201905080821115614c4757614c466143b8565b5b9291505056fe697066733a2f2f626166796265696164356e707476776d6863676977356a3366626f6c656e6a7132726b75346e6770666a6d7271663471626b79326b656666696d6154686520656c757369766520426c697070792c2072756d6f72656420746f2062656e642070726f626162696c69747920697473656c662e697066733a2f2f626166796265696768686561616970767a6935697873377263377765336e7a66666b7871636d6b673264776c6b7937366d657435757773787a6f65697066733a2f2f62616679626569686936346c7a616d796b7668677365786e6875683574766c69727676696c67616b3776336d6832377637356b766b756c78716961697066733a2f2f6261667962656967637173356d7468737a746a776e69373272326462367a3468347762627a737235737362357070726b73323666326f76656a6b694d49505059206c6576656c7320757020666173746572207468616e20616e79206368616c6c656e67657220696e20746865206172636164652e7b2274726169745f74797065223a2254696572222c2276616c7565223a2248696464656e227d2c7b2274726169745f74797065223a22416666696e697479222c2276616c7565223a224d797374657279227d2c7b2274726169745f74797065223a22506f776572222c2276616c7565223a224c6567656e64617279227d49505059207468726976657320696e206c75736820666f72657374732c206272696e67696e672063616c6d20746f2065766572792067726f76652e4142434445464748494a4b4c4d4e4f505152535455565758595a6162636465666768696a6b6c6d6e6f707172737475767778797a303132333435363738392b2f52414950505920737072696e7473207061737420726976616c732c2063686173696e6720746865206e657874206172656e6120766963746f72792e544849505059207061696e7473207265616c697479207769746820626f6c64207374726f6b657320616e6420656e646c65737320766973696f6e2e697066733a2f2f6261666b72656968676b3478353467353472666376696b336a646532776f366c6366696d7276617a616f77616b35356b616e36697069376f64356142495050592070756c7365732077697468206e656f6e20656e657267792066726f6d2066757475726520636974797363617065732e535449505059206861726d6f6e697a657320736f756e64776176657320696e746f206c756d696e6f7573206d656c6f646965732e697066733a2f2f62616679626569686933363469357265373537646f3768336e7563746d673736376b7862713662663575776173717a327a34776f676a7578727a34697066733a2f2f626166796265696172657777776572696c36677333726571326e676f6670627871726263356c6b327a7a793366733261357a7032737a7566787569a26469706673582212207270df344a4594bea8d62c9e98d592dae222ccf179fad19e43cd29a84232ac9e64736f6c634300081c0033",
  "linkReferences": {},
  "deployedLinkReferences": {}
}