{
  "_format": "hh-sol-artifact-1",
  "contractName": "MetadataLibBlindBox",
  "sourceName": "contracts/lib/MetadataLibBlindBox.sol",
  "abi": [
    {
      "inputs": [],
      "name": "generateBlindBoxMetadata",
      "outputs": [
        {
          "internalType": "string",
          "name": "",
          "type": "string"
        }
      ],
      "stateMutability": "pure",
      "type": "function"
    },
    {
      "inputs": [
        {
          "internalType": "uint256",
          "name": "tokenId",
          "type": "uint256"
        }
      ],
      "name": "tokenURI",
      "outputs": [
        {
          "internalType": "string",
          "name": "",
          "type": "string"
        }
      ],
      "stateMutability": "pure",
      "type": "function"
    }
  ],
  "bytecode": "0x610db6610052600b82828239805160001a6073146045577f4e487b7100000000000000000000000000000000000000000000000000000000600052600060045260246000fd5b30600052607381538281f3fe73000000000000000000000000000000000000000030146080604052600436106100405760003560e01c8063c7aab2e814610045578063c87b56dd14610063575b600080fd5b61004d610093565b60405161005a91906103bd565b60405180910390f35b61007d6004803603810190610078919061041a565b61013b565b60405161008a91906103bd565b60405180910390f35b60606000604051806101e001604052806101a98152602001610b986101a99139905060006100c08261016c565b90506000816040516020016100d591906104cf565b60405160208183030381529060405290506000816040516020016100f99190610965565b60405160208183030381529060405290506101138161016c565b6040516020016101239190610a41565b60405160208183030381529060405294505050505090565b6060600182036101545761014d610093565b9050610167565b6040518060200160405280600081525090505b919050565b606061019282604051806060016040528060408152602001610d41604091396001610199565b9050919050565b606060008451036101bb57604051806020016040528060008152509050610326565b6000826101ed5760036002865160046101d49190610a92565b6101de9190610ad4565b6101e89190610b37565b610214565b6003600286516101fd9190610ad4565b6102079190610b37565b60046102139190610a92565b5b905060008167ffffffffffffffff81111561023257610231610b68565b5b6040519080825280601f01601f1916602001820160405280156102645781602001600182028036833780820191505090505b50905060018501602082018788518901602081018051600082525b828410156102da576003840193508351603f8160121c168701518653600186019550603f81600c1c168701518653600186019550603f8160061c168701518653600186019550603f811687015186536001860195505061027f565b808252891561031a5760038c5106600181146102fd576002811461031057610318565b603d6001870353603d6002870353610318565b603d60018703535b505b50505050505080925050505b9392505050565b600081519050919050565b600082825260208201905092915050565b60005b8381101561036757808201518184015260208101905061034c565b60008484015250505050565b6000601f19601f8301169050919050565b600061038f8261032d565b6103998185610338565b93506103a9818560208601610349565b6103b281610373565b840191505092915050565b600060208201905081810360008301526103d78184610384565b905092915050565b600080fd5b6000819050919050565b6103f7816103e4565b811461040257600080fd5b50565b600081359050610414816103ee565b92915050565b6000602082840312156104305761042f6103df565b5b600061043e84828501610405565b91505092915050565b600081905092915050565b7f646174613a696d6167652f7376672b786d6c3b6261736536342c000000000000600082015250565b6000610488601a83610447565b915061049382610452565b601a82019050919050565b60006104a98261032d565b6104b38185610447565b93506104c3818560208601610349565b80840191505092915050565b60006104da8261047b565b91506104e6828461049e565b915081905092915050565b7f7b226e616d65223a202249505059204d79737465727920426f78222c00000000600082015250565b6000610527601c83610447565b9150610532826104f1565b601c82019050919050565b7f226465736372697074696f6e223a202241206d7973746572696f757320626c6960008201527f6e6420626f7820636f6e7461696e696e67206f6e65206f66203720706f73736960208201527f626c652049505059204e4654732e204561636820626f7820686f6c647320746860408201527f6520706f74656e7469616c20666f7220696e6372656469626c6520646973636f60608201527f76657269657321222c0000000000000000000000000000000000000000000000608082015250565b600061060b608983610447565b91506106168261053d565b608982019050919050565b7f22696d616765223a202200000000000000000000000000000000000000000000600082015250565b6000610657600a83610447565b915061066282610621565b600a82019050919050565b7f222c000000000000000000000000000000000000000000000000000000000000600082015250565b60006106a3600283610447565b91506106ae8261066d565b600282019050919050565b7f226261636b67726f756e645f636f6c6f72223a2022463043304341222c000000600082015250565b60006106ef601d83610447565b91506106fa826106b9565b601d82019050919050565b7f2261747472696275746573223a205b0000000000000000000000000000000000600082015250565b600061073b600f83610447565b915061074682610705565b600f82019050919050565b7f7b2274726169745f74797065223a202254797065222c202276616c7565223a2060008201527f224d79737465727920426f78227d2c0000000000000000000000000000000000602082015250565b60006107ad602f83610447565b91506107b882610751565b602f82019050919050565b7f7b2274726169745f74797065223a2022537461747573222c202276616c75652260008201527f3a2022556e6f70656e6564227d2c000000000000000000000000000000000000602082015250565b600061081f602e83610447565b915061082a826107c3565b602e82019050919050565b7f7b2274726169745f74797065223a202248696464656e204e4654204368616e6360008201527f65222c202276616c7565223a2022302e3030303125227d2c0000000000000000602082015250565b6000610891603883610447565b915061089c82610835565b603882019050919050565b7f7b2274726169745f74797065223a20225374616e64617264204e46542043686160008201527f6e6365222c202276616c7565223a202239392e3939393925227d000000000000602082015250565b6000610903603a83610447565b915061090e826108a7565b603a82019050919050565b7f5d7d000000000000000000000000000000000000000000000000000000000000600082015250565b600061094f600283610447565b915061095a82610919565b600282019050919050565b60006109708261051a565b915061097b826105fe565b91506109868261064a565b9150610992828461049e565b915061099d82610696565b91506109a8826106e2565b91506109b38261072e565b91506109be826107a0565b91506109c982610812565b91506109d482610884565b91506109df826108f6565b91506109ea82610942565b915081905092915050565b7f646174613a6170706c69636174696f6e2f6a736f6e3b6261736536342c000000600082015250565b6000610a2b601d83610447565b9150610a36826109f5565b601d82019050919050565b6000610a4c82610a1e565b9150610a58828461049e565b915081905092915050565b7f4e487b7100000000000000000000000000000000000000000000000000000000600052601160045260246000fd5b6000610a9d826103e4565b9150610aa8836103e4565b9250828202610ab6816103e4565b91508282048414831517610acd57610acc610a63565b5b5092915050565b6000610adf826103e4565b9150610aea836103e4565b9250828201905080821115610b0257610b01610a63565b5b92915050565b7f4e487b7100000000000000000000000000000000000000000000000000000000600052601260045260246000fd5b6000610b42826103e4565b9150610b4d836103e4565b925082610b5d57610b5c610b08565b5b828204905092915050565b7f4e487b7100000000000000000000000000000000000000000000000000000000600052604160045260246000fdfe3c73766720786d6c6e733d22687474703a2f2f7777772e77332e6f72672f323030302f737667222077696474683d2231383822206865696768743d22313838222076696577426f783d223020302031383820313838222066696c6c3d226e6f6e65223e3c636972636c652063783d223934222063793d2239342220723d2239302e35222066696c6c3d2275726c28237061696e74305f6c696e6561725f36365f352922207374726f6b653d222336333430343822207374726f6b652d77696474683d2237222f3e3c646566733e3c6c696e6561724772616469656e742069643d227061696e74305f6c696e6561725f36365f35222078313d223135322e343635222079313d22322e3335303938652d3036222078323d2233352e35333533222079323d2231383822206772616469656e74556e6974733d227573657253706163654f6e557365223e3c73746f702073746f702d636f6c6f723d2223464546334546222f3e3c73746f70206f66667365743d2231222073746f702d636f6c6f723d2223463043304341222f3e3c2f6c696e6561724772616469656e743e3c2f646566733e3c2f7376673e4142434445464748494a4b4c4d4e4f505152535455565758595a6162636465666768696a6b6c6d6e6f707172737475767778797a303132333435363738392b2fa26469706673582212208729faf8bb6c6088419486205873f6d9147fcfde522353ca03a3ef4ca334d18e64736f6c634300081c0033",
  "linkReferences": {},
  "deployedLinkReferences": {}
}