{
  "_format": "hh-sol-artifact-1",
  "contractName": "BlindBox",
  "sourceName": "contracts/BlindBox.sol",
  "abi": [
    {
      "inputs": [
        {
          "internalType": "address",
          "name": "_ippyNFT",
          "type": "address"
        },
        {
          "internalType": "address",
          "name": "_entropy",
          "type": "address"
        }
      ],
      "stateMutability": "nonpayable",
      "type": "constructor"
    },
    {
      "inputs": [
        {
          "internalType": "address",
          "name": "sender",
          "type": "address"
        },
        {
          "internalType": "uint256",
          "name": "balance",
          "type": "uint256"
        },
        {
          "internalType": "uint256",
          "name": "needed",
          "type": "uint256"
        },
        {
          "internalType": "uint256",
          "name": "tokenId",
          "type": "uint256"
        }
      ],
      "name": "ERC1155InsufficientBalance",
      "type": "error"
    },
    {
      "inputs": [
        {
          "internalType": "address",
          "name": "approver",
          "type": "address"
        }
      ],
      "name": "ERC1155InvalidApprover",
      "type": "error"
    },
    {
      "inputs": [
        {
          "internalType": "uint256",
          "name": "idsLength",
          "type": "uint256"
        },
        {
          "internalType": "uint256",
          "name": "valuesLength",
          "type": "uint256"
        }
      ],
      "name": "ERC1155InvalidArrayLength",
      "type": "error"
    },
    {
      "inputs": [
        {
          "internalType": "address",
          "name": "operator",
          "type": "address"
        }
      ],
      "name": "ERC1155InvalidOperator",
      "type": "error"
    },
    {
      "inputs": [
        {
          "internalType": "address",
          "name": "receiver",
          "type": "address"
        }
      ],
      "name": "ERC1155InvalidReceiver",
      "type": "error"
    },
    {
      "inputs": [
        {
          "internalType": "address",
          "name": "sender",
          "type": "address"
        }
      ],
      "name": "ERC1155InvalidSender",
      "type": "error"
    },
    {
      "inputs": [
        {
          "internalType": "address",
          "name": "operator",
          "type": "address"
        },
        {
          "internalType": "address",
          "name": "owner",
          "type": "address"
        }
      ],
      "name": "ERC1155MissingApprovalForAll",
      "type": "error"
    },
    {
      "inputs": [
        {
          "internalType": "address",
          "name": "owner",
          "type": "address"
        }
      ],
      "name": "OwnableInvalidOwner",
      "type": "error"
    },
    {
      "inputs": [
        {
          "internalType": "address",
          "name": "account",
          "type": "address"
        }
      ],
      "name": "OwnableUnauthorizedAccount",
      "type": "error"
    },
    {
      "inputs": [],
      "name": "ReentrancyGuardReentrantCall",
      "type": "error"
    },
    {
      "anonymous": false,
      "inputs": [
        {
          "indexed": true,
          "internalType": "address",
          "name": "account",
          "type": "address"
        },
        {
          "indexed": true,
          "internalType": "address",
          "name": "operator",
          "type": "address"
        },
        {
          "indexed": false,
          "internalType": "bool",
          "name": "approved",
          "type": "bool"
        }
      ],
      "name": "ApprovalForAll",
      "type": "event"
    },
    {
      "anonymous": false,
      "inputs": [
        {
          "indexed": true,
          "internalType": "address",
          "name": "opener",
          "type": "address"
        },
        {
          "indexed": false,
          "internalType": "uint256",
          "name": "boxTokenId",
          "type": "uint256"
        },
        {
          "indexed": false,
          "internalType": "uint256",
          "name": "receivedNFTId",
          "type": "uint256"
        },
        {
          "indexed": false,
          "internalType": "bool",
          "name": "isHidden",
          "type": "bool"
        }
      ],
      "name": "BlindBoxOpened",
      "type": "event"
    },
    {
      "anonymous": false,
      "inputs": [
        {
          "indexed": true,
          "internalType": "address",
          "name": "buyer",
          "type": "address"
        },
        {
          "indexed": false,
          "internalType": "uint256",
          "name": "amount",
          "type": "uint256"
        },
        {
          "indexed": false,
          "internalType": "uint256",
          "name": "totalCost",
          "type": "uint256"
        }
      ],
      "name": "BlindBoxPurchased",
      "type": "event"
    },
    {
      "anonymous": false,
      "inputs": [
        {
          "indexed": true,
          "internalType": "address",
          "name": "recipient",
          "type": "address"
        },
        {
          "indexed": false,
          "internalType": "uint256",
          "name": "nftId",
          "type": "uint256"
        }
      ],
      "name": "NFTMinted",
      "type": "event"
    },
    {
      "anonymous": false,
      "inputs": [
        {
          "indexed": true,
          "internalType": "address",
          "name": "previousOwner",
          "type": "address"
        },
        {
          "indexed": true,
          "internalType": "address",
          "name": "newOwner",
          "type": "address"
        }
      ],
      "name": "OwnershipTransferred",
      "type": "event"
    },
    {
      "anonymous": false,
      "inputs": [
        {
          "indexed": false,
          "internalType": "uint256",
          "name": "newPrice",
          "type": "uint256"
        }
      ],
      "name": "PriceUpdated",
      "type": "event"
    },
    {
      "anonymous": false,
      "inputs": [
        {
          "indexed": true,
          "internalType": "address",
          "name": "operator",
          "type": "address"
        },
        {
          "indexed": true,
          "internalType": "address",
          "name": "from",
          "type": "address"
        },
        {
          "indexed": true,
          "internalType": "address",
          "name": "to",
          "type": "address"
        },
        {
          "indexed": false,
          "internalType": "uint256[]",
          "name": "ids",
          "type": "uint256[]"
        },
        {
          "indexed": false,
          "internalType": "uint256[]",
          "name": "values",
          "type": "uint256[]"
        }
      ],
      "name": "TransferBatch",
      "type": "event"
    },
    {
      "anonymous": false,
      "inputs": [
        {
          "indexed": true,
          "internalType": "address",
          "name": "operator",
          "type": "address"
        },
        {
          "indexed": true,
          "internalType": "address",
          "name": "from",
          "type": "address"
        },
        {
          "indexed": true,
          "internalType": "address",
          "name": "to",
          "type": "address"
        },
        {
          "indexed": false,
          "internalType": "uint256",
          "name": "id",
          "type": "uint256"
        },
        {
          "indexed": false,
          "internalType": "uint256",
          "name": "value",
          "type": "uint256"
        }
      ],
      "name": "TransferSingle",
      "type": "event"
    },
    {
      "anonymous": false,
      "inputs": [
        {
          "indexed": false,
          "internalType": "string",
          "name": "value",
          "type": "string"
        },
        {
          "indexed": true,
          "internalType": "uint256",
          "name": "id",
          "type": "uint256"
        }
      ],
      "name": "URI",
      "type": "event"
    },
    {
      "anonymous": false,
      "inputs": [
        {
          "indexed": true,
          "internalType": "address",
          "name": "user",
          "type": "address"
        },
        {
          "indexed": false,
          "internalType": "uint64",
          "name": "sequenceNumber",
          "type": "uint64"
        },
        {
          "indexed": false,
          "internalType": "uint256",
          "name": "amount",
          "type": "uint256"
        }
      ],
      "name": "VRFRequested",
      "type": "event"
    },
    {
      "inputs": [
        {
          "internalType": "uint64",
          "name": "sequence",
          "type": "uint64"
        },
        {
          "internalType": "address",
          "name": "provider",
          "type": "address"
        },
        {
          "internalType": "bytes32",
          "name": "randomNumber",
          "type": "bytes32"
        }
      ],
      "name": "_entropyCallback",
      "outputs": [],
      "stateMutability": "nonpayable",
      "type": "function"
    },
    {
      "inputs": [
        {
          "internalType": "address",
          "name": "account",
          "type": "address"
        },
        {
          "internalType": "uint256",
          "name": "id",
          "type": "uint256"
        }
      ],
      "name": "balanceOf",
      "outputs": [
        {
          "internalType": "uint256",
          "name": "",
          "type": "uint256"
        }
      ],
      "stateMutability": "view",
      "type": "function"
    },
    {
      "inputs": [
        {
          "internalType": "address[]",
          "name": "accounts",
          "type": "address[]"
        },
        {
          "internalType": "uint256[]",
          "name": "ids",
          "type": "uint256[]"
        }
      ],
      "name": "balanceOfBatch",
      "outputs": [
        {
          "internalType": "uint256[]",
          "name": "",
          "type": "uint256[]"
        }
      ],
      "stateMutability": "view",
      "type": "function"
    },
    {
      "inputs": [],
      "name": "boxPrice",
      "outputs": [
        {
          "internalType": "uint256",
          "name": "",
          "type": "uint256"
        }
      ],
      "stateMutability": "view",
      "type": "function"
    },
    {
      "inputs": [],
      "name": "currentSupply",
      "outputs": [
        {
          "internalType": "uint256",
          "name": "",
          "type": "uint256"
        }
      ],
      "stateMutability": "view",
      "type": "function"
    },
    {
      "inputs": [],
      "name": "entropy",
      "outputs": [
        {
          "internalType": "contract IEntropyV2",
          "name": "",
          "type": "address"
        }
      ],
      "stateMutability": "view",
      "type": "function"
    },
    {
      "inputs": [],
      "name": "getContractInfo",
      "outputs": [
        {
          "internalType": "uint256",
          "name": "price",
          "type": "uint256"
        },
        {
          "internalType": "uint256",
          "name": "totalSupply",
          "type": "uint256"
        },
        {
          "internalType": "uint256",
          "name": "currentSupplyCount",
          "type": "uint256"
        },
        {
          "internalType": "uint256",
          "name": "remainingBoxes",
          "type": "uint256"
        }
      ],
      "stateMutability": "view",
      "type": "function"
    },
    {
      "inputs": [],
      "name": "getIPPYNFT",
      "outputs": [
        {
          "internalType": "address",
          "name": "",
          "type": "address"
        }
      ],
      "stateMutability": "view",
      "type": "function"
    },
    {
      "inputs": [
        {
          "internalType": "address",
          "name": "user",
          "type": "address"
        }
      ],
      "name": "getUserBoxBalance",
      "outputs": [
        {
          "internalType": "uint256",
          "name": "",
          "type": "uint256"
        }
      ],
      "stateMutability": "view",
      "type": "function"
    },
    {
      "inputs": [],
      "name": "getVRFFee",
      "outputs": [
        {
          "internalType": "uint256",
          "name": "",
          "type": "uint256"
        }
      ],
      "stateMutability": "view",
      "type": "function"
    },
    {
      "inputs": [
        {
          "internalType": "uint256",
          "name": "amount",
          "type": "uint256"
        }
      ],
      "name": "getVRFFeeForBoxes",
      "outputs": [
        {
          "internalType": "uint256",
          "name": "",
          "type": "uint256"
        }
      ],
      "stateMutability": "view",
      "type": "function"
    },
    {
      "inputs": [],
      "name": "ippyNFT",
      "outputs": [
        {
          "internalType": "contract IIPPYNFT",
          "name": "",
          "type": "address"
        }
      ],
      "stateMutability": "view",
      "type": "function"
    },
    {
      "inputs": [
        {
          "internalType": "address",
          "name": "account",
          "type": "address"
        },
        {
          "internalType": "address",
          "name": "operator",
          "type": "address"
        }
      ],
      "name": "isApprovedForAll",
      "outputs": [
        {
          "internalType": "bool",
          "name": "",
          "type": "bool"
        }
      ],
      "stateMutability": "view",
      "type": "function"
    },
    {
      "inputs": [],
      "name": "maxTotalSupply",
      "outputs": [
        {
          "internalType": "uint256",
          "name": "",
          "type": "uint256"
        }
      ],
      "stateMutability": "view",
      "type": "function"
    },
    {
      "inputs": [],
      "name": "name",
      "outputs": [
        {
          "internalType": "string",
          "name": "",
          "type": "string"
        }
      ],
      "stateMutability": "view",
      "type": "function"
    },
    {
      "inputs": [
        {
          "internalType": "uint256",
          "name": "amount",
          "type": "uint256"
        }
      ],
      "name": "openBox",
      "outputs": [],
      "stateMutability": "payable",
      "type": "function"
    },
    {
      "inputs": [],
      "name": "owner",
      "outputs": [
        {
          "internalType": "address",
          "name": "",
          "type": "address"
        }
      ],
      "stateMutability": "view",
      "type": "function"
    },
    {
      "inputs": [
        {
          "internalType": "uint64",
          "name": "",
          "type": "uint64"
        }
      ],
      "name": "pendingBoxOpens",
      "outputs": [
        {
          "internalType": "address",
          "name": "user",
          "type": "address"
        },
        {
          "internalType": "uint128",
          "name": "amount",
          "type": "uint128"
        },
        {
          "internalType": "bool",
          "name": "processed",
          "type": "bool"
        }
      ],
      "stateMutability": "view",
      "type": "function"
    },
    {
      "inputs": [
        {
          "internalType": "uint256",
          "name": "amount",
          "type": "uint256"
        }
      ],
      "name": "purchaseBoxes",
      "outputs": [],
      "stateMutability": "payable",
      "type": "function"
    },
    {
      "inputs": [],
      "name": "renounceOwnership",
      "outputs": [],
      "stateMutability": "nonpayable",
      "type": "function"
    },
    {
      "inputs": [
        {
          "internalType": "address",
          "name": "from",
          "type": "address"
        },
        {
          "internalType": "address",
          "name": "to",
          "type": "address"
        },
        {
          "internalType": "uint256[]",
          "name": "ids",
          "type": "uint256[]"
        },
        {
          "internalType": "uint256[]",
          "name": "values",
          "type": "uint256[]"
        },
        {
          "internalType": "bytes",
          "name": "data",
          "type": "bytes"
        }
      ],
      "name": "safeBatchTransferFrom",
      "outputs": [],
      "stateMutability": "nonpayable",
      "type": "function"
    },
    {
      "inputs": [
        {
          "internalType": "address",
          "name": "from",
          "type": "address"
        },
        {
          "internalType": "address",
          "name": "to",
          "type": "address"
        },
        {
          "internalType": "uint256",
          "name": "id",
          "type": "uint256"
        },
        {
          "internalType": "uint256",
          "name": "value",
          "type": "uint256"
        },
        {
          "internalType": "bytes",
          "name": "data",
          "type": "bytes"
        }
      ],
      "name": "safeTransferFrom",
      "outputs": [],
      "stateMutability": "nonpayable",
      "type": "function"
    },
    {
      "inputs": [
        {
          "internalType": "address",
          "name": "operator",
          "type": "address"
        },
        {
          "internalType": "bool",
          "name": "approved",
          "type": "bool"
        }
      ],
      "name": "setApprovalForAll",
      "outputs": [],
      "stateMutability": "nonpayable",
      "type": "function"
    },
    {
      "inputs": [
        {
          "internalType": "uint256",
          "name": "_newPrice",
          "type": "uint256"
        }
      ],
      "name": "setBoxPrice",
      "outputs": [],
      "stateMutability": "nonpayable",
      "type": "function"
    },
    {
      "inputs": [
        {
          "internalType": "address",
          "name": "_entropy",
          "type": "address"
        }
      ],
      "name": "setEntropy",
      "outputs": [],
      "stateMutability": "nonpayable",
      "type": "function"
    },
    {
      "inputs": [
        {
          "internalType": "bytes4",
          "name": "interfaceId",
          "type": "bytes4"
        }
      ],
      "name": "supportsInterface",
      "outputs": [
        {
          "internalType": "bool",
          "name": "",
          "type": "bool"
        }
      ],
      "stateMutability": "view",
      "type": "function"
    },
    {
      "inputs": [],
      "name": "symbol",
      "outputs": [
        {
          "internalType": "string",
          "name": "",
          "type": "string"
        }
      ],
      "stateMutability": "view",
      "type": "function"
    },
    {
      "inputs": [
        {
          "internalType": "address",
          "name": "newOwner",
          "type": "address"
        }
      ],
      "name": "transferOwnership",
      "outputs": [],
      "stateMutability": "nonpayable",
      "type": "function"
    },
    {
      "inputs": [
        {
          "internalType": "uint256",
          "name": "tokenId",
          "type": "uint256"
        }
      ],
      "name": "uri",
      "outputs": [
        {
          "internalType": "string",
          "name": "",
          "type": "string"
        }
      ],
      "stateMutability": "pure",
      "type": "function"
    },
    {
      "inputs": [],
      "name": "withdrawFunds",
      "outputs": [],
      "stateMutability": "nonpayable",
      "type": "function"
    }
  ],
  "bytecode": "0x60806040526040518060400160405280601081526020017f49505059204d79737465727920426f7800000000000000000000000000000000815250600790816100489190610530565b506040518060400160405280600881526020017f495050595f424f580000000000000000000000000000000000000000000000008152506008908161008d9190610530565b50662386f26fc10000600955620bde31600a556000600b553480156100b157600080fd5b5060405161526138038061526183398181016040528101906100d39190610665565b33604051806020016040528060008152506100f38161020760201b60201c565b50600073ffffffffffffffffffffffffffffffffffffffff168173ffffffffffffffffffffffffffffffffffffffff16036101665760006040517f1e4fbdf700000000000000000000000000000000000000000000000000000000815260040161015d91906106b4565b60405180910390fd5b6101758161021a60201b60201c565b50600160048190555081600560006101000a81548173ffffffffffffffffffffffffffffffffffffffff021916908373ffffffffffffffffffffffffffffffffffffffff16021790555080600660006101000a81548173ffffffffffffffffffffffffffffffffffffffff021916908373ffffffffffffffffffffffffffffffffffffffff16021790555050506106cf565b80600290816102169190610530565b5050565b6000600360009054906101000a900473ffffffffffffffffffffffffffffffffffffffff16905081600360006101000a81548173ffffffffffffffffffffffffffffffffffffffff021916908373ffffffffffffffffffffffffffffffffffffffff1602179055508173ffffffffffffffffffffffffffffffffffffffff168173ffffffffffffffffffffffffffffffffffffffff167f8be0079c531659141344cd1fd0a4f28419497f9722a3daafe3b4186f6b6457e060405160405180910390a35050565b600081519050919050565b7f4e487b7100000000000000000000000000000000000000000000000000000000600052604160045260246000fd5b7f4e487b7100000000000000000000000000000000000000000000000000000000600052602260045260246000fd5b6000600282049050600182168061036157607f821691505b6020821081036103745761037361031a565b5b50919050565b60008190508160005260206000209050919050565b60006020601f8301049050919050565b600082821b905092915050565b6000600883026103dc7fffffffffffffffffffffffffffffffffffffffffffffffffffffffffffffffff8261039f565b6103e6868361039f565b95508019841693508086168417925050509392505050565b6000819050919050565b6000819050919050565b600061042d610428610423846103fe565b610408565b6103fe565b9050919050565b6000819050919050565b61044783610412565b61045b61045382610434565b8484546103ac565b825550505050565b600090565b610470610463565b61047b81848461043e565b505050565b5b8181101561049f57610494600082610468565b600181019050610481565b5050565b601f8211156104e4576104b58161037a565b6104be8461038f565b810160208510156104cd578190505b6104e16104d98561038f565b830182610480565b50505b505050565b600082821c905092915050565b6000610507600019846008026104e9565b1980831691505092915050565b600061052083836104f6565b9150826002028217905092915050565b610539826102e0565b67ffffffffffffffff811115610552576105516102eb565b5b61055c8254610349565b6105678282856104a3565b600060209050601f83116001811461059a5760008415610588578287015190505b6105928582610514565b8655506105fa565b601f1984166105a88661037a565b60005b828110156105d0578489015182556001820191506020850194506020810190506105ab565b868310156105ed57848901516105e9601f8916826104f6565b8355505b6001600288020188555050505b505050505050565b600080fd5b600073ffffffffffffffffffffffffffffffffffffffff82169050919050565b600061063282610607565b9050919050565b61064281610627565b811461064d57600080fd5b50565b60008151905061065f81610639565b92915050565b6000806040838503121561067c5761067b610602565b5b600061068a85828601610650565b925050602061069b85828601610650565b9150509250929050565b6106ae81610627565b82525050565b60006020820190506106c960008301846106a5565b92915050565b614b83806106de6000396000f3fe6080604052600436106101cc5760003560e01c8063715018a6116100f7578063a648285811610095578063f0034a7e11610064578063f0034a7e14610676578063f242432a146106a1578063f2fde38b146106ca578063f7dbea3e146106f3576101cc565b8063a6482858146105c9578063b1e5e2b7146105f4578063b59ee46d14610610578063e985e9c514610639576101cc565b8063896ff2d2116100d1578063896ff2d21461051f5780638da5cb5b1461054a57806395d89b4114610575578063a22cb465146105a0576101cc565b8063715018a6146104af578063771282f6146104c65780637cc1f867146104f1576101cc565b8063156b99391161016f57806343192a631161013e57806343192a63146103e157806347ce07cc1461041e5780634e1273f41461044957806352a5f1f814610486576101cc565b8063156b99391461035a57806324600fc3146103765780632ab4d0521461038d5780632eb2c2d6146103b8576101cc565b806306fdde03116101ab57806306fdde0314610288578063080cd1b6146102b35780630e89341c146102de57806310e2c9911461031b576101cc565b8062fdd58e146101d157806301ffc9a71461020e57806306452ca21461024b575b600080fd5b3480156101dd57600080fd5b506101f860048036038101906101f39190612e16565b61071c565b6040516102059190612e65565b60405180910390f35b34801561021a57600080fd5b5061023560048036038101906102309190612ed8565b610776565b6040516102429190612f20565b60405180910390f35b34801561025757600080fd5b50610272600480360381019061026d9190612f3b565b610858565b60405161027f9190612e65565b60405180910390f35b34801561029457600080fd5b5061029d61086c565b6040516102aa9190612ff8565b60405180910390f35b3480156102bf57600080fd5b506102c86108fa565b6040516102d59190613029565b60405180910390f35b3480156102ea57600080fd5b5061030560048036038101906103009190613044565b610924565b6040516103129190612ff8565b60405180910390f35b34801561032757600080fd5b50610342600480360381019061033d91906130b1565b610955565b60405161035193929190613109565b60405180910390f35b610374600480360381019061036f9190613044565b6109c8565b005b34801561038257600080fd5b5061038b610b7b565b005b34801561039957600080fd5b506103a2610bd3565b6040516103af9190612e65565b60405180910390f35b3480156103c457600080fd5b506103df60048036038101906103da919061333d565b610bd9565b005b3480156103ed57600080fd5b5061040860048036038101906104039190613044565b610c81565b6040516104159190612e65565b60405180910390f35b34801561042a57600080fd5b50610433610d38565b604051610440919061346b565b60405180910390f35b34801561045557600080fd5b50610470600480360381019061046b9190613549565b610d5e565b60405161047d919061367f565b60405180910390f35b34801561049257600080fd5b506104ad60048036038101906104a891906136d7565b610e67565b005b3480156104bb57600080fd5b506104c4610f61565b005b3480156104d257600080fd5b506104db610f75565b6040516104e89190612e65565b60405180910390f35b3480156104fd57600080fd5b50610506610f7b565b604051610516949392919061372a565b60405180910390f35b34801561052b57600080fd5b50610534610fa8565b6040516105419190613790565b60405180910390f35b34801561055657600080fd5b5061055f610fce565b60405161056c9190613029565b60405180910390f35b34801561058157600080fd5b5061058a610ff8565b6040516105979190612ff8565b60405180910390f35b3480156105ac57600080fd5b506105c760048036038101906105c291906137d7565b611086565b005b3480156105d557600080fd5b506105de61109c565b6040516105eb9190612e65565b60405180910390f35b61060e60048036038101906106099190613044565b6110a2565b005b34801561061c57600080fd5b5061063760048036038101906106329190612f3b565b611415565b005b34801561064557600080fd5b50610660600480360381019061065b9190613817565b611461565b60405161066d9190612f20565b60405180910390f35b34801561068257600080fd5b5061068b6114f5565b6040516106989190612e65565b60405180910390f35b3480156106ad57600080fd5b506106c860048036038101906106c39190613857565b61159f565b005b3480156106d657600080fd5b506106f160048036038101906106ec9190612f3b565b611647565b005b3480156106ff57600080fd5b5061071a60048036038101906107159190613044565b6116cd565b005b600080600083815260200190815260200160002060008473ffffffffffffffffffffffffffffffffffffffff1673ffffffffffffffffffffffffffffffffffffffff16815260200190815260200160002054905092915050565b60007fd9b67a26000000000000000000000000000000000000000000000000000000007bffffffffffffffffffffffffffffffffffffffffffffffffffffffff1916827bffffffffffffffffffffffffffffffffffffffffffffffffffffffff1916148061084157507f0e89341c000000000000000000000000000000000000000000000000000000007bffffffffffffffffffffffffffffffffffffffffffffffffffffffff1916827bffffffffffffffffffffffffffffffffffffffffffffffffffffffff1916145b80610851575061085082611716565b5b9050919050565b600061086582600161071c565b9050919050565b600780546108799061391d565b80601f01602080910402602001604051908101604052809291908181526020018280546108a59061391d565b80156108f25780601f106108c7576101008083540402835291602001916108f2565b820191906000526020600020905b8154815290600101906020018083116108d557829003601f168201915b505050505081565b6000600560009054906101000a900473ffffffffffffffffffffffffffffffffffffffff16905090565b60606001820361093d57610936611780565b9050610950565b6040518060200160405280600081525090505b919050565b600c6020528060005260406000206000915090508060000160009054906101000a900473ffffffffffffffffffffffffffffffffffffffff16908060010160009054906101000a90046fffffffffffffffffffffffffffffffff16908060010160109054906101000a900460ff16905083565b6109d0611828565b600a5481600b546109e1919061397d565b1115610a22576040517f08c379a0000000000000000000000000000000000000000000000000000000008152600401610a19906139fd565b60405180910390fd5b80600954610a309190613a1d565b341015610a72576040517f08c379a0000000000000000000000000000000000000000000000000000000008152600401610a6990613aab565b60405180910390fd5b610a8e336001836040518060200160405280600081525061186e565b80600b600082825401925050819055503373ffffffffffffffffffffffffffffffffffffffff167f563f765c41c933a7649731114db930be8ad7c1b074e4205688672be38854d2648283600954610ae59190613a1d565b604051610af3929190613acb565b60405180910390a280600954610b099190613a1d565b341115610b70573373ffffffffffffffffffffffffffffffffffffffff166108fc82600954610b389190613a1d565b34610b439190613af4565b9081150290604051600060405180830381858888f19350505050158015610b6e573d6000803e3d6000fd5b505b610b78611907565b50565b610b83611911565b610b8b610fce565b73ffffffffffffffffffffffffffffffffffffffff166108fc479081150290604051600060405180830381858888f19350505050158015610bd0573d6000803e3d6000fd5b50565b600a5481565b6000610be3611998565b90508073ffffffffffffffffffffffffffffffffffffffff168673ffffffffffffffffffffffffffffffffffffffff1614158015610c285750610c268682611461565b155b15610c6c5780866040517fe237d922000000000000000000000000000000000000000000000000000000008152600401610c63929190613b28565b60405180910390fd5b610c7986868686866119a0565b505050505050565b600081600660009054906101000a900473ffffffffffffffffffffffffffffffffffffffff1673ffffffffffffffffffffffffffffffffffffffff16638204b67a6040518163ffffffff1660e01b8152600401602060405180830381865afa158015610cf1573d6000803e3d6000fd5b505050506040513d601f19601f82011682018060405250810190610d159190613b7d565b6fffffffffffffffffffffffffffffffff16610d319190613a1d565b9050919050565b600660009054906101000a900473ffffffffffffffffffffffffffffffffffffffff1681565b60608151835114610daa57815183516040517f5b059991000000000000000000000000000000000000000000000000000000008152600401610da1929190613acb565b60405180910390fd5b6000835167ffffffffffffffff811115610dc757610dc6613145565b5b604051908082528060200260200182016040528015610df55781602001602082028036833780820191505090505b50905060005b8451811015610e5c57610e32610e1a8287611a9890919063ffffffff16565b610e2d8387611aac90919063ffffffff16565b61071c565b828281518110610e4557610e44613baa565b5b602002602001018181525050806001019050610dfb565b508091505092915050565b6000610e71611ac0565b9050600073ffffffffffffffffffffffffffffffffffffffff168173ffffffffffffffffffffffffffffffffffffffff1603610ee2576040517f08c379a0000000000000000000000000000000000000000000000000000000008152600401610ed990613c25565b60405180910390fd5b8073ffffffffffffffffffffffffffffffffffffffff163373ffffffffffffffffffffffffffffffffffffffff1614610f50576040517f08c379a0000000000000000000000000000000000000000000000000000000008152600401610f4790613cb7565b60405180910390fd5b610f5b848484611aea565b50505050565b610f69611911565b610f736000611e4e565b565b600b5481565b600080600080600954600a54600b54600b54600a54610f9a9190613af4565b935093509350935090919293565b600560009054906101000a900473ffffffffffffffffffffffffffffffffffffffff1681565b6000600360009054906101000a900473ffffffffffffffffffffffffffffffffffffffff16905090565b600880546110059061391d565b80601f01602080910402602001604051908101604052809291908181526020018280546110319061391d565b801561107e5780601f106110535761010080835404028352916020019161107e565b820191906000526020600020905b81548152906001019060200180831161106157829003601f168201915b505050505081565b611098611091611998565b8383611f14565b5050565b60095481565b6110aa611828565b600081116110ed576040517f08c379a00000000000000000000000000000000000000000000000000000000081526004016110e490613d23565b60405180910390fd5b806110f933600161071c565b101561113a576040517f08c379a000000000000000000000000000000000000000000000000000000000815260040161113190613d8f565b60405180910390fd5b600081600660009054906101000a900473ffffffffffffffffffffffffffffffffffffffff1673ffffffffffffffffffffffffffffffffffffffff16638204b67a6040518163ffffffff1660e01b8152600401602060405180830381865afa1580156111aa573d6000803e3d6000fd5b505050506040513d601f19601f820116820180604052508101906111ce9190613b7d565b6fffffffffffffffffffffffffffffffff166111ea9190613a1d565b90508034101561122f576040517f08c379a000000000000000000000000000000000000000000000000000000000815260040161122690613dfb565b60405180910390fd5b61123b33600184612084565b600061124561212b565b905060405180606001604052803373ffffffffffffffffffffffffffffffffffffffff168152602001846fffffffffffffffffffffffffffffffff16815260200160001515815250600c60008367ffffffffffffffff1667ffffffffffffffff16815260200190815260200160002060008201518160000160006101000a81548173ffffffffffffffffffffffffffffffffffffffff021916908373ffffffffffffffffffffffffffffffffffffffff16021790555060208201518160010160006101000a8154816fffffffffffffffffffffffffffffffff02191690836fffffffffffffffffffffffffffffffff16021790555060408201518160010160106101000a81548160ff0219169083151502179055509050503373ffffffffffffffffffffffffffffffffffffffff167ffafbc84015c3bbae5074c5199c8c7a6eab2b54b74e196e8fb2e76778e6cc096682856040516113a5929190613e2a565b60405180910390a281341115611408573373ffffffffffffffffffffffffffffffffffffffff166108fc83346113db9190613af4565b9081150290604051600060405180830381858888f19350505050158015611406573d6000803e3d6000fd5b505b5050611412611907565b50565b61141d611911565b80600660006101000a81548173ffffffffffffffffffffffffffffffffffffffff021916908373ffffffffffffffffffffffffffffffffffffffff16021790555050565b6000600160008473ffffffffffffffffffffffffffffffffffffffff1673ffffffffffffffffffffffffffffffffffffffff16815260200190815260200160002060008373ffffffffffffffffffffffffffffffffffffffff1673ffffffffffffffffffffffffffffffffffffffff16815260200190815260200160002060009054906101000a900460ff16905092915050565b6000600660009054906101000a900473ffffffffffffffffffffffffffffffffffffffff1673ffffffffffffffffffffffffffffffffffffffff16638204b67a6040518163ffffffff1660e01b8152600401602060405180830381865afa158015611564573d6000803e3d6000fd5b505050506040513d601f19601f820116820180604052508101906115889190613b7d565b6fffffffffffffffffffffffffffffffff16905090565b60006115a9611998565b90508073ffffffffffffffffffffffffffffffffffffffff168673ffffffffffffffffffffffffffffffffffffffff16141580156115ee57506115ec8682611461565b155b156116325780866040517fe237d922000000000000000000000000000000000000000000000000000000008152600401611629929190613b28565b60405180910390fd5b61163f86868686866122b0565b505050505050565b61164f611911565b600073ffffffffffffffffffffffffffffffffffffffff168173ffffffffffffffffffffffffffffffffffffffff16036116c15760006040517f1e4fbdf70000000000000000000000000000000000000000000000000000000081526004016116b89190613029565b60405180910390fd5b6116ca81611e4e565b50565b6116d5611911565b806009819055507f66cbca4f3c64fecf1dcb9ce094abcf7f68c3450a1d4e3a8e917dd621edb4ebe08160405161170b9190612e65565b60405180910390a150565b60007f01ffc9a7000000000000000000000000000000000000000000000000000000007bffffffffffffffffffffffffffffffffffffffffffffffffffffffff1916827bffffffffffffffffffffffffffffffffffffffffffffffffffffffff1916149050919050565b60606000604051806101e001604052806101a981526020016149656101a99139905060006117ad826123bb565b90506000816040516020016117c29190613edb565b60405160208183030381529060405290506000816040516020016117e69190614371565b6040516020818303038152906040529050611800816123bb565b604051602001611810919061444d565b60405160208183030381529060405294505050505090565b600260045403611864576040517f3ee5aeb500000000000000000000000000000000000000000000000000000000815260040160405180910390fd5b6002600481905550565b600073ffffffffffffffffffffffffffffffffffffffff168473ffffffffffffffffffffffffffffffffffffffff16036118e05760006040517f57f447ce0000000000000000000000000000000000000000000000000000000081526004016118d79190613029565b60405180910390fd5b6000806118ed85856123e8565b915091506118ff600087848487612418565b505050505050565b6001600481905550565b611919611998565b73ffffffffffffffffffffffffffffffffffffffff16611937610fce565b73ffffffffffffffffffffffffffffffffffffffff16146119965761195a611998565b6040517f118cdaa700000000000000000000000000000000000000000000000000000000815260040161198d9190613029565b60405180910390fd5b565b600033905090565b600073ffffffffffffffffffffffffffffffffffffffff168473ffffffffffffffffffffffffffffffffffffffff1603611a125760006040517f57f447ce000000000000000000000000000000000000000000000000000000008152600401611a099190613029565b60405180910390fd5b600073ffffffffffffffffffffffffffffffffffffffff168573ffffffffffffffffffffffffffffffffffffffff1603611a845760006040517f01a83514000000000000000000000000000000000000000000000000000000008152600401611a7b9190613029565b60405180910390fd5b611a918585858585612418565b5050505050565b600060208202602084010151905092915050565b600060208202602084010151905092915050565b6000600660009054906101000a900473ffffffffffffffffffffffffffffffffffffffff16905090565b6000600c60008567ffffffffffffffff1667ffffffffffffffff16815260200190815260200160002090508060010160109054906101000a900460ff1615611b67576040517f08c379a0000000000000000000000000000000000000000000000000000000008152600401611b5e906144bb565b60405180910390fd5b600073ffffffffffffffffffffffffffffffffffffffff168160000160009054906101000a900473ffffffffffffffffffffffffffffffffffffffff1673ffffffffffffffffffffffffffffffffffffffff1603611bfa576040517f08c379a0000000000000000000000000000000000000000000000000000000008152600401611bf190614527565b60405180910390fd5b60018160010160106101000a81548160ff02191690831515021790555060008160010160009054906101000a90046fffffffffffffffffffffffffffffffff16905060005b816fffffffffffffffffffffffffffffffff16811015611e465760008482604051602001611c6e929190614589565b6040516020818303038152906040528051906020012090506000620f42408260001c611c9a91906145e4565b9050600560009054906101000a900473ffffffffffffffffffffffffffffffffffffffff1673ffffffffffffffffffffffffffffffffffffffff166340c10f198660000160009054906101000a900473ffffffffffffffffffffffffffffffffffffffff16836040518363ffffffff1660e01b8152600401611d1d929190614615565b600060405180830381600087803b158015611d3757600080fd5b505af1158015611d4b573d6000803e3d6000fd5b505050508460000160009054906101000a900473ffffffffffffffffffffffffffffffffffffffff1673ffffffffffffffffffffffffffffffffffffffff167f4969514c39ffcc58b7e619b4be3dbadf6517aaea3fe3e32983cc79460d901b316001836000604051611dbf93929190614679565b60405180910390a28460000160009054906101000a900473ffffffffffffffffffffffffffffffffffffffff1673ffffffffffffffffffffffffffffffffffffffff167f4cc0a9c4a99ddc700de1af2c9f916a7cbfdb71f14801ccff94061ad1ef8a804082604051611e319190612e65565b60405180910390a28260010192505050611c3f565b505050505050565b6000600360009054906101000a900473ffffffffffffffffffffffffffffffffffffffff16905081600360006101000a81548173ffffffffffffffffffffffffffffffffffffffff021916908373ffffffffffffffffffffffffffffffffffffffff1602179055508173ffffffffffffffffffffffffffffffffffffffff168173ffffffffffffffffffffffffffffffffffffffff167f8be0079c531659141344cd1fd0a4f28419497f9722a3daafe3b4186f6b6457e060405160405180910390a35050565b600073ffffffffffffffffffffffffffffffffffffffff168273ffffffffffffffffffffffffffffffffffffffff1603611f865760006040517fced3e100000000000000000000000000000000000000000000000000000000008152600401611f7d9190613029565b60405180910390fd5b80600160008573ffffffffffffffffffffffffffffffffffffffff1673ffffffffffffffffffffffffffffffffffffffff16815260200190815260200160002060008473ffffffffffffffffffffffffffffffffffffffff1673ffffffffffffffffffffffffffffffffffffffff16815260200190815260200160002060006101000a81548160ff0219169083151502179055508173ffffffffffffffffffffffffffffffffffffffff168373ffffffffffffffffffffffffffffffffffffffff167f17307eab39ab6107e8899845ad3d59bd9653f200f220920489ca2b5937696c31836040516120779190612f20565b60405180910390a3505050565b600073ffffffffffffffffffffffffffffffffffffffff168373ffffffffffffffffffffffffffffffffffffffff16036120f65760006040517f01a835140000000000000000000000000000000000000000000000000000000081526004016120ed9190613029565b60405180910390fd5b60008061210384846123e8565b91509150612124856000848460405180602001604052806000815250612418565b5050505050565b600080600660009054906101000a900473ffffffffffffffffffffffffffffffffffffffff1673ffffffffffffffffffffffffffffffffffffffff16638204b67a6040518163ffffffff1660e01b8152600401602060405180830381865afa15801561219b573d6000803e3d6000fd5b505050506040513d601f19601f820116820180604052508101906121bf9190613b7d565b6fffffffffffffffffffffffffffffffff16905080471015612216576040517f08c379a000000000000000000000000000000000000000000000000000000000815260040161220d906146fc565b60405180910390fd5b600660009054906101000a900473ffffffffffffffffffffffffffffffffffffffff1673ffffffffffffffffffffffffffffffffffffffff16637b43155d826040518263ffffffff1660e01b815260040160206040518083038185885af1158015612285573d6000803e3d6000fd5b50505050506040513d601f19601f820116820180604052508101906122aa9190614731565b91505090565b600073ffffffffffffffffffffffffffffffffffffffff168473ffffffffffffffffffffffffffffffffffffffff16036123225760006040517f57f447ce0000000000000000000000000000000000000000000000000000000081526004016123199190613029565b60405180910390fd5b600073ffffffffffffffffffffffffffffffffffffffff168573ffffffffffffffffffffffffffffffffffffffff16036123945760006040517f01a8351400000000000000000000000000000000000000000000000000000000815260040161238b9190613029565b60405180910390fd5b6000806123a185856123e8565b915091506123b28787848487612418565b50505050505050565b60606123e182604051806060016040528060408152602001614b0e6040913960016124ca565b9050919050565b60608060405191506001825283602083015260408201905060018152826020820152604081016040529250929050565b6124248585858561265e565b600073ffffffffffffffffffffffffffffffffffffffff168473ffffffffffffffffffffffffffffffffffffffff16146124c3576000612462611998565b905060018451036124b2576000612483600086611aac90919063ffffffff16565b9050600061249b600086611aac90919063ffffffff16565b90506124ab838989858589612a06565b50506124c1565b6124c0818787878787612bba565b5b505b5050505050565b606060008451036124ec57604051806020016040528060008152509050612657565b60008261251e5760036002865160046125059190613a1d565b61250f919061397d565b612519919061475e565b612545565b60036002865161252e919061397d565b612538919061475e565b60046125449190613a1d565b5b905060008167ffffffffffffffff81111561256357612562613145565b5b6040519080825280601f01601f1916602001820160405280156125955781602001600182028036833780820191505090505b50905060018501602082018788518901602081018051600082525b8284101561260b576003840193508351603f8160121c168701518653600186019550603f81600c1c168701518653600186019550603f8160061c168701518653600186019550603f81168701518653600186019550506125b0565b808252891561264b5760038c51066001811461262e576002811461264157612649565b603d6001870353603d6002870353612649565b603d60018703535b505b50505050505080925050505b9392505050565b80518251146126a857815181516040517f5b05999100000000000000000000000000000000000000000000000000000000815260040161269f929190613acb565b60405180910390fd5b60006126b2611998565b905060005b83518110156128c15760006126d58286611aac90919063ffffffff16565b905060006126ec8386611aac90919063ffffffff16565b9050600073ffffffffffffffffffffffffffffffffffffffff168873ffffffffffffffffffffffffffffffffffffffff161461281957600080600084815260200190815260200160002060008a73ffffffffffffffffffffffffffffffffffffffff1673ffffffffffffffffffffffffffffffffffffffff168152602001908152602001600020549050818110156127c157888183856040517f03dee4c50000000000000000000000000000000000000000000000000000000081526004016127b8949392919061478f565b60405180910390fd5b81810360008085815260200190815260200160002060008b73ffffffffffffffffffffffffffffffffffffffff1673ffffffffffffffffffffffffffffffffffffffff16815260200190815260200160002081905550505b600073ffffffffffffffffffffffffffffffffffffffff168773ffffffffffffffffffffffffffffffffffffffff16146128b4578060008084815260200190815260200160002060008973ffffffffffffffffffffffffffffffffffffffff1673ffffffffffffffffffffffffffffffffffffffff16815260200190815260200160002060008282546128ac919061397d565b925050819055505b50508060010190506126b7565b5060018351036129805760006128e1600085611aac90919063ffffffff16565b905060006128f9600085611aac90919063ffffffff16565b90508573ffffffffffffffffffffffffffffffffffffffff168773ffffffffffffffffffffffffffffffffffffffff168473ffffffffffffffffffffffffffffffffffffffff167fc3d58168c5ae7397731d063d5bbf3d657854427343f4c083240f7aacaa2d0f628585604051612971929190613acb565b60405180910390a450506129ff565b8373ffffffffffffffffffffffffffffffffffffffff168573ffffffffffffffffffffffffffffffffffffffff168273ffffffffffffffffffffffffffffffffffffffff167f4a39dc06d4c0dbc64b70af90fd698a233a518aa5d07e595d983b8c0526c8f7fb86866040516129f69291906147d4565b60405180910390a45b5050505050565b60008473ffffffffffffffffffffffffffffffffffffffff163b1115612bb2578373ffffffffffffffffffffffffffffffffffffffff1663f23a6e6187878686866040518663ffffffff1660e01b8152600401612a67959493929190614860565b6020604051808303816000875af1925050508015612aa357506040513d601f19601f82011682018060405250810190612aa091906148cf565b60015b612b27573d8060008114612ad3576040519150601f19603f3d011682016040523d82523d6000602084013e612ad8565b606091505b506000815103612b1f57846040517f57f447ce000000000000000000000000000000000000000000000000000000008152600401612b169190613029565b60405180910390fd5b805181602001fd5b63f23a6e6160e01b7bffffffffffffffffffffffffffffffffffffffffffffffffffffffff1916817bffffffffffffffffffffffffffffffffffffffffffffffffffffffff191614612bb057846040517f57f447ce000000000000000000000000000000000000000000000000000000008152600401612ba79190613029565b60405180910390fd5b505b505050505050565b60008473ffffffffffffffffffffffffffffffffffffffff163b1115612d66578373ffffffffffffffffffffffffffffffffffffffff1663bc197c8187878686866040518663ffffffff1660e01b8152600401612c1b9594939291906148fc565b6020604051808303816000875af1925050508015612c5757506040513d601f19601f82011682018060405250810190612c5491906148cf565b60015b612cdb573d8060008114612c87576040519150601f19603f3d011682016040523d82523d6000602084013e612c8c565b606091505b506000815103612cd357846040517f57f447ce000000000000000000000000000000000000000000000000000000008152600401612cca9190613029565b60405180910390fd5b805181602001fd5b63bc197c8160e01b7bffffffffffffffffffffffffffffffffffffffffffffffffffffffff1916817bffffffffffffffffffffffffffffffffffffffffffffffffffffffff191614612d6457846040517f57f447ce000000000000000000000000000000000000000000000000000000008152600401612d5b9190613029565b60405180910390fd5b505b505050505050565b6000604051905090565b600080fd5b600080fd5b600073ffffffffffffffffffffffffffffffffffffffff82169050919050565b6000612dad82612d82565b9050919050565b612dbd81612da2565b8114612dc857600080fd5b50565b600081359050612dda81612db4565b92915050565b6000819050919050565b612df381612de0565b8114612dfe57600080fd5b50565b600081359050612e1081612dea565b92915050565b60008060408385031215612e2d57612e2c612d78565b5b6000612e3b85828601612dcb565b9250506020612e4c85828601612e01565b9150509250929050565b612e5f81612de0565b82525050565b6000602082019050612e7a6000830184612e56565b92915050565b60007fffffffff0000000000000000000000000000000000000000000000000000000082169050919050565b612eb581612e80565b8114612ec057600080fd5b50565b600081359050612ed281612eac565b92915050565b600060208284031215612eee57612eed612d78565b5b6000612efc84828501612ec3565b91505092915050565b60008115159050919050565b612f1a81612f05565b82525050565b6000602082019050612f356000830184612f11565b92915050565b600060208284031215612f5157612f50612d78565b5b6000612f5f84828501612dcb565b91505092915050565b600081519050919050565b600082825260208201905092915050565b60005b83811015612fa2578082015181840152602081019050612f87565b60008484015250505050565b6000601f19601f8301169050919050565b6000612fca82612f68565b612fd48185612f73565b9350612fe4818560208601612f84565b612fed81612fae565b840191505092915050565b600060208201905081810360008301526130128184612fbf565b905092915050565b61302381612da2565b82525050565b600060208201905061303e600083018461301a565b92915050565b60006020828403121561305a57613059612d78565b5b600061306884828501612e01565b91505092915050565b600067ffffffffffffffff82169050919050565b61308e81613071565b811461309957600080fd5b50565b6000813590506130ab81613085565b92915050565b6000602082840312156130c7576130c6612d78565b5b60006130d58482850161309c565b91505092915050565b60006fffffffffffffffffffffffffffffffff82169050919050565b613103816130de565b82525050565b600060608201905061311e600083018661301a565b61312b60208301856130fa565b6131386040830184612f11565b949350505050565b600080fd5b7f4e487b7100000000000000000000000000000000000000000000000000000000600052604160045260246000fd5b61317d82612fae565b810181811067ffffffffffffffff8211171561319c5761319b613145565b5b80604052505050565b60006131af612d6e565b90506131bb8282613174565b919050565b600067ffffffffffffffff8211156131db576131da613145565b5b602082029050602081019050919050565b600080fd5b60006132046131ff846131c0565b6131a5565b90508083825260208201905060208402830185811115613227576132266131ec565b5b835b81811015613250578061323c8882612e01565b845260208401935050602081019050613229565b5050509392505050565b600082601f83011261326f5761326e613140565b5b813561327f8482602086016131f1565b91505092915050565b600080fd5b600067ffffffffffffffff8211156132a8576132a7613145565b5b6132b182612fae565b9050602081019050919050565b82818337600083830152505050565b60006132e06132db8461328d565b6131a5565b9050828152602081018484840111156132fc576132fb613288565b5b6133078482856132be565b509392505050565b600082601f83011261332457613323613140565b5b81356133348482602086016132cd565b91505092915050565b600080600080600060a0868803121561335957613358612d78565b5b600061336788828901612dcb565b955050602061337888828901612dcb565b945050604086013567ffffffffffffffff81111561339957613398612d7d565b5b6133a58882890161325a565b935050606086013567ffffffffffffffff8111156133c6576133c5612d7d565b5b6133d28882890161325a565b925050608086013567ffffffffffffffff8111156133f3576133f2612d7d565b5b6133ff8882890161330f565b9150509295509295909350565b6000819050919050565b600061343161342c61342784612d82565b61340c565b612d82565b9050919050565b600061344382613416565b9050919050565b600061345582613438565b9050919050565b6134658161344a565b82525050565b6000602082019050613480600083018461345c565b92915050565b600067ffffffffffffffff8211156134a1576134a0613145565b5b602082029050602081019050919050565b60006134c56134c084613486565b6131a5565b905080838252602082019050602084028301858111156134e8576134e76131ec565b5b835b8181101561351157806134fd8882612dcb565b8452602084019350506020810190506134ea565b5050509392505050565b600082601f8301126135305761352f613140565b5b81356135408482602086016134b2565b91505092915050565b600080604083850312156135605761355f612d78565b5b600083013567ffffffffffffffff81111561357e5761357d612d7d565b5b61358a8582860161351b565b925050602083013567ffffffffffffffff8111156135ab576135aa612d7d565b5b6135b78582860161325a565b9150509250929050565b600081519050919050565b600082825260208201905092915050565b6000819050602082019050919050565b6135f681612de0565b82525050565b600061360883836135ed565b60208301905092915050565b6000602082019050919050565b600061362c826135c1565b61363681856135cc565b9350613641836135dd565b8060005b8381101561367257815161365988826135fc565b975061366483613614565b925050600181019050613645565b5085935050505092915050565b600060208201905081810360008301526136998184613621565b905092915050565b6000819050919050565b6136b4816136a1565b81146136bf57600080fd5b50565b6000813590506136d1816136ab565b92915050565b6000806000606084860312156136f0576136ef612d78565b5b60006136fe8682870161309c565b935050602061370f86828701612dcb565b9250506040613720868287016136c2565b9150509250925092565b600060808201905061373f6000830187612e56565b61374c6020830186612e56565b6137596040830185612e56565b6137666060830184612e56565b95945050505050565b600061377a82613438565b9050919050565b61378a8161376f565b82525050565b60006020820190506137a56000830184613781565b92915050565b6137b481612f05565b81146137bf57600080fd5b50565b6000813590506137d1816137ab565b92915050565b600080604083850312156137ee576137ed612d78565b5b60006137fc85828601612dcb565b925050602061380d858286016137c2565b9150509250929050565b6000806040838503121561382e5761382d612d78565b5b600061383c85828601612dcb565b925050602061384d85828601612dcb565b9150509250929050565b600080600080600060a0868803121561387357613872612d78565b5b600061388188828901612dcb565b955050602061389288828901612dcb565b94505060406138a388828901612e01565b93505060606138b488828901612e01565b925050608086013567ffffffffffffffff8111156138d5576138d4612d7d565b5b6138e18882890161330f565b9150509295509295909350565b7f4e487b7100000000000000000000000000000000000000000000000000000000600052602260045260246000fd5b6000600282049050600182168061393557607f821691505b602082108103613948576139476138ee565b5b50919050565b7f4e487b7100000000000000000000000000000000000000000000000000000000600052601160045260246000fd5b600061398882612de0565b915061399383612de0565b92508282019050808211156139ab576139aa61394e565b5b92915050565b7f45786365656473206d617820737570706c790000000000000000000000000000600082015250565b60006139e7601283612f73565b91506139f2826139b1565b602082019050919050565b60006020820190508181036000830152613a16816139da565b9050919050565b6000613a2882612de0565b9150613a3383612de0565b9250828202613a4181612de0565b91508282048414831517613a5857613a5761394e565b5b5092915050565b7f496e73756666696369656e74207061796d656e74000000000000000000000000600082015250565b6000613a95601483612f73565b9150613aa082613a5f565b602082019050919050565b60006020820190508181036000830152613ac481613a88565b9050919050565b6000604082019050613ae06000830185612e56565b613aed6020830184612e56565b9392505050565b6000613aff82612de0565b9150613b0a83612de0565b9250828203905081811115613b2257613b2161394e565b5b92915050565b6000604082019050613b3d600083018561301a565b613b4a602083018461301a565b9392505050565b613b5a816130de565b8114613b6557600080fd5b50565b600081519050613b7781613b51565b92915050565b600060208284031215613b9357613b92612d78565b5b6000613ba184828501613b68565b91505092915050565b7f4e487b7100000000000000000000000000000000000000000000000000000000600052603260045260246000fd5b7f456e74726f70792061646472657373206e6f7420736574000000000000000000600082015250565b6000613c0f601783612f73565b9150613c1a82613bd9565b602082019050919050565b60006020820190508181036000830152613c3e81613c02565b9050919050565b7f4f6e6c7920456e74726f70792063616e2063616c6c20746869732066756e637460008201527f696f6e0000000000000000000000000000000000000000000000000000000000602082015250565b6000613ca1602383612f73565b9150613cac82613c45565b604082019050919050565b60006020820190508181036000830152613cd081613c94565b9050919050565b7f416d6f756e74206d7573742062652067726561746572207468616e2030000000600082015250565b6000613d0d601d83612f73565b9150613d1882613cd7565b602082019050919050565b60006020820190508181036000830152613d3c81613d00565b9050919050565b7f496e73756666696369656e7420626f7865730000000000000000000000000000600082015250565b6000613d79601283612f73565b9150613d8482613d43565b602082019050919050565b60006020820190508181036000830152613da881613d6c565b9050919050565b7f496e73756666696369656e742066656520666f72205652460000000000000000600082015250565b6000613de5601883612f73565b9150613df082613daf565b602082019050919050565b60006020820190508181036000830152613e1481613dd8565b9050919050565b613e2481613071565b82525050565b6000604082019050613e3f6000830185613e1b565b613e4c6020830184612e56565b9392505050565b600081905092915050565b7f646174613a696d6167652f7376672b786d6c3b6261736536342c000000000000600082015250565b6000613e94601a83613e53565b9150613e9f82613e5e565b601a82019050919050565b6000613eb582612f68565b613ebf8185613e53565b9350613ecf818560208601612f84565b80840191505092915050565b6000613ee682613e87565b9150613ef28284613eaa565b915081905092915050565b7f7b226e616d65223a202249505059204d79737465727920426f78222c00000000600082015250565b6000613f33601c83613e53565b9150613f3e82613efd565b601c82019050919050565b7f226465736372697074696f6e223a202241206d7973746572696f757320626c6960008201527f6e6420626f7820636f6e7461696e696e67206f6e65206f66203720706f73736960208201527f626c652049505059204e4654732e204561636820626f7820686f6c647320746860408201527f6520706f74656e7469616c20666f7220696e6372656469626c6520646973636f60608201527f76657269657321222c0000000000000000000000000000000000000000000000608082015250565b6000614017608983613e53565b915061402282613f49565b608982019050919050565b7f22696d616765223a202200000000000000000000000000000000000000000000600082015250565b6000614063600a83613e53565b915061406e8261402d565b600a82019050919050565b7f222c000000000000000000000000000000000000000000000000000000000000600082015250565b60006140af600283613e53565b91506140ba82614079565b600282019050919050565b7f226261636b67726f756e645f636f6c6f72223a2022463043304341222c000000600082015250565b60006140fb601d83613e53565b9150614106826140c5565b601d82019050919050565b7f2261747472696275746573223a205b0000000000000000000000000000000000600082015250565b6000614147600f83613e53565b915061415282614111565b600f82019050919050565b7f7b2274726169745f74797065223a202254797065222c202276616c7565223a2060008201527f224d79737465727920426f78227d2c0000000000000000000000000000000000602082015250565b60006141b9602f83613e53565b91506141c48261415d565b602f82019050919050565b7f7b2274726169745f74797065223a2022537461747573222c202276616c75652260008201527f3a2022556e6f70656e6564227d2c000000000000000000000000000000000000602082015250565b600061422b602e83613e53565b9150614236826141cf565b602e82019050919050565b7f7b2274726169745f74797065223a202248696464656e204e4654204368616e6360008201527f65222c202276616c7565223a2022302e3030303125227d2c0000000000000000602082015250565b600061429d603883613e53565b91506142a882614241565b603882019050919050565b7f7b2274726169745f74797065223a20225374616e64617264204e46542043686160008201527f6e6365222c202276616c7565223a202239392e3939393925227d000000000000602082015250565b600061430f603a83613e53565b915061431a826142b3565b603a82019050919050565b7f5d7d000000000000000000000000000000000000000000000000000000000000600082015250565b600061435b600283613e53565b915061436682614325565b600282019050919050565b600061437c82613f26565b91506143878261400a565b915061439282614056565b915061439e8284613eaa565b91506143a9826140a2565b91506143b4826140ee565b91506143bf8261413a565b91506143ca826141ac565b91506143d58261421e565b91506143e082614290565b91506143eb82614302565b91506143f68261434e565b915081905092915050565b7f646174613a6170706c69636174696f6e2f6a736f6e3b6261736536342c000000600082015250565b6000614437601d83613e53565b915061444282614401565b601d82019050919050565b60006144588261442a565b91506144648284613eaa565b915081905092915050565b7f416c72656164792070726f636573736564000000000000000000000000000000600082015250565b60006144a5601183612f73565b91506144b08261446f565b602082019050919050565b600060208201905081810360008301526144d481614498565b9050919050565b7f496e76616c69642073657175656e6365206e756d626572000000000000000000600082015250565b6000614511601783612f73565b915061451c826144db565b602082019050919050565b6000602082019050818103600083015261454081614504565b9050919050565b6000819050919050565b61456261455d826136a1565b614547565b82525050565b6000819050919050565b61458361457e82612de0565b614568565b82525050565b60006145958285614551565b6020820191506145a58284614572565b6020820191508190509392505050565b7f4e487b7100000000000000000000000000000000000000000000000000000000600052601260045260246000fd5b60006145ef82612de0565b91506145fa83612de0565b92508261460a576146096145b5565b5b828206905092915050565b600060408201905061462a600083018561301a565b6146376020830184612e56565b9392505050565b6000819050919050565b600061466361465e6146598461463e565b61340c565b612de0565b9050919050565b61467381614648565b82525050565b600060608201905061468e600083018661466a565b61469b6020830185612e56565b6146a86040830184612f11565b949350505050565b7f496e73756666696369656e7420495020666f7220656e74726f70792066656500600082015250565b60006146e6601f83612f73565b91506146f1826146b0565b602082019050919050565b60006020820190508181036000830152614715816146d9565b9050919050565b60008151905061472b81613085565b92915050565b60006020828403121561474757614746612d78565b5b60006147558482850161471c565b91505092915050565b600061476982612de0565b915061477483612de0565b925082614784576147836145b5565b5b828204905092915050565b60006080820190506147a4600083018761301a565b6147b16020830186612e56565b6147be6040830185612e56565b6147cb6060830184612e56565b95945050505050565b600060408201905081810360008301526147ee8185613621565b905081810360208301526148028184613621565b90509392505050565b600081519050919050565b600082825260208201905092915050565b60006148328261480b565b61483c8185614816565b935061484c818560208601612f84565b61485581612fae565b840191505092915050565b600060a082019050614875600083018861301a565b614882602083018761301a565b61488f6040830186612e56565b61489c6060830185612e56565b81810360808301526148ae8184614827565b90509695505050505050565b6000815190506148c981612eac565b92915050565b6000602082840312156148e5576148e4612d78565b5b60006148f3848285016148ba565b91505092915050565b600060a082019050614911600083018861301a565b61491e602083018761301a565b81810360408301526149308186613621565b905081810360608301526149448185613621565b905081810360808301526149588184614827565b9050969550505050505056fe3c73766720786d6c6e733d22687474703a2f2f7777772e77332e6f72672f323030302f737667222077696474683d2231383822206865696768743d22313838222076696577426f783d223020302031383820313838222066696c6c3d226e6f6e65223e3c636972636c652063783d223934222063793d2239342220723d2239302e35222066696c6c3d2275726c28237061696e74305f6c696e6561725f36365f352922207374726f6b653d222336333430343822207374726f6b652d77696474683d2237222f3e3c646566733e3c6c696e6561724772616469656e742069643d227061696e74305f6c696e6561725f36365f35222078313d223135322e343635222079313d22322e3335303938652d3036222078323d2233352e35333533222079323d2231383822206772616469656e74556e6974733d227573657253706163654f6e557365223e3c73746f702073746f702d636f6c6f723d2223464546334546222f3e3c73746f70206f66667365743d2231222073746f702d636f6c6f723d2223463043304341222f3e3c2f6c696e6561724772616469656e743e3c2f646566733e3c2f7376673e4142434445464748494a4b4c4d4e4f505152535455565758595a6162636465666768696a6b6c6d6e6f707172737475767778797a303132333435363738392b2fa264697066735822122001c7145a45fc2f3530d6e65acda38cc20aaf37d4dfc622c0bf39ff474315e95e64736f6c634300081c0033",
  "linkReferences": {},
  "deployedLinkReferences": {}
}