{
  "_format": "hh-sol-artifact-1",
  "contractName": "BlindBox",
  "sourceName": "contracts/BlindBox.sol",
  "abi": [
    {
      "inputs": [
        {
          "internalType": "address",
          "name": "_ippyNFT",
          "type": "address"
        },
        {
          "internalType": "address",
          "name": "_entropy",
          "type": "address"
        }
      ],
      "stateMutability": "nonpayable",
      "type": "constructor"
    },
    {
      "inputs": [
        {
          "internalType": "address",
          "name": "sender",
          "type": "address"
        },
        {
          "internalType": "uint256",
          "name": "balance",
          "type": "uint256"
        },
        {
          "internalType": "uint256",
          "name": "needed",
          "type": "uint256"
        },
        {
          "internalType": "uint256",
          "name": "tokenId",
          "type": "uint256"
        }
      ],
      "name": "ERC1155InsufficientBalance",
      "type": "error"
    },
    {
      "inputs": [
        {
          "internalType": "address",
          "name": "approver",
          "type": "address"
        }
      ],
      "name": "ERC1155InvalidApprover",
      "type": "error"
    },
    {
      "inputs": [
        {
          "internalType": "uint256",
          "name": "idsLength",
          "type": "uint256"
        },
        {
          "internalType": "uint256",
          "name": "valuesLength",
          "type": "uint256"
        }
      ],
      "name": "ERC1155InvalidArrayLength",
      "type": "error"
    },
    {
      "inputs": [
        {
          "internalType": "address",
          "name": "operator",
          "type": "address"
        }
      ],
      "name": "ERC1155InvalidOperator",
      "type": "error"
    },
    {
      "inputs": [
        {
          "internalType": "address",
          "name": "receiver",
          "type": "address"
        }
      ],
      "name": "ERC1155InvalidReceiver",
      "type": "error"
    },
    {
      "inputs": [
        {
          "internalType": "address",
          "name": "sender",
          "type": "address"
        }
      ],
      "name": "ERC1155InvalidSender",
      "type": "error"
    },
    {
      "inputs": [
        {
          "internalType": "address",
          "name": "operator",
          "type": "address"
        },
        {
          "internalType": "address",
          "name": "owner",
          "type": "address"
        }
      ],
      "name": "ERC1155MissingApprovalForAll",
      "type": "error"
    },
    {
      "inputs": [
        {
          "internalType": "address",
          "name": "owner",
          "type": "address"
        }
      ],
      "name": "OwnableInvalidOwner",
      "type": "error"
    },
    {
      "inputs": [
        {
          "internalType": "address",
          "name": "account",
          "type": "address"
        }
      ],
      "name": "OwnableUnauthorizedAccount",
      "type": "error"
    },
    {
      "inputs": [],
      "name": "ReentrancyGuardReentrantCall",
      "type": "error"
    },
    {
      "anonymous": false,
      "inputs": [
        {
          "indexed": true,
          "internalType": "address",
          "name": "account",
          "type": "address"
        },
        {
          "indexed": true,
          "internalType": "address",
          "name": "operator",
          "type": "address"
        },
        {
          "indexed": false,
          "internalType": "bool",
          "name": "approved",
          "type": "bool"
        }
      ],
      "name": "ApprovalForAll",
      "type": "event"
    },
    {
      "anonymous": false,
      "inputs": [
        {
          "indexed": true,
          "internalType": "address",
          "name": "opener",
          "type": "address"
        },
        {
          "indexed": false,
          "internalType": "uint256",
          "name": "boxTokenId",
          "type": "uint256"
        },
        {
          "indexed": false,
          "internalType": "uint256",
          "name": "receivedNFTId",
          "type": "uint256"
        },
        {
          "indexed": false,
          "internalType": "bool",
          "name": "isHidden",
          "type": "bool"
        }
      ],
      "name": "BlindBoxOpened",
      "type": "event"
    },
    {
      "anonymous": false,
      "inputs": [
        {
          "indexed": true,
          "internalType": "address",
          "name": "buyer",
          "type": "address"
        },
        {
          "indexed": false,
          "internalType": "uint256",
          "name": "amount",
          "type": "uint256"
        },
        {
          "indexed": false,
          "internalType": "uint256",
          "name": "totalCost",
          "type": "uint256"
        }
      ],
      "name": "BlindBoxPurchased",
      "type": "event"
    },
    {
      "anonymous": false,
      "inputs": [
        {
          "indexed": true,
          "internalType": "address",
          "name": "recipient",
          "type": "address"
        },
        {
          "indexed": false,
          "internalType": "uint256",
          "name": "nftId",
          "type": "uint256"
        }
      ],
      "name": "NFTMinted",
      "type": "event"
    },
    {
      "anonymous": false,
      "inputs": [
        {
          "indexed": true,
          "internalType": "address",
          "name": "previousOwner",
          "type": "address"
        },
        {
          "indexed": true,
          "internalType": "address",
          "name": "newOwner",
          "type": "address"
        }
      ],
      "name": "OwnershipTransferred",
      "type": "event"
    },
    {
      "anonymous": false,
      "inputs": [
        {
          "indexed": false,
          "internalType": "uint256",
          "name": "newPrice",
          "type": "uint256"
        }
      ],
      "name": "PriceUpdated",
      "type": "event"
    },
    {
      "anonymous": false,
      "inputs": [
        {
          "indexed": true,
          "internalType": "address",
          "name": "operator",
          "type": "address"
        },
        {
          "indexed": true,
          "internalType": "address",
          "name": "from",
          "type": "address"
        },
        {
          "indexed": true,
          "internalType": "address",
          "name": "to",
          "type": "address"
        },
        {
          "indexed": false,
          "internalType": "uint256[]",
          "name": "ids",
          "type": "uint256[]"
        },
        {
          "indexed": false,
          "internalType": "uint256[]",
          "name": "values",
          "type": "uint256[]"
        }
      ],
      "name": "TransferBatch",
      "type": "event"
    },
    {
      "anonymous": false,
      "inputs": [
        {
          "indexed": true,
          "internalType": "address",
          "name": "operator",
          "type": "address"
        },
        {
          "indexed": true,
          "internalType": "address",
          "name": "from",
          "type": "address"
        },
        {
          "indexed": true,
          "internalType": "address",
          "name": "to",
          "type": "address"
        },
        {
          "indexed": false,
          "internalType": "uint256",
          "name": "id",
          "type": "uint256"
        },
        {
          "indexed": false,
          "internalType": "uint256",
          "name": "value",
          "type": "uint256"
        }
      ],
      "name": "TransferSingle",
      "type": "event"
    },
    {
      "anonymous": false,
      "inputs": [
        {
          "indexed": false,
          "internalType": "string",
          "name": "value",
          "type": "string"
        },
        {
          "indexed": true,
          "internalType": "uint256",
          "name": "id",
          "type": "uint256"
        }
      ],
      "name": "URI",
      "type": "event"
    },
    {
      "anonymous": false,
      "inputs": [
        {
          "indexed": true,
          "internalType": "address",
          "name": "user",
          "type": "address"
        },
        {
          "indexed": false,
          "internalType": "uint64",
          "name": "sequenceNumber",
          "type": "uint64"
        },
        {
          "indexed": false,
          "internalType": "uint256",
          "name": "amount",
          "type": "uint256"
        }
      ],
      "name": "VRFRequested",
      "type": "event"
    },
    {
      "inputs": [
        {
          "internalType": "uint64",
          "name": "sequence",
          "type": "uint64"
        },
        {
          "internalType": "address",
          "name": "provider",
          "type": "address"
        },
        {
          "internalType": "bytes32",
          "name": "randomNumber",
          "type": "bytes32"
        }
      ],
      "name": "_entropyCallback",
      "outputs": [],
      "stateMutability": "nonpayable",
      "type": "function"
    },
    {
      "inputs": [
        {
          "internalType": "address",
          "name": "account",
          "type": "address"
        },
        {
          "internalType": "uint256",
          "name": "id",
          "type": "uint256"
        }
      ],
      "name": "balanceOf",
      "outputs": [
        {
          "internalType": "uint256",
          "name": "",
          "type": "uint256"
        }
      ],
      "stateMutability": "view",
      "type": "function"
    },
    {
      "inputs": [
        {
          "internalType": "address[]",
          "name": "accounts",
          "type": "address[]"
        },
        {
          "internalType": "uint256[]",
          "name": "ids",
          "type": "uint256[]"
        }
      ],
      "name": "balanceOfBatch",
      "outputs": [
        {
          "internalType": "uint256[]",
          "name": "",
          "type": "uint256[]"
        }
      ],
      "stateMutability": "view",
      "type": "function"
    },
    {
      "inputs": [],
      "name": "boxPrice",
      "outputs": [
        {
          "internalType": "uint256",
          "name": "",
          "type": "uint256"
        }
      ],
      "stateMutability": "view",
      "type": "function"
    },
    {
      "inputs": [],
      "name": "currentSupply",
      "outputs": [
        {
          "internalType": "uint256",
          "name": "",
          "type": "uint256"
        }
      ],
      "stateMutability": "view",
      "type": "function"
    },
    {
      "inputs": [],
      "name": "entropy",
      "outputs": [
        {
          "internalType": "contract IEntropyV2",
          "name": "",
          "type": "address"
        }
      ],
      "stateMutability": "view",
      "type": "function"
    },
    {
      "inputs": [],
      "name": "getContractInfo",
      "outputs": [
        {
          "internalType": "uint256",
          "name": "price",
          "type": "uint256"
        },
        {
          "internalType": "uint256",
          "name": "totalSupply",
          "type": "uint256"
        },
        {
          "internalType": "uint256",
          "name": "currentSupplyCount",
          "type": "uint256"
        },
        {
          "internalType": "uint256",
          "name": "remainingBoxes",
          "type": "uint256"
        }
      ],
      "stateMutability": "view",
      "type": "function"
    },
    {
      "inputs": [],
      "name": "getIPPYNFT",
      "outputs": [
        {
          "internalType": "address",
          "name": "",
          "type": "address"
        }
      ],
      "stateMutability": "view",
      "type": "function"
    },
    {
      "inputs": [
        {
          "internalType": "address",
          "name": "user",
          "type": "address"
        }
      ],
      "name": "getUserBoxBalance",
      "outputs": [
        {
          "internalType": "uint256",
          "name": "",
          "type": "uint256"
        }
      ],
      "stateMutability": "view",
      "type": "function"
    },
    {
      "inputs": [],
      "name": "getVRFFee",
      "outputs": [
        {
          "internalType": "uint256",
          "name": "",
          "type": "uint256"
        }
      ],
      "stateMutability": "view",
      "type": "function"
    },
    {
      "inputs": [
        {
          "internalType": "uint256",
          "name": "amount",
          "type": "uint256"
        }
      ],
      "name": "getVRFFeeForBoxes",
      "outputs": [
        {
          "internalType": "uint256",
          "name": "",
          "type": "uint256"
        }
      ],
      "stateMutability": "view",
      "type": "function"
    },
    {
      "inputs": [],
      "name": "ippyNFT",
      "outputs": [
        {
          "internalType": "contract IIPPYNFT",
          "name": "",
          "type": "address"
        }
      ],
      "stateMutability": "view",
      "type": "function"
    },
    {
      "inputs": [
        {
          "internalType": "address",
          "name": "account",
          "type": "address"
        },
        {
          "internalType": "address",
          "name": "operator",
          "type": "address"
        }
      ],
      "name": "isApprovedForAll",
      "outputs": [
        {
          "internalType": "bool",
          "name": "",
          "type": "bool"
        }
      ],
      "stateMutability": "view",
      "type": "function"
    },
    {
      "inputs": [],
      "name": "maxTotalSupply",
      "outputs": [
        {
          "internalType": "uint256",
          "name": "",
          "type": "uint256"
        }
      ],
      "stateMutability": "view",
      "type": "function"
    },
    {
      "inputs": [],
      "name": "name",
      "outputs": [
        {
          "internalType": "string",
          "name": "",
          "type": "string"
        }
      ],
      "stateMutability": "view",
      "type": "function"
    },
    {
      "inputs": [
        {
          "internalType": "uint256",
          "name": "amount",
          "type": "uint256"
        }
      ],
      "name": "openBox",
      "outputs": [],
      "stateMutability": "payable",
      "type": "function"
    },
    {
      "inputs": [],
      "name": "owner",
      "outputs": [
        {
          "internalType": "address",
          "name": "",
          "type": "address"
        }
      ],
      "stateMutability": "view",
      "type": "function"
    },
    {
      "inputs": [
        {
          "internalType": "uint64",
          "name": "",
          "type": "uint64"
        }
      ],
      "name": "pendingBoxOpens",
      "outputs": [
        {
          "internalType": "address",
          "name": "user",
          "type": "address"
        },
        {
          "internalType": "uint128",
          "name": "amount",
          "type": "uint128"
        },
        {
          "internalType": "bool",
          "name": "processed",
          "type": "bool"
        }
      ],
      "stateMutability": "view",
      "type": "function"
    },
    {
      "inputs": [
        {
          "internalType": "uint256",
          "name": "amount",
          "type": "uint256"
        }
      ],
      "name": "purchaseBoxes",
      "outputs": [],
      "stateMutability": "payable",
      "type": "function"
    },
    {
      "inputs": [],
      "name": "renounceOwnership",
      "outputs": [],
      "stateMutability": "nonpayable",
      "type": "function"
    },
    {
      "inputs": [
        {
          "internalType": "address",
          "name": "from",
          "type": "address"
        },
        {
          "internalType": "address",
          "name": "to",
          "type": "address"
        },
        {
          "internalType": "uint256[]",
          "name": "ids",
          "type": "uint256[]"
        },
        {
          "internalType": "uint256[]",
          "name": "values",
          "type": "uint256[]"
        },
        {
          "internalType": "bytes",
          "name": "data",
          "type": "bytes"
        }
      ],
      "name": "safeBatchTransferFrom",
      "outputs": [],
      "stateMutability": "nonpayable",
      "type": "function"
    },
    {
      "inputs": [
        {
          "internalType": "address",
          "name": "from",
          "type": "address"
        },
        {
          "internalType": "address",
          "name": "to",
          "type": "address"
        },
        {
          "internalType": "uint256",
          "name": "id",
          "type": "uint256"
        },
        {
          "internalType": "uint256",
          "name": "value",
          "type": "uint256"
        },
        {
          "internalType": "bytes",
          "name": "data",
          "type": "bytes"
        }
      ],
      "name": "safeTransferFrom",
      "outputs": [],
      "stateMutability": "nonpayable",
      "type": "function"
    },
    {
      "inputs": [
        {
          "internalType": "address",
          "name": "operator",
          "type": "address"
        },
        {
          "internalType": "bool",
          "name": "approved",
          "type": "bool"
        }
      ],
      "name": "setApprovalForAll",
      "outputs": [],
      "stateMutability": "nonpayable",
      "type": "function"
    },
    {
      "inputs": [
        {
          "internalType": "uint256",
          "name": "_newPrice",
          "type": "uint256"
        }
      ],
      "name": "setBoxPrice",
      "outputs": [],
      "stateMutability": "nonpayable",
      "type": "function"
    },
    {
      "inputs": [
        {
          "internalType": "address",
          "name": "_entropy",
          "type": "address"
        }
      ],
      "name": "setEntropy",
      "outputs": [],
      "stateMutability": "nonpayable",
      "type": "function"
    },
    {
      "inputs": [
        {
          "internalType": "bytes4",
          "name": "interfaceId",
          "type": "bytes4"
        }
      ],
      "name": "supportsInterface",
      "outputs": [
        {
          "internalType": "bool",
          "name": "",
          "type": "bool"
        }
      ],
      "stateMutability": "view",
      "type": "function"
    },
    {
      "inputs": [],
      "name": "symbol",
      "outputs": [
        {
          "internalType": "string",
          "name": "",
          "type": "string"
        }
      ],
      "stateMutability": "view",
      "type": "function"
    },
    {
      "inputs": [
        {
          "internalType": "address",
          "name": "newOwner",
          "type": "address"
        }
      ],
      "name": "transferOwnership",
      "outputs": [],
      "stateMutability": "nonpayable",
      "type": "function"
    },
    {
      "inputs": [
        {
          "internalType": "uint256",
          "name": "tokenId",
          "type": "uint256"
        }
      ],
      "name": "uri",
      "outputs": [
        {
          "internalType": "string",
          "name": "",
          "type": "string"
        }
      ],
      "stateMutability": "pure",
      "type": "function"
    },
    {
      "inputs": [],
      "name": "withdrawFunds",
      "outputs": [],
      "stateMutability": "nonpayable",
      "type": "function"
    },
    {
      "stateMutability": "payable",
      "type": "receive"
    }
  ],
  "bytecode": "0x60806040526040518060400160405280601081526020017f49505059204d79737465727920426f7800000000000000000000000000000000815250600790816100489190610531565b506040518060400160405280600881526020017f495050595f424f580000000000000000000000000000000000000000000000008152506008908161008d9190610531565b5067016345785d8a0000600955620a2c2a600a556000600b553480156100b257600080fd5b5060405161493738038061493783398181016040528101906100d49190610666565b33604051806020016040528060008152506100f48161020860201b60201c565b50600073ffffffffffffffffffffffffffffffffffffffff168173ffffffffffffffffffffffffffffffffffffffff16036101675760006040517f1e4fbdf700000000000000000000000000000000000000000000000000000000815260040161015e91906106b5565b60405180910390fd5b6101768161021b60201b60201c565b50600160048190555081600560006101000a81548173ffffffffffffffffffffffffffffffffffffffff021916908373ffffffffffffffffffffffffffffffffffffffff16021790555080600660006101000a81548173ffffffffffffffffffffffffffffffffffffffff021916908373ffffffffffffffffffffffffffffffffffffffff16021790555050506106d0565b80600290816102179190610531565b5050565b6000600360009054906101000a900473ffffffffffffffffffffffffffffffffffffffff16905081600360006101000a81548173ffffffffffffffffffffffffffffffffffffffff021916908373ffffffffffffffffffffffffffffffffffffffff1602179055508173ffffffffffffffffffffffffffffffffffffffff168173ffffffffffffffffffffffffffffffffffffffff167f8be0079c531659141344cd1fd0a4f28419497f9722a3daafe3b4186f6b6457e060405160405180910390a35050565b600081519050919050565b7f4e487b7100000000000000000000000000000000000000000000000000000000600052604160045260246000fd5b7f4e487b7100000000000000000000000000000000000000000000000000000000600052602260045260246000fd5b6000600282049050600182168061036257607f821691505b6020821081036103755761037461031b565b5b50919050565b60008190508160005260206000209050919050565b60006020601f8301049050919050565b600082821b905092915050565b6000600883026103dd7fffffffffffffffffffffffffffffffffffffffffffffffffffffffffffffffff826103a0565b6103e786836103a0565b95508019841693508086168417925050509392505050565b6000819050919050565b6000819050919050565b600061042e610429610424846103ff565b610409565b6103ff565b9050919050565b6000819050919050565b61044883610413565b61045c61045482610435565b8484546103ad565b825550505050565b600090565b610471610464565b61047c81848461043f565b505050565b5b818110156104a057610495600082610469565b600181019050610482565b5050565b601f8211156104e5576104b68161037b565b6104bf84610390565b810160208510156104ce578190505b6104e26104da85610390565b830182610481565b50505b505050565b600082821c905092915050565b6000610508600019846008026104ea565b1980831691505092915050565b600061052183836104f7565b9150826002028217905092915050565b61053a826102e1565b67ffffffffffffffff811115610553576105526102ec565b5b61055d825461034a565b6105688282856104a4565b600060209050601f83116001811461059b5760008415610589578287015190505b6105938582610515565b8655506105fb565b601f1984166105a98661037b565b60005b828110156105d1578489015182556001820191506020850194506020810190506105ac565b868310156105ee57848901516105ea601f8916826104f7565b8355505b6001600288020188555050505b505050505050565b600080fd5b600073ffffffffffffffffffffffffffffffffffffffff82169050919050565b600061063382610608565b9050919050565b61064381610628565b811461064e57600080fd5b50565b6000815190506106608161063a565b92915050565b6000806040838503121561067d5761067c610603565b5b600061068b85828601610651565b925050602061069c85828601610651565b9150509250929050565b6106af81610628565b82525050565b60006020820190506106ca60008301846106a6565b92915050565b614258806106df6000396000f3fe6080604052600436106101d05760003560e01c8063715018a6116100f7578063a648285811610095578063f0034a7e11610064578063f0034a7e14610681578063f242432a146106ac578063f2fde38b146106d5578063f7dbea3e146106fe576101d7565b8063a6482858146105d4578063b1e5e2b7146105ff578063b59ee46d1461061b578063e985e9c514610644576101d7565b8063896ff2d2116100d1578063896ff2d21461052a5780638da5cb5b1461055557806395d89b4114610580578063a22cb465146105ab576101d7565b8063715018a6146104ba578063771282f6146104d15780637cc1f867146104fc576101d7565b8063156b99391161016f57806343192a631161013e57806343192a63146103ec57806347ce07cc146104295780634e1273f41461045457806352a5f1f814610491576101d7565b8063156b99391461036557806324600fc3146103815780632ab4d052146103985780632eb2c2d6146103c3576101d7565b806306fdde03116101ab57806306fdde0314610293578063080cd1b6146102be5780630e89341c146102e957806310e2c99114610326576101d7565b8062fdd58e146101dc57806301ffc9a71461021957806306452ca214610256576101d7565b366101d757005b600080fd5b3480156101e857600080fd5b5061020360048036038101906101fe9190612c0d565b610727565b6040516102109190612c5c565b60405180910390f35b34801561022557600080fd5b50610240600480360381019061023b9190612ccf565b610781565b60405161024d9190612d17565b60405180910390f35b34801561026257600080fd5b5061027d60048036038101906102789190612d32565b610863565b60405161028a9190612c5c565b60405180910390f35b34801561029f57600080fd5b506102a8610877565b6040516102b59190612def565b60405180910390f35b3480156102ca57600080fd5b506102d3610905565b6040516102e09190612e20565b60405180910390f35b3480156102f557600080fd5b50610310600480360381019061030b9190612e3b565b61092f565b60405161031d9190612def565b60405180910390f35b34801561033257600080fd5b5061034d60048036038101906103489190612ea8565b6109b5565b60405161035c93929190612f00565b60405180910390f35b61037f600480360381019061037a9190612e3b565b610a28565b005b34801561038d57600080fd5b50610396610bdb565b005b3480156103a457600080fd5b506103ad610c33565b6040516103ba9190612c5c565b60405180910390f35b3480156103cf57600080fd5b506103ea60048036038101906103e59190613134565b610c39565b005b3480156103f857600080fd5b50610413600480360381019061040e9190612e3b565b610ce1565b6040516104209190612c5c565b60405180910390f35b34801561043557600080fd5b5061043e610d98565b60405161044b9190613262565b60405180910390f35b34801561046057600080fd5b5061047b60048036038101906104769190613340565b610dbe565b6040516104889190613476565b60405180910390f35b34801561049d57600080fd5b506104b860048036038101906104b391906134ce565b610ec7565b005b3480156104c657600080fd5b506104cf610fc1565b005b3480156104dd57600080fd5b506104e6610fd5565b6040516104f39190612c5c565b60405180910390f35b34801561050857600080fd5b50610511610fdb565b6040516105219493929190613521565b60405180910390f35b34801561053657600080fd5b5061053f611008565b60405161054c9190613587565b60405180910390f35b34801561056157600080fd5b5061056a61102e565b6040516105779190612e20565b60405180910390f35b34801561058c57600080fd5b50610595611058565b6040516105a29190612def565b60405180910390f35b3480156105b757600080fd5b506105d260048036038101906105cd91906135ce565b6110e6565b005b3480156105e057600080fd5b506105e96110fc565b6040516105f69190612c5c565b60405180910390f35b61061960048036038101906106149190612e3b565b611102565b005b34801561062757600080fd5b50610642600480360381019061063d9190612d32565b611475565b005b34801561065057600080fd5b5061066b6004803603810190610666919061360e565b6114c1565b6040516106789190612d17565b60405180910390f35b34801561068d57600080fd5b50610696611555565b6040516106a39190612c5c565b60405180910390f35b3480156106b857600080fd5b506106d360048036038101906106ce919061364e565b6115ff565b005b3480156106e157600080fd5b506106fc60048036038101906106f79190612d32565b6116a7565b005b34801561070a57600080fd5b5061072560048036038101906107209190612e3b565b61172d565b005b600080600083815260200190815260200160002060008473ffffffffffffffffffffffffffffffffffffffff1673ffffffffffffffffffffffffffffffffffffffff16815260200190815260200160002054905092915050565b60007fd9b67a26000000000000000000000000000000000000000000000000000000007bffffffffffffffffffffffffffffffffffffffffffffffffffffffff1916827bffffffffffffffffffffffffffffffffffffffffffffffffffffffff1916148061084c57507f0e89341c000000000000000000000000000000000000000000000000000000007bffffffffffffffffffffffffffffffffffffffffffffffffffffffff1916827bffffffffffffffffffffffffffffffffffffffffffffffffffffffff1916145b8061085c575061085b82611776565b5b9050919050565b6000610870826001610727565b9050919050565b6007805461088490613714565b80601f01602080910402602001604051908101604052809291908181526020018280546108b090613714565b80156108fd5780601f106108d2576101008083540402835291602001916108fd565b820191906000526020600020905b8154815290600101906020018083116108e057829003601f168201915b505050505081565b6000600560009054906101000a900473ffffffffffffffffffffffffffffffffffffffff16905090565b606073__$31b14ea01cddf58328483bb1f0a9071732$__63c87b56dd836040518263ffffffff1660e01b81526004016109689190613754565b600060405180830381865af4158015610985573d6000803e3d6000fd5b505050506040513d6000823e3d601f19601f820116820180604052508101906109ae9190613810565b9050919050565b600c6020528060005260406000206000915090508060000160009054906101000a900473ffffffffffffffffffffffffffffffffffffffff16908060010160009054906101000a90046fffffffffffffffffffffffffffffffff16908060010160109054906101000a900460ff16905083565b610a306117e0565b600a5481600b54610a419190613888565b1115610a82576040517f08c379a0000000000000000000000000000000000000000000000000000000008152600401610a7990613908565b60405180910390fd5b80600954610a909190613928565b341015610ad2576040517f08c379a0000000000000000000000000000000000000000000000000000000008152600401610ac9906139b6565b60405180910390fd5b610aee3360018360405180602001604052806000815250611826565b80600b600082825401925050819055503373ffffffffffffffffffffffffffffffffffffffff167f563f765c41c933a7649731114db930be8ad7c1b074e4205688672be38854d2648283600954610b459190613928565b604051610b539291906139d6565b60405180910390a280600954610b699190613928565b341115610bd0573373ffffffffffffffffffffffffffffffffffffffff166108fc82600954610b989190613928565b34610ba391906139ff565b9081150290604051600060405180830381858888f19350505050158015610bce573d6000803e3d6000fd5b505b610bd86118bf565b50565b610be36118c9565b610beb61102e565b73ffffffffffffffffffffffffffffffffffffffff166108fc479081150290604051600060405180830381858888f19350505050158015610c30573d6000803e3d6000fd5b50565b600a5481565b6000610c43611950565b90508073ffffffffffffffffffffffffffffffffffffffff168673ffffffffffffffffffffffffffffffffffffffff1614158015610c885750610c8686826114c1565b155b15610ccc5780866040517fe237d922000000000000000000000000000000000000000000000000000000008152600401610cc3929190613a33565b60405180910390fd5b610cd98686868686611958565b505050505050565b600081600660009054906101000a900473ffffffffffffffffffffffffffffffffffffffff1673ffffffffffffffffffffffffffffffffffffffff16638204b67a6040518163ffffffff1660e01b8152600401602060405180830381865afa158015610d51573d6000803e3d6000fd5b505050506040513d601f19601f82011682018060405250810190610d759190613a88565b6fffffffffffffffffffffffffffffffff16610d919190613928565b9050919050565b600660009054906101000a900473ffffffffffffffffffffffffffffffffffffffff1681565b60608151835114610e0a57815183516040517f5b059991000000000000000000000000000000000000000000000000000000008152600401610e019291906139d6565b60405180910390fd5b6000835167ffffffffffffffff811115610e2757610e26612f3c565b5b604051908082528060200260200182016040528015610e555781602001602082028036833780820191505090505b50905060005b8451811015610ebc57610e92610e7a8287611a5090919063ffffffff16565b610e8d8387611a6490919063ffffffff16565b610727565b828281518110610ea557610ea4613ab5565b5b602002602001018181525050806001019050610e5b565b508091505092915050565b6000610ed1611a78565b9050600073ffffffffffffffffffffffffffffffffffffffff168173ffffffffffffffffffffffffffffffffffffffff1603610f42576040517f08c379a0000000000000000000000000000000000000000000000000000000008152600401610f3990613b30565b60405180910390fd5b8073ffffffffffffffffffffffffffffffffffffffff163373ffffffffffffffffffffffffffffffffffffffff1614610fb0576040517f08c379a0000000000000000000000000000000000000000000000000000000008152600401610fa790613bc2565b60405180910390fd5b610fbb848484611aa2565b50505050565b610fc96118c9565b610fd36000611e06565b565b600b5481565b600080600080600954600a54600b54600b54600a54610ffa91906139ff565b935093509350935090919293565b600560009054906101000a900473ffffffffffffffffffffffffffffffffffffffff1681565b6000600360009054906101000a900473ffffffffffffffffffffffffffffffffffffffff16905090565b6008805461106590613714565b80601f016020809104026020016040519081016040528092919081815260200182805461109190613714565b80156110de5780601f106110b3576101008083540402835291602001916110de565b820191906000526020600020905b8154815290600101906020018083116110c157829003601f168201915b505050505081565b6110f86110f1611950565b8383611ecc565b5050565b60095481565b61110a6117e0565b6000811161114d576040517f08c379a000000000000000000000000000000000000000000000000000000000815260040161114490613c2e565b60405180910390fd5b80611159336001610727565b101561119a576040517f08c379a000000000000000000000000000000000000000000000000000000000815260040161119190613c9a565b60405180910390fd5b600081600660009054906101000a900473ffffffffffffffffffffffffffffffffffffffff1673ffffffffffffffffffffffffffffffffffffffff16638204b67a6040518163ffffffff1660e01b8152600401602060405180830381865afa15801561120a573d6000803e3d6000fd5b505050506040513d601f19601f8201168201806040525081019061122e9190613a88565b6fffffffffffffffffffffffffffffffff1661124a9190613928565b90508034101561128f576040517f08c379a000000000000000000000000000000000000000000000000000000000815260040161128690613d06565b60405180910390fd5b61129b3360018461203c565b60006112a56120e3565b905060405180606001604052803373ffffffffffffffffffffffffffffffffffffffff168152602001846fffffffffffffffffffffffffffffffff16815260200160001515815250600c60008367ffffffffffffffff1667ffffffffffffffff16815260200190815260200160002060008201518160000160006101000a81548173ffffffffffffffffffffffffffffffffffffffff021916908373ffffffffffffffffffffffffffffffffffffffff16021790555060208201518160010160006101000a8154816fffffffffffffffffffffffffffffffff02191690836fffffffffffffffffffffffffffffffff16021790555060408201518160010160106101000a81548160ff0219169083151502179055509050503373ffffffffffffffffffffffffffffffffffffffff167ffafbc84015c3bbae5074c5199c8c7a6eab2b54b74e196e8fb2e76778e6cc09668285604051611405929190613d35565b60405180910390a281341115611468573373ffffffffffffffffffffffffffffffffffffffff166108fc833461143b91906139ff565b9081150290604051600060405180830381858888f19350505050158015611466573d6000803e3d6000fd5b505b50506114726118bf565b50565b61147d6118c9565b80600660006101000a81548173ffffffffffffffffffffffffffffffffffffffff021916908373ffffffffffffffffffffffffffffffffffffffff16021790555050565b6000600160008473ffffffffffffffffffffffffffffffffffffffff1673ffffffffffffffffffffffffffffffffffffffff16815260200190815260200160002060008373ffffffffffffffffffffffffffffffffffffffff1673ffffffffffffffffffffffffffffffffffffffff16815260200190815260200160002060009054906101000a900460ff16905092915050565b6000600660009054906101000a900473ffffffffffffffffffffffffffffffffffffffff1673ffffffffffffffffffffffffffffffffffffffff16638204b67a6040518163ffffffff1660e01b8152600401602060405180830381865afa1580156115c4573d6000803e3d6000fd5b505050506040513d601f19601f820116820180604052508101906115e89190613a88565b6fffffffffffffffffffffffffffffffff16905090565b6000611609611950565b90508073ffffffffffffffffffffffffffffffffffffffff168673ffffffffffffffffffffffffffffffffffffffff161415801561164e575061164c86826114c1565b155b156116925780866040517fe237d922000000000000000000000000000000000000000000000000000000008152600401611689929190613a33565b60405180910390fd5b61169f8686868686612268565b505050505050565b6116af6118c9565b600073ffffffffffffffffffffffffffffffffffffffff168173ffffffffffffffffffffffffffffffffffffffff16036117215760006040517f1e4fbdf70000000000000000000000000000000000000000000000000000000081526004016117189190612e20565b60405180910390fd5b61172a81611e06565b50565b6117356118c9565b806009819055507f66cbca4f3c64fecf1dcb9ce094abcf7f68c3450a1d4e3a8e917dd621edb4ebe08160405161176b9190612c5c565b60405180910390a150565b60007f01ffc9a7000000000000000000000000000000000000000000000000000000007bffffffffffffffffffffffffffffffffffffffffffffffffffffffff1916827bffffffffffffffffffffffffffffffffffffffffffffffffffffffff1916149050919050565b60026004540361181c576040517f3ee5aeb500000000000000000000000000000000000000000000000000000000815260040160405180910390fd5b6002600481905550565b600073ffffffffffffffffffffffffffffffffffffffff168473ffffffffffffffffffffffffffffffffffffffff16036118985760006040517f57f447ce00000000000000000000000000000000000000000000000000000000815260040161188f9190612e20565b60405180910390fd5b6000806118a58585612373565b915091506118b76000878484876123a3565b505050505050565b6001600481905550565b6118d1611950565b73ffffffffffffffffffffffffffffffffffffffff166118ef61102e565b73ffffffffffffffffffffffffffffffffffffffff161461194e57611912611950565b6040517f118cdaa70000000000000000000000000000000000000000000000000000000081526004016119459190612e20565b60405180910390fd5b565b600033905090565b600073ffffffffffffffffffffffffffffffffffffffff168473ffffffffffffffffffffffffffffffffffffffff16036119ca5760006040517f57f447ce0000000000000000000000000000000000000000000000000000000081526004016119c19190612e20565b60405180910390fd5b600073ffffffffffffffffffffffffffffffffffffffff168573ffffffffffffffffffffffffffffffffffffffff1603611a3c5760006040517f01a83514000000000000000000000000000000000000000000000000000000008152600401611a339190612e20565b60405180910390fd5b611a4985858585856123a3565b5050505050565b600060208202602084010151905092915050565b600060208202602084010151905092915050565b6000600660009054906101000a900473ffffffffffffffffffffffffffffffffffffffff16905090565b6000600c60008567ffffffffffffffff1667ffffffffffffffff16815260200190815260200160002090508060010160109054906101000a900460ff1615611b1f576040517f08c379a0000000000000000000000000000000000000000000000000000000008152600401611b1690613daa565b60405180910390fd5b600073ffffffffffffffffffffffffffffffffffffffff168160000160009054906101000a900473ffffffffffffffffffffffffffffffffffffffff1673ffffffffffffffffffffffffffffffffffffffff1603611bb2576040517f08c379a0000000000000000000000000000000000000000000000000000000008152600401611ba990613e16565b60405180910390fd5b60018160010160106101000a81548160ff02191690831515021790555060008160010160009054906101000a90046fffffffffffffffffffffffffffffffff16905060005b816fffffffffffffffffffffffffffffffff16811015611dfe5760008482604051602001611c26929190613e78565b6040516020818303038152906040528051906020012090506000620f42408260001c611c529190613ed3565b9050600560009054906101000a900473ffffffffffffffffffffffffffffffffffffffff1673ffffffffffffffffffffffffffffffffffffffff166340c10f198660000160009054906101000a900473ffffffffffffffffffffffffffffffffffffffff16836040518363ffffffff1660e01b8152600401611cd5929190613f04565b600060405180830381600087803b158015611cef57600080fd5b505af1158015611d03573d6000803e3d6000fd5b505050508460000160009054906101000a900473ffffffffffffffffffffffffffffffffffffffff1673ffffffffffffffffffffffffffffffffffffffff167f4969514c39ffcc58b7e619b4be3dbadf6517aaea3fe3e32983cc79460d901b316001836000604051611d7793929190613f68565b60405180910390a28460000160009054906101000a900473ffffffffffffffffffffffffffffffffffffffff1673ffffffffffffffffffffffffffffffffffffffff167f4cc0a9c4a99ddc700de1af2c9f916a7cbfdb71f14801ccff94061ad1ef8a804082604051611de99190612c5c565b60405180910390a28260010192505050611bf7565b505050505050565b6000600360009054906101000a900473ffffffffffffffffffffffffffffffffffffffff16905081600360006101000a81548173ffffffffffffffffffffffffffffffffffffffff021916908373ffffffffffffffffffffffffffffffffffffffff1602179055508173ffffffffffffffffffffffffffffffffffffffff168173ffffffffffffffffffffffffffffffffffffffff167f8be0079c531659141344cd1fd0a4f28419497f9722a3daafe3b4186f6b6457e060405160405180910390a35050565b600073ffffffffffffffffffffffffffffffffffffffff168273ffffffffffffffffffffffffffffffffffffffff1603611f3e5760006040517fced3e100000000000000000000000000000000000000000000000000000000008152600401611f359190612e20565b60405180910390fd5b80600160008573ffffffffffffffffffffffffffffffffffffffff1673ffffffffffffffffffffffffffffffffffffffff16815260200190815260200160002060008473ffffffffffffffffffffffffffffffffffffffff1673ffffffffffffffffffffffffffffffffffffffff16815260200190815260200160002060006101000a81548160ff0219169083151502179055508173ffffffffffffffffffffffffffffffffffffffff168373ffffffffffffffffffffffffffffffffffffffff167f17307eab39ab6107e8899845ad3d59bd9653f200f220920489ca2b5937696c318360405161202f9190612d17565b60405180910390a3505050565b600073ffffffffffffffffffffffffffffffffffffffff168373ffffffffffffffffffffffffffffffffffffffff16036120ae5760006040517f01a835140000000000000000000000000000000000000000000000000000000081526004016120a59190612e20565b60405180910390fd5b6000806120bb8484612373565b915091506120dc8560008484604051806020016040528060008152506123a3565b5050505050565b600080600660009054906101000a900473ffffffffffffffffffffffffffffffffffffffff1673ffffffffffffffffffffffffffffffffffffffff16638204b67a6040518163ffffffff1660e01b8152600401602060405180830381865afa158015612153573d6000803e3d6000fd5b505050506040513d601f19601f820116820180604052508101906121779190613a88565b6fffffffffffffffffffffffffffffffff169050804710156121ce576040517f08c379a00000000000000000000000000000000000000000000000000000000081526004016121c590613feb565b60405180910390fd5b600660009054906101000a900473ffffffffffffffffffffffffffffffffffffffff1673ffffffffffffffffffffffffffffffffffffffff16637b43155d826040518263ffffffff1660e01b815260040160206040518083038185885af115801561223d573d6000803e3d6000fd5b50505050506040513d601f19601f820116820180604052508101906122629190614020565b91505090565b600073ffffffffffffffffffffffffffffffffffffffff168473ffffffffffffffffffffffffffffffffffffffff16036122da5760006040517f57f447ce0000000000000000000000000000000000000000000000000000000081526004016122d19190612e20565b60405180910390fd5b600073ffffffffffffffffffffffffffffffffffffffff168573ffffffffffffffffffffffffffffffffffffffff160361234c5760006040517f01a835140000000000000000000000000000000000000000000000000000000081526004016123439190612e20565b60405180910390fd5b6000806123598585612373565b9150915061236a87878484876123a3565b50505050505050565b60608060405191506001825283602083015260408201905060018152826020820152604081016040529250929050565b6123af85858585612455565b600073ffffffffffffffffffffffffffffffffffffffff168473ffffffffffffffffffffffffffffffffffffffff161461244e5760006123ed611950565b9050600184510361243d57600061240e600086611a6490919063ffffffff16565b90506000612426600086611a6490919063ffffffff16565b90506124368389898585896127fd565b505061244c565b61244b8187878787876129b1565b5b505b5050505050565b805182511461249f57815181516040517f5b0599910000000000000000000000000000000000000000000000000000000081526004016124969291906139d6565b60405180910390fd5b60006124a9611950565b905060005b83518110156126b85760006124cc8286611a6490919063ffffffff16565b905060006124e38386611a6490919063ffffffff16565b9050600073ffffffffffffffffffffffffffffffffffffffff168873ffffffffffffffffffffffffffffffffffffffff161461261057600080600084815260200190815260200160002060008a73ffffffffffffffffffffffffffffffffffffffff1673ffffffffffffffffffffffffffffffffffffffff168152602001908152602001600020549050818110156125b857888183856040517f03dee4c50000000000000000000000000000000000000000000000000000000081526004016125af949392919061404d565b60405180910390fd5b81810360008085815260200190815260200160002060008b73ffffffffffffffffffffffffffffffffffffffff1673ffffffffffffffffffffffffffffffffffffffff16815260200190815260200160002081905550505b600073ffffffffffffffffffffffffffffffffffffffff168773ffffffffffffffffffffffffffffffffffffffff16146126ab578060008084815260200190815260200160002060008973ffffffffffffffffffffffffffffffffffffffff1673ffffffffffffffffffffffffffffffffffffffff16815260200190815260200160002060008282546126a39190613888565b925050819055505b50508060010190506124ae565b5060018351036127775760006126d8600085611a6490919063ffffffff16565b905060006126f0600085611a6490919063ffffffff16565b90508573ffffffffffffffffffffffffffffffffffffffff168773ffffffffffffffffffffffffffffffffffffffff168473ffffffffffffffffffffffffffffffffffffffff167fc3d58168c5ae7397731d063d5bbf3d657854427343f4c083240f7aacaa2d0f6285856040516127689291906139d6565b60405180910390a450506127f6565b8373ffffffffffffffffffffffffffffffffffffffff168573ffffffffffffffffffffffffffffffffffffffff168273ffffffffffffffffffffffffffffffffffffffff167f4a39dc06d4c0dbc64b70af90fd698a233a518aa5d07e595d983b8c0526c8f7fb86866040516127ed929190614092565b60405180910390a45b5050505050565b60008473ffffffffffffffffffffffffffffffffffffffff163b11156129a9578373ffffffffffffffffffffffffffffffffffffffff1663f23a6e6187878686866040518663ffffffff1660e01b815260040161285e95949392919061411e565b6020604051808303816000875af192505050801561289a57506040513d601f19601f82011682018060405250810190612897919061418d565b60015b61291e573d80600081146128ca576040519150601f19603f3d011682016040523d82523d6000602084013e6128cf565b606091505b50600081510361291657846040517f57f447ce00000000000000000000000000000000000000000000000000000000815260040161290d9190612e20565b60405180910390fd5b805160208201fd5b63f23a6e6160e01b7bffffffffffffffffffffffffffffffffffffffffffffffffffffffff1916817bffffffffffffffffffffffffffffffffffffffffffffffffffffffff1916146129a757846040517f57f447ce00000000000000000000000000000000000000000000000000000000815260040161299e9190612e20565b60405180910390fd5b505b505050505050565b60008473ffffffffffffffffffffffffffffffffffffffff163b1115612b5d578373ffffffffffffffffffffffffffffffffffffffff1663bc197c8187878686866040518663ffffffff1660e01b8152600401612a129594939291906141ba565b6020604051808303816000875af1925050508015612a4e57506040513d601f19601f82011682018060405250810190612a4b919061418d565b60015b612ad2573d8060008114612a7e576040519150601f19603f3d011682016040523d82523d6000602084013e612a83565b606091505b506000815103612aca57846040517f57f447ce000000000000000000000000000000000000000000000000000000008152600401612ac19190612e20565b60405180910390fd5b805160208201fd5b63bc197c8160e01b7bffffffffffffffffffffffffffffffffffffffffffffffffffffffff1916817bffffffffffffffffffffffffffffffffffffffffffffffffffffffff191614612b5b57846040517f57f447ce000000000000000000000000000000000000000000000000000000008152600401612b529190612e20565b60405180910390fd5b505b505050505050565b6000604051905090565b600080fd5b600080fd5b600073ffffffffffffffffffffffffffffffffffffffff82169050919050565b6000612ba482612b79565b9050919050565b612bb481612b99565b8114612bbf57600080fd5b50565b600081359050612bd181612bab565b92915050565b6000819050919050565b612bea81612bd7565b8114612bf557600080fd5b50565b600081359050612c0781612be1565b92915050565b60008060408385031215612c2457612c23612b6f565b5b6000612c3285828601612bc2565b9250506020612c4385828601612bf8565b9150509250929050565b612c5681612bd7565b82525050565b6000602082019050612c716000830184612c4d565b92915050565b60007fffffffff0000000000000000000000000000000000000000000000000000000082169050919050565b612cac81612c77565b8114612cb757600080fd5b50565b600081359050612cc981612ca3565b92915050565b600060208284031215612ce557612ce4612b6f565b5b6000612cf384828501612cba565b91505092915050565b60008115159050919050565b612d1181612cfc565b82525050565b6000602082019050612d2c6000830184612d08565b92915050565b600060208284031215612d4857612d47612b6f565b5b6000612d5684828501612bc2565b91505092915050565b600081519050919050565b600082825260208201905092915050565b60005b83811015612d99578082015181840152602081019050612d7e565b60008484015250505050565b6000601f19601f8301169050919050565b6000612dc182612d5f565b612dcb8185612d6a565b9350612ddb818560208601612d7b565b612de481612da5565b840191505092915050565b60006020820190508181036000830152612e098184612db6565b905092915050565b612e1a81612b99565b82525050565b6000602082019050612e356000830184612e11565b92915050565b600060208284031215612e5157612e50612b6f565b5b6000612e5f84828501612bf8565b91505092915050565b600067ffffffffffffffff82169050919050565b612e8581612e68565b8114612e9057600080fd5b50565b600081359050612ea281612e7c565b92915050565b600060208284031215612ebe57612ebd612b6f565b5b6000612ecc84828501612e93565b91505092915050565b60006fffffffffffffffffffffffffffffffff82169050919050565b612efa81612ed5565b82525050565b6000606082019050612f156000830186612e11565b612f226020830185612ef1565b612f2f6040830184612d08565b949350505050565b600080fd5b7f4e487b7100000000000000000000000000000000000000000000000000000000600052604160045260246000fd5b612f7482612da5565b810181811067ffffffffffffffff82111715612f9357612f92612f3c565b5b80604052505050565b6000612fa6612b65565b9050612fb28282612f6b565b919050565b600067ffffffffffffffff821115612fd257612fd1612f3c565b5b602082029050602081019050919050565b600080fd5b6000612ffb612ff684612fb7565b612f9c565b9050808382526020820190506020840283018581111561301e5761301d612fe3565b5b835b8181101561304757806130338882612bf8565b845260208401935050602081019050613020565b5050509392505050565b600082601f83011261306657613065612f37565b5b8135613076848260208601612fe8565b91505092915050565b600080fd5b600067ffffffffffffffff82111561309f5761309e612f3c565b5b6130a882612da5565b9050602081019050919050565b82818337600083830152505050565b60006130d76130d284613084565b612f9c565b9050828152602081018484840111156130f3576130f261307f565b5b6130fe8482856130b5565b509392505050565b600082601f83011261311b5761311a612f37565b5b813561312b8482602086016130c4565b91505092915050565b600080600080600060a086880312156131505761314f612b6f565b5b600061315e88828901612bc2565b955050602061316f88828901612bc2565b945050604086013567ffffffffffffffff8111156131905761318f612b74565b5b61319c88828901613051565b935050606086013567ffffffffffffffff8111156131bd576131bc612b74565b5b6131c988828901613051565b925050608086013567ffffffffffffffff8111156131ea576131e9612b74565b5b6131f688828901613106565b9150509295509295909350565b6000819050919050565b600061322861322361321e84612b79565b613203565b612b79565b9050919050565b600061323a8261320d565b9050919050565b600061324c8261322f565b9050919050565b61325c81613241565b82525050565b60006020820190506132776000830184613253565b92915050565b600067ffffffffffffffff82111561329857613297612f3c565b5b602082029050602081019050919050565b60006132bc6132b78461327d565b612f9c565b905080838252602082019050602084028301858111156132df576132de612fe3565b5b835b8181101561330857806132f48882612bc2565b8452602084019350506020810190506132e1565b5050509392505050565b600082601f83011261332757613326612f37565b5b81356133378482602086016132a9565b91505092915050565b6000806040838503121561335757613356612b6f565b5b600083013567ffffffffffffffff81111561337557613374612b74565b5b61338185828601613312565b925050602083013567ffffffffffffffff8111156133a2576133a1612b74565b5b6133ae85828601613051565b9150509250929050565b600081519050919050565b600082825260208201905092915050565b6000819050602082019050919050565b6133ed81612bd7565b82525050565b60006133ff83836133e4565b60208301905092915050565b6000602082019050919050565b6000613423826133b8565b61342d81856133c3565b9350613438836133d4565b8060005b8381101561346957815161345088826133f3565b975061345b8361340b565b92505060018101905061343c565b5085935050505092915050565b600060208201905081810360008301526134908184613418565b905092915050565b6000819050919050565b6134ab81613498565b81146134b657600080fd5b50565b6000813590506134c8816134a2565b92915050565b6000806000606084860312156134e7576134e6612b6f565b5b60006134f586828701612e93565b935050602061350686828701612bc2565b9250506040613517868287016134b9565b9150509250925092565b60006080820190506135366000830187612c4d565b6135436020830186612c4d565b6135506040830185612c4d565b61355d6060830184612c4d565b95945050505050565b60006135718261322f565b9050919050565b61358181613566565b82525050565b600060208201905061359c6000830184613578565b92915050565b6135ab81612cfc565b81146135b657600080fd5b50565b6000813590506135c8816135a2565b92915050565b600080604083850312156135e5576135e4612b6f565b5b60006135f385828601612bc2565b9250506020613604858286016135b9565b9150509250929050565b6000806040838503121561362557613624612b6f565b5b600061363385828601612bc2565b925050602061364485828601612bc2565b9150509250929050565b600080600080600060a0868803121561366a57613669612b6f565b5b600061367888828901612bc2565b955050602061368988828901612bc2565b945050604061369a88828901612bf8565b93505060606136ab88828901612bf8565b925050608086013567ffffffffffffffff8111156136cc576136cb612b74565b5b6136d888828901613106565b9150509295509295909350565b7f4e487b7100000000000000000000000000000000000000000000000000000000600052602260045260246000fd5b6000600282049050600182168061372c57607f821691505b60208210810361373f5761373e6136e5565b5b50919050565b61374e81612bd7565b82525050565b60006020820190506137696000830184613745565b92915050565b600067ffffffffffffffff82111561378a57613789612f3c565b5b61379382612da5565b9050602081019050919050565b60006137b36137ae8461376f565b612f9c565b9050828152602081018484840111156137cf576137ce61307f565b5b6137da848285612d7b565b509392505050565b600082601f8301126137f7576137f6612f37565b5b81516138078482602086016137a0565b91505092915050565b60006020828403121561382657613825612b6f565b5b600082015167ffffffffffffffff81111561384457613843612b74565b5b613850848285016137e2565b91505092915050565b7f4e487b7100000000000000000000000000000000000000000000000000000000600052601160045260246000fd5b600061389382612bd7565b915061389e83612bd7565b92508282019050808211156138b6576138b5613859565b5b92915050565b7f45786365656473206d617820737570706c790000000000000000000000000000600082015250565b60006138f2601283612d6a565b91506138fd826138bc565b602082019050919050565b60006020820190508181036000830152613921816138e5565b9050919050565b600061393382612bd7565b915061393e83612bd7565b925082820261394c81612bd7565b9150828204841483151761396357613962613859565b5b5092915050565b7f496e73756666696369656e74207061796d656e74000000000000000000000000600082015250565b60006139a0601483612d6a565b91506139ab8261396a565b602082019050919050565b600060208201905081810360008301526139cf81613993565b9050919050565b60006040820190506139eb6000830185612c4d565b6139f86020830184612c4d565b9392505050565b6000613a0a82612bd7565b9150613a1583612bd7565b9250828203905081811115613a2d57613a2c613859565b5b92915050565b6000604082019050613a486000830185612e11565b613a556020830184612e11565b9392505050565b613a6581612ed5565b8114613a7057600080fd5b50565b600081519050613a8281613a5c565b92915050565b600060208284031215613a9e57613a9d612b6f565b5b6000613aac84828501613a73565b91505092915050565b7f4e487b7100000000000000000000000000000000000000000000000000000000600052603260045260246000fd5b7f456e74726f70792061646472657373206e6f7420736574000000000000000000600082015250565b6000613b1a601783612d6a565b9150613b2582613ae4565b602082019050919050565b60006020820190508181036000830152613b4981613b0d565b9050919050565b7f4f6e6c7920456e74726f70792063616e2063616c6c20746869732066756e637460008201527f696f6e0000000000000000000000000000000000000000000000000000000000602082015250565b6000613bac602383612d6a565b9150613bb782613b50565b604082019050919050565b60006020820190508181036000830152613bdb81613b9f565b9050919050565b7f416d6f756e74206d7573742062652067726561746572207468616e2030000000600082015250565b6000613c18601d83612d6a565b9150613c2382613be2565b602082019050919050565b60006020820190508181036000830152613c4781613c0b565b9050919050565b7f496e73756666696369656e7420626f7865730000000000000000000000000000600082015250565b6000613c84601283612d6a565b9150613c8f82613c4e565b602082019050919050565b60006020820190508181036000830152613cb381613c77565b9050919050565b7f496e73756666696369656e742066656520666f72205652460000000000000000600082015250565b6000613cf0601883612d6a565b9150613cfb82613cba565b602082019050919050565b60006020820190508181036000830152613d1f81613ce3565b9050919050565b613d2f81612e68565b82525050565b6000604082019050613d4a6000830185613d26565b613d576020830184612c4d565b9392505050565b7f416c72656164792070726f636573736564000000000000000000000000000000600082015250565b6000613d94601183612d6a565b9150613d9f82613d5e565b602082019050919050565b60006020820190508181036000830152613dc381613d87565b9050919050565b7f496e76616c69642073657175656e6365206e756d626572000000000000000000600082015250565b6000613e00601783612d6a565b9150613e0b82613dca565b602082019050919050565b60006020820190508181036000830152613e2f81613df3565b9050919050565b6000819050919050565b613e51613e4c82613498565b613e36565b82525050565b6000819050919050565b613e72613e6d82612bd7565b613e57565b82525050565b6000613e848285613e40565b602082019150613e948284613e61565b6020820191508190509392505050565b7f4e487b7100000000000000000000000000000000000000000000000000000000600052601260045260246000fd5b6000613ede82612bd7565b9150613ee983612bd7565b925082613ef957613ef8613ea4565b5b828206905092915050565b6000604082019050613f196000830185612e11565b613f266020830184612c4d565b9392505050565b6000819050919050565b6000613f52613f4d613f4884613f2d565b613203565b612bd7565b9050919050565b613f6281613f37565b82525050565b6000606082019050613f7d6000830186613f59565b613f8a6020830185612c4d565b613f976040830184612d08565b949350505050565b7f496e73756666696369656e7420495020666f7220656e74726f70792066656500600082015250565b6000613fd5601f83612d6a565b9150613fe082613f9f565b602082019050919050565b6000602082019050818103600083015261400481613fc8565b9050919050565b60008151905061401a81612e7c565b92915050565b60006020828403121561403657614035612b6f565b5b60006140448482850161400b565b91505092915050565b60006080820190506140626000830187612e11565b61406f6020830186612c4d565b61407c6040830185612c4d565b6140896060830184612c4d565b95945050505050565b600060408201905081810360008301526140ac8185613418565b905081810360208301526140c08184613418565b90509392505050565b600081519050919050565b600082825260208201905092915050565b60006140f0826140c9565b6140fa81856140d4565b935061410a818560208601612d7b565b61411381612da5565b840191505092915050565b600060a0820190506141336000830188612e11565b6141406020830187612e11565b61414d6040830186612c4d565b61415a6060830185612c4d565b818103608083015261416c81846140e5565b90509695505050505050565b60008151905061418781612ca3565b92915050565b6000602082840312156141a3576141a2612b6f565b5b60006141b184828501614178565b91505092915050565b600060a0820190506141cf6000830188612e11565b6141dc6020830187612e11565b81810360408301526141ee8186613418565b905081810360608301526142028185613418565b9050818103608083015261421681846140e5565b9050969550505050505056fea2646970667358221220f04009de51fb206c5bf9c43a8c16630d5429d4563e5734aac464f6fdb282bad164736f6c634300081c0033",
  "linkReferences": {
    "contracts/lib/MetadataLibBlindBox.sol": {
      "MetadataLibBlindBox": [
        {
          "length": 20,
          "start": 4114
        }
      ]
    }
  },
  "deployedLinkReferences": {
    "contracts/lib/MetadataLibBlindBox.sol": {
      "MetadataLibBlindBox": [
        {
          "length": 20,
          "start": 2355
        }
      ]
    }
  }
}