{
  "_format": "hh-sol-artifact-1",
  "contractName": "OnChainRaffle",
  "sourceName": "contracts/OnChainRaffle.sol",
  "abi": [
    {
      "inputs": [
        {
          "internalType": "address",
          "name": "_entropy",
          "type": "address"
        },
        {
          "internalType": "address",
          "name": "_nftContract",
          "type": "address"
        }
      ],
      "stateMutability": "nonpayable",
      "type": "constructor"
    },
    {
      "inputs": [],
      "name": "EnforcedPause",
      "type": "error"
    },
    {
      "inputs": [],
      "name": "ExpectedPause",
      "type": "error"
    },
    {
      "inputs": [
        {
          "internalType": "address",
          "name": "owner",
          "type": "address"
        }
      ],
      "name": "OwnableInvalidOwner",
      "type": "error"
    },
    {
      "inputs": [
        {
          "internalType": "address",
          "name": "account",
          "type": "address"
        }
      ],
      "name": "OwnableUnauthorizedAccount",
      "type": "error"
    },
    {
      "inputs": [],
      "name": "ReentrancyGuardReentrantCall",
      "type": "error"
    },
    {
      "anonymous": false,
      "inputs": [
        {
          "indexed": true,
          "internalType": "address",
          "name": "user",
          "type": "address"
        },
        {
          "indexed": false,
          "internalType": "uint64",
          "name": "sequenceNumber",
          "type": "uint64"
        }
      ],
      "name": "DrawRequested",
      "type": "event"
    },
    {
      "anonymous": false,
      "inputs": [
        {
          "indexed": true,
          "internalType": "uint256",
          "name": "tokenId",
          "type": "uint256"
        }
      ],
      "name": "NFTDeposited",
      "type": "event"
    },
    {
      "anonymous": false,
      "inputs": [
        {
          "indexed": true,
          "internalType": "uint256",
          "name": "tokenId",
          "type": "uint256"
        },
        {
          "indexed": false,
          "internalType": "address",
          "name": "to",
          "type": "address"
        }
      ],
      "name": "NFTWithdrawn",
      "type": "event"
    },
    {
      "anonymous": false,
      "inputs": [
        {
          "indexed": true,
          "internalType": "address",
          "name": "previousOwner",
          "type": "address"
        },
        {
          "indexed": true,
          "internalType": "address",
          "name": "newOwner",
          "type": "address"
        }
      ],
      "name": "OwnershipTransferred",
      "type": "event"
    },
    {
      "anonymous": false,
      "inputs": [
        {
          "indexed": false,
          "internalType": "address",
          "name": "account",
          "type": "address"
        }
      ],
      "name": "Paused",
      "type": "event"
    },
    {
      "anonymous": false,
      "inputs": [
        {
          "indexed": true,
          "internalType": "address",
          "name": "winner",
          "type": "address"
        },
        {
          "indexed": true,
          "internalType": "uint256",
          "name": "prizeIndex",
          "type": "uint256"
        },
        {
          "indexed": false,
          "internalType": "uint8",
          "name": "tier",
          "type": "uint8"
        },
        {
          "indexed": false,
          "internalType": "uint256",
          "name": "ipTokenAmount",
          "type": "uint256"
        },
        {
          "indexed": false,
          "internalType": "uint256",
          "name": "nftTokenId",
          "type": "uint256"
        }
      ],
      "name": "PrizeAwarded",
      "type": "event"
    },
    {
      "anonymous": false,
      "inputs": [
        {
          "indexed": true,
          "internalType": "address",
          "name": "winner",
          "type": "address"
        },
        {
          "indexed": true,
          "internalType": "uint256",
          "name": "prizeIndex",
          "type": "uint256"
        },
        {
          "indexed": false,
          "internalType": "uint256",
          "name": "ipTokenAmount",
          "type": "uint256"
        },
        {
          "indexed": false,
          "internalType": "uint256",
          "name": "nftTokenId",
          "type": "uint256"
        }
      ],
      "name": "PrizeDistributed",
      "type": "event"
    },
    {
      "anonymous": false,
      "inputs": [
        {
          "indexed": true,
          "internalType": "address",
          "name": "user",
          "type": "address"
        },
        {
          "indexed": true,
          "internalType": "uint256",
          "name": "entryIndex",
          "type": "uint256"
        },
        {
          "indexed": false,
          "internalType": "uint256",
          "name": "entryCount",
          "type": "uint256"
        },
        {
          "indexed": false,
          "internalType": "uint256",
          "name": "ipTokensSpent",
          "type": "uint256"
        }
      ],
      "name": "RaffleEntered",
      "type": "event"
    },
    {
      "anonymous": false,
      "inputs": [
        {
          "indexed": false,
          "internalType": "bool",
          "name": "active",
          "type": "bool"
        }
      ],
      "name": "RaffleStatusChanged",
      "type": "event"
    },
    {
      "anonymous": false,
      "inputs": [
        {
          "indexed": false,
          "internalType": "address",
          "name": "account",
          "type": "address"
        }
      ],
      "name": "Unpaused",
      "type": "event"
    },
    {
      "inputs": [],
      "name": "ENTRY_PRICE",
      "outputs": [
        {
          "internalType": "uint256",
          "name": "",
          "type": "uint256"
        }
      ],
      "stateMutability": "view",
      "type": "function"
    },
    {
      "inputs": [],
      "name": "GUARANTEED_RETURN_RATE",
      "outputs": [
        {
          "internalType": "uint256",
          "name": "",
          "type": "uint256"
        }
      ],
      "stateMutability": "view",
      "type": "function"
    },
    {
      "inputs": [],
      "name": "RATE_DENOMINATOR",
      "outputs": [
        {
          "internalType": "uint256",
          "name": "",
          "type": "uint256"
        }
      ],
      "stateMutability": "view",
      "type": "function"
    },
    {
      "inputs": [],
      "name": "TIER_2_PROBABILITY",
      "outputs": [
        {
          "internalType": "uint256",
          "name": "",
          "type": "uint256"
        }
      ],
      "stateMutability": "view",
      "type": "function"
    },
    {
      "inputs": [],
      "name": "TIER_3_PROBABILITY",
      "outputs": [
        {
          "internalType": "uint256",
          "name": "",
          "type": "uint256"
        }
      ],
      "stateMutability": "view",
      "type": "function"
    },
    {
      "inputs": [],
      "name": "TIER_4_PROBABILITY",
      "outputs": [
        {
          "internalType": "uint256",
          "name": "",
          "type": "uint256"
        }
      ],
      "stateMutability": "view",
      "type": "function"
    },
    {
      "inputs": [],
      "name": "TIER_5_PROBABILITY",
      "outputs": [
        {
          "internalType": "uint256",
          "name": "",
          "type": "uint256"
        }
      ],
      "stateMutability": "view",
      "type": "function"
    },
    {
      "inputs": [
        {
          "internalType": "uint64",
          "name": "sequence",
          "type": "uint64"
        },
        {
          "internalType": "address",
          "name": "provider",
          "type": "address"
        },
        {
          "internalType": "bytes32",
          "name": "randomNumber",
          "type": "bytes32"
        }
      ],
      "name": "_entropyCallback",
      "outputs": [],
      "stateMutability": "nonpayable",
      "type": "function"
    },
    {
      "inputs": [
        {
          "internalType": "uint256",
          "name": "",
          "type": "uint256"
        }
      ],
      "name": "allEntries",
      "outputs": [
        {
          "internalType": "address",
          "name": "user",
          "type": "address"
        },
        {
          "internalType": "uint256",
          "name": "entryCount",
          "type": "uint256"
        },
        {
          "internalType": "uint256",
          "name": "ipTokensSpent",
          "type": "uint256"
        },
        {
          "internalType": "uint256",
          "name": "timestamp",
          "type": "uint256"
        }
      ],
      "stateMutability": "view",
      "type": "function"
    },
    {
      "inputs": [
        {
          "internalType": "uint256",
          "name": "",
          "type": "uint256"
        }
      ],
      "name": "allPrizes",
      "outputs": [
        {
          "internalType": "address",
          "name": "winner",
          "type": "address"
        },
        {
          "internalType": "uint8",
          "name": "tier",
          "type": "uint8"
        },
        {
          "internalType": "uint256",
          "name": "ipTokenAmount",
          "type": "uint256"
        },
        {
          "internalType": "uint256",
          "name": "nftTokenId",
          "type": "uint256"
        },
        {
          "internalType": "bool",
          "name": "distributed",
          "type": "bool"
        },
        {
          "internalType": "uint256",
          "name": "timestamp",
          "type": "uint256"
        }
      ],
      "stateMutability": "view",
      "type": "function"
    },
    {
      "inputs": [
        {
          "internalType": "uint256",
          "name": "",
          "type": "uint256"
        }
      ],
      "name": "availableNFTs",
      "outputs": [
        {
          "internalType": "bool",
          "name": "",
          "type": "bool"
        }
      ],
      "stateMutability": "view",
      "type": "function"
    },
    {
      "inputs": [
        {
          "internalType": "uint256",
          "name": "",
          "type": "uint256"
        }
      ],
      "name": "commonNFTPool",
      "outputs": [
        {
          "internalType": "uint256",
          "name": "",
          "type": "uint256"
        }
      ],
      "stateMutability": "view",
      "type": "function"
    },
    {
      "inputs": [
        {
          "internalType": "uint256[]",
          "name": "tokenIds",
          "type": "uint256[]"
        }
      ],
      "name": "depositNFTs",
      "outputs": [],
      "stateMutability": "nonpayable",
      "type": "function"
    },
    {
      "inputs": [],
      "name": "emergencyWithdraw",
      "outputs": [],
      "stateMutability": "nonpayable",
      "type": "function"
    },
    {
      "inputs": [],
      "name": "enterRaffle",
      "outputs": [],
      "stateMutability": "payable",
      "type": "function"
    },
    {
      "inputs": [],
      "name": "entropy",
      "outputs": [
        {
          "internalType": "contract IEntropyV2",
          "name": "",
          "type": "address"
        }
      ],
      "stateMutability": "view",
      "type": "function"
    },
    {
      "inputs": [],
      "name": "getNFTPoolInfo",
      "outputs": [
        {
          "internalType": "uint256",
          "name": "commonCount",
          "type": "uint256"
        }
      ],
      "stateMutability": "view",
      "type": "function"
    },
    {
      "inputs": [],
      "name": "getNFTPoolTokenIds",
      "outputs": [
        {
          "internalType": "uint256[]",
          "name": "tokenIds",
          "type": "uint256[]"
        }
      ],
      "stateMutability": "view",
      "type": "function"
    },
    {
      "inputs": [],
      "name": "getRaffleInfo",
      "outputs": [
        {
          "internalType": "bool",
          "name": "active",
          "type": "bool"
        },
        {
          "internalType": "uint256",
          "name": "totalEntriesCount",
          "type": "uint256"
        },
        {
          "internalType": "uint256",
          "name": "totalIPTokensCollectedAmount",
          "type": "uint256"
        },
        {
          "internalType": "uint256",
          "name": "contractBalance",
          "type": "uint256"
        },
        {
          "internalType": "uint256",
          "name": "nftPoolSize",
          "type": "uint256"
        }
      ],
      "stateMutability": "view",
      "type": "function"
    },
    {
      "inputs": [
        {
          "internalType": "address",
          "name": "user",
          "type": "address"
        }
      ],
      "name": "getUserStats",
      "outputs": [
        {
          "internalType": "uint256",
          "name": "totalUserEntries",
          "type": "uint256"
        },
        {
          "internalType": "uint256",
          "name": "totalWinnings",
          "type": "uint256"
        },
        {
          "internalType": "uint256",
          "name": "distributedPrizes",
          "type": "uint256"
        }
      ],
      "stateMutability": "view",
      "type": "function"
    },
    {
      "inputs": [],
      "name": "houseContribution",
      "outputs": [
        {
          "internalType": "uint256",
          "name": "",
          "type": "uint256"
        }
      ],
      "stateMutability": "view",
      "type": "function"
    },
    {
      "inputs": [],
      "name": "ipTokenReserve",
      "outputs": [
        {
          "internalType": "uint256",
          "name": "",
          "type": "uint256"
        }
      ],
      "stateMutability": "view",
      "type": "function"
    },
    {
      "inputs": [
        {
          "internalType": "address",
          "name": "user",
          "type": "address"
        },
        {
          "internalType": "uint256",
          "name": "entryAmount",
          "type": "uint256"
        }
      ],
      "name": "manualRequestDraw",
      "outputs": [],
      "stateMutability": "nonpayable",
      "type": "function"
    },
    {
      "inputs": [],
      "name": "nftContract",
      "outputs": [
        {
          "internalType": "contract IERC721",
          "name": "",
          "type": "address"
        }
      ],
      "stateMutability": "view",
      "type": "function"
    },
    {
      "inputs": [
        {
          "internalType": "address",
          "name": "operator",
          "type": "address"
        },
        {
          "internalType": "address",
          "name": "from",
          "type": "address"
        },
        {
          "internalType": "uint256",
          "name": "tokenId",
          "type": "uint256"
        },
        {
          "internalType": "bytes",
          "name": "data",
          "type": "bytes"
        }
      ],
      "name": "onERC721Received",
      "outputs": [
        {
          "internalType": "bytes4",
          "name": "",
          "type": "bytes4"
        }
      ],
      "stateMutability": "pure",
      "type": "function"
    },
    {
      "inputs": [],
      "name": "owner",
      "outputs": [
        {
          "internalType": "address",
          "name": "",
          "type": "address"
        }
      ],
      "stateMutability": "view",
      "type": "function"
    },
    {
      "inputs": [],
      "name": "pause",
      "outputs": [],
      "stateMutability": "nonpayable",
      "type": "function"
    },
    {
      "inputs": [],
      "name": "paused",
      "outputs": [
        {
          "internalType": "bool",
          "name": "",
          "type": "bool"
        }
      ],
      "stateMutability": "view",
      "type": "function"
    },
    {
      "inputs": [
        {
          "internalType": "uint64",
          "name": "",
          "type": "uint64"
        }
      ],
      "name": "pendingDraws",
      "outputs": [
        {
          "internalType": "address",
          "name": "user",
          "type": "address"
        },
        {
          "internalType": "uint256",
          "name": "entryAmount",
          "type": "uint256"
        },
        {
          "internalType": "uint64",
          "name": "sequenceNumber",
          "type": "uint64"
        },
        {
          "internalType": "bool",
          "name": "processed",
          "type": "bool"
        }
      ],
      "stateMutability": "view",
      "type": "function"
    },
    {
      "inputs": [],
      "name": "raffleActive",
      "outputs": [
        {
          "internalType": "bool",
          "name": "",
          "type": "bool"
        }
      ],
      "stateMutability": "view",
      "type": "function"
    },
    {
      "inputs": [],
      "name": "renounceOwnership",
      "outputs": [],
      "stateMutability": "nonpayable",
      "type": "function"
    },
    {
      "inputs": [
        {
          "internalType": "bool",
          "name": "_active",
          "type": "bool"
        }
      ],
      "name": "setRaffleStatus",
      "outputs": [],
      "stateMutability": "nonpayable",
      "type": "function"
    },
    {
      "inputs": [],
      "name": "totalEntries",
      "outputs": [
        {
          "internalType": "uint256",
          "name": "",
          "type": "uint256"
        }
      ],
      "stateMutability": "view",
      "type": "function"
    },
    {
      "inputs": [],
      "name": "totalIPTokensCollected",
      "outputs": [
        {
          "internalType": "uint256",
          "name": "",
          "type": "uint256"
        }
      ],
      "stateMutability": "view",
      "type": "function"
    },
    {
      "inputs": [
        {
          "internalType": "address",
          "name": "newOwner",
          "type": "address"
        }
      ],
      "name": "transferOwnership",
      "outputs": [],
      "stateMutability": "nonpayable",
      "type": "function"
    },
    {
      "inputs": [],
      "name": "unpause",
      "outputs": [],
      "stateMutability": "nonpayable",
      "type": "function"
    },
    {
      "inputs": [
        {
          "internalType": "address",
          "name": "",
          "type": "address"
        },
        {
          "internalType": "uint256",
          "name": "",
          "type": "uint256"
        }
      ],
      "name": "userEntryIndices",
      "outputs": [
        {
          "internalType": "uint256",
          "name": "",
          "type": "uint256"
        }
      ],
      "stateMutability": "view",
      "type": "function"
    },
    {
      "inputs": [
        {
          "internalType": "address",
          "name": "",
          "type": "address"
        },
        {
          "internalType": "uint256",
          "name": "",
          "type": "uint256"
        }
      ],
      "name": "userPrizeIndices",
      "outputs": [
        {
          "internalType": "uint256",
          "name": "",
          "type": "uint256"
        }
      ],
      "stateMutability": "view",
      "type": "function"
    },
    {
      "inputs": [
        {
          "internalType": "address",
          "name": "",
          "type": "address"
        }
      ],
      "name": "userTotalEntries",
      "outputs": [
        {
          "internalType": "uint256",
          "name": "",
          "type": "uint256"
        }
      ],
      "stateMutability": "view",
      "type": "function"
    },
    {
      "inputs": [
        {
          "internalType": "address",
          "name": "",
          "type": "address"
        }
      ],
      "name": "userTotalWinnings",
      "outputs": [
        {
          "internalType": "uint256",
          "name": "",
          "type": "uint256"
        }
      ],
      "stateMutability": "view",
      "type": "function"
    },
    {
      "inputs": [
        {
          "internalType": "uint256",
          "name": "tokenId",
          "type": "uint256"
        },
        {
          "internalType": "address",
          "name": "to",
          "type": "address"
        }
      ],
      "name": "withdrawNFT",
      "outputs": [],
      "stateMutability": "nonpayable",
      "type": "function"
    },
    {
      "stateMutability": "payable",
      "type": "receive"
    }
  ],
  "bytecode": "0x60806040526001600660006101000a81548160ff02191690831515021790555034801561002b57600080fd5b50604051614051380380614051833981810160405281019061004d91906102a2565b33600073ffffffffffffffffffffffffffffffffffffffff168173ffffffffffffffffffffffffffffffffffffffff16036100c05760006040517f1e4fbdf70000000000000000000000000000000000000000000000000000000081526004016100b791906102f1565b60405180910390fd5b6100cf8161017b60201b60201c565b506001808190555081600260016101000a81548173ffffffffffffffffffffffffffffffffffffffff021916908373ffffffffffffffffffffffffffffffffffffffff16021790555080600360006101000a81548173ffffffffffffffffffffffffffffffffffffffff021916908373ffffffffffffffffffffffffffffffffffffffff1602179055506001600660006101000a81548160ff021916908315150217905550505061030c565b60008060009054906101000a900473ffffffffffffffffffffffffffffffffffffffff169050816000806101000a81548173ffffffffffffffffffffffffffffffffffffffff021916908373ffffffffffffffffffffffffffffffffffffffff1602179055508173ffffffffffffffffffffffffffffffffffffffff168173ffffffffffffffffffffffffffffffffffffffff167f8be0079c531659141344cd1fd0a4f28419497f9722a3daafe3b4186f6b6457e060405160405180910390a35050565b600080fd5b600073ffffffffffffffffffffffffffffffffffffffff82169050919050565b600061026f82610244565b9050919050565b61027f81610264565b811461028a57600080fd5b50565b60008151905061029c81610276565b92915050565b600080604083850312156102b9576102b861023f565b5b60006102c78582860161028d565b92505060206102d88582860161028d565b9150509250929050565b6102eb81610264565b82525050565b600060208201905061030660008301846102e2565b92915050565b613d368061031b6000396000f3fe60806040526004361061024a5760003560e01c80637c7760d011610139578063c1d2d00d116100b6578063d23b05651161007a578063d23b056514610895578063d56d229d146108c0578063db2e21bc146108eb578063e3de8a5214610902578063e9b2e0d71461092d578063f2fde38b1461096a57610251565b8063c1d2d00d14610782578063c36d35af146107ab578063c6875249146107ed578063c99054691461082d578063d0da20851461085857610251565b80638a12c47a116100fd5780638a12c47a146106b15780638da5cb5b146106da57806390b255ab146107055780639a6ed78d1461072e578063a7498e541461075757610251565b80637c7760d0146105d85780637efad8e0146106155780637fef036e146106405780638166f6b21461066b5780638456cb591461069a57610251565b80634a4538ba116101c75780636eadaebb1161018b5780636eadaebb14610503578063715018a61461054057806374d4b0601461055757806377660239146105825780637a4ad8b6146105ad57610251565b80634a4538ba146103f35780634e43603a1461043357806352a5f1f8146104725780635c975abb1461049b5780636b200c9f146104c657610251565b80632cfcc5391161020e5780632cfcc539146103515780633dfd95af1461035b5780633f4ba83a1461038657806347ce07cc1461039d5780634991abd0146103c857610251565b80630254cb991461025657806304b310351461028157806308857442146102ac57806312e92641146102e9578063150b7a021461031457610251565b3661025157005b600080fd5b34801561026257600080fd5b5061026b610993565b6040516102789190612a64565b60405180910390f35b34801561028d57600080fd5b506102966109a0565b6040516102a39190612a64565b60405180910390f35b3480156102b857600080fd5b506102d360048036038101906102ce9190612ae7565b6109a6565b6040516102e09190612a64565b60405180910390f35b3480156102f557600080fd5b506102fe6109be565b60405161030b9190612a64565b60405180910390f35b34801561032057600080fd5b5061033b60048036038101906103369190612ba5565b6109c4565b6040516103489190612c68565b60405180910390f35b6103596109d9565b005b34801561036757600080fd5b50610370610d48565b60405161037d9190612a64565b60405180910390f35b34801561039257600080fd5b5061039b610d4d565b005b3480156103a957600080fd5b506103b2610d5f565b6040516103bf9190612ce2565b60405180910390f35b3480156103d457600080fd5b506103dd610d85565b6040516103ea9190612a64565b60405180910390f35b3480156103ff57600080fd5b5061041a60048036038101906104159190612d3d565b610d8b565b60405161042a9493929190612da3565b60405180910390f35b34801561043f57600080fd5b5061045a60048036038101906104559190612ae7565b610dfc565b60405161046993929190612de8565b60405180910390f35b34801561047e57600080fd5b5061049960048036038101906104949190612e55565b610f50565b005b3480156104a757600080fd5b506104b061104a565b6040516104bd9190612ea8565b60405180910390f35b3480156104d257600080fd5b506104ed60048036038101906104e89190612ec3565b611061565b6040516104fa9190612a64565b60405180910390f35b34801561050f57600080fd5b5061052a60048036038101906105259190612f03565b611092565b6040516105379190612a64565b60405180910390f35b34801561054c57600080fd5b506105556110b6565b005b34801561056357600080fd5b5061056c6110ca565b6040516105799190612a64565b60405180910390f35b34801561058e57600080fd5b506105976110d0565b6040516105a49190612a64565b60405180910390f35b3480156105b957600080fd5b506105c26110d5565b6040516105cf9190612fee565b60405180910390f35b3480156105e457600080fd5b506105ff60048036038101906105fa9190612ec3565b61112d565b60405161060c9190612a64565b60405180910390f35b34801561062157600080fd5b5061062a61115e565b6040516106379190612a64565b60405180910390f35b34801561064c57600080fd5b50610655611164565b6040516106629190612a64565b60405180910390f35b34801561067757600080fd5b5061068061116a565b604051610691959493929190613010565b60405180910390f35b3480156106a657600080fd5b506106af61119c565b005b3480156106bd57600080fd5b506106d860048036038101906106d391906130b9565b6111ae565b005b3480156106e657600080fd5b506106ef611369565b6040516106fc9190613106565b60405180910390f35b34801561071157600080fd5b5061072c60048036038101906107279190612ec3565b611392565b005b34801561073a57600080fd5b506107556004803603810190610750919061314d565b6113a8565b005b34801561076357600080fd5b5061076c611404565b6040516107799190612a64565b60405180910390f35b34801561078e57600080fd5b506107a960048036038101906107a4919061317a565b611409565b005b3480156107b757600080fd5b506107d260048036038101906107cd9190612f03565b6115e2565b6040516107e4969594939291906131d6565b60405180910390f35b3480156107f957600080fd5b50610814600480360381019061080f9190612f03565b611668565b6040516108249493929190613237565b60405180910390f35b34801561083957600080fd5b506108426116c8565b60405161084f9190612ea8565b60405180910390f35b34801561086457600080fd5b5061087f600480360381019061087a9190612ae7565b6116db565b60405161088c9190612a64565b60405180910390f35b3480156108a157600080fd5b506108aa6116f3565b6040516108b79190612a64565b60405180910390f35b3480156108cc57600080fd5b506108d56116f8565b6040516108e2919061329d565b60405180910390f35b3480156108f757600080fd5b5061090061171e565b005b34801561090e57600080fd5b506109176117bf565b6040516109249190612a64565b60405180910390f35b34801561093957600080fd5b50610954600480360381019061094f9190612f03565b6117cb565b6040516109619190612ea8565b60405180910390f35b34801561097657600080fd5b50610991600480360381019061098c9190612ae7565b6117eb565b005b6000600a80549050905090565b6103ed81565b600d6020528060005260406000206000915090505481565b600f5481565b600063150b7a0260e01b905095945050505050565b6109e1611871565b6109e96118b7565b600660009054906101000a900460ff16610a38576040517f08c379a0000000000000000000000000000000000000000000000000000000008152600401610a2f90613315565b60405180910390fd5b67016345785d8a0000341015610a83576040517f08c379a0000000000000000000000000000000000000000000000000000000008152600401610a7a90613381565b60405180910390fd5b600067016345785d8a000034610a9991906133d0565b14610ad9576040517f08c379a0000000000000000000000000000000000000000000000000000000008152600401610ad090613473565b60405180910390fd5b600067016345785d8a000034610aef91906134c2565b90506000349050600060405180608001604052803373ffffffffffffffffffffffffffffffffffffffff16815260200184815260200183815260200142815250905060006007805490509050600782908060018154018082558091505060019003906000526020600020906004020160009091909190915060008201518160000160006101000a81548173ffffffffffffffffffffffffffffffffffffffff021916908373ffffffffffffffffffffffffffffffffffffffff1602179055506020820151816001015560408201518160020155606082015181600301555050600b60003373ffffffffffffffffffffffffffffffffffffffff1673ffffffffffffffffffffffffffffffffffffffff1681526020019081526020016000208190806001815401808255809150506001900390600052602060002001600090919091909150558360046000828254610c4691906134f3565b925050819055508260056000828254610c5f91906134f3565b9250508190555083600e60003373ffffffffffffffffffffffffffffffffffffffff1673ffffffffffffffffffffffffffffffffffffffff1681526020019081526020016000206000828254610cb591906134f3565b92505081905550610cc633846118f8565b82600f6000828254610cd891906134f3565b92505081905550803373ffffffffffffffffffffffffffffffffffffffff167f2af786025a524ddae8525cb35b45ce82d8cfe704154f0c8b3f5d6af7f57ca5338686604051610d28929190613527565b60405180910390a3610d3a3384611be3565b50505050610d46611f16565b565b603281565b610d55611f1f565b610d5d611fa6565b565b600260019054906101000a900473ffffffffffffffffffffffffffffffffffffffff1681565b60105481565b60096020528060005260406000206000915090508060000160009054906101000a900473ffffffffffffffffffffffffffffffffffffffff16908060010154908060020160009054906101000a900467ffffffffffffffff16908060020160089054906101000a900460ff16905084565b600080600080600c60008673ffffffffffffffffffffffffffffffffffffffff1673ffffffffffffffffffffffffffffffffffffffff168152602001908152602001600020905060005b8180549050811015610ec3576008828281548110610e6757610e66613550565b5b906000526020600020015481548110610e8357610e82613550565b5b906000526020600020906005020160030160009054906101000a900460ff1615610eb6578280610eb29061357f565b9350505b8080600101915050610e46565b50600e60008673ffffffffffffffffffffffffffffffffffffffff1673ffffffffffffffffffffffffffffffffffffffff16815260200190815260200160002054600d60008773ffffffffffffffffffffffffffffffffffffffff1673ffffffffffffffffffffffffffffffffffffffff1681526020019081526020016000205493509350509193909250565b6000610f5a612009565b9050600073ffffffffffffffffffffffffffffffffffffffff168173ffffffffffffffffffffffffffffffffffffffff1603610fcb576040517f08c379a0000000000000000000000000000000000000000000000000000000008152600401610fc290613613565b60405180910390fd5b8073ffffffffffffffffffffffffffffffffffffffff163373ffffffffffffffffffffffffffffffffffffffff1614611039576040517f08c379a0000000000000000000000000000000000000000000000000000000008152600401611030906136a5565b60405180910390fd5b611044848484612033565b50505050565b6000600260009054906101000a900460ff16905090565b600b602052816000526040600020818154811061107d57600080fd5b90600052602060002001600091509150505481565b600a81815481106110a257600080fd5b906000526020600020016000915090505481565b6110be611f1f565b6110c86000612199565b565b60055481565b606481565b6060600a80548060200260200160405190810160405280929190818152602001828054801561112357602002820191906000526020600020905b81548152602001906001019080831161110f575b5050505050905090565b600c602052816000526040600020818154811061114957600080fd5b90600052602060002001600091509150505481565b6103e881565b60045481565b6000806000806000600660009054906101000a900460ff16848447600a80549050945094509450945094509091929394565b6111a4611f1f565b6111ac61225d565b565b6111b6611f1f565b60005b828290508110156113645760008383838181106111d9576111d8613550565b5b9050602002013590506011600082815260200190815260200160002060009054906101000a900460ff1615611243576040517f08c379a000000000000000000000000000000000000000000000000000000000815260040161123a90613711565b60405180910390fd5b600360009054906101000a900473ffffffffffffffffffffffffffffffffffffffff1673ffffffffffffffffffffffffffffffffffffffff166323b872dd3330846040518463ffffffff1660e01b81526004016112a293929190613731565b600060405180830381600087803b1580156112bc57600080fd5b505af11580156112d0573d6000803e3d6000fd5b5050505060016011600083815260200190815260200160002060006101000a81548160ff021916908315150217905550600a819080600181540180825580915050600190039060005260206000200160009091909190915055807ff36d7a61da5869f1f725b62b3414422372ff984566d321f9758ec768fb859a8860405160405180910390a25080806001019150506111b9565b505050565b60008060009054906101000a900473ffffffffffffffffffffffffffffffffffffffff16905090565b61139a611f1f565b6113a48282611be3565b5050565b6113b0611f1f565b80600660006101000a81548160ff0219169083151502179055507f80bb56d69c74c63d75ad3f780942f75867d88f2b4a57ba0086250d28a0a5108e816040516113f99190612ea8565b60405180910390a150565b600a81565b611411611f1f565b6011600083815260200190815260200160002060009054906101000a900460ff16611471576040517f08c379a0000000000000000000000000000000000000000000000000000000008152600401611468906137b4565b60405180910390fd5b600073ffffffffffffffffffffffffffffffffffffffff168173ffffffffffffffffffffffffffffffffffffffff16036114e0576040517f08c379a00000000000000000000000000000000000000000000000000000000081526004016114d790613820565b60405180910390fd5b60006011600084815260200190815260200160002060006101000a81548160ff021916908315150217905550611515826122c0565b600360009054906101000a900473ffffffffffffffffffffffffffffffffffffffff1673ffffffffffffffffffffffffffffffffffffffff166323b872dd3083856040518463ffffffff1660e01b815260040161157493929190613731565b600060405180830381600087803b15801561158e57600080fd5b505af11580156115a2573d6000803e3d6000fd5b50505050817fbcc8fe70ca8bacb5e7c02b4671a4f8d7d3217b6706bc2e6f405c43d8954c055c826040516115d69190613106565b60405180910390a25050565b600881815481106115f257600080fd5b90600052602060002090600502016000915090508060000160009054906101000a900473ffffffffffffffffffffffffffffffffffffffff16908060000160149054906101000a900460ff16908060010154908060020154908060030160009054906101000a900460ff16908060040154905086565b6007818154811061167857600080fd5b90600052602060002090600402016000915090508060000160009054906101000a900473ffffffffffffffffffffffffffffffffffffffff16908060010154908060020154908060030154905084565b600660009054906101000a900460ff1681565b600e6020528060005260406000206000915090505481565b600181565b600360009054906101000a900473ffffffffffffffffffffffffffffffffffffffff1681565b611726611f1f565b60004790506000811161176e576040517f08c379a00000000000000000000000000000000000000000000000000000000081526004016117659061388c565b60405180910390fd5b611776611369565b73ffffffffffffffffffffffffffffffffffffffff166108fc829081150290604051600060405180830381858888f193505050501580156117bb573d6000803e3d6000fd5b5050565b67016345785d8a000081565b60116020528060005260406000206000915054906101000a900460ff1681565b6117f3611f1f565b600073ffffffffffffffffffffffffffffffffffffffff168173ffffffffffffffffffffffffffffffffffffffff16036118655760006040517f1e4fbdf700000000000000000000000000000000000000000000000000000000815260040161185c9190613106565b60405180910390fd5b61186e81612199565b50565b6002600154036118ad576040517f3ee5aeb500000000000000000000000000000000000000000000000000000000815260040160405180910390fd5b6002600181905550565b6118bf61104a565b156118f6576040517fd93c066500000000000000000000000000000000000000000000000000000000815260040160405180910390fd5b565b60006103e86103ed8361190b91906138ac565b61191591906134c2565b90508047101561195a576040517f08c379a000000000000000000000000000000000000000000000000000000000815260040161195190613960565b60405180910390fd5b8273ffffffffffffffffffffffffffffffffffffffff166108fc829081150290604051600060405180830381858888f193505050501580156119a0573d6000803e3d6000fd5b5060006040518060c001604052808573ffffffffffffffffffffffffffffffffffffffff168152602001600160ff1681526020018381526020016000815260200160011515815260200142815250905060006008805490509050600882908060018154018082558091505060019003906000526020600020906005020160009091909190915060008201518160000160006101000a81548173ffffffffffffffffffffffffffffffffffffffff021916908373ffffffffffffffffffffffffffffffffffffffff16021790555060208201518160000160146101000a81548160ff021916908360ff160217905550604082015181600101556060820151816002015560808201518160030160006101000a81548160ff02191690831515021790555060a082015181600401555050600c60008673ffffffffffffffffffffffffffffffffffffffff1673ffffffffffffffffffffffffffffffffffffffff16815260200190815260200160002081908060018154018082558091505060019003906000526020600020016000909190919091505582600d60008773ffffffffffffffffffffffffffffffffffffffff1673ffffffffffffffffffffffffffffffffffffffff1681526020019081526020016000206000828254611b8391906134f3565b92505081905550808573ffffffffffffffffffffffffffffffffffffffff167f1972d2e58d913238194f34958112a2c0bbe037944076d6928bb4cb21294a8407856000604051611bd49291906139bb565b60405180910390a35050505050565b600660009054906101000a900460ff16611c32576040517f08c379a0000000000000000000000000000000000000000000000000000000008152600401611c2990613a30565b60405180910390fd5b6000600260019054906101000a900473ffffffffffffffffffffffffffffffffffffffff1673ffffffffffffffffffffffffffffffffffffffff16638204b67a6040518163ffffffff1660e01b8152600401602060405180830381865afa158015611ca1573d6000803e3d6000fd5b505050506040513d601f19601f82011682018060405250810190611cc59190613a98565b6fffffffffffffffffffffffffffffffff16905080471015611d1c576040517f08c379a0000000000000000000000000000000000000000000000000000000008152600401611d1390613b11565b60405180910390fd5b6000600260019054906101000a900473ffffffffffffffffffffffffffffffffffffffff1673ffffffffffffffffffffffffffffffffffffffff16637b43155d836040518263ffffffff1660e01b815260040160206040518083038185885af1158015611d8d573d6000803e3d6000fd5b50505050506040513d601f19601f82011682018060405250810190611db29190613b46565b905060405180608001604052808573ffffffffffffffffffffffffffffffffffffffff1681526020018481526020018267ffffffffffffffff16815260200160001515815250600960008367ffffffffffffffff1667ffffffffffffffff16815260200190815260200160002060008201518160000160006101000a81548173ffffffffffffffffffffffffffffffffffffffff021916908373ffffffffffffffffffffffffffffffffffffffff1602179055506020820151816001015560408201518160020160006101000a81548167ffffffffffffffff021916908367ffffffffffffffff16021790555060608201518160020160086101000a81548160ff0219169083151502179055509050508373ffffffffffffffffffffffffffffffffffffffff167f323cf1983aa237c8e900e3eac2fd3d9f7ceb9c93c5a0c6dab70d18ea1b644d8a82604051611f089190613b73565b60405180910390a250505050565b60018081905550565b611f276122ce565b73ffffffffffffffffffffffffffffffffffffffff16611f45611369565b73ffffffffffffffffffffffffffffffffffffffff1614611fa457611f686122ce565b6040517f118cdaa7000000000000000000000000000000000000000000000000000000008152600401611f9b9190613106565b60405180910390fd5b565b611fae6122d6565b6000600260006101000a81548160ff0219169083151502179055507f5db9ee0a495bf2e6ff9c91a7834c1ba4fdd244a5e8aa4e537bd38aeae4b073aa611ff26122ce565b604051611fff9190613106565b60405180910390a1565b6000600260019054906101000a900473ffffffffffffffffffffffffffffffffffffffff16905090565b6000600960008567ffffffffffffffff1667ffffffffffffffff16815260200190815260200160002090508060020160089054906101000a900460ff16156120b0576040517f08c379a00000000000000000000000000000000000000000000000000000000081526004016120a790613bda565b60405180910390fd5b600073ffffffffffffffffffffffffffffffffffffffff168160000160009054906101000a900473ffffffffffffffffffffffffffffffffffffffff1673ffffffffffffffffffffffffffffffffffffffff1603612143576040517f08c379a000000000000000000000000000000000000000000000000000000000815260040161213a90613c46565b60405180910390fd5b60018160020160086101000a81548160ff0219169083151502179055506121938160000160009054906101000a900473ffffffffffffffffffffffffffffffffffffffff16826001015484612316565b50505050565b60008060009054906101000a900473ffffffffffffffffffffffffffffffffffffffff169050816000806101000a81548173ffffffffffffffffffffffffffffffffffffffff021916908373ffffffffffffffffffffffffffffffffffffffff1602179055508173ffffffffffffffffffffffffffffffffffffffff168173ffffffffffffffffffffffffffffffffffffffff167f8be0079c531659141344cd1fd0a4f28419497f9722a3daafe3b4186f6b6457e060405160405180910390a35050565b6122656118b7565b6001600260006101000a81548160ff0219169083151502179055507f62e78cea01bee320cd4e420270b5ea74000d11b0c9f74754ebdbfc544b05a2586122a96122ce565b6040516122b69190613106565b60405180910390a1565b6122cb600a826123e5565b50565b600033905090565b6122de61104a565b612314576040517f8dfc202b00000000000000000000000000000000000000000000000000000000815260040160405180910390fd5b565b60006127108260001c61232991906133d0565b90506000612710601084901c60001c61234291906133d0565b90506000612710602085901c60001c61235b91906133d0565b90506000612710603086901c60001c61237491906133d0565b9050606484101561238f5761238e878760028860646124a5565b5b60328310156123a8576123a7878760038860c86124a5565b5b600a8210156123c2576123c1878760048861012c6124a5565b5b60018110156123dc576123db87876005886101906124a5565b5b50505050505050565b60005b82805490508110156124a0578183828154811061240857612407613550565b5b90600052602060002001540361249357826001848054905061242a9190613c66565b8154811061243b5761243a613550565b5b906000526020600020015483828154811061245957612458613550565b5b90600052602060002001819055508280548061247857612477613c9a565b5b600190038181906000526020600020016000905590556124a0565b80806001019150506123e8565b505050565b600080600060648460406124b991906134f3565b86901c60001c6124c991906133d0565b905060028660ff16036124f657600a6028826124e591906133d0565b6124ef91906134f3565b925061258f565b60038660ff1603612520576064808261250f91906133d0565b61251991906134f3565b925061258e565b60048660ff160361254b576101f4808261253a91906133d0565b61254491906134f3565b925061258d565b60058660ff160361258c57611388808261256591906133d0565b61256f91906134f3565b9250612589600a8660648761258491906134f3565b612859565b91505b5b5b5b60006064848961259f91906138ac565b6125a991906134c2565b905060006125b88a838661293a565b905060006040518060c001604052808c73ffffffffffffffffffffffffffffffffffffffff1681526020018a60ff168152602001848152602001868152602001831515815260200142815250905060006008805490509050600882908060018154018082558091505060019003906000526020600020906005020160009091909190915060008201518160000160006101000a81548173ffffffffffffffffffffffffffffffffffffffff021916908373ffffffffffffffffffffffffffffffffffffffff16021790555060208201518160000160146101000a81548160ff021916908360ff160217905550604082015181600101556060820151816002015560808201518160030160006101000a81548160ff02191690831515021790555060a082015181600401555050600c60008d73ffffffffffffffffffffffffffffffffffffffff1673ffffffffffffffffffffffffffffffffffffffff16815260200190815260200160002081908060018154018082558091505060019003906000526020600020016000909190919091505583600d60008e73ffffffffffffffffffffffffffffffffffffffff1673ffffffffffffffffffffffffffffffffffffffff168152602001908152602001600020600082825461279991906134f3565b92505081905550808c73ffffffffffffffffffffffffffffffffffffffff167fe4154dd1143e5d5101eb0636083c14b9f82ab497bfbe162a2d1a18eeffc2a3c18c878a6040516127eb93929190613cc9565b60405180910390a3821561284b57808c73ffffffffffffffffffffffffffffffffffffffff167f1972d2e58d913238194f34958112a2c0bbe037944076d6928bb4cb21294a84078689604051612842929190613527565b60405180910390a35b505050505050505050505050565b60008084805490500361286f5760009050612933565b6000848054905083608061288391906134f3565b85901c60001c61289391906133d0565b905060008582815481106128aa576128a9613550565b5b9060005260206000200154905085600187805490506128c99190613c66565b815481106128da576128d9613550565b5b90600052602060002001548683815481106128f8576128f7613550565b5b90600052602060002001819055508580548061291757612916613c9a565b5b6001900381819060005260206000200160009055905580925050505b9392505050565b60006001905060008311156129a25782471061299c578373ffffffffffffffffffffffffffffffffffffffff166108fc849081150290604051600060405180830381858888f19350505050158015612996573d6000803e3d6000fd5b506129a1565b600090505b5b6000821115612a4457600360009054906101000a900473ffffffffffffffffffffffffffffffffffffffff1673ffffffffffffffffffffffffffffffffffffffff166323b872dd3086856040518463ffffffff1660e01b8152600401612a0a93929190613731565b600060405180830381600087803b158015612a2457600080fd5b505af1925050508015612a35575060015b612a425760009050612a43565b5b5b9392505050565b6000819050919050565b612a5e81612a4b565b82525050565b6000602082019050612a796000830184612a55565b92915050565b600080fd5b600080fd5b600073ffffffffffffffffffffffffffffffffffffffff82169050919050565b6000612ab482612a89565b9050919050565b612ac481612aa9565b8114612acf57600080fd5b50565b600081359050612ae181612abb565b92915050565b600060208284031215612afd57612afc612a7f565b5b6000612b0b84828501612ad2565b91505092915050565b612b1d81612a4b565b8114612b2857600080fd5b50565b600081359050612b3a81612b14565b92915050565b600080fd5b600080fd5b600080fd5b60008083601f840112612b6557612b64612b40565b5b8235905067ffffffffffffffff811115612b8257612b81612b45565b5b602083019150836001820283011115612b9e57612b9d612b4a565b5b9250929050565b600080600080600060808688031215612bc157612bc0612a7f565b5b6000612bcf88828901612ad2565b9550506020612be088828901612ad2565b9450506040612bf188828901612b2b565b935050606086013567ffffffffffffffff811115612c1257612c11612a84565b5b612c1e88828901612b4f565b92509250509295509295909350565b60007fffffffff0000000000000000000000000000000000000000000000000000000082169050919050565b612c6281612c2d565b82525050565b6000602082019050612c7d6000830184612c59565b92915050565b6000819050919050565b6000612ca8612ca3612c9e84612a89565b612c83565b612a89565b9050919050565b6000612cba82612c8d565b9050919050565b6000612ccc82612caf565b9050919050565b612cdc81612cc1565b82525050565b6000602082019050612cf76000830184612cd3565b92915050565b600067ffffffffffffffff82169050919050565b612d1a81612cfd565b8114612d2557600080fd5b50565b600081359050612d3781612d11565b92915050565b600060208284031215612d5357612d52612a7f565b5b6000612d6184828501612d28565b91505092915050565b612d7381612aa9565b82525050565b612d8281612cfd565b82525050565b60008115159050919050565b612d9d81612d88565b82525050565b6000608082019050612db86000830187612d6a565b612dc56020830186612a55565b612dd26040830185612d79565b612ddf6060830184612d94565b95945050505050565b6000606082019050612dfd6000830186612a55565b612e0a6020830185612a55565b612e176040830184612a55565b949350505050565b6000819050919050565b612e3281612e1f565b8114612e3d57600080fd5b50565b600081359050612e4f81612e29565b92915050565b600080600060608486031215612e6e57612e6d612a7f565b5b6000612e7c86828701612d28565b9350506020612e8d86828701612ad2565b9250506040612e9e86828701612e40565b9150509250925092565b6000602082019050612ebd6000830184612d94565b92915050565b60008060408385031215612eda57612ed9612a7f565b5b6000612ee885828601612ad2565b9250506020612ef985828601612b2b565b9150509250929050565b600060208284031215612f1957612f18612a7f565b5b6000612f2784828501612b2b565b91505092915050565b600081519050919050565b600082825260208201905092915050565b6000819050602082019050919050565b612f6581612a4b565b82525050565b6000612f778383612f5c565b60208301905092915050565b6000602082019050919050565b6000612f9b82612f30565b612fa58185612f3b565b9350612fb083612f4c565b8060005b83811015612fe1578151612fc88882612f6b565b9750612fd383612f83565b925050600181019050612fb4565b5085935050505092915050565b600060208201905081810360008301526130088184612f90565b905092915050565b600060a0820190506130256000830188612d94565b6130326020830187612a55565b61303f6040830186612a55565b61304c6060830185612a55565b6130596080830184612a55565b9695505050505050565b60008083601f84011261307957613078612b40565b5b8235905067ffffffffffffffff81111561309657613095612b45565b5b6020830191508360208202830111156130b2576130b1612b4a565b5b9250929050565b600080602083850312156130d0576130cf612a7f565b5b600083013567ffffffffffffffff8111156130ee576130ed612a84565b5b6130fa85828601613063565b92509250509250929050565b600060208201905061311b6000830184612d6a565b92915050565b61312a81612d88565b811461313557600080fd5b50565b60008135905061314781613121565b92915050565b60006020828403121561316357613162612a7f565b5b600061317184828501613138565b91505092915050565b6000806040838503121561319157613190612a7f565b5b600061319f85828601612b2b565b92505060206131b085828601612ad2565b9150509250929050565b600060ff82169050919050565b6131d0816131ba565b82525050565b600060c0820190506131eb6000830189612d6a565b6131f860208301886131c7565b6132056040830187612a55565b6132126060830186612a55565b61321f6080830185612d94565b61322c60a0830184612a55565b979650505050505050565b600060808201905061324c6000830187612d6a565b6132596020830186612a55565b6132666040830185612a55565b6132736060830184612a55565b95945050505050565b600061328782612caf565b9050919050565b6132978161327c565b82525050565b60006020820190506132b2600083018461328e565b92915050565b600082825260208201905092915050565b7f526166666c65206973206e6f7420616374697665000000000000000000000000600082015250565b60006132ff6014836132b8565b915061330a826132c9565b602082019050919050565b6000602082019050818103600083015261332e816132f2565b9050919050565b7f496e73756666696369656e7420656e74727920616d6f756e7400000000000000600082015250565b600061336b6019836132b8565b915061337682613335565b602082019050919050565b6000602082019050818103600083015261339a8161335e565b9050919050565b7f4e487b7100000000000000000000000000000000000000000000000000000000600052601260045260246000fd5b60006133db82612a4b565b91506133e683612a4b565b9250826133f6576133f56133a1565b5b828206905092915050565b7f416d6f756e74206d757374206265206d756c7469706c65206f6620656e74727960008201527f2070726963650000000000000000000000000000000000000000000000000000602082015250565b600061345d6026836132b8565b915061346882613401565b604082019050919050565b6000602082019050818103600083015261348c81613450565b9050919050565b7f4e487b7100000000000000000000000000000000000000000000000000000000600052601160045260246000fd5b60006134cd82612a4b565b91506134d883612a4b565b9250826134e8576134e76133a1565b5b828204905092915050565b60006134fe82612a4b565b915061350983612a4b565b925082820190508082111561352157613520613493565b5b92915050565b600060408201905061353c6000830185612a55565b6135496020830184612a55565b9392505050565b7f4e487b7100000000000000000000000000000000000000000000000000000000600052603260045260246000fd5b600061358a82612a4b565b91507fffffffffffffffffffffffffffffffffffffffffffffffffffffffffffffffff82036135bc576135bb613493565b5b600182019050919050565b7f456e74726f70792061646472657373206e6f7420736574000000000000000000600082015250565b60006135fd6017836132b8565b9150613608826135c7565b602082019050919050565b6000602082019050818103600083015261362c816135f0565b9050919050565b7f4f6e6c7920456e74726f70792063616e2063616c6c20746869732066756e637460008201527f696f6e0000000000000000000000000000000000000000000000000000000000602082015250565b600061368f6023836132b8565b915061369a82613633565b604082019050919050565b600060208201905081810360008301526136be81613682565b9050919050565b7f4e465420616c7265616479206465706f73697465640000000000000000000000600082015250565b60006136fb6015836132b8565b9150613706826136c5565b602082019050919050565b6000602082019050818103600083015261372a816136ee565b9050919050565b60006060820190506137466000830186612d6a565b6137536020830185612d6a565b6137606040830184612a55565b949350505050565b7f4e4654206e6f7420617661696c61626c65000000000000000000000000000000600082015250565b600061379e6011836132b8565b91506137a982613768565b602082019050919050565b600060208201905081810360008301526137cd81613791565b9050919050565b7f496e76616c696420616464726573730000000000000000000000000000000000600082015250565b600061380a600f836132b8565b9150613815826137d4565b602082019050919050565b60006020820190508181036000830152613839816137fd565b9050919050565b7f4e6f2062616c616e636520746f20776974686472617700000000000000000000600082015250565b60006138766016836132b8565b915061388182613840565b602082019050919050565b600060208201905081810360008301526138a581613869565b9050919050565b60006138b782612a4b565b91506138c283612a4b565b92508282026138d081612a4b565b915082820484148315176138e7576138e6613493565b5b5092915050565b7f496e73756666696369656e7420636f6e74726163742062616c616e636520666f60008201527f722067756172616e746565642072657475726e00000000000000000000000000602082015250565b600061394a6033836132b8565b9150613955826138ee565b604082019050919050565b600060208201905081810360008301526139798161393d565b9050919050565b6000819050919050565b60006139a56139a061399b84613980565b612c83565b612a4b565b9050919050565b6139b58161398a565b82525050565b60006040820190506139d06000830185612a55565b6139dd60208301846139ac565b9392505050565b7f526166666c65206e6f7420616374697665000000000000000000000000000000600082015250565b6000613a1a6011836132b8565b9150613a25826139e4565b602082019050919050565b60006020820190508181036000830152613a4981613a0d565b9050919050565b60006fffffffffffffffffffffffffffffffff82169050919050565b613a7581613a50565b8114613a8057600080fd5b50565b600081519050613a9281613a6c565b92915050565b600060208284031215613aae57613aad612a7f565b5b6000613abc84828501613a83565b91505092915050565b7f496e73756666696369656e7420495020666f7220656e74726f70792066656500600082015250565b6000613afb601f836132b8565b9150613b0682613ac5565b602082019050919050565b60006020820190508181036000830152613b2a81613aee565b9050919050565b600081519050613b4081612d11565b92915050565b600060208284031215613b5c57613b5b612a7f565b5b6000613b6a84828501613b31565b91505092915050565b6000602082019050613b886000830184612d79565b92915050565b7f4472617720616c72656164792070726f63657373656400000000000000000000600082015250565b6000613bc46016836132b8565b9150613bcf82613b8e565b602082019050919050565b60006020820190508181036000830152613bf381613bb7565b9050919050565b7f496e76616c69642070656e64696e672064726177000000000000000000000000600082015250565b6000613c306014836132b8565b9150613c3b82613bfa565b602082019050919050565b60006020820190508181036000830152613c5f81613c23565b9050919050565b6000613c7182612a4b565b9150613c7c83612a4b565b9250828203905081811115613c9457613c93613493565b5b92915050565b7f4e487b7100000000000000000000000000000000000000000000000000000000600052603160045260246000fd5b6000606082019050613cde60008301866131c7565b613ceb6020830185612a55565b613cf86040830184612a55565b94935050505056fea264697066735822122023466f9842a24364b298675e5cae83fa771a3e6228431f8d0be84aab6112207f64736f6c634300081c0033",
  "linkReferences": {},
  "deployedLinkReferences": {}
}