{
  "_format": "hh-sol-artifact-1",
  "contractName": "OnChainRaffle",
  "sourceName": "contracts/OnChainRaffle.sol",
  "abi": [
    {
      "inputs": [
        {
          "internalType": "address",
          "name": "_entropy",
          "type": "address"
        },
        {
          "internalType": "address",
          "name": "",
          "type": "address"
        }
      ],
      "stateMutability": "nonpayable",
      "type": "constructor"
    },
    {
      "inputs": [],
      "name": "EnforcedPause",
      "type": "error"
    },
    {
      "inputs": [],
      "name": "ExpectedPause",
      "type": "error"
    },
    {
      "inputs": [
        {
          "internalType": "address",
          "name": "owner",
          "type": "address"
        }
      ],
      "name": "OwnableInvalidOwner",
      "type": "error"
    },
    {
      "inputs": [
        {
          "internalType": "address",
          "name": "account",
          "type": "address"
        }
      ],
      "name": "OwnableUnauthorizedAccount",
      "type": "error"
    },
    {
      "inputs": [],
      "name": "ReentrancyGuardReentrantCall",
      "type": "error"
    },
    {
      "anonymous": false,
      "inputs": [
        {
          "indexed": true,
          "internalType": "address",
          "name": "user",
          "type": "address"
        },
        {
          "indexed": false,
          "internalType": "uint64",
          "name": "sequenceNumber",
          "type": "uint64"
        }
      ],
      "name": "DrawRequested",
      "type": "event"
    },
    {
      "anonymous": false,
      "inputs": [
        {
          "indexed": true,
          "internalType": "uint256",
          "name": "tokenId",
          "type": "uint256"
        }
      ],
      "name": "NFTDeposited",
      "type": "event"
    },
    {
      "anonymous": false,
      "inputs": [
        {
          "indexed": true,
          "internalType": "uint256",
          "name": "tokenId",
          "type": "uint256"
        },
        {
          "indexed": false,
          "internalType": "address",
          "name": "to",
          "type": "address"
        }
      ],
      "name": "NFTWithdrawn",
      "type": "event"
    },
    {
      "anonymous": false,
      "inputs": [
        {
          "indexed": true,
          "internalType": "address",
          "name": "previousOwner",
          "type": "address"
        },
        {
          "indexed": true,
          "internalType": "address",
          "name": "newOwner",
          "type": "address"
        }
      ],
      "name": "OwnershipTransferred",
      "type": "event"
    },
    {
      "anonymous": false,
      "inputs": [
        {
          "indexed": false,
          "internalType": "address",
          "name": "account",
          "type": "address"
        }
      ],
      "name": "Paused",
      "type": "event"
    },
    {
      "anonymous": false,
      "inputs": [
        {
          "indexed": true,
          "internalType": "address",
          "name": "winner",
          "type": "address"
        },
        {
          "indexed": true,
          "internalType": "uint256",
          "name": "prizeIndex",
          "type": "uint256"
        },
        {
          "indexed": false,
          "internalType": "uint8",
          "name": "tier",
          "type": "uint8"
        },
        {
          "indexed": false,
          "internalType": "uint256",
          "name": "ipTokenAmount",
          "type": "uint256"
        },
        {
          "indexed": false,
          "internalType": "uint256",
          "name": "nftTokenId",
          "type": "uint256"
        }
      ],
      "name": "PrizeAwarded",
      "type": "event"
    },
    {
      "anonymous": false,
      "inputs": [
        {
          "indexed": true,
          "internalType": "address",
          "name": "winner",
          "type": "address"
        },
        {
          "indexed": true,
          "internalType": "uint256",
          "name": "prizeIndex",
          "type": "uint256"
        },
        {
          "indexed": false,
          "internalType": "uint256",
          "name": "ipTokenAmount",
          "type": "uint256"
        },
        {
          "indexed": false,
          "internalType": "uint256",
          "name": "nftTokenId",
          "type": "uint256"
        }
      ],
      "name": "PrizeDistributed",
      "type": "event"
    },
    {
      "anonymous": false,
      "inputs": [
        {
          "indexed": true,
          "internalType": "address",
          "name": "user",
          "type": "address"
        },
        {
          "indexed": true,
          "internalType": "uint256",
          "name": "entryIndex",
          "type": "uint256"
        },
        {
          "indexed": false,
          "internalType": "uint256",
          "name": "entryCount",
          "type": "uint256"
        },
        {
          "indexed": false,
          "internalType": "uint256",
          "name": "ipTokensSpent",
          "type": "uint256"
        }
      ],
      "name": "RaffleEntered",
      "type": "event"
    },
    {
      "anonymous": false,
      "inputs": [
        {
          "indexed": false,
          "internalType": "bool",
          "name": "active",
          "type": "bool"
        }
      ],
      "name": "RaffleStatusChanged",
      "type": "event"
    },
    {
      "anonymous": false,
      "inputs": [
        {
          "indexed": false,
          "internalType": "address",
          "name": "account",
          "type": "address"
        }
      ],
      "name": "Unpaused",
      "type": "event"
    },
    {
      "inputs": [],
      "name": "COOLDOWN_PERIOD",
      "outputs": [
        {
          "internalType": "uint256",
          "name": "",
          "type": "uint256"
        }
      ],
      "stateMutability": "view",
      "type": "function"
    },
    {
      "inputs": [],
      "name": "ENTRY_PRICE",
      "outputs": [
        {
          "internalType": "uint256",
          "name": "",
          "type": "uint256"
        }
      ],
      "stateMutability": "view",
      "type": "function"
    },
    {
      "inputs": [],
      "name": "ONE_MILLION",
      "outputs": [
        {
          "internalType": "uint32",
          "name": "",
          "type": "uint32"
        }
      ],
      "stateMutability": "view",
      "type": "function"
    },
    {
      "inputs": [
        {
          "internalType": "uint64",
          "name": "sequence",
          "type": "uint64"
        },
        {
          "internalType": "address",
          "name": "provider",
          "type": "address"
        },
        {
          "internalType": "bytes32",
          "name": "randomNumber",
          "type": "bytes32"
        }
      ],
      "name": "_entropyCallback",
      "outputs": [],
      "stateMutability": "nonpayable",
      "type": "function"
    },
    {
      "inputs": [
        {
          "internalType": "uint256",
          "name": "",
          "type": "uint256"
        }
      ],
      "name": "allEntries",
      "outputs": [
        {
          "internalType": "address",
          "name": "user",
          "type": "address"
        },
        {
          "internalType": "uint256",
          "name": "entryCount",
          "type": "uint256"
        },
        {
          "internalType": "uint256",
          "name": "ipTokensSpent",
          "type": "uint256"
        },
        {
          "internalType": "uint256",
          "name": "timestamp",
          "type": "uint256"
        }
      ],
      "stateMutability": "view",
      "type": "function"
    },
    {
      "inputs": [
        {
          "internalType": "uint256",
          "name": "",
          "type": "uint256"
        }
      ],
      "name": "allPrizes",
      "outputs": [
        {
          "internalType": "address",
          "name": "winner",
          "type": "address"
        },
        {
          "internalType": "uint8",
          "name": "tier",
          "type": "uint8"
        },
        {
          "internalType": "uint256",
          "name": "ipTokenAmount",
          "type": "uint256"
        },
        {
          "internalType": "uint256",
          "name": "nftTokenId",
          "type": "uint256"
        },
        {
          "internalType": "bool",
          "name": "distributed",
          "type": "bool"
        },
        {
          "internalType": "uint256",
          "name": "timestamp",
          "type": "uint256"
        }
      ],
      "stateMutability": "view",
      "type": "function"
    },
    {
      "inputs": [
        {
          "internalType": "address",
          "name": "",
          "type": "address"
        },
        {
          "internalType": "uint256",
          "name": "",
          "type": "uint256"
        }
      ],
      "name": "availableNFTs",
      "outputs": [
        {
          "internalType": "bool",
          "name": "",
          "type": "bool"
        }
      ],
      "stateMutability": "view",
      "type": "function"
    },
    {
      "inputs": [
        {
          "internalType": "uint256",
          "name": "",
          "type": "uint256"
        }
      ],
      "name": "bonus",
      "outputs": [
        {
          "internalType": "uint32",
          "name": "payoutPpm",
          "type": "uint32"
        },
        {
          "internalType": "uint32",
          "name": "probPpm",
          "type": "uint32"
        },
        {
          "internalType": "bool",
          "name": "givesNFT",
          "type": "bool"
        }
      ],
      "stateMutability": "view",
      "type": "function"
    },
    {
      "inputs": [],
      "name": "bonusProbSumPpm",
      "outputs": [
        {
          "internalType": "uint32",
          "name": "",
          "type": "uint32"
        }
      ],
      "stateMutability": "view",
      "type": "function"
    },
    {
      "inputs": [
        {
          "internalType": "uint256",
          "name": "",
          "type": "uint256"
        }
      ],
      "name": "commonNFTPool",
      "outputs": [
        {
          "internalType": "uint256",
          "name": "",
          "type": "uint256"
        }
      ],
      "stateMutability": "view",
      "type": "function"
    },
    {
      "inputs": [
        {
          "internalType": "uint256",
          "name": "",
          "type": "uint256"
        }
      ],
      "name": "commonNFTPoolContracts",
      "outputs": [
        {
          "internalType": "address",
          "name": "",
          "type": "address"
        }
      ],
      "stateMutability": "view",
      "type": "function"
    },
    {
      "inputs": [
        {
          "internalType": "address",
          "name": "nft",
          "type": "address"
        },
        {
          "internalType": "uint256[]",
          "name": "tokenIds",
          "type": "uint256[]"
        }
      ],
      "name": "depositNFTs",
      "outputs": [],
      "stateMutability": "nonpayable",
      "type": "function"
    },
    {
      "inputs": [],
      "name": "emergencyWithdraw",
      "outputs": [],
      "stateMutability": "nonpayable",
      "type": "function"
    },
    {
      "inputs": [],
      "name": "enterRaffle",
      "outputs": [],
      "stateMutability": "payable",
      "type": "function"
    },
    {
      "inputs": [],
      "name": "entropy",
      "outputs": [
        {
          "internalType": "contract IEntropyV2",
          "name": "",
          "type": "address"
        }
      ],
      "stateMutability": "view",
      "type": "function"
    },
    {
      "inputs": [],
      "name": "getNFTPoolInfo",
      "outputs": [
        {
          "internalType": "uint256",
          "name": "commonCount",
          "type": "uint256"
        }
      ],
      "stateMutability": "view",
      "type": "function"
    },
    {
      "inputs": [],
      "name": "getNFTPoolTokenIds",
      "outputs": [
        {
          "internalType": "uint256[]",
          "name": "tokenIds",
          "type": "uint256[]"
        }
      ],
      "stateMutability": "view",
      "type": "function"
    },
    {
      "inputs": [],
      "name": "getRaffleInfo",
      "outputs": [
        {
          "internalType": "bool",
          "name": "active",
          "type": "bool"
        },
        {
          "internalType": "uint256",
          "name": "totalEntriesCount",
          "type": "uint256"
        },
        {
          "internalType": "uint256",
          "name": "totalIPTokensCollectedAmount",
          "type": "uint256"
        },
        {
          "internalType": "uint256",
          "name": "contractBalance",
          "type": "uint256"
        },
        {
          "internalType": "uint256",
          "name": "nftPoolSize",
          "type": "uint256"
        }
      ],
      "stateMutability": "view",
      "type": "function"
    },
    {
      "inputs": [
        {
          "internalType": "address",
          "name": "user",
          "type": "address"
        }
      ],
      "name": "getUserCooldownStatus",
      "outputs": [
        {
          "internalType": "bool",
          "name": "canEnter",
          "type": "bool"
        },
        {
          "internalType": "uint256",
          "name": "lastEntryTime",
          "type": "uint256"
        },
        {
          "internalType": "uint256",
          "name": "cooldownEndTime",
          "type": "uint256"
        },
        {
          "internalType": "uint256",
          "name": "timeRemaining",
          "type": "uint256"
        }
      ],
      "stateMutability": "view",
      "type": "function"
    },
    {
      "inputs": [
        {
          "internalType": "address",
          "name": "user",
          "type": "address"
        }
      ],
      "name": "getUserStats",
      "outputs": [
        {
          "internalType": "uint256",
          "name": "totalUserEntries",
          "type": "uint256"
        },
        {
          "internalType": "uint256",
          "name": "totalWinnings",
          "type": "uint256"
        },
        {
          "internalType": "uint256",
          "name": "distributedPrizes",
          "type": "uint256"
        }
      ],
      "stateMutability": "view",
      "type": "function"
    },
    {
      "inputs": [],
      "name": "ipTokenReserve",
      "outputs": [
        {
          "internalType": "uint256",
          "name": "",
          "type": "uint256"
        }
      ],
      "stateMutability": "view",
      "type": "function"
    },
    {
      "inputs": [
        {
          "internalType": "address",
          "name": "user",
          "type": "address"
        },
        {
          "internalType": "uint256",
          "name": "entryAmount",
          "type": "uint256"
        }
      ],
      "name": "manualRequestDraw",
      "outputs": [],
      "stateMutability": "nonpayable",
      "type": "function"
    },
    {
      "inputs": [
        {
          "internalType": "address",
          "name": "operator",
          "type": "address"
        },
        {
          "internalType": "address",
          "name": "from",
          "type": "address"
        },
        {
          "internalType": "uint256",
          "name": "tokenId",
          "type": "uint256"
        },
        {
          "internalType": "bytes",
          "name": "data",
          "type": "bytes"
        }
      ],
      "name": "onERC721Received",
      "outputs": [
        {
          "internalType": "bytes4",
          "name": "",
          "type": "bytes4"
        }
      ],
      "stateMutability": "pure",
      "type": "function"
    },
    {
      "inputs": [],
      "name": "owner",
      "outputs": [
        {
          "internalType": "address",
          "name": "",
          "type": "address"
        }
      ],
      "stateMutability": "view",
      "type": "function"
    },
    {
      "inputs": [],
      "name": "pause",
      "outputs": [],
      "stateMutability": "nonpayable",
      "type": "function"
    },
    {
      "inputs": [],
      "name": "paused",
      "outputs": [
        {
          "internalType": "bool",
          "name": "",
          "type": "bool"
        }
      ],
      "stateMutability": "view",
      "type": "function"
    },
    {
      "inputs": [
        {
          "internalType": "uint64",
          "name": "",
          "type": "uint64"
        }
      ],
      "name": "pendingDraws",
      "outputs": [
        {
          "internalType": "address",
          "name": "user",
          "type": "address"
        },
        {
          "internalType": "uint256",
          "name": "entryAmount",
          "type": "uint256"
        },
        {
          "internalType": "uint64",
          "name": "sequenceNumber",
          "type": "uint64"
        },
        {
          "internalType": "bool",
          "name": "processed",
          "type": "bool"
        }
      ],
      "stateMutability": "view",
      "type": "function"
    },
    {
      "inputs": [],
      "name": "prizeReserve",
      "outputs": [
        {
          "internalType": "uint256",
          "name": "",
          "type": "uint256"
        }
      ],
      "stateMutability": "view",
      "type": "function"
    },
    {
      "inputs": [],
      "name": "raffleActive",
      "outputs": [
        {
          "internalType": "bool",
          "name": "",
          "type": "bool"
        }
      ],
      "stateMutability": "view",
      "type": "function"
    },
    {
      "inputs": [],
      "name": "rebatePPM",
      "outputs": [
        {
          "internalType": "uint32",
          "name": "",
          "type": "uint32"
        }
      ],
      "stateMutability": "view",
      "type": "function"
    },
    {
      "inputs": [],
      "name": "rebateReserve",
      "outputs": [
        {
          "internalType": "uint256",
          "name": "",
          "type": "uint256"
        }
      ],
      "stateMutability": "view",
      "type": "function"
    },
    {
      "inputs": [],
      "name": "renounceOwnership",
      "outputs": [],
      "stateMutability": "nonpayable",
      "type": "function"
    },
    {
      "inputs": [
        {
          "internalType": "bool",
          "name": "_active",
          "type": "bool"
        }
      ],
      "name": "setRaffleStatus",
      "outputs": [],
      "stateMutability": "nonpayable",
      "type": "function"
    },
    {
      "inputs": [],
      "name": "totalEntries",
      "outputs": [
        {
          "internalType": "uint256",
          "name": "",
          "type": "uint256"
        }
      ],
      "stateMutability": "view",
      "type": "function"
    },
    {
      "inputs": [],
      "name": "totalIPTokensCollected",
      "outputs": [
        {
          "internalType": "uint256",
          "name": "",
          "type": "uint256"
        }
      ],
      "stateMutability": "view",
      "type": "function"
    },
    {
      "inputs": [
        {
          "internalType": "address",
          "name": "newOwner",
          "type": "address"
        }
      ],
      "name": "transferOwnership",
      "outputs": [],
      "stateMutability": "nonpayable",
      "type": "function"
    },
    {
      "inputs": [],
      "name": "unpause",
      "outputs": [],
      "stateMutability": "nonpayable",
      "type": "function"
    },
    {
      "inputs": [
        {
          "internalType": "address",
          "name": "",
          "type": "address"
        },
        {
          "internalType": "uint256",
          "name": "",
          "type": "uint256"
        }
      ],
      "name": "userEntryIndices",
      "outputs": [
        {
          "internalType": "uint256",
          "name": "",
          "type": "uint256"
        }
      ],
      "stateMutability": "view",
      "type": "function"
    },
    {
      "inputs": [
        {
          "internalType": "address",
          "name": "",
          "type": "address"
        }
      ],
      "name": "userLastEntryTime",
      "outputs": [
        {
          "internalType": "uint256",
          "name": "",
          "type": "uint256"
        }
      ],
      "stateMutability": "view",
      "type": "function"
    },
    {
      "inputs": [
        {
          "internalType": "address",
          "name": "",
          "type": "address"
        },
        {
          "internalType": "uint256",
          "name": "",
          "type": "uint256"
        }
      ],
      "name": "userPrizeIndices",
      "outputs": [
        {
          "internalType": "uint256",
          "name": "",
          "type": "uint256"
        }
      ],
      "stateMutability": "view",
      "type": "function"
    },
    {
      "inputs": [
        {
          "internalType": "address",
          "name": "",
          "type": "address"
        }
      ],
      "name": "userTotalEntries",
      "outputs": [
        {
          "internalType": "uint256",
          "name": "",
          "type": "uint256"
        }
      ],
      "stateMutability": "view",
      "type": "function"
    },
    {
      "inputs": [
        {
          "internalType": "address",
          "name": "",
          "type": "address"
        }
      ],
      "name": "userTotalWinnings",
      "outputs": [
        {
          "internalType": "uint256",
          "name": "",
          "type": "uint256"
        }
      ],
      "stateMutability": "view",
      "type": "function"
    },
    {
      "inputs": [],
      "name": "vrfReserve",
      "outputs": [
        {
          "internalType": "uint256",
          "name": "",
          "type": "uint256"
        }
      ],
      "stateMutability": "view",
      "type": "function"
    },
    {
      "inputs": [
        {
          "internalType": "address",
          "name": "nft",
          "type": "address"
        },
        {
          "internalType": "uint256",
          "name": "tokenId",
          "type": "uint256"
        },
        {
          "internalType": "address",
          "name": "to",
          "type": "address"
        }
      ],
      "name": "withdrawNFT",
      "outputs": [],
      "stateMutability": "nonpayable",
      "type": "function"
    },
    {
      "stateMutability": "payable",
      "type": "receive"
    }
  ],
  "bytecode": "0x6080604052611388600260156101000a81548163ffffffff021916908363ffffffff1602179055506001600860006101000a81548160ff02191690831515021790555034801561004e57600080fd5b50604051614b9e380380614b9e833981810160405281019061007091906105b2565b33600073ffffffffffffffffffffffffffffffffffffffff168173ffffffffffffffffffffffffffffffffffffffff16036100e35760006040517f1e4fbdf70000000000000000000000000000000000000000000000000000000081526004016100da9190610601565b60405180910390fd5b6100f28161016b60201b60201c565b506001808190555081600260016101000a81548173ffffffffffffffffffffffffffffffffffffffff021916908373ffffffffffffffffffffffffffffffffffffffff1602179055506001600860006101000a81548160ff02191690831515021790555061016461022f60201b60201c565b505061061c565b60008060009054906101000a900473ffffffffffffffffffffffffffffffffffffffff169050816000806101000a81548173ffffffffffffffffffffffffffffffffffffffff021916908373ffffffffffffffffffffffffffffffffffffffff1602179055508173ffffffffffffffffffffffffffffffffffffffff168173ffffffffffffffffffffffffffffffffffffffff167f8be0079c531659141344cd1fd0a4f28419497f9722a3daafe3b4186f6b6457e060405160405180910390a35050565b6009600061023d91906104d5565b6000600a60006101000a81548163ffffffff021916908363ffffffff1602179055506009604051806060016040528062061a8063ffffffff168152602001611b5863ffffffff168152602001600015158152509080600181540180825580915050600190039060005260206000200160009091909190915060008201518160000160006101000a81548163ffffffff021916908363ffffffff16021790555060208201518160000160046101000a81548163ffffffff021916908363ffffffff16021790555060408201518160000160086101000a81548160ff02191690831515021790555050506009604051806060016040528062124f8063ffffffff16815260200161070863ffffffff168152602001600115158152509080600181540180825580915050600190039060005260206000200160009091909190915060008201518160000160006101000a81548163ffffffff021916908363ffffffff16021790555060208201518160000160046101000a81548163ffffffff021916908363ffffffff16021790555060408201518160000160086101000a81548160ff021916908315150217905550505060096040518060600160405280621e848063ffffffff16815260200160c863ffffffff168152602001600015158152509080600181540180825580915050600190039060005260206000200160009091909190915060008201518160000160006101000a81548163ffffffff021916908363ffffffff16021790555060208201518160000160046101000a81548163ffffffff021916908363ffffffff16021790555060408201518160000160086101000a81548160ff0219169083151502179055505050612328600a60006101000a81548163ffffffff021916908363ffffffff160217905550565b50805460008255906000526020600020908101906104f391906104f6565b50565b5b8082111561054b57600080820160006101000a81549063ffffffff02191690556000820160046101000a81549063ffffffff02191690556000820160086101000a81549060ff0219169055506001016104f7565b5090565b600080fd5b600073ffffffffffffffffffffffffffffffffffffffff82169050919050565b600061057f82610554565b9050919050565b61058f81610574565b811461059a57600080fd5b50565b6000815190506105ac81610586565b92915050565b600080604083850312156105c9576105c861054f565b5b60006105d78582860161059d565b92505060206105e88582860161059d565b9150509250929050565b6105fb81610574565b82525050565b600060208201905061061660008301846105f2565b92915050565b6145738061062b6000396000f3fe60806040526004361061026a5760003560e01c80637c7760d011610144578063c36d35af116100b6578063dad340761161007a578063dad3407614610997578063db2e21bc146109c2578063df91686d146109d9578063e157d91d14610a04578063e3de8a5214610a2d578063f2fde38b14610a5857610271565b8063c36d35af14610870578063c6875249146108b2578063c9905469146108f2578063d0da20851461091d578063d4556e701461095a57610271565b806386e90ecb1161010857806386e90ecb146107725780638da5cb5b1461079d57806390b255ab146107c85780639869b736146107f15780639a6ed78d1461081c5780639eee9da01461084557610271565b80637c7760d0146106875780637fef036e146106c45780638166f6b2146106ef5780638456cb591461071e57806385c2fcd21461073557610271565b80634e43603a116101dd5780636e99d52f116101a15780636e99d52f146105875780636eadaebb146105b2578063715018a6146105ef57806374d4b060146106065780637a4ad8b6146106315780637b8cbb861461065c57610271565b80634e43603a146104775780634f115da5146104b657806352a5f1f8146104f65780635c975abb1461051f5780636b200c9f1461054a57610271565b806324749b591161022f57806324749b591461036f5780632cfcc539146103ae5780633402a758146103b85780633f4ba83a146103f557806347ce07cc1461040c5780634a4538ba1461043757610271565b8062f2a6ab146102765780630254cb991461029f57806308857442146102ca57806312e9264114610307578063150b7a021461033257610271565b3661027157005b600080fd5b34801561028257600080fd5b5061029d60048036038101906102989190613181565b610a81565b005b3480156102ab57600080fd5b506102b4610cb4565b6040516102c191906131e3565b60405180910390f35b3480156102d657600080fd5b506102f160048036038101906102ec91906131fe565b610cc1565b6040516102fe91906131e3565b60405180910390f35b34801561031357600080fd5b5061031c610cd9565b60405161032991906131e3565b60405180910390f35b34801561033e57600080fd5b5061035960048036038101906103549190613290565b610cdf565b6040516103669190613353565b60405180910390f35b34801561037b57600080fd5b506103966004803603810190610391919061336e565b610cf4565b6040516103a5939291906133d5565b60405180910390f35b6103b6610d57565b005b3480156103c457600080fd5b506103df60048036038101906103da91906131fe565b611199565b6040516103ec91906131e3565b60405180910390f35b34801561040157600080fd5b5061040a6111b1565b005b34801561041857600080fd5b506104216111c3565b60405161042e919061346b565b60405180910390f35b34801561044357600080fd5b5061045e600480360381019061045991906134c6565b6111e9565b60405161046e9493929190613511565b60405180910390f35b34801561048357600080fd5b5061049e600480360381019061049991906131fe565b61125a565b6040516104ad93929190613556565b60405180910390f35b3480156104c257600080fd5b506104dd60048036038101906104d891906131fe565b6113ae565b6040516104ed949392919061358d565b60405180910390f35b34801561050257600080fd5b5061051d60048036038101906105189190613608565b61144a565b005b34801561052b57600080fd5b50610534611544565b604051610541919061365b565b60405180910390f35b34801561055657600080fd5b50610571600480360381019061056c9190613676565b61155b565b60405161057e91906131e3565b60405180910390f35b34801561059357600080fd5b5061059c61158c565b6040516105a991906131e3565b60405180910390f35b3480156105be57600080fd5b506105d960048036038101906105d4919061336e565b611592565b6040516105e691906131e3565b60405180910390f35b3480156105fb57600080fd5b506106046115b6565b005b34801561061257600080fd5b5061061b6115ca565b60405161062891906131e3565b60405180910390f35b34801561063d57600080fd5b506106466115d0565b6040516106539190613774565b60405180910390f35b34801561066857600080fd5b50610671611628565b60405161067e91906131e3565b60405180910390f35b34801561069357600080fd5b506106ae60048036038101906106a99190613676565b61162e565b6040516106bb91906131e3565b60405180910390f35b3480156106d057600080fd5b506106d961165f565b6040516106e691906131e3565b60405180910390f35b3480156106fb57600080fd5b50610704611665565b604051610715959493929190613796565b60405180910390f35b34801561072a57600080fd5b5061073361169b565b005b34801561074157600080fd5b5061075c6004803603810190610757919061336e565b6116ad565b60405161076991906137e9565b60405180910390f35b34801561077e57600080fd5b506107876116ec565b6040516107949190613804565b60405180910390f35b3480156107a957600080fd5b506107b2611702565b6040516107bf91906137e9565b60405180910390f35b3480156107d457600080fd5b506107ef60048036038101906107ea9190613676565b61172b565b005b3480156107fd57600080fd5b50610806611741565b6040516108139190613804565b60405180910390f35b34801561082857600080fd5b50610843600480360381019061083e919061384b565b611748565b005b34801561085157600080fd5b5061085a6117a4565b60405161086791906131e3565b60405180910390f35b34801561087c57600080fd5b506108976004803603810190610892919061336e565b6117aa565b6040516108a996959493929190613894565b60405180910390f35b3480156108be57600080fd5b506108d960048036038101906108d4919061336e565b611830565b6040516108e994939291906138f5565b60405180910390f35b3480156108fe57600080fd5b50610907611890565b604051610914919061365b565b60405180910390f35b34801561092957600080fd5b50610944600480360381019061093f91906131fe565b6118a3565b60405161095191906131e3565b60405180910390f35b34801561096657600080fd5b50610981600480360381019061097c9190613676565b6118bb565b60405161098e919061365b565b60405180910390f35b3480156109a357600080fd5b506109ac6118ea565b6040516109b99190613804565b60405180910390f35b3480156109ce57600080fd5b506109d7611900565b005b3480156109e557600080fd5b506109ee6119a1565b6040516109fb91906131e3565b60405180910390f35b348015610a1057600080fd5b50610a2b6004803603810190610a269190613990565b6119a7565b005b348015610a3957600080fd5b50610a42611c1e565b604051610a4f91906131e3565b60405180910390f35b348015610a6457600080fd5b50610a7f6004803603810190610a7a91906131fe565b611c2a565b005b610a89611cb0565b601660008473ffffffffffffffffffffffffffffffffffffffff1673ffffffffffffffffffffffffffffffffffffffff168152602001908152602001600020600083815260200190815260200160002060009054906101000a900460ff16610b26576040517f08c379a0000000000000000000000000000000000000000000000000000000008152600401610b1d90613a4d565b60405180910390fd5b600073ffffffffffffffffffffffffffffffffffffffff168173ffffffffffffffffffffffffffffffffffffffff1603610b95576040517f08c379a0000000000000000000000000000000000000000000000000000000008152600401610b8c90613ab9565b60405180910390fd5b6000601660008573ffffffffffffffffffffffffffffffffffffffff1673ffffffffffffffffffffffffffffffffffffffff168152602001908152602001600020600084815260200190815260200160002060006101000a81548160ff021916908315150217905550610c088383611d37565b8273ffffffffffffffffffffffffffffffffffffffff166323b872dd3083856040518463ffffffff1660e01b8152600401610c4593929190613ad9565b600060405180830381600087803b158015610c5f57600080fd5b505af1158015610c73573d6000803e3d6000fd5b50505050817fbcc8fe70ca8bacb5e7c02b4671a4f8d7d3217b6706bc2e6f405c43d8954c055c82604051610ca791906137e9565b60405180910390a2505050565b6000600e80549050905090565b60126020528060005260406000206000915090505481565b60155481565b600063150b7a0260e01b905095945050505050565b60098181548110610d0457600080fd5b906000526020600020016000915090508060000160009054906101000a900463ffffffff16908060000160049054906101000a900463ffffffff16908060000160089054906101000a900460ff16905083565b610d5f611f76565b610d67611fbc565b600860009054906101000a900460ff16610db6576040517f08c379a0000000000000000000000000000000000000000000000000000000008152600401610dad90613b5c565b60405180910390fd5b67016345785d8a0000341015610e01576040517f08c379a0000000000000000000000000000000000000000000000000000000008152600401610df890613bc8565b60405180910390fd5b600067016345785d8a000034610e179190613c17565b14610e57576040517f08c379a0000000000000000000000000000000000000000000000000000000008152600401610e4e90613cba565b60405180910390fd5b61012c601460003373ffffffffffffffffffffffffffffffffffffffff1673ffffffffffffffffffffffffffffffffffffffff16815260200190815260200160002054610ea49190613d09565b421015610ee6576040517f08c379a0000000000000000000000000000000000000000000000000000000008152600401610edd90613d89565b60405180910390fd5b600067016345785d8a000034610efc9190613da9565b90506000349050600060405180608001604052803373ffffffffffffffffffffffffffffffffffffffff1681526020018481526020018381526020014281525090506000600b805490509050600b82908060018154018082558091505060019003906000526020600020906004020160009091909190915060008201518160000160006101000a81548173ffffffffffffffffffffffffffffffffffffffff021916908373ffffffffffffffffffffffffffffffffffffffff1602179055506020820151816001015560408201518160020155606082015181600301555050601060003373ffffffffffffffffffffffffffffffffffffffff1673ffffffffffffffffffffffffffffffffffffffff16815260200190815260200160002081908060018154018082558091505060019003906000526020600020016000909190919091505583600660008282546110539190613d09565b92505081905550826007600082825461106c9190613d09565b9250508190555083601360003373ffffffffffffffffffffffffffffffffffffffff1673ffffffffffffffffffffffffffffffffffffffff16815260200190815260200160002060008282546110c29190613d09565b9250508190555042601460003373ffffffffffffffffffffffffffffffffffffffff1673ffffffffffffffffffffffffffffffffffffffff168152602001908152602001600020819055506111173384611ffd565b82601560008282546111299190613d09565b92505081905550803373ffffffffffffffffffffffffffffffffffffffff167f2af786025a524ddae8525cb35b45ce82d8cfe704154f0c8b3f5d6af7f57ca5338686604051611179929190613dda565b60405180910390a361118b33846122e6565b50505050611197612619565b565b60146020528060005260406000206000915090505481565b6111b9611cb0565b6111c1612622565b565b600260019054906101000a900473ffffffffffffffffffffffffffffffffffffffff1681565b600d6020528060005260406000206000915090508060000160009054906101000a900473ffffffffffffffffffffffffffffffffffffffff16908060010154908060020160009054906101000a900467ffffffffffffffff16908060020160089054906101000a900460ff16905084565b600080600080601160008673ffffffffffffffffffffffffffffffffffffffff1673ffffffffffffffffffffffffffffffffffffffff168152602001908152602001600020905060005b818054905081101561132157600c8282815481106112c5576112c4613e03565b5b9060005260206000200154815481106112e1576112e0613e03565b5b906000526020600020906005020160030160009054906101000a900460ff161561131457828061131090613e32565b9350505b80806001019150506112a4565b50601360008673ffffffffffffffffffffffffffffffffffffffff1673ffffffffffffffffffffffffffffffffffffffff16815260200190815260200160002054601260008773ffffffffffffffffffffffffffffffffffffffff1673ffffffffffffffffffffffffffffffffffffffff1681526020019081526020016000205493509350509193909250565b600080600080601460008673ffffffffffffffffffffffffffffffffffffffff1673ffffffffffffffffffffffffffffffffffffffff16815260200190815260200160002054925061012c836114049190613d09565b91506000830361141b576001935060009050611443565b81421061142f576001935060009050611442565b60009350428261143f9190613e7a565b90505b5b9193509193565b6000611454612685565b9050600073ffffffffffffffffffffffffffffffffffffffff168173ffffffffffffffffffffffffffffffffffffffff16036114c5576040517f08c379a00000000000000000000000000000000000000000000000000000000081526004016114bc90613efa565b60405180910390fd5b8073ffffffffffffffffffffffffffffffffffffffff163373ffffffffffffffffffffffffffffffffffffffff1614611533576040517f08c379a000000000000000000000000000000000000000000000000000000000815260040161152a90613f8c565b60405180910390fd5b61153e8484846126af565b50505050565b6000600260009054906101000a900460ff16905090565b6010602052816000526040600020818154811061157757600080fd5b90600052602060002001600091509150505481565b61012c81565b600e81815481106115a257600080fd5b906000526020600020016000915090505481565b6115be611cb0565b6115c86000612815565b565b60075481565b6060600e80548060200260200160405190810160405280929190818152602001828054801561161e57602002820191906000526020600020905b81548152602001906001019080831161160a575b5050505050905090565b60035481565b6011602052816000526040600020818154811061164a57600080fd5b90600052602060002001600091509150505481565b60065481565b6000806000806000600860009054906101000a900460ff1660065460075447600e80549050945094509450945094509091929394565b6116a3611cb0565b6116ab6128d9565b565b600f81815481106116bd57600080fd5b906000526020600020016000915054906101000a900473ffffffffffffffffffffffffffffffffffffffff1681565b600a60009054906101000a900463ffffffff1681565b60008060009054906101000a900473ffffffffffffffffffffffffffffffffffffffff16905090565b611733611cb0565b61173d82826122e6565b5050565b620f424081565b611750611cb0565b80600860006101000a81548160ff0219169083151502179055507f80bb56d69c74c63d75ad3f780942f75867d88f2b4a57ba0086250d28a0a5108e81604051611799919061365b565b60405180910390a150565b60045481565b600c81815481106117ba57600080fd5b90600052602060002090600502016000915090508060000160009054906101000a900473ffffffffffffffffffffffffffffffffffffffff16908060000160149054906101000a900460ff16908060010154908060020154908060030160009054906101000a900460ff16908060040154905086565b600b818154811061184057600080fd5b90600052602060002090600402016000915090508060000160009054906101000a900473ffffffffffffffffffffffffffffffffffffffff16908060010154908060020154908060030154905084565b600860009054906101000a900460ff1681565b60136020528060005260406000206000915090505481565b60166020528160005260406000206020528060005260406000206000915091509054906101000a900460ff1681565b600260159054906101000a900463ffffffff1681565b611908611cb0565b600047905060008111611950576040517f08c379a000000000000000000000000000000000000000000000000000000000815260040161194790613ff8565b60405180910390fd5b611958611702565b73ffffffffffffffffffffffffffffffffffffffff166108fc829081150290604051600060405180830381858888f1935050505015801561199d573d6000803e3d6000fd5b5050565b60055481565b6119af611cb0565b60005b82829050811015611c185760008383838181106119d2576119d1613e03565b5b905060200201359050601660008673ffffffffffffffffffffffffffffffffffffffff1673ffffffffffffffffffffffffffffffffffffffff168152602001908152602001600020600082815260200190815260200160002060009054906101000a900460ff1615611a79576040517f08c379a0000000000000000000000000000000000000000000000000000000008152600401611a7090614064565b60405180910390fd5b8473ffffffffffffffffffffffffffffffffffffffff166323b872dd3330846040518463ffffffff1660e01b8152600401611ab693929190613ad9565b600060405180830381600087803b158015611ad057600080fd5b505af1158015611ae4573d6000803e3d6000fd5b505050506001601660008773ffffffffffffffffffffffffffffffffffffffff1673ffffffffffffffffffffffffffffffffffffffff168152602001908152602001600020600083815260200190815260200160002060006101000a81548160ff021916908315150217905550600e819080600181540180825580915050600190039060005260206000200160009091909190915055600f859080600181540180825580915050600190039060005260206000200160009091909190916101000a81548173ffffffffffffffffffffffffffffffffffffffff021916908373ffffffffffffffffffffffffffffffffffffffff160217905550807ff36d7a61da5869f1f725b62b3414422372ff984566d321f9758ec768fb859a8860405160405180910390a25080806001019150506119b2565b50505050565b67016345785d8a000081565b611c32611cb0565b600073ffffffffffffffffffffffffffffffffffffffff168173ffffffffffffffffffffffffffffffffffffffff1603611ca45760006040517f1e4fbdf7000000000000000000000000000000000000000000000000000000008152600401611c9b91906137e9565b60405180910390fd5b611cad81612815565b50565b611cb861293c565b73ffffffffffffffffffffffffffffffffffffffff16611cd6611702565b73ffffffffffffffffffffffffffffffffffffffff1614611d3557611cf961293c565b6040517f118cdaa7000000000000000000000000000000000000000000000000000000008152600401611d2c91906137e9565b60405180910390fd5b565b6000600e80549050905060005b81811015611f705782600e8281548110611d6157611d60613e03565b5b9060005260206000200154148015611de257508373ffffffffffffffffffffffffffffffffffffffff16600f8281548110611d9f57611d9e613e03565b5b9060005260206000200160009054906101000a900473ffffffffffffffffffffffffffffffffffffffff1673ffffffffffffffffffffffffffffffffffffffff16145b15611f6357600182611df49190613e7a565b8114611eef57600e600183611e099190613e7a565b81548110611e1a57611e19613e03565b5b9060005260206000200154600e8281548110611e3957611e38613e03565b5b9060005260206000200181905550600f600183611e569190613e7a565b81548110611e6757611e66613e03565b5b9060005260206000200160009054906101000a900473ffffffffffffffffffffffffffffffffffffffff16600f8281548110611ea657611ea5613e03565b5b9060005260206000200160006101000a81548173ffffffffffffffffffffffffffffffffffffffff021916908373ffffffffffffffffffffffffffffffffffffffff1602179055505b600e805480611f0157611f00614084565b5b60019003818190600052602060002001600090559055600f805480611f2957611f28614084565b5b6001900381819060005260206000200160006101000a81549073ffffffffffffffffffffffffffffffffffffffff02191690559055611f70565b8080600101915050611d44565b50505050565b600260015403611fb2576040517f3ee5aeb500000000000000000000000000000000000000000000000000000000815260040160405180910390fd5b6002600181905550565b611fc4611544565b15611ffb576040517fd93c066500000000000000000000000000000000000000000000000000000000815260040160405180910390fd5b565b60006103e8808361200e91906140b3565b6120189190613da9565b90508047101561205d576040517f08c379a00000000000000000000000000000000000000000000000000000000081526004016120549061418d565b60405180910390fd5b8273ffffffffffffffffffffffffffffffffffffffff166108fc829081150290604051600060405180830381858888f193505050501580156120a3573d6000803e3d6000fd5b5060006040518060c001604052808573ffffffffffffffffffffffffffffffffffffffff168152602001600160ff168152602001838152602001600081526020016001151581526020014281525090506000600c805490509050600c82908060018154018082558091505060019003906000526020600020906005020160009091909190915060008201518160000160006101000a81548173ffffffffffffffffffffffffffffffffffffffff021916908373ffffffffffffffffffffffffffffffffffffffff16021790555060208201518160000160146101000a81548160ff021916908360ff160217905550604082015181600101556060820151816002015560808201518160030160006101000a81548160ff02191690831515021790555060a082015181600401555050601160008673ffffffffffffffffffffffffffffffffffffffff1673ffffffffffffffffffffffffffffffffffffffff16815260200190815260200160002081908060018154018082558091505060019003906000526020600020016000909190919091505582601260008773ffffffffffffffffffffffffffffffffffffffff1673ffffffffffffffffffffffffffffffffffffffff16815260200190815260200160002060008282546122869190613d09565b92505081905550808573ffffffffffffffffffffffffffffffffffffffff167f1972d2e58d913238194f34958112a2c0bbe037944076d6928bb4cb21294a84078560006040516122d79291906141e8565b60405180910390a35050505050565b600860009054906101000a900460ff16612335576040517f08c379a000000000000000000000000000000000000000000000000000000000815260040161232c9061425d565b60405180910390fd5b6000600260019054906101000a900473ffffffffffffffffffffffffffffffffffffffff1673ffffffffffffffffffffffffffffffffffffffff16638204b67a6040518163ffffffff1660e01b8152600401602060405180830381865afa1580156123a4573d6000803e3d6000fd5b505050506040513d601f19601f820116820180604052508101906123c891906142c5565b6fffffffffffffffffffffffffffffffff1690508047101561241f576040517f08c379a00000000000000000000000000000000000000000000000000000000081526004016124169061433e565b60405180910390fd5b6000600260019054906101000a900473ffffffffffffffffffffffffffffffffffffffff1673ffffffffffffffffffffffffffffffffffffffff16637b43155d836040518263ffffffff1660e01b815260040160206040518083038185885af1158015612490573d6000803e3d6000fd5b50505050506040513d601f19601f820116820180604052508101906124b59190614373565b905060405180608001604052808573ffffffffffffffffffffffffffffffffffffffff1681526020018481526020018267ffffffffffffffff16815260200160001515815250600d60008367ffffffffffffffff1667ffffffffffffffff16815260200190815260200160002060008201518160000160006101000a81548173ffffffffffffffffffffffffffffffffffffffff021916908373ffffffffffffffffffffffffffffffffffffffff1602179055506020820151816001015560408201518160020160006101000a81548167ffffffffffffffff021916908367ffffffffffffffff16021790555060608201518160020160086101000a81548160ff0219169083151502179055509050508373ffffffffffffffffffffffffffffffffffffffff167f323cf1983aa237c8e900e3eac2fd3d9f7ceb9c93c5a0c6dab70d18ea1b644d8a8260405161260b91906143a0565b60405180910390a250505050565b60018081905550565b61262a612944565b6000600260006101000a81548160ff0219169083151502179055507f5db9ee0a495bf2e6ff9c91a7834c1ba4fdd244a5e8aa4e537bd38aeae4b073aa61266e61293c565b60405161267b91906137e9565b60405180910390a1565b6000600260019054906101000a900473ffffffffffffffffffffffffffffffffffffffff16905090565b6000600d60008567ffffffffffffffff1667ffffffffffffffff16815260200190815260200160002090508060020160089054906101000a900460ff161561272c576040517f08c379a000000000000000000000000000000000000000000000000000000000815260040161272390614407565b60405180910390fd5b600073ffffffffffffffffffffffffffffffffffffffff168160000160009054906101000a900473ffffffffffffffffffffffffffffffffffffffff1673ffffffffffffffffffffffffffffffffffffffff16036127bf576040517f08c379a00000000000000000000000000000000000000000000000000000000081526004016127b690614473565b60405180910390fd5b60018160020160086101000a81548160ff02191690831515021790555061280f8160000160009054906101000a900473ffffffffffffffffffffffffffffffffffffffff16826001015484612984565b50505050565b60008060009054906101000a900473ffffffffffffffffffffffffffffffffffffffff169050816000806101000a81548173ffffffffffffffffffffffffffffffffffffffff021916908373ffffffffffffffffffffffffffffffffffffffff1602179055508173ffffffffffffffffffffffffffffffffffffffff168173ffffffffffffffffffffffffffffffffffffffff167f8be0079c531659141344cd1fd0a4f28419497f9722a3daafe3b4186f6b6457e060405160405180910390a35050565b6128e1611fbc565b6001600260006101000a81548160ff0219169083151502179055507f62e78cea01bee320cd4e420270b5ea74000d11b0c9f74754ebdbfc544b05a25861292561293c565b60405161293291906137e9565b60405180910390a1565b600033905090565b61294c611544565b612982576040517f8dfc202b00000000000000000000000000000000000000000000000000000000815260040160405180910390fd5b565b600060098054905014806129b057506000600a60009054906101000a900463ffffffff1663ffffffff16145b612da6576000620f424063ffffffff168260001c6129ce9190613c17565b90506000805b600980549050811015612da257600981815481106129f5576129f4613e03565b5b9060005260206000200160000160049054906101000a900463ffffffff1682612a1e9190614493565b91508163ffffffff16831015612d95576000620f424063ffffffff1660098381548110612a4e57612a4d613e03565b5b9060005260206000200160000160009054906101000a900463ffffffff1663ffffffff1687612a7d91906140b3565b612a879190613da9565b905060008060098481548110612aa057612a9f613e03565b5b9060005260206000200160000160089054906101000a900460ff1615612ae457612adb600e600f8987610539612ad69190613d09565b612dab565b80935081925050505b6000612af28a858486612fba565b905060006040518060c001604052808c73ffffffffffffffffffffffffffffffffffffffff168152602001600260ff16815260200186815260200185815260200183151581526020014281525090506000600c805490509050600c82908060018154018082558091505060019003906000526020600020906005020160009091909190915060008201518160000160006101000a81548173ffffffffffffffffffffffffffffffffffffffff021916908373ffffffffffffffffffffffffffffffffffffffff16021790555060208201518160000160146101000a81548160ff021916908360ff160217905550604082015181600101556060820151816002015560808201518160030160006101000a81548160ff02191690831515021790555060a082015181600401555050601160008d73ffffffffffffffffffffffffffffffffffffffff1673ffffffffffffffffffffffffffffffffffffffff16815260200190815260200160002081908060018154018082558091505060019003906000526020600020016000909190919091505585601260008e73ffffffffffffffffffffffffffffffffffffffff1673ffffffffffffffffffffffffffffffffffffffff1681526020019081526020016000206000828254612cd49190613d09565b92505081905550808c73ffffffffffffffffffffffffffffffffffffffff167fe4154dd1143e5d5101eb0636083c14b9f82ab497bfbe162a2d1a18eeffc2a3c160028989604051612d2793929190614506565b60405180910390a38215612d8757808c73ffffffffffffffffffffffffffffffffffffffff167f1972d2e58d913238194f34958112a2c0bbe037944076d6928bb4cb21294a84078888604051612d7e929190613dda565b60405180910390a35b505050505050505050612da6565b80806001019150506129d4565b5050505b505050565b6000806000868054905003612dc65760008091509150612fb1565b60008680549050846080612dda9190613d09565b86901c60001c612dea9190613c17565b9050858181548110612dff57612dfe613e03565b5b9060005260206000200160009054906101000a900473ffffffffffffffffffffffffffffffffffffffff169250868181548110612e3f57612e3e613e03565b5b90600052602060002001549150600060018880549050612e5f9190613e7a565b9050808214612f4157878181548110612e7b57612e7a613e03565b5b9060005260206000200154888381548110612e9957612e98613e03565b5b9060005260206000200181905550868181548110612eba57612eb9613e03565b5b9060005260206000200160009054906101000a900473ffffffffffffffffffffffffffffffffffffffff16878381548110612ef857612ef7613e03565b5b9060005260206000200160006101000a81548173ffffffffffffffffffffffffffffffffffffffff021916908373ffffffffffffffffffffffffffffffffffffffff1602179055505b87805480612f5257612f51614084565b5b6001900381819060005260206000200160009055905586805480612f7957612f78614084565b5b6001900381819060005260206000200160006101000a81549073ffffffffffffffffffffffffffffffffffffffff0219169055905550505b94509492505050565b60006001905060008411156130225783471061301c578473ffffffffffffffffffffffffffffffffffffffff166108fc859081150290604051600060405180830381858888f19350505050158015613016573d6000803e3d6000fd5b50613021565b600090505b5b600073ffffffffffffffffffffffffffffffffffffffff168373ffffffffffffffffffffffffffffffffffffffff161415801561305f5750600082115b156130db578273ffffffffffffffffffffffffffffffffffffffff166323b872dd3087856040518463ffffffff1660e01b81526004016130a193929190613ad9565b600060405180830381600087803b1580156130bb57600080fd5b505af19250505080156130cc575060015b6130d957600090506130da565b5b5b949350505050565b600080fd5b600080fd5b600073ffffffffffffffffffffffffffffffffffffffff82169050919050565b6000613118826130ed565b9050919050565b6131288161310d565b811461313357600080fd5b50565b6000813590506131458161311f565b92915050565b6000819050919050565b61315e8161314b565b811461316957600080fd5b50565b60008135905061317b81613155565b92915050565b60008060006060848603121561319a576131996130e3565b5b60006131a886828701613136565b93505060206131b98682870161316c565b92505060406131ca86828701613136565b9150509250925092565b6131dd8161314b565b82525050565b60006020820190506131f860008301846131d4565b92915050565b600060208284031215613214576132136130e3565b5b600061322284828501613136565b91505092915050565b600080fd5b600080fd5b600080fd5b60008083601f8401126132505761324f61322b565b5b8235905067ffffffffffffffff81111561326d5761326c613230565b5b60208301915083600182028301111561328957613288613235565b5b9250929050565b6000806000806000608086880312156132ac576132ab6130e3565b5b60006132ba88828901613136565b95505060206132cb88828901613136565b94505060406132dc8882890161316c565b935050606086013567ffffffffffffffff8111156132fd576132fc6130e8565b5b6133098882890161323a565b92509250509295509295909350565b60007fffffffff0000000000000000000000000000000000000000000000000000000082169050919050565b61334d81613318565b82525050565b60006020820190506133686000830184613344565b92915050565b600060208284031215613384576133836130e3565b5b60006133928482850161316c565b91505092915050565b600063ffffffff82169050919050565b6133b48161339b565b82525050565b60008115159050919050565b6133cf816133ba565b82525050565b60006060820190506133ea60008301866133ab565b6133f760208301856133ab565b61340460408301846133c6565b949350505050565b6000819050919050565b600061343161342c613427846130ed565b61340c565b6130ed565b9050919050565b600061344382613416565b9050919050565b600061345582613438565b9050919050565b6134658161344a565b82525050565b6000602082019050613480600083018461345c565b92915050565b600067ffffffffffffffff82169050919050565b6134a381613486565b81146134ae57600080fd5b50565b6000813590506134c08161349a565b92915050565b6000602082840312156134dc576134db6130e3565b5b60006134ea848285016134b1565b91505092915050565b6134fc8161310d565b82525050565b61350b81613486565b82525050565b600060808201905061352660008301876134f3565b61353360208301866131d4565b6135406040830185613502565b61354d60608301846133c6565b95945050505050565b600060608201905061356b60008301866131d4565b61357860208301856131d4565b61358560408301846131d4565b949350505050565b60006080820190506135a260008301876133c6565b6135af60208301866131d4565b6135bc60408301856131d4565b6135c960608301846131d4565b95945050505050565b6000819050919050565b6135e5816135d2565b81146135f057600080fd5b50565b600081359050613602816135dc565b92915050565b600080600060608486031215613621576136206130e3565b5b600061362f868287016134b1565b935050602061364086828701613136565b9250506040613651868287016135f3565b9150509250925092565b600060208201905061367060008301846133c6565b92915050565b6000806040838503121561368d5761368c6130e3565b5b600061369b85828601613136565b92505060206136ac8582860161316c565b9150509250929050565b600081519050919050565b600082825260208201905092915050565b6000819050602082019050919050565b6136eb8161314b565b82525050565b60006136fd83836136e2565b60208301905092915050565b6000602082019050919050565b6000613721826136b6565b61372b81856136c1565b9350613736836136d2565b8060005b8381101561376757815161374e88826136f1565b975061375983613709565b92505060018101905061373a565b5085935050505092915050565b6000602082019050818103600083015261378e8184613716565b905092915050565b600060a0820190506137ab60008301886133c6565b6137b860208301876131d4565b6137c560408301866131d4565b6137d260608301856131d4565b6137df60808301846131d4565b9695505050505050565b60006020820190506137fe60008301846134f3565b92915050565b600060208201905061381960008301846133ab565b92915050565b613828816133ba565b811461383357600080fd5b50565b6000813590506138458161381f565b92915050565b600060208284031215613861576138606130e3565b5b600061386f84828501613836565b91505092915050565b600060ff82169050919050565b61388e81613878565b82525050565b600060c0820190506138a960008301896134f3565b6138b66020830188613885565b6138c360408301876131d4565b6138d060608301866131d4565b6138dd60808301856133c6565b6138ea60a08301846131d4565b979650505050505050565b600060808201905061390a60008301876134f3565b61391760208301866131d4565b61392460408301856131d4565b61393160608301846131d4565b95945050505050565b60008083601f8401126139505761394f61322b565b5b8235905067ffffffffffffffff81111561396d5761396c613230565b5b60208301915083602082028301111561398957613988613235565b5b9250929050565b6000806000604084860312156139a9576139a86130e3565b5b60006139b786828701613136565b935050602084013567ffffffffffffffff8111156139d8576139d76130e8565b5b6139e48682870161393a565b92509250509250925092565b600082825260208201905092915050565b7f4e4654206e6f7420617661696c61626c65000000000000000000000000000000600082015250565b6000613a376011836139f0565b9150613a4282613a01565b602082019050919050565b60006020820190508181036000830152613a6681613a2a565b9050919050565b7f496e76616c696420616464726573730000000000000000000000000000000000600082015250565b6000613aa3600f836139f0565b9150613aae82613a6d565b602082019050919050565b60006020820190508181036000830152613ad281613a96565b9050919050565b6000606082019050613aee60008301866134f3565b613afb60208301856134f3565b613b0860408301846131d4565b949350505050565b7f526166666c65206973206e6f7420616374697665000000000000000000000000600082015250565b6000613b466014836139f0565b9150613b5182613b10565b602082019050919050565b60006020820190508181036000830152613b7581613b39565b9050919050565b7f496e73756666696369656e7420656e74727920616d6f756e7400000000000000600082015250565b6000613bb26019836139f0565b9150613bbd82613b7c565b602082019050919050565b60006020820190508181036000830152613be181613ba5565b9050919050565b7f4e487b7100000000000000000000000000000000000000000000000000000000600052601260045260246000fd5b6000613c228261314b565b9150613c2d8361314b565b925082613c3d57613c3c613be8565b5b828206905092915050565b7f416d6f756e74206d757374206265206d756c7469706c65206f6620656e74727960008201527f2070726963650000000000000000000000000000000000000000000000000000602082015250565b6000613ca46026836139f0565b9150613caf82613c48565b604082019050919050565b60006020820190508181036000830152613cd381613c97565b9050919050565b7f4e487b7100000000000000000000000000000000000000000000000000000000600052601160045260246000fd5b6000613d148261314b565b9150613d1f8361314b565b9250828201905080821115613d3757613d36613cda565b5b92915050565b7f436f6f6c646f776e20706572696f64206e6f7420656c61707365640000000000600082015250565b6000613d73601b836139f0565b9150613d7e82613d3d565b602082019050919050565b60006020820190508181036000830152613da281613d66565b9050919050565b6000613db48261314b565b9150613dbf8361314b565b925082613dcf57613dce613be8565b5b828204905092915050565b6000604082019050613def60008301856131d4565b613dfc60208301846131d4565b9392505050565b7f4e487b7100000000000000000000000000000000000000000000000000000000600052603260045260246000fd5b6000613e3d8261314b565b91507fffffffffffffffffffffffffffffffffffffffffffffffffffffffffffffffff8203613e6f57613e6e613cda565b5b600182019050919050565b6000613e858261314b565b9150613e908361314b565b9250828203905081811115613ea857613ea7613cda565b5b92915050565b7f456e74726f70792061646472657373206e6f7420736574000000000000000000600082015250565b6000613ee46017836139f0565b9150613eef82613eae565b602082019050919050565b60006020820190508181036000830152613f1381613ed7565b9050919050565b7f4f6e6c7920456e74726f70792063616e2063616c6c20746869732066756e637460008201527f696f6e0000000000000000000000000000000000000000000000000000000000602082015250565b6000613f766023836139f0565b9150613f8182613f1a565b604082019050919050565b60006020820190508181036000830152613fa581613f69565b9050919050565b7f4e6f2062616c616e636520746f20776974686472617700000000000000000000600082015250565b6000613fe26016836139f0565b9150613fed82613fac565b602082019050919050565b6000602082019050818103600083015261401181613fd5565b9050919050565b7f4e465420616c7265616479206465706f73697465640000000000000000000000600082015250565b600061404e6015836139f0565b915061405982614018565b602082019050919050565b6000602082019050818103600083015261407d81614041565b9050919050565b7f4e487b7100000000000000000000000000000000000000000000000000000000600052603160045260246000fd5b60006140be8261314b565b91506140c98361314b565b92508282026140d78161314b565b915082820484148315176140ee576140ed613cda565b5b5092915050565b7f496e73756666696369656e7420636f6e74726163742062616c616e636520666f60008201527f722067756172616e746565642072657475726e202d20636f6e7472616374206e60208201527f656564732066756e64696e670000000000000000000000000000000000000000604082015250565b6000614177604c836139f0565b9150614182826140f5565b606082019050919050565b600060208201905081810360008301526141a68161416a565b9050919050565b6000819050919050565b60006141d26141cd6141c8846141ad565b61340c565b61314b565b9050919050565b6141e2816141b7565b82525050565b60006040820190506141fd60008301856131d4565b61420a60208301846141d9565b9392505050565b7f526166666c65206e6f7420616374697665000000000000000000000000000000600082015250565b60006142476011836139f0565b915061425282614211565b602082019050919050565b600060208201905081810360008301526142768161423a565b9050919050565b60006fffffffffffffffffffffffffffffffff82169050919050565b6142a28161427d565b81146142ad57600080fd5b50565b6000815190506142bf81614299565b92915050565b6000602082840312156142db576142da6130e3565b5b60006142e9848285016142b0565b91505092915050565b7f496e73756666696369656e7420495020666f7220656e74726f70792066656500600082015250565b6000614328601f836139f0565b9150614333826142f2565b602082019050919050565b600060208201905081810360008301526143578161431b565b9050919050565b60008151905061436d8161349a565b92915050565b600060208284031215614389576143886130e3565b5b60006143978482850161435e565b91505092915050565b60006020820190506143b56000830184613502565b92915050565b7f4472617720616c72656164792070726f63657373656400000000000000000000600082015250565b60006143f16016836139f0565b91506143fc826143bb565b602082019050919050565b60006020820190508181036000830152614420816143e4565b9050919050565b7f496e76616c69642070656e64696e672064726177000000000000000000000000600082015250565b600061445d6014836139f0565b915061446882614427565b602082019050919050565b6000602082019050818103600083015261448c81614450565b9050919050565b600061449e8261339b565b91506144a98361339b565b9250828201905063ffffffff8111156144c5576144c4613cda565b5b92915050565b6000819050919050565b60006144f06144eb6144e6846144cb565b61340c565b613878565b9050919050565b614500816144d5565b82525050565b600060608201905061451b60008301866144f7565b61452860208301856131d4565b61453560408301846131d4565b94935050505056fea26469706673582212207eb42e84786b4d69b2589b4a415e3c0b67126e221f27857879fc08f27aaf87a664736f6c634300081c0033",
  "linkReferences": {},
  "deployedLinkReferences": {}
}