{
  "_format": "hh-sol-artifact-1",
  "contractName": "IPPYNFT",
  "sourceName": "contracts/IPPYNFT.sol",
  "abi": [
    {
      "inputs": [],
      "stateMutability": "nonpayable",
      "type": "constructor"
    },
    {
      "inputs": [],
      "name": "ERC721EnumerableForbiddenBatchMint",
      "type": "error"
    },
    {
      "inputs": [
        {
          "internalType": "address",
          "name": "sender",
          "type": "address"
        },
        {
          "internalType": "uint256",
          "name": "tokenId",
          "type": "uint256"
        },
        {
          "internalType": "address",
          "name": "owner",
          "type": "address"
        }
      ],
      "name": "ERC721IncorrectOwner",
      "type": "error"
    },
    {
      "inputs": [
        {
          "internalType": "address",
          "name": "operator",
          "type": "address"
        },
        {
          "internalType": "uint256",
          "name": "tokenId",
          "type": "uint256"
        }
      ],
      "name": "ERC721InsufficientApproval",
      "type": "error"
    },
    {
      "inputs": [
        {
          "internalType": "address",
          "name": "approver",
          "type": "address"
        }
      ],
      "name": "ERC721InvalidApprover",
      "type": "error"
    },
    {
      "inputs": [
        {
          "internalType": "address",
          "name": "operator",
          "type": "address"
        }
      ],
      "name": "ERC721InvalidOperator",
      "type": "error"
    },
    {
      "inputs": [
        {
          "internalType": "address",
          "name": "owner",
          "type": "address"
        }
      ],
      "name": "ERC721InvalidOwner",
      "type": "error"
    },
    {
      "inputs": [
        {
          "internalType": "address",
          "name": "receiver",
          "type": "address"
        }
      ],
      "name": "ERC721InvalidReceiver",
      "type": "error"
    },
    {
      "inputs": [
        {
          "internalType": "address",
          "name": "sender",
          "type": "address"
        }
      ],
      "name": "ERC721InvalidSender",
      "type": "error"
    },
    {
      "inputs": [
        {
          "internalType": "uint256",
          "name": "tokenId",
          "type": "uint256"
        }
      ],
      "name": "ERC721NonexistentToken",
      "type": "error"
    },
    {
      "inputs": [
        {
          "internalType": "address",
          "name": "owner",
          "type": "address"
        },
        {
          "internalType": "uint256",
          "name": "index",
          "type": "uint256"
        }
      ],
      "name": "ERC721OutOfBoundsIndex",
      "type": "error"
    },
    {
      "inputs": [
        {
          "internalType": "address",
          "name": "owner",
          "type": "address"
        }
      ],
      "name": "OwnableInvalidOwner",
      "type": "error"
    },
    {
      "inputs": [
        {
          "internalType": "address",
          "name": "account",
          "type": "address"
        }
      ],
      "name": "OwnableUnauthorizedAccount",
      "type": "error"
    },
    {
      "anonymous": false,
      "inputs": [
        {
          "indexed": true,
          "internalType": "address",
          "name": "owner",
          "type": "address"
        },
        {
          "indexed": true,
          "internalType": "address",
          "name": "approved",
          "type": "address"
        },
        {
          "indexed": true,
          "internalType": "uint256",
          "name": "tokenId",
          "type": "uint256"
        }
      ],
      "name": "Approval",
      "type": "event"
    },
    {
      "anonymous": false,
      "inputs": [
        {
          "indexed": true,
          "internalType": "address",
          "name": "owner",
          "type": "address"
        },
        {
          "indexed": true,
          "internalType": "address",
          "name": "operator",
          "type": "address"
        },
        {
          "indexed": false,
          "internalType": "bool",
          "name": "approved",
          "type": "bool"
        }
      ],
      "name": "ApprovalForAll",
      "type": "event"
    },
    {
      "anonymous": false,
      "inputs": [
        {
          "indexed": true,
          "internalType": "uint256",
          "name": "nftType",
          "type": "uint256"
        },
        {
          "indexed": false,
          "internalType": "string",
          "name": "newURI",
          "type": "string"
        }
      ],
      "name": "BaseURIUpdated",
      "type": "event"
    },
    {
      "anonymous": false,
      "inputs": [
        {
          "indexed": false,
          "internalType": "string",
          "name": "newURI",
          "type": "string"
        }
      ],
      "name": "DefaultBaseURIUpdated",
      "type": "event"
    },
    {
      "anonymous": false,
      "inputs": [
        {
          "indexed": true,
          "internalType": "address",
          "name": "to",
          "type": "address"
        },
        {
          "indexed": true,
          "internalType": "uint256",
          "name": "tokenId",
          "type": "uint256"
        },
        {
          "indexed": true,
          "internalType": "uint256",
          "name": "nftType",
          "type": "uint256"
        },
        {
          "indexed": false,
          "internalType": "bool",
          "name": "isHidden",
          "type": "bool"
        }
      ],
      "name": "NFTMinted",
      "type": "event"
    },
    {
      "anonymous": false,
      "inputs": [
        {
          "indexed": true,
          "internalType": "address",
          "name": "previousOwner",
          "type": "address"
        },
        {
          "indexed": true,
          "internalType": "address",
          "name": "newOwner",
          "type": "address"
        }
      ],
      "name": "OwnershipTransferred",
      "type": "event"
    },
    {
      "anonymous": false,
      "inputs": [
        {
          "indexed": true,
          "internalType": "address",
          "name": "from",
          "type": "address"
        },
        {
          "indexed": true,
          "internalType": "address",
          "name": "to",
          "type": "address"
        },
        {
          "indexed": true,
          "internalType": "uint256",
          "name": "tokenId",
          "type": "uint256"
        }
      ],
      "name": "Transfer",
      "type": "event"
    },
    {
      "inputs": [],
      "name": "HIDDEN_NFT_ID",
      "outputs": [
        {
          "internalType": "uint256",
          "name": "",
          "type": "uint256"
        }
      ],
      "stateMutability": "view",
      "type": "function"
    },
    {
      "inputs": [],
      "name": "STANDARD_NFT_1",
      "outputs": [
        {
          "internalType": "uint256",
          "name": "",
          "type": "uint256"
        }
      ],
      "stateMutability": "view",
      "type": "function"
    },
    {
      "inputs": [],
      "name": "STANDARD_NFT_2",
      "outputs": [
        {
          "internalType": "uint256",
          "name": "",
          "type": "uint256"
        }
      ],
      "stateMutability": "view",
      "type": "function"
    },
    {
      "inputs": [],
      "name": "STANDARD_NFT_3",
      "outputs": [
        {
          "internalType": "uint256",
          "name": "",
          "type": "uint256"
        }
      ],
      "stateMutability": "view",
      "type": "function"
    },
    {
      "inputs": [],
      "name": "STANDARD_NFT_4",
      "outputs": [
        {
          "internalType": "uint256",
          "name": "",
          "type": "uint256"
        }
      ],
      "stateMutability": "view",
      "type": "function"
    },
    {
      "inputs": [],
      "name": "STANDARD_NFT_5",
      "outputs": [
        {
          "internalType": "uint256",
          "name": "",
          "type": "uint256"
        }
      ],
      "stateMutability": "view",
      "type": "function"
    },
    {
      "inputs": [],
      "name": "STANDARD_NFT_6",
      "outputs": [
        {
          "internalType": "uint256",
          "name": "",
          "type": "uint256"
        }
      ],
      "stateMutability": "view",
      "type": "function"
    },
    {
      "inputs": [
        {
          "internalType": "address",
          "name": "to",
          "type": "address"
        },
        {
          "internalType": "uint256",
          "name": "tokenId",
          "type": "uint256"
        }
      ],
      "name": "approve",
      "outputs": [],
      "stateMutability": "nonpayable",
      "type": "function"
    },
    {
      "inputs": [
        {
          "internalType": "address",
          "name": "owner",
          "type": "address"
        }
      ],
      "name": "balanceOf",
      "outputs": [
        {
          "internalType": "uint256",
          "name": "",
          "type": "uint256"
        }
      ],
      "stateMutability": "view",
      "type": "function"
    },
    {
      "inputs": [],
      "name": "blindBoxContract",
      "outputs": [
        {
          "internalType": "address",
          "name": "",
          "type": "address"
        }
      ],
      "stateMutability": "view",
      "type": "function"
    },
    {
      "inputs": [
        {
          "internalType": "uint256",
          "name": "tokenId",
          "type": "uint256"
        }
      ],
      "name": "getApproved",
      "outputs": [
        {
          "internalType": "address",
          "name": "",
          "type": "address"
        }
      ],
      "stateMutability": "view",
      "type": "function"
    },
    {
      "inputs": [],
      "name": "getGlobalNFTStats",
      "outputs": [
        {
          "internalType": "uint256[]",
          "name": "types",
          "type": "uint256[]"
        },
        {
          "internalType": "uint256[]",
          "name": "counts",
          "type": "uint256[]"
        },
        {
          "internalType": "string[]",
          "name": "typeNames",
          "type": "string[]"
        },
        {
          "internalType": "uint256",
          "name": "totalMinted",
          "type": "uint256"
        }
      ],
      "stateMutability": "view",
      "type": "function"
    },
    {
      "inputs": [
        {
          "internalType": "uint256",
          "name": "tokenId",
          "type": "uint256"
        }
      ],
      "name": "getNFTType",
      "outputs": [
        {
          "internalType": "uint256",
          "name": "",
          "type": "uint256"
        }
      ],
      "stateMutability": "view",
      "type": "function"
    },
    {
      "inputs": [
        {
          "internalType": "uint256",
          "name": "nftType",
          "type": "uint256"
        }
      ],
      "name": "getNFTTypeName",
      "outputs": [
        {
          "internalType": "string",
          "name": "",
          "type": "string"
        }
      ],
      "stateMutability": "pure",
      "type": "function"
    },
    {
      "inputs": [
        {
          "internalType": "address",
          "name": "user",
          "type": "address"
        }
      ],
      "name": "getUserNFTTypeCounts",
      "outputs": [
        {
          "internalType": "uint256[]",
          "name": "types",
          "type": "uint256[]"
        },
        {
          "internalType": "uint256[]",
          "name": "counts",
          "type": "uint256[]"
        },
        {
          "internalType": "string[]",
          "name": "typeNames",
          "type": "string[]"
        }
      ],
      "stateMutability": "view",
      "type": "function"
    },
    {
      "inputs": [
        {
          "internalType": "address",
          "name": "user",
          "type": "address"
        }
      ],
      "name": "getUserNFTs",
      "outputs": [
        {
          "internalType": "uint256[]",
          "name": "tokenIds",
          "type": "uint256[]"
        },
        {
          "internalType": "uint256[]",
          "name": "nftTypes",
          "type": "uint256[]"
        },
        {
          "internalType": "string[]",
          "name": "tokenURIs",
          "type": "string[]"
        },
        {
          "internalType": "string[]",
          "name": "typeNames",
          "type": "string[]"
        }
      ],
      "stateMutability": "view",
      "type": "function"
    },
    {
      "inputs": [
        {
          "internalType": "address",
          "name": "user",
          "type": "address"
        },
        {
          "internalType": "uint256",
          "name": "nftType",
          "type": "uint256"
        }
      ],
      "name": "getUserNFTsByType",
      "outputs": [
        {
          "internalType": "uint256[]",
          "name": "tokenIds",
          "type": "uint256[]"
        }
      ],
      "stateMutability": "view",
      "type": "function"
    },
    {
      "inputs": [
        {
          "internalType": "address",
          "name": "owner",
          "type": "address"
        },
        {
          "internalType": "address",
          "name": "operator",
          "type": "address"
        }
      ],
      "name": "isApprovedForAll",
      "outputs": [
        {
          "internalType": "bool",
          "name": "",
          "type": "bool"
        }
      ],
      "stateMutability": "view",
      "type": "function"
    },
    {
      "inputs": [
        {
          "internalType": "address",
          "name": "to",
          "type": "address"
        },
        {
          "internalType": "uint256",
          "name": "randomIndex",
          "type": "uint256"
        }
      ],
      "name": "mint",
      "outputs": [
        {
          "internalType": "uint256",
          "name": "",
          "type": "uint256"
        }
      ],
      "stateMutability": "nonpayable",
      "type": "function"
    },
    {
      "inputs": [],
      "name": "name",
      "outputs": [
        {
          "internalType": "string",
          "name": "",
          "type": "string"
        }
      ],
      "stateMutability": "view",
      "type": "function"
    },
    {
      "inputs": [
        {
          "internalType": "uint256",
          "name": "",
          "type": "uint256"
        }
      ],
      "name": "nftTypeBaseURIs",
      "outputs": [
        {
          "internalType": "string",
          "name": "",
          "type": "string"
        }
      ],
      "stateMutability": "view",
      "type": "function"
    },
    {
      "inputs": [
        {
          "internalType": "uint256",
          "name": "",
          "type": "uint256"
        }
      ],
      "name": "nftTypeCounts",
      "outputs": [
        {
          "internalType": "uint256",
          "name": "",
          "type": "uint256"
        }
      ],
      "stateMutability": "view",
      "type": "function"
    },
    {
      "inputs": [],
      "name": "owner",
      "outputs": [
        {
          "internalType": "address",
          "name": "",
          "type": "address"
        }
      ],
      "stateMutability": "view",
      "type": "function"
    },
    {
      "inputs": [
        {
          "internalType": "uint256",
          "name": "tokenId",
          "type": "uint256"
        }
      ],
      "name": "ownerOf",
      "outputs": [
        {
          "internalType": "address",
          "name": "",
          "type": "address"
        }
      ],
      "stateMutability": "view",
      "type": "function"
    },
    {
      "inputs": [],
      "name": "renounceOwnership",
      "outputs": [],
      "stateMutability": "nonpayable",
      "type": "function"
    },
    {
      "inputs": [
        {
          "internalType": "address",
          "name": "from",
          "type": "address"
        },
        {
          "internalType": "address",
          "name": "to",
          "type": "address"
        },
        {
          "internalType": "uint256",
          "name": "tokenId",
          "type": "uint256"
        }
      ],
      "name": "safeTransferFrom",
      "outputs": [],
      "stateMutability": "nonpayable",
      "type": "function"
    },
    {
      "inputs": [
        {
          "internalType": "address",
          "name": "from",
          "type": "address"
        },
        {
          "internalType": "address",
          "name": "to",
          "type": "address"
        },
        {
          "internalType": "uint256",
          "name": "tokenId",
          "type": "uint256"
        },
        {
          "internalType": "bytes",
          "name": "data",
          "type": "bytes"
        }
      ],
      "name": "safeTransferFrom",
      "outputs": [],
      "stateMutability": "nonpayable",
      "type": "function"
    },
    {
      "inputs": [
        {
          "internalType": "address",
          "name": "operator",
          "type": "address"
        },
        {
          "internalType": "bool",
          "name": "approved",
          "type": "bool"
        }
      ],
      "name": "setApprovalForAll",
      "outputs": [],
      "stateMutability": "nonpayable",
      "type": "function"
    },
    {
      "inputs": [
        {
          "internalType": "address",
          "name": "_blindBoxContract",
          "type": "address"
        }
      ],
      "name": "setBlindBoxContract",
      "outputs": [],
      "stateMutability": "nonpayable",
      "type": "function"
    },
    {
      "inputs": [
        {
          "internalType": "string",
          "name": "_baseURI",
          "type": "string"
        }
      ],
      "name": "setDefaultBaseURI",
      "outputs": [],
      "stateMutability": "nonpayable",
      "type": "function"
    },
    {
      "inputs": [
        {
          "internalType": "uint256",
          "name": "nftType",
          "type": "uint256"
        },
        {
          "internalType": "string",
          "name": "_baseURI",
          "type": "string"
        }
      ],
      "name": "setNFTTypeBaseURI",
      "outputs": [],
      "stateMutability": "nonpayable",
      "type": "function"
    },
    {
      "inputs": [
        {
          "internalType": "bytes4",
          "name": "interfaceId",
          "type": "bytes4"
        }
      ],
      "name": "supportsInterface",
      "outputs": [
        {
          "internalType": "bool",
          "name": "",
          "type": "bool"
        }
      ],
      "stateMutability": "view",
      "type": "function"
    },
    {
      "inputs": [],
      "name": "symbol",
      "outputs": [
        {
          "internalType": "string",
          "name": "",
          "type": "string"
        }
      ],
      "stateMutability": "view",
      "type": "function"
    },
    {
      "inputs": [
        {
          "internalType": "uint256",
          "name": "index",
          "type": "uint256"
        }
      ],
      "name": "tokenByIndex",
      "outputs": [
        {
          "internalType": "uint256",
          "name": "",
          "type": "uint256"
        }
      ],
      "stateMutability": "view",
      "type": "function"
    },
    {
      "inputs": [
        {
          "internalType": "uint256",
          "name": "",
          "type": "uint256"
        }
      ],
      "name": "tokenIdToNFTType",
      "outputs": [
        {
          "internalType": "uint256",
          "name": "",
          "type": "uint256"
        }
      ],
      "stateMutability": "view",
      "type": "function"
    },
    {
      "inputs": [
        {
          "internalType": "address",
          "name": "owner",
          "type": "address"
        },
        {
          "internalType": "uint256",
          "name": "index",
          "type": "uint256"
        }
      ],
      "name": "tokenOfOwnerByIndex",
      "outputs": [
        {
          "internalType": "uint256",
          "name": "",
          "type": "uint256"
        }
      ],
      "stateMutability": "view",
      "type": "function"
    },
    {
      "inputs": [
        {
          "internalType": "uint256",
          "name": "tokenId",
          "type": "uint256"
        }
      ],
      "name": "tokenURI",
      "outputs": [
        {
          "internalType": "string",
          "name": "",
          "type": "string"
        }
      ],
      "stateMutability": "view",
      "type": "function"
    },
    {
      "inputs": [],
      "name": "totalSupply",
      "outputs": [
        {
          "internalType": "uint256",
          "name": "",
          "type": "uint256"
        }
      ],
      "stateMutability": "view",
      "type": "function"
    },
    {
      "inputs": [
        {
          "internalType": "address",
          "name": "from",
          "type": "address"
        },
        {
          "internalType": "address",
          "name": "to",
          "type": "address"
        },
        {
          "internalType": "uint256",
          "name": "tokenId",
          "type": "uint256"
        }
      ],
      "name": "transferFrom",
      "outputs": [],
      "stateMutability": "nonpayable",
      "type": "function"
    },
    {
      "inputs": [
        {
          "internalType": "address",
          "name": "newOwner",
          "type": "address"
        }
      ],
      "name": "transferOwnership",
      "outputs": [],
      "stateMutability": "nonpayable",
      "type": "function"
    },
    {
      "inputs": [
        {
          "internalType": "address",
          "name": "",
          "type": "address"
        },
        {
          "internalType": "uint256",
          "name": "",
          "type": "uint256"
        }
      ],
      "name": "userNFTTypeCounts",
      "outputs": [
        {
          "internalType": "uint256",
          "name": "",
          "type": "uint256"
        }
      ],
      "stateMutability": "view",
      "type": "function"
    },
    {
      "inputs": [
        {
          "internalType": "address",
          "name": "user",
          "type": "address"
        }
      ],
      "name": "userOwnsHiddenNFT",
      "outputs": [
        {
          "internalType": "bool",
          "name": "",
          "type": "bool"
        }
      ],
      "stateMutability": "view",
      "type": "function"
    }
  ],
  "bytecode": "0x60806040526040518060a0016040528060718152602001614cec60719139600e908161002b91906105fa565b5034801561003857600080fd5b50336040518060400160405280600781526020017f495050594e4654000000000000000000000000000000000000000000000000008152506040518060400160405280600481526020017f495050590000000000000000000000000000000000000000000000000000000081525081600090816100b591906105fa565b5080600190816100c591906105fa565b505050600073ffffffffffffffffffffffffffffffffffffffff168173ffffffffffffffffffffffffffffffffffffffff160361013a5760006040517f1e4fbdf7000000000000000000000000000000000000000000000000000000008152600401610131919061070d565b60405180910390fd5b610149816102e460201b60201c565b506040518060a00160405280607c8152602001614c70607c9139600d6000808152602001908152602001600020908161018291906105fa565b506040518060a00160405280607a8152602001614b7a607a9139600d60006001815260200190815260200160002090816101bc91906105fa565b506040518060a00160405280607b815260200161498c607b9139600d60006002815260200190815260200160002090816101f691906105fa565b506040518060a00160405280607c8152602001614bf4607c9139600d600060038152602001908152602001600020908161023091906105fa565b506040518060a00160405280607c8152602001614a83607c9139600d600060048152602001908152602001600020908161026a91906105fa565b506040518060a00160405280607c8152602001614a07607c9139600d60006005815260200190815260200160002090816102a491906105fa565b506040518060a00160405280607b8152602001614aff607b9139600d60006006815260200190815260200160002090816102de91906105fa565b50610728565b6000600a60009054906101000a900473ffffffffffffffffffffffffffffffffffffffff16905081600a60006101000a81548173ffffffffffffffffffffffffffffffffffffffff021916908373ffffffffffffffffffffffffffffffffffffffff1602179055508173ffffffffffffffffffffffffffffffffffffffff168173ffffffffffffffffffffffffffffffffffffffff167f8be0079c531659141344cd1fd0a4f28419497f9722a3daafe3b4186f6b6457e060405160405180910390a35050565b600081519050919050565b7f4e487b7100000000000000000000000000000000000000000000000000000000600052604160045260246000fd5b7f4e487b7100000000000000000000000000000000000000000000000000000000600052602260045260246000fd5b6000600282049050600182168061042b57607f821691505b60208210810361043e5761043d6103e4565b5b50919050565b60008190508160005260206000209050919050565b60006020601f8301049050919050565b600082821b905092915050565b6000600883026104a67fffffffffffffffffffffffffffffffffffffffffffffffffffffffffffffffff82610469565b6104b08683610469565b95508019841693508086168417925050509392505050565b6000819050919050565b6000819050919050565b60006104f76104f26104ed846104c8565b6104d2565b6104c8565b9050919050565b6000819050919050565b610511836104dc565b61052561051d826104fe565b848454610476565b825550505050565b600090565b61053a61052d565b610545818484610508565b505050565b5b818110156105695761055e600082610532565b60018101905061054b565b5050565b601f8211156105ae5761057f81610444565b61058884610459565b81016020851015610597578190505b6105ab6105a385610459565b83018261054a565b50505b505050565b600082821c905092915050565b60006105d1600019846008026105b3565b1980831691505092915050565b60006105ea83836105c0565b9150826002028217905092915050565b610603826103aa565b67ffffffffffffffff81111561061c5761061b6103b5565b5b6106268254610413565b61063182828561056d565b600060209050601f8311600181146106645760008415610652578287015190505b61065c85826105de565b8655506106c4565b601f19841661067286610444565b60005b8281101561069a57848901518255600182019150602085019450602081019050610675565b868310156106b757848901516106b3601f8916826105c0565b8355505b6001600288020188555050505b505050505050565b600073ffffffffffffffffffffffffffffffffffffffff82169050919050565b60006106f7826106cc565b9050919050565b610707816106ec565b82525050565b600060208201905061072260008301846106fe565b92915050565b614255806107376000396000f3fe608060405234801561001057600080fd5b506004361061025e5760003560e01c80636e3381a011610146578063c8559d82116100c3578063eeb87d1611610087578063eeb87d16146107c3578063f1526a45146107e1578063f2fde38b146107ff578063fab46cd61461081b578063fbc4454914610839578063fe90a5e3146108575761025e565b8063c8559d82146106d1578063c87b56dd14610701578063cbbd5f9e14610731578063e62b714614610761578063e985e9c5146107935761025e565b8063911045e61161010a578063911045e61461064157806395d89b411461065f578063a22cb4651461067d578063a23df13914610699578063b88d4fde146106b55761025e565b80636e3381a01461059b57806370a08231146105cb578063715018a6146105fb578063752ead1f146106055780638da5cb5b146106235761025e565b806332963a41116101df5780634f6ccce7116101a35780634f6ccce71461049e57806352de4ee5146104ce5780635cb960e3146105015780635d9008bf146105315780636352211e1461054f5780636e02cfc31461057f5761025e565b806332963a41146103e35780633cdbd25f1461040157806340c10f191461043157806342842e0e14610461578063454b51b01461047d5761025e565b8063095ea7b311610226578063095ea7b31461032d57806318160ddd146103495780631dbe40e71461036757806323b872dd146103975780632f745c59146103b35761025e565b80630126a9f11461026357806301e669721461029357806301ffc9a7146102af57806306fdde03146102df578063081812fc146102fd575b600080fd5b61027d600480360381019061027891906130fd565b610887565b60405161028a9190613145565b60405180910390f35b6102ad60048036038101906102a891906131c5565b6108e3565b005b6102c960048036038101906102c4919061326a565b61093a565b6040516102d69190613145565b60405180910390f35b6102e761094c565b6040516102f49190613327565b60405180910390f35b6103176004803603810190610312919061337f565b6109de565b60405161032491906133bb565b60405180910390f35b610347600480360381019061034291906133d6565b6109fa565b005b610351610a10565b60405161035e9190613425565b60405180910390f35b610381600480360381019061037c91906133d6565b610a1d565b60405161038e91906134fe565b60405180910390f35b6103b160048036038101906103ac9190613520565b610b92565b005b6103cd60048036038101906103c891906133d6565b610c94565b6040516103da9190613425565b60405180910390f35b6103eb610d3d565b6040516103f89190613425565b60405180910390f35b61041b6004803603810190610416919061337f565b610d42565b6040516104289190613425565b60405180910390f35b61044b600480360381019061044691906133d6565b610d5a565b6040516104589190613425565b60405180910390f35b61047b60048036038101906104769190613520565b610f7d565b005b610485610f9d565b604051610495949392919061367f565b60405180910390f35b6104b860048036038101906104b3919061337f565b6111b0565b6040516104c59190613425565b60405180910390f35b6104e860048036038101906104e391906130fd565b611226565b6040516104f894939291906136d9565b60405180910390f35b61051b6004803603810190610516919061337f565b6114bc565b6040516105289190613425565b60405180910390f35b6105396114e3565b6040516105469190613425565b60405180910390f35b6105696004803603810190610564919061337f565b6114e8565b60405161057691906133bb565b60405180910390f35b610599600480360381019061059491906130fd565b6114fa565b005b6105b560048036038101906105b0919061337f565b611546565b6040516105c29190613425565b60405180910390f35b6105e560048036038101906105e091906130fd565b61155e565b6040516105f29190613425565b60405180910390f35b610603611618565b005b61060d61162c565b60405161061a9190613425565b60405180910390f35b61062b611631565b60405161063891906133bb565b60405180910390f35b61064961165b565b6040516106569190613425565b60405180910390f35b610667611660565b6040516106749190613327565b60405180910390f35b61069760048036038101906106929190613766565b6116f2565b005b6106b360048036038101906106ae91906137a6565b611708565b005b6106cf60048036038101906106ca9190613936565b6117b6565b005b6106eb60048036038101906106e691906133d6565b6117db565b6040516106f89190613425565b60405180910390f35b61071b6004803603810190610716919061337f565b611800565b6040516107289190613327565b60405180910390f35b61074b6004803603810190610746919061337f565b6118ce565b6040516107589190613327565b60405180910390f35b61077b600480360381019061077691906130fd565b61196e565b60405161078a939291906139b9565b60405180910390f35b6107ad60048036038101906107a89190613a05565b611baa565b6040516107ba9190613145565b60405180910390f35b6107cb611c3e565b6040516107d89190613425565b60405180910390f35b6107e9611c43565b6040516107f69190613425565b60405180910390f35b610819600480360381019061081491906130fd565b611c48565b005b610823611cce565b60405161083091906133bb565b60405180910390f35b610841611cf4565b60405161084e9190613425565b60405180910390f35b610871600480360381019061086c919061337f565b611cf9565b60405161087e9190613327565b60405180910390f35b600080601060008473ffffffffffffffffffffffffffffffffffffffff1673ffffffffffffffffffffffffffffffffffffffff168152602001908152602001600020600080815260200190815260200160002054119050919050565b6108eb611f1c565b8181600e91826108fc929190613c5c565b507fe0d037d336e396c6167ad2bc126076f7c8e8a711ee714a24e96637a9233e1027828260405161092e929190613d59565b60405180910390a15050565b600061094582611fa3565b9050919050565b60606000805461095b90613a7f565b80601f016020809104026020016040519081016040528092919081815260200182805461098790613a7f565b80156109d45780601f106109a9576101008083540402835291602001916109d4565b820191906000526020600020905b8154815290600101906020018083116109b757829003601f168201915b5050505050905090565b60006109e98261201d565b506109f3826120a5565b9050919050565b610a0c8282610a076120e2565b6120ea565b5050565b6000600880549050905090565b60606000610a2a8461155e565b905060008167ffffffffffffffff811115610a4857610a4761380b565b5b604051908082528060200260200182016040528015610a765781602001602082028036833780820191505090505b5090506000805b83811015610aea576000610a918883610c94565b905086600c60008381526020019081526020016000205403610adc5780848481518110610ac157610ac0613d7d565b5b6020026020010181815250508280610ad890613ddb565b9350505b508080600101915050610a7d565b508067ffffffffffffffff811115610b0557610b0461380b565b5b604051908082528060200260200182016040528015610b335781602001602082028036833780820191505090505b50935060005b81811015610b8857828181518110610b5457610b53613d7d565b5b6020026020010151858281518110610b6f57610b6e613d7d565b5b6020026020010181815250508080600101915050610b39565b5050505092915050565b600073ffffffffffffffffffffffffffffffffffffffff168273ffffffffffffffffffffffffffffffffffffffff1603610c045760006040517f64a0ae92000000000000000000000000000000000000000000000000000000008152600401610bfb91906133bb565b60405180910390fd5b6000610c188383610c136120e2565b6120fc565b90508373ffffffffffffffffffffffffffffffffffffffff168173ffffffffffffffffffffffffffffffffffffffff1614610c8e578382826040517f64283d7b000000000000000000000000000000000000000000000000000000008152600401610c8593929190613e23565b60405180910390fd5b50505050565b6000610c9f8361155e565b8210610ce45782826040517fa57d13dc000000000000000000000000000000000000000000000000000000008152600401610cdb929190613e5a565b60405180910390fd5b600660008473ffffffffffffffffffffffffffffffffffffffff1673ffffffffffffffffffffffffffffffffffffffff168152602001908152602001600020600083815260200190815260200160002054905092915050565b600581565b600c6020528060005260406000206000915090505481565b6000600b60009054906101000a900473ffffffffffffffffffffffffffffffffffffffff1673ffffffffffffffffffffffffffffffffffffffff163373ffffffffffffffffffffffffffffffffffffffff1614610dec576040517f08c379a0000000000000000000000000000000000000000000000000000000008152600401610de390613ecf565b60405180910390fd5b600080600090506001841015610e09576000915060019050610e5e565b600060066001620f4240610e1d9190613eef565b610e279190613f52565b600186610e349190613eef565b610e3e9190613f52565b905060068110610e4d57600590505b806001610e5a9190613f83565b9250505b6000610e68610a10565b9050610e748682612112565b82600c600083815260200190815260200160002081905550600f60008481526020019081526020016000206000815480929190610eb090613ddb565b9190505550601060008773ffffffffffffffffffffffffffffffffffffffff1673ffffffffffffffffffffffffffffffffffffffff16815260200190815260200160002060008481526020019081526020016000206000815480929190610f1690613ddb565b919050555060008314915082818773ffffffffffffffffffffffffffffffffffffffff167f103f869407cb53c19de05a74c24b2c889dfd7c74a24befc8ee64dd2dbcc3611c85604051610f699190613145565b60405180910390a482935050505092915050565b610f98838383604051806020016040528060008152506117b6565b505050565b60608060606000600767ffffffffffffffff811115610fbf57610fbe61380b565b5b604051908082528060200260200182016040528015610fed5781602001602082028036833780820191505090505b509350600767ffffffffffffffff81111561100b5761100a61380b565b5b6040519080825280602002602001820160405280156110395781602001602082028036833780820191505090505b509250600767ffffffffffffffff8111156110575761105661380b565b5b60405190808252806020026020018201604052801561108a57816020015b60608152602001906001900390816110755790505b50915060005b600781101561119657808582815181106110ad576110ac613d7d565b5b602002602001018181525050600f6000828152602001908152602001600020548482815181106110e0576110df613d7d565b5b6020026020010181815250503073ffffffffffffffffffffffffffffffffffffffff1663fe90a5e3826040518263ffffffff1660e01b81526004016111259190613425565b600060405180830381865afa158015611142573d6000803e3d6000fd5b505050506040513d6000823e3d601f19601f8201168201806040525081019061116b9190614058565b83828151811061117e5761117d613d7d565b5b60200260200101819052508080600101915050611090565b508383836111a2610a10565b935093509350935090919293565b60006111ba610a10565b8210611200576000826040517fa57d13dc0000000000000000000000000000000000000000000000000000000081526004016111f7929190613e5a565b60405180910390fd5b6008828154811061121457611213613d7d565b5b90600052602060002001549050919050565b60608060608060006112378661155e565b90508067ffffffffffffffff8111156112535761125261380b565b5b6040519080825280602002602001820160405280156112815781602001602082028036833780820191505090505b5094508067ffffffffffffffff81111561129e5761129d61380b565b5b6040519080825280602002602001820160405280156112cc5781602001602082028036833780820191505090505b5093508067ffffffffffffffff8111156112e9576112e861380b565b5b60405190808252806020026020018201604052801561131c57816020015b60608152602001906001900390816113075790505b5092508067ffffffffffffffff8111156113395761133861380b565b5b60405190808252806020026020018201604052801561136c57816020015b60608152602001906001900390816113575790505b50915060005b818110156114b35760006113868883610c94565b90506000600c6000838152602001908152602001600020549050818884815181106113b4576113b3613d7d565b5b602002602001018181525050808784815181106113d4576113d3613d7d565b5b6020026020010181815250506113e982611800565b8684815181106113fc576113fb613d7d565b5b60200260200101819052503073ffffffffffffffffffffffffffffffffffffffff1663fe90a5e3826040518263ffffffff1660e01b81526004016114409190613425565b600060405180830381865afa15801561145d573d6000803e3d6000fd5b505050506040513d6000823e3d601f19601f820116820180604052508101906114869190614058565b85848151811061149957611498613d7d565b5b602002602001018190525050508080600101915050611372565b50509193509193565b60006114c78261201d565b50600c6000838152602001908152602001600020549050919050565b600281565b60006114f38261201d565b9050919050565b611502611f1c565b80600b60006101000a81548173ffffffffffffffffffffffffffffffffffffffff021916908373ffffffffffffffffffffffffffffffffffffffff16021790555050565b600f6020528060005260406000206000915090505481565b60008073ffffffffffffffffffffffffffffffffffffffff168273ffffffffffffffffffffffffffffffffffffffff16036115d15760006040517f89c62b640000000000000000000000000000000000000000000000000000000081526004016115c891906133bb565b60405180910390fd5b600360008373ffffffffffffffffffffffffffffffffffffffff1673ffffffffffffffffffffffffffffffffffffffff168152602001908152602001600020549050919050565b611620611f1c565b61162a600061220b565b565b600681565b6000600a60009054906101000a900473ffffffffffffffffffffffffffffffffffffffff16905090565b600381565b60606001805461166f90613a7f565b80601f016020809104026020016040519081016040528092919081815260200182805461169b90613a7f565b80156116e85780601f106116bd576101008083540402835291602001916116e8565b820191906000526020600020905b8154815290600101906020018083116116cb57829003601f168201915b5050505050905090565b6117046116fd6120e2565b83836122d1565b5050565b611710611f1c565b6006831115611754576040517f08c379a000000000000000000000000000000000000000000000000000000000815260040161174b906140ed565b60405180910390fd5b8181600d60008681526020019081526020016000209182611776929190613c5c565b50827f29a79348b587fdb8c1e68f2bdc84a2edf777093f8db626cb838e7ace52c2cf2983836040516117a9929190613d59565b60405180910390a2505050565b6117c1848484610b92565b6117d56117cc6120e2565b85858585612440565b50505050565b6010602052816000526040600020602052806000526040600020600091509150505481565b606061180b8261201d565b506000600c60008481526020019081526020016000205490506000600d6000838152602001908152602001600020805461184490613a7f565b80601f016020809104026020016040519081016040528092919081815260200182805461187090613a7f565b80156118bd5780601f10611892576101008083540402835291602001916118bd565b820191906000526020600020905b8154815290600101906020018083116118a057829003601f168201915b505050505090508092505050919050565b600d60205280600052604060002060009150905080546118ed90613a7f565b80601f016020809104026020016040519081016040528092919081815260200182805461191990613a7f565b80156119665780601f1061193b57610100808354040283529160200191611966565b820191906000526020600020905b81548152906001019060200180831161194957829003601f168201915b505050505081565b6060806060600767ffffffffffffffff81111561198e5761198d61380b565b5b6040519080825280602002602001820160405280156119bc5781602001602082028036833780820191505090505b509250600767ffffffffffffffff8111156119da576119d961380b565b5b604051908082528060200260200182016040528015611a085781602001602082028036833780820191505090505b509150600767ffffffffffffffff811115611a2657611a2561380b565b5b604051908082528060200260200182016040528015611a5957816020015b6060815260200190600190039081611a445790505b50905060005b6007811015611ba25780848281518110611a7c57611a7b613d7d565b5b602002602001018181525050601060008673ffffffffffffffffffffffffffffffffffffffff1673ffffffffffffffffffffffffffffffffffffffff168152602001908152602001600020600082815260200190815260200160002054838281518110611aec57611aeb613d7d565b5b6020026020010181815250503073ffffffffffffffffffffffffffffffffffffffff1663fe90a5e3826040518263ffffffff1660e01b8152600401611b319190613425565b600060405180830381865afa158015611b4e573d6000803e3d6000fd5b505050506040513d6000823e3d601f19601f82011682018060405250810190611b779190614058565b828281518110611b8a57611b89613d7d565b5b60200260200101819052508080600101915050611a5f565b509193909250565b6000600560008473ffffffffffffffffffffffffffffffffffffffff1673ffffffffffffffffffffffffffffffffffffffff16815260200190815260200160002060008373ffffffffffffffffffffffffffffffffffffffff1673ffffffffffffffffffffffffffffffffffffffff16815260200190815260200160002060009054906101000a900460ff16905092915050565b600181565b600481565b611c50611f1c565b600073ffffffffffffffffffffffffffffffffffffffff168173ffffffffffffffffffffffffffffffffffffffff1603611cc25760006040517f1e4fbdf7000000000000000000000000000000000000000000000000000000008152600401611cb991906133bb565b60405180910390fd5b611ccb8161220b565b50565b600b60009054906101000a900473ffffffffffffffffffffffffffffffffffffffff1681565b600081565b606060008203611d40576040518060400160405280600681526020017f424c4950505900000000000000000000000000000000000000000000000000008152509050611f17565b60018203611d85576040518060400160405280600481526020017f49505059000000000000000000000000000000000000000000000000000000008152509050611f17565b60028203611dca576040518060400160405280600581526020017f42495050590000000000000000000000000000000000000000000000000000008152509050611f17565b60038203611e0f576040518060400160405280600681526020017f54484950505900000000000000000000000000000000000000000000000000008152509050611f17565b60048203611e54576040518060400160405280600681526020017f53544950505900000000000000000000000000000000000000000000000000008152509050611f17565b60058203611e99576040518060400160405280600681526020017f52414950505900000000000000000000000000000000000000000000000000008152509050611f17565b60068203611ede576040518060400160405280600581526020017f4d495050590000000000000000000000000000000000000000000000000000008152509050611f17565b6040518060400160405280600781526020017f556e6b6e6f776e0000000000000000000000000000000000000000000000000081525090505b919050565b611f246120e2565b73ffffffffffffffffffffffffffffffffffffffff16611f42611631565b73ffffffffffffffffffffffffffffffffffffffff1614611fa157611f656120e2565b6040517f118cdaa7000000000000000000000000000000000000000000000000000000008152600401611f9891906133bb565b60405180910390fd5b565b60007f780e9d63000000000000000000000000000000000000000000000000000000007bffffffffffffffffffffffffffffffffffffffffffffffffffffffff1916827bffffffffffffffffffffffffffffffffffffffffffffffffffffffff191614806120165750612015826125f1565b5b9050919050565b600080612029836126d3565b9050600073ffffffffffffffffffffffffffffffffffffffff168173ffffffffffffffffffffffffffffffffffffffff160361209c57826040517f7e2732890000000000000000000000000000000000000000000000000000000081526004016120939190613425565b60405180910390fd5b80915050919050565b60006004600083815260200190815260200160002060009054906101000a900473ffffffffffffffffffffffffffffffffffffffff169050919050565b600033905090565b6120f78383836001612710565b505050565b60006121098484846128d5565b90509392505050565b600073ffffffffffffffffffffffffffffffffffffffff168273ffffffffffffffffffffffffffffffffffffffff16036121845760006040517f64a0ae9200000000000000000000000000000000000000000000000000000000815260040161217b91906133bb565b60405180910390fd5b6000612192838360006120fc565b9050600073ffffffffffffffffffffffffffffffffffffffff168173ffffffffffffffffffffffffffffffffffffffff16146122065760006040517f73c6ac6e0000000000000000000000000000000000000000000000000000000081526004016121fd91906133bb565b60405180910390fd5b505050565b6000600a60009054906101000a900473ffffffffffffffffffffffffffffffffffffffff16905081600a60006101000a81548173ffffffffffffffffffffffffffffffffffffffff021916908373ffffffffffffffffffffffffffffffffffffffff1602179055508173ffffffffffffffffffffffffffffffffffffffff168173ffffffffffffffffffffffffffffffffffffffff167f8be0079c531659141344cd1fd0a4f28419497f9722a3daafe3b4186f6b6457e060405160405180910390a35050565b600073ffffffffffffffffffffffffffffffffffffffff168273ffffffffffffffffffffffffffffffffffffffff160361234257816040517f5b08ba1800000000000000000000000000000000000000000000000000000000815260040161233991906133bb565b60405180910390fd5b80600560008573ffffffffffffffffffffffffffffffffffffffff1673ffffffffffffffffffffffffffffffffffffffff16815260200190815260200160002060008473ffffffffffffffffffffffffffffffffffffffff1673ffffffffffffffffffffffffffffffffffffffff16815260200190815260200160002060006101000a81548160ff0219169083151502179055508173ffffffffffffffffffffffffffffffffffffffff168373ffffffffffffffffffffffffffffffffffffffff167f17307eab39ab6107e8899845ad3d59bd9653f200f220920489ca2b5937696c31836040516124339190613145565b60405180910390a3505050565b60008373ffffffffffffffffffffffffffffffffffffffff163b11156125ea578273ffffffffffffffffffffffffffffffffffffffff1663150b7a02868685856040518563ffffffff1660e01b815260040161249f9493929190614162565b6020604051808303816000875af19250505080156124db57506040513d601f19601f820116820180604052508101906124d891906141c3565b60015b61255f573d806000811461250b576040519150601f19603f3d011682016040523d82523d6000602084013e612510565b606091505b50600081510361255757836040517f64a0ae9200000000000000000000000000000000000000000000000000000000815260040161254e91906133bb565b60405180910390fd5b805160208201fd5b63150b7a0260e01b7bffffffffffffffffffffffffffffffffffffffffffffffffffffffff1916817bffffffffffffffffffffffffffffffffffffffffffffffffffffffff1916146125e857836040517f64a0ae920000000000000000000000000000000000000000000000000000000081526004016125df91906133bb565b60405180910390fd5b505b5050505050565b60007f80ac58cd000000000000000000000000000000000000000000000000000000007bffffffffffffffffffffffffffffffffffffffffffffffffffffffff1916827bffffffffffffffffffffffffffffffffffffffffffffffffffffffff191614806126bc57507f5b5e139f000000000000000000000000000000000000000000000000000000007bffffffffffffffffffffffffffffffffffffffffffffffffffffffff1916827bffffffffffffffffffffffffffffffffffffffffffffffffffffffff1916145b806126cc57506126cb826129f2565b5b9050919050565b60006002600083815260200190815260200160002060009054906101000a900473ffffffffffffffffffffffffffffffffffffffff169050919050565b80806127495750600073ffffffffffffffffffffffffffffffffffffffff168273ffffffffffffffffffffffffffffffffffffffff1614155b1561287d5760006127598461201d565b9050600073ffffffffffffffffffffffffffffffffffffffff168373ffffffffffffffffffffffffffffffffffffffff16141580156127c457508273ffffffffffffffffffffffffffffffffffffffff168173ffffffffffffffffffffffffffffffffffffffff1614155b80156127d757506127d58184611baa565b155b1561281957826040517fa9fbf51f00000000000000000000000000000000000000000000000000000000815260040161281091906133bb565b60405180910390fd5b811561287b57838573ffffffffffffffffffffffffffffffffffffffff168273ffffffffffffffffffffffffffffffffffffffff167f8c5be1e5ebec7d5bd14f71427d1e84f3dd0314c0f7b2291e5b200ac8c7c3b92560405160405180910390a45b505b836004600085815260200190815260200160002060006101000a81548173ffffffffffffffffffffffffffffffffffffffff021916908373ffffffffffffffffffffffffffffffffffffffff16021790555050505050565b6000806128e3858585612a5c565b9050600073ffffffffffffffffffffffffffffffffffffffff168173ffffffffffffffffffffffffffffffffffffffff16036129275761292284612c76565b612966565b8473ffffffffffffffffffffffffffffffffffffffff168173ffffffffffffffffffffffffffffffffffffffff1614612965576129648185612cbf565b5b5b600073ffffffffffffffffffffffffffffffffffffffff168573ffffffffffffffffffffffffffffffffffffffff16036129a8576129a384612daa565b6129e7565b8473ffffffffffffffffffffffffffffffffffffffff168173ffffffffffffffffffffffffffffffffffffffff16146129e6576129e58585612e7b565b5b5b809150509392505050565b60007f01ffc9a7000000000000000000000000000000000000000000000000000000007bffffffffffffffffffffffffffffffffffffffffffffffffffffffff1916827bffffffffffffffffffffffffffffffffffffffffffffffffffffffff1916149050919050565b600080612a68846126d3565b9050600073ffffffffffffffffffffffffffffffffffffffff168373ffffffffffffffffffffffffffffffffffffffff1614612aaa57612aa9818486612f06565b5b600073ffffffffffffffffffffffffffffffffffffffff168173ffffffffffffffffffffffffffffffffffffffff1614612b3b57612aec600085600080612710565b6001600360008373ffffffffffffffffffffffffffffffffffffffff1673ffffffffffffffffffffffffffffffffffffffff168152602001908152602001600020600082825403925050819055505b600073ffffffffffffffffffffffffffffffffffffffff168573ffffffffffffffffffffffffffffffffffffffff1614612bbe576001600360008773ffffffffffffffffffffffffffffffffffffffff1673ffffffffffffffffffffffffffffffffffffffff168152602001908152602001600020600082825401925050819055505b846002600086815260200190815260200160002060006101000a81548173ffffffffffffffffffffffffffffffffffffffff021916908373ffffffffffffffffffffffffffffffffffffffff160217905550838573ffffffffffffffffffffffffffffffffffffffff168273ffffffffffffffffffffffffffffffffffffffff167fddf252ad1be2c89b69c2b068fc378daa952ba7f163c4a11628f55a4df523b3ef60405160405180910390a4809150509392505050565b6008805490506009600083815260200190815260200160002081905550600881908060018154018082558091505060019003906000526020600020016000909190919091505550565b6000612cca8361155e565b90506000600760008481526020019081526020016000205490506000600660008673ffffffffffffffffffffffffffffffffffffffff1673ffffffffffffffffffffffffffffffffffffffff1681526020019081526020016000209050828214612d765760008160008581526020019081526020016000205490508082600085815260200190815260200160002081905550826007600083815260200190815260200160002081905550505b6007600085815260200190815260200160002060009055806000848152602001908152602001600020600090555050505050565b60006001600880549050612dbe9190613eef565b9050600060096000848152602001908152602001600020549050600060088381548110612dee57612ded613d7d565b5b906000526020600020015490508060088381548110612e1057612e0f613d7d565b5b906000526020600020018190555081600960008381526020019081526020016000208190555060096000858152602001908152602001600020600090556008805480612e5f57612e5e6141f0565b5b6001900381819060005260206000200160009055905550505050565b60006001612e888461155e565b612e929190613eef565b905081600660008573ffffffffffffffffffffffffffffffffffffffff1673ffffffffffffffffffffffffffffffffffffffff168152602001908152602001600020600083815260200190815260200160002081905550806007600084815260200190815260200160002081905550505050565b612f11838383612fca565b612fc557600073ffffffffffffffffffffffffffffffffffffffff168373ffffffffffffffffffffffffffffffffffffffff1603612f8657806040517f7e273289000000000000000000000000000000000000000000000000000000008152600401612f7d9190613425565b60405180910390fd5b81816040517f177e802f000000000000000000000000000000000000000000000000000000008152600401612fbc929190613e5a565b60405180910390fd5b505050565b60008073ffffffffffffffffffffffffffffffffffffffff168373ffffffffffffffffffffffffffffffffffffffff161415801561308257508273ffffffffffffffffffffffffffffffffffffffff168473ffffffffffffffffffffffffffffffffffffffff16148061304357506130428484611baa565b5b8061308157508273ffffffffffffffffffffffffffffffffffffffff16613069836120a5565b73ffffffffffffffffffffffffffffffffffffffff16145b5b90509392505050565b6000604051905090565b600080fd5b600080fd5b600073ffffffffffffffffffffffffffffffffffffffff82169050919050565b60006130ca8261309f565b9050919050565b6130da816130bf565b81146130e557600080fd5b50565b6000813590506130f7816130d1565b92915050565b60006020828403121561311357613112613095565b5b6000613121848285016130e8565b91505092915050565b60008115159050919050565b61313f8161312a565b82525050565b600060208201905061315a6000830184613136565b92915050565b600080fd5b600080fd5b600080fd5b60008083601f84011261318557613184613160565b5b8235905067ffffffffffffffff8111156131a2576131a1613165565b5b6020830191508360018202830111156131be576131bd61316a565b5b9250929050565b600080602083850312156131dc576131db613095565b5b600083013567ffffffffffffffff8111156131fa576131f961309a565b5b6132068582860161316f565b92509250509250929050565b60007fffffffff0000000000000000000000000000000000000000000000000000000082169050919050565b61324781613212565b811461325257600080fd5b50565b6000813590506132648161323e565b92915050565b6000602082840312156132805761327f613095565b5b600061328e84828501613255565b91505092915050565b600081519050919050565b600082825260208201905092915050565b60005b838110156132d15780820151818401526020810190506132b6565b60008484015250505050565b6000601f19601f8301169050919050565b60006132f982613297565b61330381856132a2565b93506133138185602086016132b3565b61331c816132dd565b840191505092915050565b6000602082019050818103600083015261334181846132ee565b905092915050565b6000819050919050565b61335c81613349565b811461336757600080fd5b50565b60008135905061337981613353565b92915050565b60006020828403121561339557613394613095565b5b60006133a38482850161336a565b91505092915050565b6133b5816130bf565b82525050565b60006020820190506133d060008301846133ac565b92915050565b600080604083850312156133ed576133ec613095565b5b60006133fb858286016130e8565b925050602061340c8582860161336a565b9150509250929050565b61341f81613349565b82525050565b600060208201905061343a6000830184613416565b92915050565b600081519050919050565b600082825260208201905092915050565b6000819050602082019050919050565b61347581613349565b82525050565b6000613487838361346c565b60208301905092915050565b6000602082019050919050565b60006134ab82613440565b6134b5818561344b565b93506134c08361345c565b8060005b838110156134f15781516134d8888261347b565b97506134e383613493565b9250506001810190506134c4565b5085935050505092915050565b6000602082019050818103600083015261351881846134a0565b905092915050565b60008060006060848603121561353957613538613095565b5b6000613547868287016130e8565b9350506020613558868287016130e8565b92505060406135698682870161336a565b9150509250925092565b600081519050919050565b600082825260208201905092915050565b6000819050602082019050919050565b600082825260208201905092915050565b60006135bb82613297565b6135c5818561359f565b93506135d58185602086016132b3565b6135de816132dd565b840191505092915050565b60006135f583836135b0565b905092915050565b6000602082019050919050565b600061361582613573565b61361f818561357e565b9350836020820285016136318561358f565b8060005b8581101561366d578484038952815161364e85826135e9565b9450613659836135fd565b925060208a01995050600181019050613635565b50829750879550505050505092915050565b6000608082019050818103600083015261369981876134a0565b905081810360208301526136ad81866134a0565b905081810360408301526136c1818561360a565b90506136d06060830184613416565b95945050505050565b600060808201905081810360008301526136f381876134a0565b9050818103602083015261370781866134a0565b9050818103604083015261371b818561360a565b9050818103606083015261372f818461360a565b905095945050505050565b6137438161312a565b811461374e57600080fd5b50565b6000813590506137608161373a565b92915050565b6000806040838503121561377d5761377c613095565b5b600061378b858286016130e8565b925050602061379c85828601613751565b9150509250929050565b6000806000604084860312156137bf576137be613095565b5b60006137cd8682870161336a565b935050602084013567ffffffffffffffff8111156137ee576137ed61309a565b5b6137fa8682870161316f565b92509250509250925092565b600080fd5b7f4e487b7100000000000000000000000000000000000000000000000000000000600052604160045260246000fd5b613843826132dd565b810181811067ffffffffffffffff821117156138625761386161380b565b5b80604052505050565b600061387561308b565b9050613881828261383a565b919050565b600067ffffffffffffffff8211156138a1576138a061380b565b5b6138aa826132dd565b9050602081019050919050565b82818337600083830152505050565b60006138d96138d484613886565b61386b565b9050828152602081018484840111156138f5576138f4613806565b5b6139008482856138b7565b509392505050565b600082601f83011261391d5761391c613160565b5b813561392d8482602086016138c6565b91505092915050565b600080600080608085870312156139505761394f613095565b5b600061395e878288016130e8565b945050602061396f878288016130e8565b93505060406139808782880161336a565b925050606085013567ffffffffffffffff8111156139a1576139a061309a565b5b6139ad87828801613908565b91505092959194509250565b600060608201905081810360008301526139d381866134a0565b905081810360208301526139e781856134a0565b905081810360408301526139fb818461360a565b9050949350505050565b60008060408385031215613a1c57613a1b613095565b5b6000613a2a858286016130e8565b9250506020613a3b858286016130e8565b9150509250929050565b600082905092915050565b7f4e487b7100000000000000000000000000000000000000000000000000000000600052602260045260246000fd5b60006002820490506001821680613a9757607f821691505b602082108103613aaa57613aa9613a50565b5b50919050565b60008190508160005260206000209050919050565b60006020601f8301049050919050565b600082821b905092915050565b600060088302613b127fffffffffffffffffffffffffffffffffffffffffffffffffffffffffffffffff82613ad5565b613b1c8683613ad5565b95508019841693508086168417925050509392505050565b6000819050919050565b6000613b59613b54613b4f84613349565b613b34565b613349565b9050919050565b6000819050919050565b613b7383613b3e565b613b87613b7f82613b60565b848454613ae2565b825550505050565b600090565b613b9c613b8f565b613ba7818484613b6a565b505050565b5b81811015613bcb57613bc0600082613b94565b600181019050613bad565b5050565b601f821115613c1057613be181613ab0565b613bea84613ac5565b81016020851015613bf9578190505b613c0d613c0585613ac5565b830182613bac565b50505b505050565b600082821c905092915050565b6000613c3360001984600802613c15565b1980831691505092915050565b6000613c4c8383613c22565b9150826002028217905092915050565b613c668383613a45565b67ffffffffffffffff811115613c7f57613c7e61380b565b5b613c898254613a7f565b613c94828285613bcf565b6000601f831160018114613cc35760008415613cb1578287013590505b613cbb8582613c40565b865550613d23565b601f198416613cd186613ab0565b60005b82811015613cf957848901358255600182019150602085019450602081019050613cd4565b86831015613d165784890135613d12601f891682613c22565b8355505b6001600288020188555050505b50505050505050565b6000613d3883856132a2565b9350613d458385846138b7565b613d4e836132dd565b840190509392505050565b60006020820190508181036000830152613d74818486613d2c565b90509392505050565b7f4e487b7100000000000000000000000000000000000000000000000000000000600052603260045260246000fd5b7f4e487b7100000000000000000000000000000000000000000000000000000000600052601160045260246000fd5b6000613de682613349565b91507fffffffffffffffffffffffffffffffffffffffffffffffffffffffffffffffff8203613e1857613e17613dac565b5b600182019050919050565b6000606082019050613e3860008301866133ac565b613e456020830185613416565b613e5260408301846133ac565b949350505050565b6000604082019050613e6f60008301856133ac565b613e7c6020830184613416565b9392505050565b7f4f6e6c7920426c696e64426f782063616e206d696e7400000000000000000000600082015250565b6000613eb96016836132a2565b9150613ec482613e83565b602082019050919050565b60006020820190508181036000830152613ee881613eac565b9050919050565b6000613efa82613349565b9150613f0583613349565b9250828203905081811115613f1d57613f1c613dac565b5b92915050565b7f4e487b7100000000000000000000000000000000000000000000000000000000600052601260045260246000fd5b6000613f5d82613349565b9150613f6883613349565b925082613f7857613f77613f23565b5b828204905092915050565b6000613f8e82613349565b9150613f9983613349565b9250828201905080821115613fb157613fb0613dac565b5b92915050565b600067ffffffffffffffff821115613fd257613fd161380b565b5b613fdb826132dd565b9050602081019050919050565b6000613ffb613ff684613fb7565b61386b565b90508281526020810184848401111561401757614016613806565b5b6140228482856132b3565b509392505050565b600082601f83011261403f5761403e613160565b5b815161404f848260208601613fe8565b91505092915050565b60006020828403121561406e5761406d613095565b5b600082015167ffffffffffffffff81111561408c5761408b61309a565b5b6140988482850161402a565b91505092915050565b7f496e76616c6964204e4654207479706500000000000000000000000000000000600082015250565b60006140d76010836132a2565b91506140e2826140a1565b602082019050919050565b60006020820190508181036000830152614106816140ca565b9050919050565b600081519050919050565b600082825260208201905092915050565b60006141348261410d565b61413e8185614118565b935061414e8185602086016132b3565b614157816132dd565b840191505092915050565b600060808201905061417760008301876133ac565b61418460208301866133ac565b6141916040830185613416565b81810360608301526141a38184614129565b905095945050505050565b6000815190506141bd8161323e565b92915050565b6000602082840312156141d9576141d8613095565b5b60006141e7848285016141ae565b91505092915050565b7f4e487b7100000000000000000000000000000000000000000000000000000000600052603160045260246000fdfea2646970667358221220536f2b86f167534ea14c94eea4686f2f555f5c49e3f7c5d67e77a00701d8a0d664736f6c634300081c003368747470733a2f2f6d61726f6f6e2d6e65617262792d6265646275672d3533352e6d7970696e6174612e636c6f75642f697066732f62616679626569627634323371327934686e6a366d37723377756861676d69326d6c6d6979796578766671686970626c70706e687a366d6a6478712f62697070792e6a736f6e68747470733a2f2f6d61726f6f6e2d6e65617262792d6265646275672d3533352e6d7970696e6174612e636c6f75642f697066732f62616679626569627634323371327934686e6a366d37723377756861676d69326d6c6d6979796578766671686970626c70706e687a366d6a6478712f7261697070792e6a736f6e68747470733a2f2f6d61726f6f6e2d6e65617262792d6265646275672d3533352e6d7970696e6174612e636c6f75642f697066732f62616679626569627634323371327934686e6a366d37723377756861676d69326d6c6d6979796578766671686970626c70706e687a366d6a6478712f7374697070792e6a736f6e68747470733a2f2f6d61726f6f6e2d6e65617262792d6265646275672d3533352e6d7970696e6174612e636c6f75642f697066732f62616679626569627634323371327934686e6a366d37723377756861676d69326d6c6d6979796578766671686970626c70706e687a366d6a6478712f6d697070792e6a736f6e68747470733a2f2f6d61726f6f6e2d6e65617262792d6265646275672d3533352e6d7970696e6174612e636c6f75642f697066732f62616679626569627634323371327934686e6a366d37723377756861676d69326d6c6d6979796578766671686970626c70706e687a366d6a6478712f697070792e6a736f6e68747470733a2f2f6d61726f6f6e2d6e65617262792d6265646275672d3533352e6d7970696e6174612e636c6f75642f697066732f62616679626569627634323371327934686e6a366d37723377756861676d69326d6c6d6979796578766671686970626c70706e687a366d6a6478712f7468697070792e6a736f6e68747470733a2f2f6d61726f6f6e2d6e65617262792d6265646275672d3533352e6d7970696e6174612e636c6f75642f697066732f62616679626569627634323371327934686e6a366d37723377756861676d69326d6c6d6979796578766671686970626c70706e687a366d6a6478712f626c697070792e6a736f6e68747470733a2f2f6d61726f6f6e2d6e65617262792d6265646275672d3533352e6d7970696e6174612e636c6f75642f697066732f62616679626569627634323371327934686e6a366d37723377756861676d69326d6c6d6979796578766671686970626c70706e687a366d6a6478712f",
  "linkReferences": {},
  "deployedLinkReferences": {}
}