{
  "_format": "hh-sol-artifact-1",
  "contractName": "IPPYNFT",
  "sourceName": "contracts/IPPYNFT.sol",
  "abi": [
    {
      "inputs": [],
      "stateMutability": "nonpayable",
      "type": "constructor"
    },
    {
      "inputs": [],
      "name": "ERC721EnumerableForbiddenBatchMint",
      "type": "error"
    },
    {
      "inputs": [
        {
          "internalType": "address",
          "name": "sender",
          "type": "address"
        },
        {
          "internalType": "uint256",
          "name": "tokenId",
          "type": "uint256"
        },
        {
          "internalType": "address",
          "name": "owner",
          "type": "address"
        }
      ],
      "name": "ERC721IncorrectOwner",
      "type": "error"
    },
    {
      "inputs": [
        {
          "internalType": "address",
          "name": "operator",
          "type": "address"
        },
        {
          "internalType": "uint256",
          "name": "tokenId",
          "type": "uint256"
        }
      ],
      "name": "ERC721InsufficientApproval",
      "type": "error"
    },
    {
      "inputs": [
        {
          "internalType": "address",
          "name": "approver",
          "type": "address"
        }
      ],
      "name": "ERC721InvalidApprover",
      "type": "error"
    },
    {
      "inputs": [
        {
          "internalType": "address",
          "name": "operator",
          "type": "address"
        }
      ],
      "name": "ERC721InvalidOperator",
      "type": "error"
    },
    {
      "inputs": [
        {
          "internalType": "address",
          "name": "owner",
          "type": "address"
        }
      ],
      "name": "ERC721InvalidOwner",
      "type": "error"
    },
    {
      "inputs": [
        {
          "internalType": "address",
          "name": "receiver",
          "type": "address"
        }
      ],
      "name": "ERC721InvalidReceiver",
      "type": "error"
    },
    {
      "inputs": [
        {
          "internalType": "address",
          "name": "sender",
          "type": "address"
        }
      ],
      "name": "ERC721InvalidSender",
      "type": "error"
    },
    {
      "inputs": [
        {
          "internalType": "uint256",
          "name": "tokenId",
          "type": "uint256"
        }
      ],
      "name": "ERC721NonexistentToken",
      "type": "error"
    },
    {
      "inputs": [
        {
          "internalType": "address",
          "name": "owner",
          "type": "address"
        },
        {
          "internalType": "uint256",
          "name": "index",
          "type": "uint256"
        }
      ],
      "name": "ERC721OutOfBoundsIndex",
      "type": "error"
    },
    {
      "inputs": [
        {
          "internalType": "address",
          "name": "owner",
          "type": "address"
        }
      ],
      "name": "OwnableInvalidOwner",
      "type": "error"
    },
    {
      "inputs": [
        {
          "internalType": "address",
          "name": "account",
          "type": "address"
        }
      ],
      "name": "OwnableUnauthorizedAccount",
      "type": "error"
    },
    {
      "anonymous": false,
      "inputs": [
        {
          "indexed": true,
          "internalType": "address",
          "name": "owner",
          "type": "address"
        },
        {
          "indexed": true,
          "internalType": "address",
          "name": "approved",
          "type": "address"
        },
        {
          "indexed": true,
          "internalType": "uint256",
          "name": "tokenId",
          "type": "uint256"
        }
      ],
      "name": "Approval",
      "type": "event"
    },
    {
      "anonymous": false,
      "inputs": [
        {
          "indexed": true,
          "internalType": "address",
          "name": "owner",
          "type": "address"
        },
        {
          "indexed": true,
          "internalType": "address",
          "name": "operator",
          "type": "address"
        },
        {
          "indexed": false,
          "internalType": "bool",
          "name": "approved",
          "type": "bool"
        }
      ],
      "name": "ApprovalForAll",
      "type": "event"
    },
    {
      "anonymous": false,
      "inputs": [
        {
          "indexed": true,
          "internalType": "address",
          "name": "to",
          "type": "address"
        },
        {
          "indexed": true,
          "internalType": "uint256",
          "name": "tokenId",
          "type": "uint256"
        },
        {
          "indexed": true,
          "internalType": "uint256",
          "name": "nftType",
          "type": "uint256"
        },
        {
          "indexed": false,
          "internalType": "bool",
          "name": "isHidden",
          "type": "bool"
        }
      ],
      "name": "NFTMinted",
      "type": "event"
    },
    {
      "anonymous": false,
      "inputs": [
        {
          "indexed": true,
          "internalType": "address",
          "name": "previousOwner",
          "type": "address"
        },
        {
          "indexed": true,
          "internalType": "address",
          "name": "newOwner",
          "type": "address"
        }
      ],
      "name": "OwnershipTransferred",
      "type": "event"
    },
    {
      "anonymous": false,
      "inputs": [
        {
          "indexed": true,
          "internalType": "address",
          "name": "from",
          "type": "address"
        },
        {
          "indexed": true,
          "internalType": "address",
          "name": "to",
          "type": "address"
        },
        {
          "indexed": true,
          "internalType": "uint256",
          "name": "tokenId",
          "type": "uint256"
        }
      ],
      "name": "Transfer",
      "type": "event"
    },
    {
      "inputs": [],
      "name": "HIDDEN_NFT_ID",
      "outputs": [
        {
          "internalType": "uint256",
          "name": "",
          "type": "uint256"
        }
      ],
      "stateMutability": "view",
      "type": "function"
    },
    {
      "inputs": [],
      "name": "STANDARD_NFT_1",
      "outputs": [
        {
          "internalType": "uint256",
          "name": "",
          "type": "uint256"
        }
      ],
      "stateMutability": "view",
      "type": "function"
    },
    {
      "inputs": [],
      "name": "STANDARD_NFT_2",
      "outputs": [
        {
          "internalType": "uint256",
          "name": "",
          "type": "uint256"
        }
      ],
      "stateMutability": "view",
      "type": "function"
    },
    {
      "inputs": [],
      "name": "STANDARD_NFT_3",
      "outputs": [
        {
          "internalType": "uint256",
          "name": "",
          "type": "uint256"
        }
      ],
      "stateMutability": "view",
      "type": "function"
    },
    {
      "inputs": [],
      "name": "STANDARD_NFT_4",
      "outputs": [
        {
          "internalType": "uint256",
          "name": "",
          "type": "uint256"
        }
      ],
      "stateMutability": "view",
      "type": "function"
    },
    {
      "inputs": [],
      "name": "STANDARD_NFT_5",
      "outputs": [
        {
          "internalType": "uint256",
          "name": "",
          "type": "uint256"
        }
      ],
      "stateMutability": "view",
      "type": "function"
    },
    {
      "inputs": [],
      "name": "STANDARD_NFT_6",
      "outputs": [
        {
          "internalType": "uint256",
          "name": "",
          "type": "uint256"
        }
      ],
      "stateMutability": "view",
      "type": "function"
    },
    {
      "inputs": [
        {
          "internalType": "address",
          "name": "to",
          "type": "address"
        },
        {
          "internalType": "uint256",
          "name": "tokenId",
          "type": "uint256"
        }
      ],
      "name": "approve",
      "outputs": [],
      "stateMutability": "nonpayable",
      "type": "function"
    },
    {
      "inputs": [
        {
          "internalType": "address",
          "name": "owner",
          "type": "address"
        }
      ],
      "name": "balanceOf",
      "outputs": [
        {
          "internalType": "uint256",
          "name": "",
          "type": "uint256"
        }
      ],
      "stateMutability": "view",
      "type": "function"
    },
    {
      "inputs": [],
      "name": "blindBoxContract",
      "outputs": [
        {
          "internalType": "address",
          "name": "",
          "type": "address"
        }
      ],
      "stateMutability": "view",
      "type": "function"
    },
    {
      "inputs": [
        {
          "internalType": "uint256",
          "name": "tokenId",
          "type": "uint256"
        }
      ],
      "name": "getApproved",
      "outputs": [
        {
          "internalType": "address",
          "name": "",
          "type": "address"
        }
      ],
      "stateMutability": "view",
      "type": "function"
    },
    {
      "inputs": [],
      "name": "getGlobalNFTStats",
      "outputs": [
        {
          "internalType": "uint256[]",
          "name": "types",
          "type": "uint256[]"
        },
        {
          "internalType": "uint256[]",
          "name": "counts",
          "type": "uint256[]"
        },
        {
          "internalType": "string[]",
          "name": "typeNames",
          "type": "string[]"
        },
        {
          "internalType": "uint256",
          "name": "totalMinted",
          "type": "uint256"
        }
      ],
      "stateMutability": "view",
      "type": "function"
    },
    {
      "inputs": [
        {
          "internalType": "uint256",
          "name": "tokenId",
          "type": "uint256"
        }
      ],
      "name": "getNFTType",
      "outputs": [
        {
          "internalType": "uint256",
          "name": "",
          "type": "uint256"
        }
      ],
      "stateMutability": "view",
      "type": "function"
    },
    {
      "inputs": [
        {
          "internalType": "uint256",
          "name": "nftType",
          "type": "uint256"
        }
      ],
      "name": "getNFTTypeName",
      "outputs": [
        {
          "internalType": "string",
          "name": "",
          "type": "string"
        }
      ],
      "stateMutability": "pure",
      "type": "function"
    },
    {
      "inputs": [
        {
          "internalType": "address",
          "name": "user",
          "type": "address"
        }
      ],
      "name": "getUserNFTTypeCounts",
      "outputs": [
        {
          "internalType": "uint256[]",
          "name": "types",
          "type": "uint256[]"
        },
        {
          "internalType": "uint256[]",
          "name": "counts",
          "type": "uint256[]"
        },
        {
          "internalType": "string[]",
          "name": "typeNames",
          "type": "string[]"
        }
      ],
      "stateMutability": "view",
      "type": "function"
    },
    {
      "inputs": [
        {
          "internalType": "address",
          "name": "user",
          "type": "address"
        }
      ],
      "name": "getUserNFTs",
      "outputs": [
        {
          "internalType": "uint256[]",
          "name": "tokenIds",
          "type": "uint256[]"
        },
        {
          "internalType": "uint256[]",
          "name": "nftTypes",
          "type": "uint256[]"
        },
        {
          "internalType": "string[]",
          "name": "tokenURIs",
          "type": "string[]"
        },
        {
          "internalType": "string[]",
          "name": "typeNames",
          "type": "string[]"
        }
      ],
      "stateMutability": "view",
      "type": "function"
    },
    {
      "inputs": [
        {
          "internalType": "address",
          "name": "user",
          "type": "address"
        },
        {
          "internalType": "uint256",
          "name": "nftType",
          "type": "uint256"
        }
      ],
      "name": "getUserNFTsByType",
      "outputs": [
        {
          "internalType": "uint256[]",
          "name": "tokenIds",
          "type": "uint256[]"
        }
      ],
      "stateMutability": "view",
      "type": "function"
    },
    {
      "inputs": [
        {
          "internalType": "address",
          "name": "owner",
          "type": "address"
        },
        {
          "internalType": "address",
          "name": "operator",
          "type": "address"
        }
      ],
      "name": "isApprovedForAll",
      "outputs": [
        {
          "internalType": "bool",
          "name": "",
          "type": "bool"
        }
      ],
      "stateMutability": "view",
      "type": "function"
    },
    {
      "inputs": [
        {
          "internalType": "address",
          "name": "to",
          "type": "address"
        },
        {
          "internalType": "uint256",
          "name": "randomIndex",
          "type": "uint256"
        }
      ],
      "name": "mint",
      "outputs": [
        {
          "internalType": "uint256",
          "name": "",
          "type": "uint256"
        }
      ],
      "stateMutability": "nonpayable",
      "type": "function"
    },
    {
      "inputs": [],
      "name": "name",
      "outputs": [
        {
          "internalType": "string",
          "name": "",
          "type": "string"
        }
      ],
      "stateMutability": "view",
      "type": "function"
    },
    {
      "inputs": [
        {
          "internalType": "uint256",
          "name": "",
          "type": "uint256"
        }
      ],
      "name": "nftTypeCounts",
      "outputs": [
        {
          "internalType": "uint256",
          "name": "",
          "type": "uint256"
        }
      ],
      "stateMutability": "view",
      "type": "function"
    },
    {
      "inputs": [],
      "name": "owner",
      "outputs": [
        {
          "internalType": "address",
          "name": "",
          "type": "address"
        }
      ],
      "stateMutability": "view",
      "type": "function"
    },
    {
      "inputs": [
        {
          "internalType": "uint256",
          "name": "tokenId",
          "type": "uint256"
        }
      ],
      "name": "ownerOf",
      "outputs": [
        {
          "internalType": "address",
          "name": "",
          "type": "address"
        }
      ],
      "stateMutability": "view",
      "type": "function"
    },
    {
      "inputs": [],
      "name": "renounceOwnership",
      "outputs": [],
      "stateMutability": "nonpayable",
      "type": "function"
    },
    {
      "inputs": [
        {
          "internalType": "address",
          "name": "from",
          "type": "address"
        },
        {
          "internalType": "address",
          "name": "to",
          "type": "address"
        },
        {
          "internalType": "uint256",
          "name": "tokenId",
          "type": "uint256"
        }
      ],
      "name": "safeTransferFrom",
      "outputs": [],
      "stateMutability": "nonpayable",
      "type": "function"
    },
    {
      "inputs": [
        {
          "internalType": "address",
          "name": "from",
          "type": "address"
        },
        {
          "internalType": "address",
          "name": "to",
          "type": "address"
        },
        {
          "internalType": "uint256",
          "name": "tokenId",
          "type": "uint256"
        },
        {
          "internalType": "bytes",
          "name": "data",
          "type": "bytes"
        }
      ],
      "name": "safeTransferFrom",
      "outputs": [],
      "stateMutability": "nonpayable",
      "type": "function"
    },
    {
      "inputs": [
        {
          "internalType": "address",
          "name": "operator",
          "type": "address"
        },
        {
          "internalType": "bool",
          "name": "approved",
          "type": "bool"
        }
      ],
      "name": "setApprovalForAll",
      "outputs": [],
      "stateMutability": "nonpayable",
      "type": "function"
    },
    {
      "inputs": [
        {
          "internalType": "address",
          "name": "_blindBoxContract",
          "type": "address"
        }
      ],
      "name": "setBlindBoxContract",
      "outputs": [],
      "stateMutability": "nonpayable",
      "type": "function"
    },
    {
      "inputs": [
        {
          "internalType": "bytes4",
          "name": "interfaceId",
          "type": "bytes4"
        }
      ],
      "name": "supportsInterface",
      "outputs": [
        {
          "internalType": "bool",
          "name": "",
          "type": "bool"
        }
      ],
      "stateMutability": "view",
      "type": "function"
    },
    {
      "inputs": [],
      "name": "symbol",
      "outputs": [
        {
          "internalType": "string",
          "name": "",
          "type": "string"
        }
      ],
      "stateMutability": "view",
      "type": "function"
    },
    {
      "inputs": [
        {
          "internalType": "uint256",
          "name": "index",
          "type": "uint256"
        }
      ],
      "name": "tokenByIndex",
      "outputs": [
        {
          "internalType": "uint256",
          "name": "",
          "type": "uint256"
        }
      ],
      "stateMutability": "view",
      "type": "function"
    },
    {
      "inputs": [
        {
          "internalType": "uint256",
          "name": "",
          "type": "uint256"
        }
      ],
      "name": "tokenIdToNFTType",
      "outputs": [
        {
          "internalType": "uint256",
          "name": "",
          "type": "uint256"
        }
      ],
      "stateMutability": "view",
      "type": "function"
    },
    {
      "inputs": [
        {
          "internalType": "address",
          "name": "owner",
          "type": "address"
        },
        {
          "internalType": "uint256",
          "name": "index",
          "type": "uint256"
        }
      ],
      "name": "tokenOfOwnerByIndex",
      "outputs": [
        {
          "internalType": "uint256",
          "name": "",
          "type": "uint256"
        }
      ],
      "stateMutability": "view",
      "type": "function"
    },
    {
      "inputs": [
        {
          "internalType": "uint256",
          "name": "tokenId",
          "type": "uint256"
        }
      ],
      "name": "tokenURI",
      "outputs": [
        {
          "internalType": "string",
          "name": "",
          "type": "string"
        }
      ],
      "stateMutability": "view",
      "type": "function"
    },
    {
      "inputs": [],
      "name": "totalSupply",
      "outputs": [
        {
          "internalType": "uint256",
          "name": "",
          "type": "uint256"
        }
      ],
      "stateMutability": "view",
      "type": "function"
    },
    {
      "inputs": [
        {
          "internalType": "address",
          "name": "from",
          "type": "address"
        },
        {
          "internalType": "address",
          "name": "to",
          "type": "address"
        },
        {
          "internalType": "uint256",
          "name": "tokenId",
          "type": "uint256"
        }
      ],
      "name": "transferFrom",
      "outputs": [],
      "stateMutability": "nonpayable",
      "type": "function"
    },
    {
      "inputs": [
        {
          "internalType": "address",
          "name": "newOwner",
          "type": "address"
        }
      ],
      "name": "transferOwnership",
      "outputs": [],
      "stateMutability": "nonpayable",
      "type": "function"
    },
    {
      "inputs": [
        {
          "internalType": "address",
          "name": "",
          "type": "address"
        },
        {
          "internalType": "uint256",
          "name": "",
          "type": "uint256"
        }
      ],
      "name": "userNFTTypeCounts",
      "outputs": [
        {
          "internalType": "uint256",
          "name": "",
          "type": "uint256"
        }
      ],
      "stateMutability": "view",
      "type": "function"
    },
    {
      "inputs": [
        {
          "internalType": "address",
          "name": "user",
          "type": "address"
        }
      ],
      "name": "userOwnsHiddenNFT",
      "outputs": [
        {
          "internalType": "bool",
          "name": "",
          "type": "bool"
        }
      ],
      "stateMutability": "view",
      "type": "function"
    }
  ],
  "bytecode": "0x608060405234801561001057600080fd5b50336040518060400160405280600781526020017f495050594e4654000000000000000000000000000000000000000000000000008152506040518060400160405280600481526020017f4950505900000000000000000000000000000000000000000000000000000000815250816000908161008d919061043d565b50806001908161009d919061043d565b505050600073ffffffffffffffffffffffffffffffffffffffff168173ffffffffffffffffffffffffffffffffffffffff16036101125760006040517f1e4fbdf70000000000000000000000000000000000000000000000000000000081526004016101099190610550565b60405180910390fd5b6101218161012760201b60201c565b5061056b565b6000600a60009054906101000a900473ffffffffffffffffffffffffffffffffffffffff16905081600a60006101000a81548173ffffffffffffffffffffffffffffffffffffffff021916908373ffffffffffffffffffffffffffffffffffffffff1602179055508173ffffffffffffffffffffffffffffffffffffffff168173ffffffffffffffffffffffffffffffffffffffff167f8be0079c531659141344cd1fd0a4f28419497f9722a3daafe3b4186f6b6457e060405160405180910390a35050565b600081519050919050565b7f4e487b7100000000000000000000000000000000000000000000000000000000600052604160045260246000fd5b7f4e487b7100000000000000000000000000000000000000000000000000000000600052602260045260246000fd5b6000600282049050600182168061026e57607f821691505b60208210810361028157610280610227565b5b50919050565b60008190508160005260206000209050919050565b60006020601f8301049050919050565b600082821b905092915050565b6000600883026102e97fffffffffffffffffffffffffffffffffffffffffffffffffffffffffffffffff826102ac565b6102f386836102ac565b95508019841693508086168417925050509392505050565b6000819050919050565b6000819050919050565b600061033a6103356103308461030b565b610315565b61030b565b9050919050565b6000819050919050565b6103548361031f565b61036861036082610341565b8484546102b9565b825550505050565b600090565b61037d610370565b61038881848461034b565b505050565b5b818110156103ac576103a1600082610375565b60018101905061038e565b5050565b601f8211156103f1576103c281610287565b6103cb8461029c565b810160208510156103da578190505b6103ee6103e68561029c565b83018261038d565b50505b505050565b600082821c905092915050565b6000610414600019846008026103f6565b1980831691505092915050565b600061042d8383610403565b9150826002028217905092915050565b610446826101ed565b67ffffffffffffffff81111561045f5761045e6101f8565b5b6104698254610256565b6104748282856103b0565b600060209050601f8311600181146104a75760008415610495578287015190505b61049f8582610421565b865550610507565b601f1984166104b586610287565b60005b828110156104dd578489015182556001820191506020850194506020810190506104b8565b868310156104fa57848901516104f6601f891682610403565b8355505b6001600288020188555050505b505050505050565b600073ffffffffffffffffffffffffffffffffffffffff82169050919050565b600061053a8261050f565b9050919050565b61054a8161052f565b82525050565b60006020820190506105656000830184610541565b92915050565b614d178061057a6000396000f3fe608060405234801561001057600080fd5b506004361061023d5760003560e01c80636e02cfc31161013b578063c8559d82116100b8578063f1526a451161007c578063f1526a4514610758578063f2fde38b14610776578063fab46cd614610792578063fbc44549146107b0578063fe90a5e3146107ce5761023d565b8063c8559d8214610678578063c87b56dd146106a8578063e62b7146146106d8578063e985e9c51461070a578063eeb87d161461073a5761023d565b80638da5cb5b116100ff5780638da5cb5b146105e6578063911045e61461060457806395d89b4114610622578063a22cb46514610640578063b88d4fde1461065c5761023d565b80636e02cfc3146105425780636e3381a01461055e57806370a082311461058e578063715018a6146105be578063752ead1f146105c85761023d565b806332963a41116101c95780634f6ccce71161018d5780634f6ccce71461046157806352de4ee5146104915780635cb960e3146104c45780635d9008bf146104f45780636352211e146105125761023d565b806332963a41146103a65780633cdbd25f146103c457806340c10f19146103f457806342842e0e14610424578063454b51b0146104405761023d565b8063095ea7b311610210578063095ea7b3146102f057806318160ddd1461030c5780631dbe40e71461032a57806323b872dd1461035a5780632f745c59146103765761023d565b80630126a9f11461024257806301ffc9a71461027257806306fdde03146102a2578063081812fc146102c0575b600080fd5b61025c60048036038101906102579190613887565b6107fe565b60405161026991906138cf565b60405180910390f35b61028c60048036038101906102879190613942565b61085a565b60405161029991906138cf565b60405180910390f35b6102aa61086c565b6040516102b791906139ff565b60405180910390f35b6102da60048036038101906102d59190613a57565b6108fe565b6040516102e79190613a93565b60405180910390f35b61030a60048036038101906103059190613aae565b61091a565b005b610314610930565b6040516103219190613afd565b60405180910390f35b610344600480360381019061033f9190613aae565b61093d565b6040516103519190613bd6565b60405180910390f35b610374600480360381019061036f9190613bf8565b610aac565b005b610390600480360381019061038b9190613aae565b610bae565b60405161039d9190613afd565b60405180910390f35b6103ae610c57565b6040516103bb9190613afd565b60405180910390f35b6103de60048036038101906103d99190613a57565b610c5c565b6040516103eb9190613afd565b60405180910390f35b61040e60048036038101906104099190613aae565b610c74565b60405161041b9190613afd565b60405180910390f35b61043e60048036038101906104399190613bf8565b610e69565b005b610448610e89565b6040516104589493929190613d57565b60405180910390f35b61047b60048036038101906104769190613a57565b611024565b6040516104889190613afd565b60405180910390f35b6104ab60048036038101906104a69190613887565b61109a565b6040516104bb9493929190613db1565b60405180910390f35b6104de60048036038101906104d99190613a57565b6112b8565b6040516104eb9190613afd565b60405180910390f35b6104fc6112df565b6040516105099190613afd565b60405180910390f35b61052c60048036038101906105279190613a57565b6112e4565b6040516105399190613a93565b60405180910390f35b61055c60048036038101906105579190613887565b6112f6565b005b61057860048036038101906105739190613a57565b6113b1565b6040516105859190613afd565b60405180910390f35b6105a860048036038101906105a39190613887565b6113c9565b6040516105b59190613afd565b60405180910390f35b6105c6611483565b005b6105d0611497565b6040516105dd9190613afd565b60405180910390f35b6105ee61149c565b6040516105fb9190613a93565b60405180910390f35b61060c6114c6565b6040516106199190613afd565b60405180910390f35b61062a6114cb565b60405161063791906139ff565b60405180910390f35b61065a60048036038101906106559190613e3e565b61155d565b005b61067660048036038101906106719190613fb3565b611573565b005b610692600480360381019061068d9190613aae565b611598565b60405161069f9190613afd565b60405180910390f35b6106c260048036038101906106bd9190613a57565b6115bd565b6040516106cf91906139ff565b60405180910390f35b6106f260048036038101906106ed9190613887565b6115f3565b60405161070193929190614036565b60405180910390f35b610724600480360381019061071f9190614082565b6117b7565b60405161073191906138cf565b60405180910390f35b61074261184b565b60405161074f9190613afd565b60405180910390f35b610760611850565b60405161076d9190613afd565b60405180910390f35b610790600480360381019061078b9190613887565b611855565b005b61079a6118db565b6040516107a79190613a93565b60405180910390f35b6107b8611901565b6040516107c59190613afd565b60405180910390f35b6107e860048036038101906107e39190613a57565b611906565b6040516107f591906139ff565b60405180910390f35b600080600e60008473ffffffffffffffffffffffffffffffffffffffff1673ffffffffffffffffffffffffffffffffffffffff168152602001908152602001600020600080815260200190815260200160002054119050919050565b600061086582611918565b9050919050565b60606000805461087b906140f1565b80601f01602080910402602001604051908101604052809291908181526020018280546108a7906140f1565b80156108f45780601f106108c9576101008083540402835291602001916108f4565b820191906000526020600020905b8154815290600101906020018083116108d757829003601f168201915b5050505050905090565b600061090982611992565b5061091382611a1a565b9050919050565b61092c8282610927611a57565b611a5f565b5050565b6000600880549050905090565b6060600061094a846113c9565b905060008167ffffffffffffffff81111561096857610967613e88565b5b6040519080825280602002602001820160405280156109965781602001602082028036833780820191505090505b5090506000805b83811015610a065760006109b18883610bae565b905086600c600083815260200190815260200160002054036109fa57808484815181106109e1576109e0614122565b5b602002602001018181525050826109f790614180565b92505b5080600101905061099d565b508067ffffffffffffffff811115610a2157610a20613e88565b5b604051908082528060200260200182016040528015610a4f5781602001602082028036833780820191505090505b50935060005b81811015610aa257828181518110610a7057610a6f614122565b5b6020026020010151858281518110610a8b57610a8a614122565b5b602002602001018181525050806001019050610a55565b5050505092915050565b600073ffffffffffffffffffffffffffffffffffffffff168273ffffffffffffffffffffffffffffffffffffffff1603610b1e5760006040517f64a0ae92000000000000000000000000000000000000000000000000000000008152600401610b159190613a93565b60405180910390fd5b6000610b328383610b2d611a57565b611a71565b90508373ffffffffffffffffffffffffffffffffffffffff168173ffffffffffffffffffffffffffffffffffffffff1614610ba8578382826040517f64283d7b000000000000000000000000000000000000000000000000000000008152600401610b9f939291906141c8565b60405180910390fd5b50505050565b6000610bb9836113c9565b8210610bfe5782826040517fa57d13dc000000000000000000000000000000000000000000000000000000008152600401610bf59291906141ff565b60405180910390fd5b600660008473ffffffffffffffffffffffffffffffffffffffff1673ffffffffffffffffffffffffffffffffffffffff168152602001908152602001600020600083815260200190815260200160002054905092915050565b600581565b600c6020528060005260406000206000915090505481565b6000600b60009054906101000a900473ffffffffffffffffffffffffffffffffffffffff1673ffffffffffffffffffffffffffffffffffffffff163373ffffffffffffffffffffffffffffffffffffffff1614610d06576040517f08c379a0000000000000000000000000000000000000000000000000000000008152600401610cfd90614274565b60405180910390fd5b60008060009050611a0a841015610d24576000915060019050610d56565b6000611a0a8503905060006201adb082610d3e91906142c3565b905060068110610d4d57600590505b80600101935050505b6000610d60610930565b9050610d6c8682611a87565b82600c600083815260200190815260200160002081905550600d600084815260200190815260200160002060008154809291906001019190505550600e60008773ffffffffffffffffffffffffffffffffffffffff1673ffffffffffffffffffffffffffffffffffffffff16815260200190815260200160002060008481526020019081526020016000206000815480929190600101919050555060008314915082818773ffffffffffffffffffffffffffffffffffffffff167f103f869407cb53c19de05a74c24b2c889dfd7c74a24befc8ee64dd2dbcc3611c85604051610e5591906138cf565b60405180910390a482935050505092915050565b610e8483838360405180602001604052806000815250611573565b505050565b60608060606000600767ffffffffffffffff811115610eab57610eaa613e88565b5b604051908082528060200260200182016040528015610ed95781602001602082028036833780820191505090505b509350600767ffffffffffffffff811115610ef757610ef6613e88565b5b604051908082528060200260200182016040528015610f255781602001602082028036833780820191505090505b509250600767ffffffffffffffff811115610f4357610f42613e88565b5b604051908082528060200260200182016040528015610f7657816020015b6060815260200190600190039081610f615790505b50915060005b600781101561100a5780858281518110610f9957610f98614122565b5b602002602001018181525050600d600082815260200190815260200160002054848281518110610fcc57610fcb614122565b5b602002602001018181525050610fe181611b80565b838281518110610ff457610ff3614122565b5b6020026020010181905250806001019050610f7c565b50838383611016610930565b935093509350935090919293565b600061102e610930565b8210611074576000826040517fa57d13dc00000000000000000000000000000000000000000000000000000000815260040161106b9291906141ff565b60405180910390fd5b6008828154811061108857611087614122565b5b90600052602060002001549050919050565b60608060608060006110ab866113c9565b90508067ffffffffffffffff8111156110c7576110c6613e88565b5b6040519080825280602002602001820160405280156110f55781602001602082028036833780820191505090505b5094508067ffffffffffffffff81111561111257611111613e88565b5b6040519080825280602002602001820160405280156111405781602001602082028036833780820191505090505b5093508067ffffffffffffffff81111561115d5761115c613e88565b5b60405190808252806020026020018201604052801561119057816020015b606081526020019060019003908161117b5790505b5092508067ffffffffffffffff8111156111ad576111ac613e88565b5b6040519080825280602002602001820160405280156111e057816020015b60608152602001906001900390816111cb5790505b50915060005b818110156112af5760006111fa8883610bae565b90506000600c60008381526020019081526020016000205490508188848151811061122857611227614122565b5b6020026020010181815250508087848151811061124857611247614122565b5b60200260200101818152505061125d826115bd565b8684815181106112705761126f614122565b5b602002602001018190525061128481611b80565b85848151811061129757611296614122565b5b602002602001018190525050508060010190506111e6565b50509193509193565b60006112c382611992565b50600c6000838152602001908152602001600020549050919050565b600281565b60006112ef82611992565b9050919050565b6112fe611b96565b600073ffffffffffffffffffffffffffffffffffffffff168173ffffffffffffffffffffffffffffffffffffffff160361136d576040517f08c379a000000000000000000000000000000000000000000000000000000000815260040161136490614366565b60405180910390fd5b80600b60006101000a81548173ffffffffffffffffffffffffffffffffffffffff021916908373ffffffffffffffffffffffffffffffffffffffff16021790555050565b600d6020528060005260406000206000915090505481565b60008073ffffffffffffffffffffffffffffffffffffffff168273ffffffffffffffffffffffffffffffffffffffff160361143c5760006040517f89c62b640000000000000000000000000000000000000000000000000000000081526004016114339190613a93565b60405180910390fd5b600360008373ffffffffffffffffffffffffffffffffffffffff1673ffffffffffffffffffffffffffffffffffffffff168152602001908152602001600020549050919050565b61148b611b96565b6114956000611c1d565b565b600681565b6000600a60009054906101000a900473ffffffffffffffffffffffffffffffffffffffff16905090565b600381565b6060600180546114da906140f1565b80601f0160208091040260200160405190810160405280929190818152602001828054611506906140f1565b80156115535780601f1061152857610100808354040283529160200191611553565b820191906000526020600020905b81548152906001019060200180831161153657829003601f168201915b5050505050905090565b61156f611568611a57565b8383611ce3565b5050565b61157e848484610aac565b611592611589611a57565b85858585611e52565b50505050565b600e602052816000526040600020602052806000526040600020600091509150505481565b60606115c882611992565b506000600c60008481526020019081526020016000205490506115eb8184612003565b915050919050565b6060806060600767ffffffffffffffff81111561161357611612613e88565b5b6040519080825280602002602001820160405280156116415781602001602082028036833780820191505090505b509250600767ffffffffffffffff81111561165f5761165e613e88565b5b60405190808252806020026020018201604052801561168d5781602001602082028036833780820191505090505b509150600767ffffffffffffffff8111156116ab576116aa613e88565b5b6040519080825280602002602001820160405280156116de57816020015b60608152602001906001900390816116c95790505b50905060005b60078110156117af578084828151811061170157611700614122565b5b602002602001018181525050600e60008673ffffffffffffffffffffffffffffffffffffffff1673ffffffffffffffffffffffffffffffffffffffff16815260200190815260200160002060008281526020019081526020016000205483828151811061177157611770614122565b5b60200260200101818152505061178681611b80565b82828151811061179957611798614122565b5b60200260200101819052508060010190506116e4565b509193909250565b6000600560008473ffffffffffffffffffffffffffffffffffffffff1673ffffffffffffffffffffffffffffffffffffffff16815260200190815260200160002060008373ffffffffffffffffffffffffffffffffffffffff1673ffffffffffffffffffffffffffffffffffffffff16815260200190815260200160002060009054906101000a900460ff16905092915050565b600181565b600481565b61185d611b96565b600073ffffffffffffffffffffffffffffffffffffffff168173ffffffffffffffffffffffffffffffffffffffff16036118cf5760006040517f1e4fbdf70000000000000000000000000000000000000000000000000000000081526004016118c69190613a93565b60405180910390fd5b6118d881611c1d565b50565b600b60009054906101000a900473ffffffffffffffffffffffffffffffffffffffff1681565b600081565b606061191182611b80565b9050919050565b60007f780e9d63000000000000000000000000000000000000000000000000000000007bffffffffffffffffffffffffffffffffffffffffffffffffffffffff1916827bffffffffffffffffffffffffffffffffffffffffffffffffffffffff1916148061198b575061198a82612092565b5b9050919050565b60008061199e83612174565b9050600073ffffffffffffffffffffffffffffffffffffffff168173ffffffffffffffffffffffffffffffffffffffff1603611a1157826040517f7e273289000000000000000000000000000000000000000000000000000000008152600401611a089190613afd565b60405180910390fd5b80915050919050565b60006004600083815260200190815260200160002060009054906101000a900473ffffffffffffffffffffffffffffffffffffffff169050919050565b600033905090565b611a6c83838360016121b1565b505050565b6000611a7e848484612376565b90509392505050565b600073ffffffffffffffffffffffffffffffffffffffff168273ffffffffffffffffffffffffffffffffffffffff1603611af95760006040517f64a0ae92000000000000000000000000000000000000000000000000000000008152600401611af09190613a93565b60405180910390fd5b6000611b0783836000611a71565b9050600073ffffffffffffffffffffffffffffffffffffffff168173ffffffffffffffffffffffffffffffffffffffff1614611b7b5760006040517f73c6ac6e000000000000000000000000000000000000000000000000000000008152600401611b729190613a93565b60405180910390fd5b505050565b6060611b8b82612493565b600001519050919050565b611b9e611a57565b73ffffffffffffffffffffffffffffffffffffffff16611bbc61149c565b73ffffffffffffffffffffffffffffffffffffffff1614611c1b57611bdf611a57565b6040517f118cdaa7000000000000000000000000000000000000000000000000000000008152600401611c129190613a93565b60405180910390fd5b565b6000600a60009054906101000a900473ffffffffffffffffffffffffffffffffffffffff16905081600a60006101000a81548173ffffffffffffffffffffffffffffffffffffffff021916908373ffffffffffffffffffffffffffffffffffffffff1602179055508173ffffffffffffffffffffffffffffffffffffffff168173ffffffffffffffffffffffffffffffffffffffff167f8be0079c531659141344cd1fd0a4f28419497f9722a3daafe3b4186f6b6457e060405160405180910390a35050565b600073ffffffffffffffffffffffffffffffffffffffff168273ffffffffffffffffffffffffffffffffffffffff1603611d5457816040517f5b08ba18000000000000000000000000000000000000000000000000000000008152600401611d4b9190613a93565b60405180910390fd5b80600560008573ffffffffffffffffffffffffffffffffffffffff1673ffffffffffffffffffffffffffffffffffffffff16815260200190815260200160002060008473ffffffffffffffffffffffffffffffffffffffff1673ffffffffffffffffffffffffffffffffffffffff16815260200190815260200160002060006101000a81548160ff0219169083151502179055508173ffffffffffffffffffffffffffffffffffffffff168373ffffffffffffffffffffffffffffffffffffffff167f17307eab39ab6107e8899845ad3d59bd9653f200f220920489ca2b5937696c3183604051611e4591906138cf565b60405180910390a3505050565b60008373ffffffffffffffffffffffffffffffffffffffff163b1115611ffc578273ffffffffffffffffffffffffffffffffffffffff1663150b7a02868685856040518563ffffffff1660e01b8152600401611eb194939291906143db565b6020604051808303816000875af1925050508015611eed57506040513d601f19601f82011682018060405250810190611eea919061443c565b60015b611f71573d8060008114611f1d576040519150601f19603f3d011682016040523d82523d6000602084013e611f22565b606091505b506000815103611f6957836040517f64a0ae92000000000000000000000000000000000000000000000000000000008152600401611f609190613a93565b60405180910390fd5b805160208201fd5b63150b7a0260e01b7bffffffffffffffffffffffffffffffffffffffffffffffffffffffff1916817bffffffffffffffffffffffffffffffffffffffffffffffffffffffff191614611ffa57836040517f64a0ae92000000000000000000000000000000000000000000000000000000008152600401611ff19190613a93565b60405180910390fd5b505b5050505050565b6060600061201084612493565b9050600061201d85612cfa565b90506000826000015161202f86612d6b565b846020015185604001518560405160200161204e959493929190614589565b604051602081830303815290604052905061206881612e39565b6040516020016120789190614654565b604051602081830303815290604052935050505092915050565b60007f80ac58cd000000000000000000000000000000000000000000000000000000007bffffffffffffffffffffffffffffffffffffffffffffffffffffffff1916827bffffffffffffffffffffffffffffffffffffffffffffffffffffffff1916148061215d57507f5b5e139f000000000000000000000000000000000000000000000000000000007bffffffffffffffffffffffffffffffffffffffffffffffffffffffff1916827bffffffffffffffffffffffffffffffffffffffffffffffffffffffff1916145b8061216d575061216c82612e66565b5b9050919050565b60006002600083815260200190815260200160002060009054906101000a900473ffffffffffffffffffffffffffffffffffffffff169050919050565b80806121ea5750600073ffffffffffffffffffffffffffffffffffffffff168273ffffffffffffffffffffffffffffffffffffffff1614155b1561231e5760006121fa84611992565b9050600073ffffffffffffffffffffffffffffffffffffffff168373ffffffffffffffffffffffffffffffffffffffff161415801561226557508273ffffffffffffffffffffffffffffffffffffffff168173ffffffffffffffffffffffffffffffffffffffff1614155b8015612278575061227681846117b7565b155b156122ba57826040517fa9fbf51f0000000000000000000000000000000000000000000000000000000081526004016122b19190613a93565b60405180910390fd5b811561231c57838573ffffffffffffffffffffffffffffffffffffffff168273ffffffffffffffffffffffffffffffffffffffff167f8c5be1e5ebec7d5bd14f71427d1e84f3dd0314c0f7b2291e5b200ac8c7c3b92560405160405180910390a45b505b836004600085815260200190815260200160002060006101000a81548173ffffffffffffffffffffffffffffffffffffffff021916908373ffffffffffffffffffffffffffffffffffffffff16021790555050505050565b600080612384858585612ed0565b9050600073ffffffffffffffffffffffffffffffffffffffff168173ffffffffffffffffffffffffffffffffffffffff16036123c8576123c3846130ea565b612407565b8473ffffffffffffffffffffffffffffffffffffffff168173ffffffffffffffffffffffffffffffffffffffff1614612406576124058185613133565b5b5b600073ffffffffffffffffffffffffffffffffffffffff168573ffffffffffffffffffffffffffffffffffffffff1603612449576124448461321e565b612488565b8473ffffffffffffffffffffffffffffffffffffffff168173ffffffffffffffffffffffffffffffffffffffff16146124875761248685856132ef565b5b5b809150509392505050565b61249b6137e6565b600060ff168260ff16036125a6576040518060a001604052806040518060400160405280600681526020017f424c495050590000000000000000000000000000000000000000000000000000815250815260200160405180606001604052806037815260200161490f6037913981526020016040518060800160405280604281526020016149466042913981526020016040518060400160405280600c81526020017f4d7974686963204275727374000000000000000000000000000000000000000081525081526020016040518060400160405280600781526020017f4d797374657279000000000000000000000000000000000000000000000000008152508152509050612cf5565b600160ff168260ff16036126b1576040518060a001604052806040518060400160405280600481526020017f495050590000000000000000000000000000000000000000000000000000000081525081526020016040518060600160405280603b8152602001614ac2603b913981526020016040518060800160405280604281526020016148cd6042913981526020016040518060400160405280600c81526020017f56657264616e742041757261000000000000000000000000000000000000000081525081526020016040518060400160405280600681526020017f4e617475726500000000000000000000000000000000000000000000000000008152508152509050612cf5565b600260ff168260ff16036127bc576040518060a001604052806040518060400160405280600581526020017f42495050590000000000000000000000000000000000000000000000000000008152508152602001604051806060016040528060358152602001614bf5603591398152602001604051806080016040528060428152602001614c5e6042913981526020016040518060400160405280600d81526020017f5175616e74756d2050756c73650000000000000000000000000000000000000081525081526020016040518060400160405280600481526020017f54656368000000000000000000000000000000000000000000000000000000008152508152509050612cf5565b600360ff168260ff16036128c7576040518060a001604052806040518060400160405280600681526020017f544849505059000000000000000000000000000000000000000000000000000081525081526020016040518060600160405280603b8152602001614b78603b913981526020016040518060800160405280604281526020016149ca6042913981526020016040518060400160405280600e81526020017f4368726f6d61746963205761766500000000000000000000000000000000000081525081526020016040518060400160405280600381526020017f41727400000000000000000000000000000000000000000000000000000000008152508152509050612cf5565b600460ff168260ff16036129d2576040518060a001604052806040518060400160405280600681526020017f53544950505900000000000000000000000000000000000000000000000000008152508152602001604051806060016040528060348152602001614c2a603491398152602001604051806080016040528060428152602001614ca06042913981526020016040518060400160405280600d81526020017f5265736f6e616e74204563686f0000000000000000000000000000000000000081525081526020016040518060400160405280600581526020017f4d757369630000000000000000000000000000000000000000000000000000008152508152509050612cf5565b600560ff168260ff1603612add576040518060a001604052806040518060400160405280600681526020017f524149505059000000000000000000000000000000000000000000000000000081525081526020016040518060600160405280603b8152602001614b3d603b91398152602001604051806080016040528060428152602001614bb36042913981526020016040518060400160405280601081526020017f4368616d70696f6e27732044726976650000000000000000000000000000000081525081526020016040518060400160405280600681526020017f53706f72747300000000000000000000000000000000000000000000000000008152508152509050612cf5565b600660ff168260ff1603612be8576040518060a001604052806040518060400160405280600581526020017f4d495050590000000000000000000000000000000000000000000000000000008152508152602001604051806060016040528060398152602001614a0c6039913981526020016040518060800160405280604281526020016149886042913981526020016040518060400160405280600c81526020017f417263616465205375726765000000000000000000000000000000000000000081525081526020016040518060400160405280600681526020017f47616d696e6700000000000000000000000000000000000000000000000000008152508152509050612cf5565b6040518060a001604052806040518060400160405280600781526020017f556e6b6e6f776e0000000000000000000000000000000000000000000000000081525081526020016040518060400160405280601481526020017f556e6b6e6f776e204950505920656e746974792e00000000000000000000000081525081526020016040518060200160405280600081525081526020016040518060400160405280600981526020017f556e646566696e6564000000000000000000000000000000000000000000000081525081526020016040518060400160405280600781526020017f4d7973746572790000000000000000000000000000000000000000000000000081525081525090505b919050565b60606000612d0783612493565b9050600060ff168360ff1603612d38576040518060a00160405280607d8152602001614a45607d9139915050612d66565b80608001518160600151604051602001612d539291906147aa565b6040516020818303038152906040529150505b919050565b606060006001612d7a8461337a565b01905060008167ffffffffffffffff811115612d9957612d98613e88565b5b6040519080825280601f01601f191660200182016040528015612dcb5781602001600182028036833780820191505090505b509050600082602083010190505b600115612e2e578080600190039150507f3031323334353637383961626364656600000000000000000000000000000000600a86061a8153600a8581612e2257612e21614294565b5b04945060008503612dd9575b819350505050919050565b6060612e5f82604051806060016040528060408152602001614afd6040913960016134cd565b9050919050565b60007f01ffc9a7000000000000000000000000000000000000000000000000000000007bffffffffffffffffffffffffffffffffffffffffffffffffffffffff1916827bffffffffffffffffffffffffffffffffffffffffffffffffffffffff1916149050919050565b600080612edc84612174565b9050600073ffffffffffffffffffffffffffffffffffffffff168373ffffffffffffffffffffffffffffffffffffffff1614612f1e57612f1d818486613661565b5b600073ffffffffffffffffffffffffffffffffffffffff168173ffffffffffffffffffffffffffffffffffffffff1614612faf57612f606000856000806121b1565b6001600360008373ffffffffffffffffffffffffffffffffffffffff1673ffffffffffffffffffffffffffffffffffffffff168152602001908152602001600020600082825403925050819055505b600073ffffffffffffffffffffffffffffffffffffffff168573ffffffffffffffffffffffffffffffffffffffff1614613032576001600360008773ffffffffffffffffffffffffffffffffffffffff1673ffffffffffffffffffffffffffffffffffffffff168152602001908152602001600020600082825401925050819055505b846002600086815260200190815260200160002060006101000a81548173ffffffffffffffffffffffffffffffffffffffff021916908373ffffffffffffffffffffffffffffffffffffffff160217905550838573ffffffffffffffffffffffffffffffffffffffff168273ffffffffffffffffffffffffffffffffffffffff167fddf252ad1be2c89b69c2b068fc378daa952ba7f163c4a11628f55a4df523b3ef60405160405180910390a4809150509392505050565b6008805490506009600083815260200190815260200160002081905550600881908060018154018082558091505060019003906000526020600020016000909190919091505550565b600061313e836113c9565b90506000600760008481526020019081526020016000205490506000600660008673ffffffffffffffffffffffffffffffffffffffff1673ffffffffffffffffffffffffffffffffffffffff16815260200190815260200160002090508282146131ea5760008160008581526020019081526020016000205490508082600085815260200190815260200160002081905550826007600083815260200190815260200160002081905550505b6007600085815260200190815260200160002060009055806000848152602001908152602001600020600090555050505050565b6000600160088054905061323291906147f3565b905060006009600084815260200190815260200160002054905060006008838154811061326257613261614122565b5b90600052602060002001549050806008838154811061328457613283614122565b5b9060005260206000200181905550816009600083815260200190815260200160002081905550600960008581526020019081526020016000206000905560088054806132d3576132d2614827565b5b6001900381819060005260206000200160009055905550505050565b600060016132fc846113c9565b61330691906147f3565b905081600660008573ffffffffffffffffffffffffffffffffffffffff1673ffffffffffffffffffffffffffffffffffffffff168152602001908152602001600020600083815260200190815260200160002081905550806007600084815260200190815260200160002081905550505050565b600080600090507a184f03e93ff9f4daa797ed6e38ed64bf6a1f01000000000000000083106133d8577a184f03e93ff9f4daa797ed6e38ed64bf6a1f01000000000000000083816133ce576133cd614294565b5b0492506040810190505b6d04ee2d6d415b85acef81000000008310613415576d04ee2d6d415b85acef8100000000838161340b5761340a614294565b5b0492506020810190505b662386f26fc10000831061344457662386f26fc10000838161343a57613439614294565b5b0492506010810190505b6305f5e100831061346d576305f5e100838161346357613462614294565b5b0492506008810190505b612710831061349257612710838161348857613487614294565b5b0492506004810190505b606483106134b557606483816134ab576134aa614294565b5b0492506002810190505b600a83106134c4576001810190505b80915050919050565b606060008451036134ef5760405180602001604052806000815250905061365a565b6000826135215760036002865160046135089190614856565b6135129190614898565b61351c91906142c3565b613548565b6003600286516135319190614898565b61353b91906142c3565b60046135479190614856565b5b905060008167ffffffffffffffff81111561356657613565613e88565b5b6040519080825280601f01601f1916602001820160405280156135985781602001600182028036833780820191505090505b50905060018501602082018788518901602081018051600082525b8284101561360e576003840193508351603f8160121c168701518653600186019550603f81600c1c168701518653600186019550603f8160061c168701518653600186019550603f81168701518653600186019550506135b3565b808252891561364e5760038c51066001811461363157600281146136445761364c565b603d6001870353603d600287035361364c565b603d60018703535b505b50505050505080925050505b9392505050565b61366c838383613725565b61372057600073ffffffffffffffffffffffffffffffffffffffff168373ffffffffffffffffffffffffffffffffffffffff16036136e157806040517f7e2732890000000000000000000000000000000000000000000000000000000081526004016136d89190613afd565b60405180910390fd5b81816040517f177e802f0000000000000000000000000000000000000000000000000000000081526004016137179291906141ff565b60405180910390fd5b505050565b60008073ffffffffffffffffffffffffffffffffffffffff168373ffffffffffffffffffffffffffffffffffffffff16141580156137dd57508273ffffffffffffffffffffffffffffffffffffffff168473ffffffffffffffffffffffffffffffffffffffff16148061379e575061379d84846117b7565b5b806137dc57508273ffffffffffffffffffffffffffffffffffffffff166137c483611a1a565b73ffffffffffffffffffffffffffffffffffffffff16145b5b90509392505050565b6040518060a0016040528060608152602001606081526020016060815260200160608152602001606081525090565b6000604051905090565b600080fd5b600080fd5b600073ffffffffffffffffffffffffffffffffffffffff82169050919050565b600061385482613829565b9050919050565b61386481613849565b811461386f57600080fd5b50565b6000813590506138818161385b565b92915050565b60006020828403121561389d5761389c61381f565b5b60006138ab84828501613872565b91505092915050565b60008115159050919050565b6138c9816138b4565b82525050565b60006020820190506138e460008301846138c0565b92915050565b60007fffffffff0000000000000000000000000000000000000000000000000000000082169050919050565b61391f816138ea565b811461392a57600080fd5b50565b60008135905061393c81613916565b92915050565b6000602082840312156139585761395761381f565b5b60006139668482850161392d565b91505092915050565b600081519050919050565b600082825260208201905092915050565b60005b838110156139a957808201518184015260208101905061398e565b60008484015250505050565b6000601f19601f8301169050919050565b60006139d18261396f565b6139db818561397a565b93506139eb81856020860161398b565b6139f4816139b5565b840191505092915050565b60006020820190508181036000830152613a1981846139c6565b905092915050565b6000819050919050565b613a3481613a21565b8114613a3f57600080fd5b50565b600081359050613a5181613a2b565b92915050565b600060208284031215613a6d57613a6c61381f565b5b6000613a7b84828501613a42565b91505092915050565b613a8d81613849565b82525050565b6000602082019050613aa86000830184613a84565b92915050565b60008060408385031215613ac557613ac461381f565b5b6000613ad385828601613872565b9250506020613ae485828601613a42565b9150509250929050565b613af781613a21565b82525050565b6000602082019050613b126000830184613aee565b92915050565b600081519050919050565b600082825260208201905092915050565b6000819050602082019050919050565b613b4d81613a21565b82525050565b6000613b5f8383613b44565b60208301905092915050565b6000602082019050919050565b6000613b8382613b18565b613b8d8185613b23565b9350613b9883613b34565b8060005b83811015613bc9578151613bb08882613b53565b9750613bbb83613b6b565b925050600181019050613b9c565b5085935050505092915050565b60006020820190508181036000830152613bf08184613b78565b905092915050565b600080600060608486031215613c1157613c1061381f565b5b6000613c1f86828701613872565b9350506020613c3086828701613872565b9250506040613c4186828701613a42565b9150509250925092565b600081519050919050565b600082825260208201905092915050565b6000819050602082019050919050565b600082825260208201905092915050565b6000613c938261396f565b613c9d8185613c77565b9350613cad81856020860161398b565b613cb6816139b5565b840191505092915050565b6000613ccd8383613c88565b905092915050565b6000602082019050919050565b6000613ced82613c4b565b613cf78185613c56565b935083602082028501613d0985613c67565b8060005b85811015613d455784840389528151613d268582613cc1565b9450613d3183613cd5565b925060208a01995050600181019050613d0d565b50829750879550505050505092915050565b60006080820190508181036000830152613d718187613b78565b90508181036020830152613d858186613b78565b90508181036040830152613d998185613ce2565b9050613da86060830184613aee565b95945050505050565b60006080820190508181036000830152613dcb8187613b78565b90508181036020830152613ddf8186613b78565b90508181036040830152613df38185613ce2565b90508181036060830152613e078184613ce2565b905095945050505050565b613e1b816138b4565b8114613e2657600080fd5b50565b600081359050613e3881613e12565b92915050565b60008060408385031215613e5557613e5461381f565b5b6000613e6385828601613872565b9250506020613e7485828601613e29565b9150509250929050565b600080fd5b600080fd5b7f4e487b7100000000000000000000000000000000000000000000000000000000600052604160045260246000fd5b613ec0826139b5565b810181811067ffffffffffffffff82111715613edf57613ede613e88565b5b80604052505050565b6000613ef2613815565b9050613efe8282613eb7565b919050565b600067ffffffffffffffff821115613f1e57613f1d613e88565b5b613f27826139b5565b9050602081019050919050565b82818337600083830152505050565b6000613f56613f5184613f03565b613ee8565b905082815260208101848484011115613f7257613f71613e83565b5b613f7d848285613f34565b509392505050565b600082601f830112613f9a57613f99613e7e565b5b8135613faa848260208601613f43565b91505092915050565b60008060008060808587031215613fcd57613fcc61381f565b5b6000613fdb87828801613872565b9450506020613fec87828801613872565b9350506040613ffd87828801613a42565b925050606085013567ffffffffffffffff81111561401e5761401d613824565b5b61402a87828801613f85565b91505092959194509250565b600060608201905081810360008301526140508186613b78565b905081810360208301526140648185613b78565b905081810360408301526140788184613ce2565b9050949350505050565b600080604083850312156140995761409861381f565b5b60006140a785828601613872565b92505060206140b885828601613872565b9150509250929050565b7f4e487b7100000000000000000000000000000000000000000000000000000000600052602260045260246000fd5b6000600282049050600182168061410957607f821691505b60208210810361411c5761411b6140c2565b5b50919050565b7f4e487b7100000000000000000000000000000000000000000000000000000000600052603260045260246000fd5b7f4e487b7100000000000000000000000000000000000000000000000000000000600052601160045260246000fd5b600061418b82613a21565b91507fffffffffffffffffffffffffffffffffffffffffffffffffffffffffffffffff82036141bd576141bc614151565b5b600182019050919050565b60006060820190506141dd6000830186613a84565b6141ea6020830185613aee565b6141f76040830184613a84565b949350505050565b60006040820190506142146000830185613a84565b6142216020830184613aee565b9392505050565b7f4f6e6c7920426c696e64426f782063616e206d696e7400000000000000000000600082015250565b600061425e60168361397a565b915061426982614228565b602082019050919050565b6000602082019050818103600083015261428d81614251565b9050919050565b7f4e487b7100000000000000000000000000000000000000000000000000000000600052601260045260246000fd5b60006142ce82613a21565b91506142d983613a21565b9250826142e9576142e8614294565b5b828204905092915050565b7f426c696e64426f7820636f6e74726163742063616e6e6f74206265207a65726f60008201527f2061646472657373000000000000000000000000000000000000000000000000602082015250565b600061435060288361397a565b915061435b826142f4565b604082019050919050565b6000602082019050818103600083015261437f81614343565b9050919050565b600081519050919050565b600082825260208201905092915050565b60006143ad82614386565b6143b78185614391565b93506143c781856020860161398b565b6143d0816139b5565b840191505092915050565b60006080820190506143f06000830187613a84565b6143fd6020830186613a84565b61440a6040830185613aee565b818103606083015261441c81846143a2565b905095945050505050565b60008151905061443681613916565b92915050565b6000602082840312156144525761445161381f565b5b600061446084828501614427565b91505092915050565b7f7b226e616d65223a220000000000000000000000000000000000000000000000815250565b600081905092915050565b60006144a58261396f565b6144af818561448f565b93506144bf81856020860161398b565b80840191505092915050565b7f2023000000000000000000000000000000000000000000000000000000000000815250565b7f222c226465736372697074696f6e223a22000000000000000000000000000000815250565b7f222c22696d616765223a22000000000000000000000000000000000000000000815250565b7f222c2261747472696275746573223a5b00000000000000000000000000000000815250565b7f5d7d000000000000000000000000000000000000000000000000000000000000815250565b600061459482614469565b6009820191506145a4828861449a565b91506145af826144cb565b6002820191506145bf828761449a565b91506145ca826144f1565b6011820191506145da828661449a565b91506145e582614517565b600b820191506145f5828561449a565b91506146008261453d565b601082019150614610828461449a565b915061461b82614563565b6002820191508190509695505050505050565b7f646174613a6170706c69636174696f6e2f6a736f6e3b6261736536342c000000815250565b600061465f8261462e565b601d8201915061466f828461449a565b915081905092915050565b7f7b2274726169745f74797065223a2254696572222c2276616c7565223a22537460008201527f616e64617264227d2c7b2274726169745f74797065223a22416666696e69747960208201527f222c2276616c7565223a22000000000000000000000000000000000000000000604082015250565b60006146fc604b8361448f565b91506147078261467a565b604b82019050919050565b7f227d2c7b2274726169745f74797065223a22506f776572222c2276616c75652260008201527f3a22000000000000000000000000000000000000000000000000000000000000602082015250565b600061476e60228361448f565b915061477982614712565b602282019050919050565b7f227d000000000000000000000000000000000000000000000000000000000000815250565b60006147b5826146ef565b91506147c1828561449a565b91506147cc82614761565b91506147d8828461449a565b91506147e382614784565b6002820191508190509392505050565b60006147fe82613a21565b915061480983613a21565b925082820390508181111561482157614820614151565b5b92915050565b7f4e487b7100000000000000000000000000000000000000000000000000000000600052603160045260246000fd5b600061486182613a21565b915061486c83613a21565b925082820261487a81613a21565b9150828204841483151761489157614890614151565b5b5092915050565b60006148a382613a21565b91506148ae83613a21565b92508282019050808211156148c6576148c5614151565b5b9291505056fe697066733a2f2f626166796265696164356e707476776d6863676977356a3366626f6c656e6a7132726b75346e6770666a6d7271663471626b79326b656666696d6154686520656c757369766520426c697070792c2072756d6f72656420746f2062656e642070726f626162696c69747920697473656c662e697066733a2f2f626166796265696768686561616970767a6935697873377263377765336e7a66666b7871636d6b673264776c6b7937366d657435757773787a6f65697066733a2f2f62616679626569686936346c7a616d796b7668677365786e6875683574766c69727676696c67616b3776336d6832377637356b766b756c78716961697066733a2f2f6261667962656967637173356d7468737a746a776e69373272326462367a3468347762627a737235737362357070726b73323666326f76656a6b694d49505059206c6576656c7320757020666173746572207468616e20616e79206368616c6c656e67657220696e20746865206172636164652e7b2274726169745f74797065223a2254696572222c2276616c7565223a2248696464656e227d2c7b2274726169745f74797065223a22416666696e697479222c2276616c7565223a224d797374657279227d2c7b2274726169745f74797065223a22506f776572222c2276616c7565223a224c6567656e64617279227d49505059207468726976657320696e206c75736820666f72657374732c206272696e67696e672063616c6d20746f2065766572792067726f76652e4142434445464748494a4b4c4d4e4f505152535455565758595a6162636465666768696a6b6c6d6e6f707172737475767778797a303132333435363738392b2f52414950505920737072696e7473207061737420726976616c732c2063686173696e6720746865206e657874206172656e6120766963746f72792e544849505059207061696e7473207265616c697479207769746820626f6c64207374726f6b657320616e6420656e646c65737320766973696f6e2e697066733a2f2f6261666b72656968676b3478353467353472666376696b336a646532776f366c6366696d7276617a616f77616b35356b616e36697069376f64356142495050592070756c7365732077697468206e656f6e20656e657267792066726f6d2066757475726520636974797363617065732e535449505059206861726d6f6e697a657320736f756e64776176657320696e746f206c756d696e6f7573206d656c6f646965732e697066733a2f2f62616679626569686933363469357265373537646f3768336e7563746d673736376b7862713662663575776173717a327a34776f676a7578727a34697066733a2f2f626166796265696172657777776572696c36677333726571326e676f6670627871726263356c6b327a7a793366733261357a7032737a7566787569a264697066735822122065bcca1831a6fb5eb300410ae4073e726b756b1ee77e7d1715f2b852abbff4da64736f6c634300081c0033",
  "linkReferences": {},
  "deployedLinkReferences": {}
}